:1020000000800020F1860000D9860000D9860000FB
:1020100000000000000000000000000000000000C0
:10202000000000000000000000000000D986000051
:102030000000000000000000D98600004587000075
:10204000D9860000D9860000D9860000D535000069
:10205000CD220000D9860000C14B0000DD860000C3
:10206000D986000025860000D9860000D9860000A8
:10207000FD850000D986000035860000E13C0000A7
:102080009D3D0000593E00006D360000D93600002D
:1020900045370000D9860000D9860000D9860000A7
:1020A000D9860000D9860000D9860000D9860000B4
:1020B0000000000010B5064C2378002B07D1054B1B
:1020C000002B02D0044800E000BF0123237010BDA4
:1020D0005001002000000000B410010008B5084BBA
:1020E000002B03D00748084900E000BF07480368F9
:1020F000002B03D0064B002B00D0984708BDC046EC
:1021000000000000B410010054010020480100202C
:102110000000000042680A704268130A4B70C388CE
:102120008B70C379CB7083680B718268130A4B7113
:1021300043898B71C37A0820CB7170470A7842605B
:102140004B781B02134343608A78120413434360A5
:10215000CA781206134343600A7982604B791B02E6
:10216000134383608A79120413438360CA79120689
:1021700013438360082070470048704798FC0000B4
:1021800000487047A6FC000000487047C7FC0000EC
:1021900000487047E0FC00000048704701FD000067
:1021A0000048704714FD00000048704781FE0000A1
:1021B0000048704735FD00009F23DB00C05C70477E
:1021C00010B5054B041C0360BA235B00C01802F075
:1021D00011FE201C10BDC046D801010070B5064D8F
:1021E00001262B68054C334203D1201C01F00AF96B
:1021F0002E60201C70BDC046900700206C0100209E
:1022000070B5064D01262B68054C334203D1201CC6
:1022100001F00AFA2E60201C70BDC0468C07002019
:1022200040060020F8B5234F386803685B6898477C
:1022300000283DD1204B186804F0D2FF002837D188
:102240001E4E306803685B689847002830D11C4DEB
:10225000286805F0A1FD00282AD11A4C20680368DF
:102260005B689847002823D1386803681B68984743
:1022700000281DD1306803681B689847002817D1D3
:10228000286805F041FD002812D1206803681B680A
:10229000984700280CD1FFF7A1FF00F0D3FF0028DA
:1022A00006D1094B1868002802D003685B6898477C
:1022B000F8BDC046200F0020501000206011002003
:1022C000000E0020240F0020C008002008B5FFF7F2
:1022D00085FF01F05BF9FFF793FF02F001FC08BDF9
:1022E00010B50023DA000C1CD440C4540133042B75
:1022F000F8D110BDF7B58388051C0B7083880C1CC2
:102300001B0A4B7080680BF0D9FB061C311CA01C0B
:10231000FFF7E6FFA968321CA01D0BF0BFFAB31D42
:10232000E86801930BF0CAFB019B071C391CE018FD
:102330000A36FFF7D5FFE9683A1CA0190BF0AEFA90
:1023400028690BF0BBFBF719061C311CE019043798
:10235000FFF7C6FFE0192969321C0BF09FFA6B6981
:10236000BE19A3551A0AA41962701A0C1B0E301D4F
:10237000A270E370FEBD70B50379051C0B70806818
:102380000E1C0BF09BFB041C211C701CFFF7A8FF0C
:10239000701DA968221C0BF081FA601D70BDF7B595
:1023A000041C40680D1C087061682A1D0B0A6B70C4
:1023B000E3880021AB70E379EB706068531B8142C6
:1023C0000CD2E0688B001B580131180A1370507052
:1023D000180C1B0E9070D3700432EEE72169EA18D6
:1023E000E95420690433010A5170618AEB18917035
:1023F000E17CD170002221695E1B8A420CD2A06967
:10240000910009580132080A19705870080C090E19
:102410009870D9700433EEE7E269AB19AA55E06908
:102420000436020A5A70E28B00279A70E27FDA7053
:10243000E069874216D2626AB900505801910BF0E8
:102440003DFB00900099A819FFF74AFF636A019AC3
:1024500004369958A819009A0BF020FA009B01370E
:102460009E19E5E7301CFEBD10B500230360CC5C6F
:10247000DA009440221C0468013322430260042BDA
:10248000F5D110BD7FB50B780C1C83804A78051CF4
:10249000120213438380023101A8FFF7E5FF019A7E
:1024A000A31D961D191BB14204D21878591E08703D
:1024B0000133F7E7A21800235371631DAB60A11924
:1024C00002A8FFF7D1FF029B321DD618131CB3429E
:1024D00005D2E05CE118013908700133F7E7A11972
:1024E000013A4B1E0020A218187003A8EA60FFF7FB
:1024F000BBFF039B0436F018331C834205D2E15C1A
:10250000E218013A11700133F7E72318013E5A1E11
:102510000021A61911702E6159789A7809021204C7
:102520001143225C04301143DA780B1C120613436A
:102530006B6104B070BD73B50B780C1C0371051C86
:10254000013101A8FFF790FF019A631D501D191B6F
:10255000814204D21E78591E0E700133F7E7A2188B
:10256000002304341371AC6076BDF7B54E788A78D9
:102570000B781204360216431E43CB7842681B06C2
:10258000041C0D1C1E43964204D9B100C0680BF018
:102590004BFAE06066602F1D002662687B1B964246
:1025A00015D27A78BB7812021B0413433A78B00034
:1025B0001343FA78211C12061343A360E368083121
:1025C000181804220BF06AF901360437E5E7EA1817
:1025D00057789078E95C3F020004D27807431E1DCB
:1025E00023690F43120617439F4204D9B900A0691B
:1025F0000BF01AFAA0612761AE1900272269731B3C
:10260000974215D27278B37812021B0413433278C2
:10261000B8001343F278211C12061343A2696361C8
:102620001018143104220BF039F901370436E5E7AC
:10263000EA1856789078E95C36020004D2780643AE
:102640001F1DE3690E43120616439E4204D9B100D2
:10265000606A0BF0E9F96062E6610026E3699E4278
:1026600020D2E91901A8FFF7FFFE019B3A1DD718F8
:10267000131CBB4205D2E85CE9180139087001332C
:10268000F7E7EB19013B0021013A1970AA18226201
:10269000626AB000211C1018203104220BF0FEF8F1
:1026A0000136DBE7381CFEBD1FB5054C01AB0392BC
:1026B000026819710194146807211A1CA0471FBDF4
:1026C00058FC0000F0B5894901230A6889B013401D
:1026D000874C884D43D1884A88482260E122120203
:1026E000A2609F22D200A354854A6560A050A22216
:1026F000D200A350A322D200A350824AA350824A00
:10270000A350A522D200A350A622D200A3507F4AF4
:10271000E0188018043300220260642BF7D1131CE8
:102720009022E018D2008018043300220260642B4B
:10273000F6D1A01800230377013280208000824266
:10274000F7D18722E018920080180022027001332E
:10275000802080008342F4D10123A2610B606C4E83
:102760006C48346006F034F86068A16806F006FE34
:10277000694A0023A3509D22D200A3509E22D2007A
:10278000A350664A3068A3500121654AFFF78CFFC9
:10279000281C06F0F5FD0028FAD0624D01262F68AE
:1027A000614C374016D15A4B1B680793FFF728FD41
:1027B0000D2301930A230293FA23021C0799009721
:1027C000201C9B0003F06AF9201C5849584A2E60CF
:1027D00008F0C2F8574F584B3A681C600124224257
:1027E00017D14B4A554E126833680792544D234215
:1027F00003D1281C01F03CFA34600124002300932B
:10280000019402944F4807992A1C0A2303F04AFFB7
:102810003C604D4B4B4A4D4D1A602B6801264C4C89
:1028200033420AD13A4AE1231268201C0692111C55
:102830005B02484A04F01EFD2E60474B474D1C606A
:102840002B680126464C334208D1314A201C1268BD
:102850000592111C434A05F0E1F92E60424B434FAB
:102860001C603B680124234213D1294B404E1B6856
:10287000326807933F4D224203D1281C00F00AFF23
:1028800034600A233C4807992A1C05F015F90123F6
:102890003B603A4C384B2360FFF7A0FC1C4A1168A0
:1028A00000F092FC244B36491868364B364A0093A8
:1028B000364B0193364B03F0E5F9234A354B10684C
:1028C0003549364A0093364B03F084FD224B186895
:1028D00004F084F9244B3349186805F0D1F92068D5
:1028E0003149324A04F080FF09B0F0BD180F0020D2
:1028F000C8080020002B002088FC000070FC0000AD
:102900000C0500001C050000240500001C0400004C
:10291000C0080020B80B0000E4040000EC04000034
:1029200056FD00005C11002064110020C121000050
:1029300000000020040E0020200F0020840700204B
:10294000E00200205410002060110020FC0D002047
:10295000940700206826002050100020C4080020A2
:10296000080E0020A4280020000E00201C0F0020CC
:10297000880700209C010020280F0020240F002041
:1029800068FD0000B0FD00007FFD0000C8FD0000F4
:1029900097FD000001FE0000E1FD0000E6FD0000E3
:1029A000F4FD00000DFE00001EFE000032FE0000DF
:1029B00070B5041C0E1E632E05DD9F23DB00C35C77
:1029C0000020834246D01368101C234A1B68A118BC
:1029D00098478723FF229B00E254204BFE22E254BB
:1029E0001F4AC3B2A3541F4982B2120A6254D318B9
:1029F0008821DB43890063541B4B0022E6541B4BA8
:102A0000360AE6540523811D994207DB8725E11824
:102A1000AD004919097801335218F4E7114B051C30
:102A20002018C018D2438023083502719B009D42B4
:102A300009DC6068872203689200A1185B682A1C81
:102A40009847281C06E0201C0321094A0125FFF7AE
:102A50002BFE684270BDC046230200001D0200002C
:102A60001E0200001F0200002102000022020000DE
:102A700048FE00001FB5074B0A2101930023029373
:102A80000393036801AA1B68041C984705F068FEBD
:102A9000E0601FBD28FC0000F0B52D4B87B000930F
:102AA0002C4B002269468A8002930393049305927B
:102AB0009023294ADB00041C8518C6182B68002BBC
:102AC00019D09A68694658688A8019680368029123
:102AD0009B6898472B68039058680368DB689847A1
:102AE00080239B002A6805932368049011691B6862
:102AF000201C6A4698470435B542DFD1174AA6180C
:102B0000286800281AD0416882686B46998003685B
:102B100002929B689847039028680368DB6898478F
:102B200080239B0004900593286823681F6803682E
:102B30005B6898476A46011C201CB8470435B542BB
:102B4000DED19F230122DB00E25407B0F0BDC04676
:102B500040FC0000FF0D01001C040000E404000024
:102B6000F0B5224B85B001930023041C0E1C029388
:102B7000039305F0F5FDE368311CC51A01A8FFF7C2
:102B8000DDFAFA21281C890007F04EFF029BFA218A
:102B9000C01802908900281C07F08AFF144D039B7F
:102BA0006943C918039105F0DBFDFA218900061C71
:102BB00007F03AFF029F0F4B013F3F1A2761FA21AE
:102BC000039F301C8900FF1807F072FF4D43201C43
:102BD0007F1B211C14316761103005F0F3F905F0FB
:102BE000BFFDA023DB00E05005B0F0BD28FC0000D5
:102BF00040420F0000CA9A3BF8B5041C05F0B0FD36
:102C0000A023DB00E2587B4B061C821A9A4203D9B0
:102C10009F230022DB00E254774FE359002B05D0BD
:102C2000764BE3589E4201D90023E351A169002964
:102C300006D1606803685B699847002807DAC4E03A
:102C400005F08EFDA269801B9042F2D9CEE06C4A5D
:102C5000E559A358C118A150674B072D0FD19E21EC
:102C6000C9006258551C6550A2189D211077C900F3
:102C70006258013A6250002AD8D1082208E0002D9B
:102C800012D1FF2806D10122E250321C5B4B1432D4
:102C9000E250CBE705F064FD5A4B801B9842C5D942
:102CA0009F23DB00E554A1E0012D0DD10222FE2877
:102CB000EED00022E2509F23DB00E35C9342B5D1CB
:102CC000201CFFF7D7FEB1E7022D08D19D21C900D6
:102CD00060509E21C9000025655003211BE0032D93
:102CE00007D19D22D200A15800020818A05004224A
:102CF000CEE7042D0AD1444B0B4003D5434A013B98
:102D000013430133FF2B8FD105238EE7052D05D10A
:102D10003F4960500621E150A05087E7062D0ED1B3
:102D20003B4A0002A1580818A0500722E2509D23F8
:102D3000DB00E358002B00D078E7082375E7082D67
:102D400000D073E70023E3512F4B0B4003D52F4AEC
:102D5000013B13430133FF2B00D067E72C4BE358B3
:102D6000002B0CD1201CFFF785FE201CFFF794FEE2
:102D7000284B0125E650A023DB00E65037E00A2B64
:102D800005D1211C201C1C31FFF7EAFE4EE7062B63
:102D900008D1214A211CA0181C31FFF7E6FB0122B3
:102DA000A12303E00B2B04D100229F23DB00E2547C
:102DB0003CE7BC339B001859002800D136E7036874
:102DC000211C1B681C31984730E79F23DB00E35C24
:102DD0000025AB420CD00F4FE359F21A0F4B9A4229
:102DE00006D9201CFFF746FEE65101E002256D42A0
:102DF000281CF8BDF82A0000E404000004050000C7
:102E0000F404000088130000FF00008000FFFFFFB3
:102E1000EC040000FC0400000C050000C4090000E4
:102E200038B5041C04300D1CFFF774F92269291809
:102E30002A5422691030130A4B70638A8B70E37C2A
:102E4000CB70A38A0B711B0A4B71E38A8B711B0A2F
:102E5000CB71238B0B721B0A4B72638B8B721B0A19
:102E6000CB72A38B0B731B0A4B73E38B8B731B0A05
:102E7000CB7338BD38B5041C04300D1CFFF75EF968
:102E80002A5C291822614B7810301B0213432361FE
:102E90008A78120413432361CA781206134323610C
:102EA0004B790A791B021343A382CB798A791B02DF
:102EB0001343E3824B7A0A7A1B0213432383CB7AB0
:102EC0008A7A1B02134363834B7B0A7B1B021343E7
:102ED000A383CB7B8A7B1B021343E38338BD0000B3
:102EE00000487047B8FE000000487047CAFE000066
:102EF00008B5FA20800005F06BFCFAE7F8B50F1C66
:102F00000699151C1C1C08F037FA0A49061C381CC7
:102F100008F032FA211C08F059FB011C301C08F0A3
:102F20002BFA291C07F0E0FE079A069B10605460FC
:102F30009360F8BD0D68533BF0B51F1C802387B02C
:102F40001B06C318041C059112984D490192009369
:102F500008F012FA169908F039FB0D99051C009833
:102F600008F00AFA179908F007FA10990290201C45
:102F700008F002FA291C08F0FFF9011C029807F07A
:102F8000B3FE019907F0B0FE11990190201C08F0E2
:102F9000F3F9291C08F0F0F90E990390009808F055
:102FA000EBF9179908F0E8F9039907F09DFE391C31
:102FB00007F09AFE0C990490009808F0DDF9179933
:102FC00008F0DAF90F99071C201C08F0D5F9291C24
:102FD00008F0D2F9011C381C07F086FE1799071C6F
:102FE000201C08F0C9F9019908F0C6F9011C381C29
:102FF00008F0ECFA291C071C201C08F0BDF9049904
:1030000008F0BAF9011C381C07F06EFE059907F0AC
:103010006BFE139907F068FE189E3060019B0E99B5
:103020007360049B201CB36008F0A6F9291C08F00B
:10303000A3F9011C029807F057FE0C9907F054FE03
:103040001499F0600D9807F04FFE0E9B306173618C
:103050001099009808F090F9179908F08DF90399E4
:1030600007F042FE0F9907F03FFE109BB061F3613D
:103070001198159907F038FE306207B0F0BDC046D0
:103080000D68533B031C10B5081C191C141C08F0D8
:103090009DFA206010BD10B5141C07F025FE011C20
:1030A000FE20800507F084FF206010BDF8B50F1CDE
:1030B000191C1D1C161C08F05FF9069C291C2060B9
:1030C000381C08F059F9291C6060301C08F054F9CC
:1030D000A060F8BDF8B50F1C191C1D1C161C08F0CB
:1030E0004BF9069907F000FE099C291C2060381C4A
:1030F00008F042F9079907F0F7FD291C6060301CC1
:1031000008F03AF9089907F0EFFDA060F8BDF7B5AF
:10311000061CFE200F1C8005311C1D1C019208F0AE
:1031200055FA061C311C281C08F026F9109C311C8D
:103130002060089808F020F9311C6060099808F0B8
:103140001BF980221206BF18291CA060381C08F049
:1031500013F90A9907F0C8FD0899E060381C08F0D7
:103160000BF90B9907F0C0FD09992061381C08F094
:1031700003F90C9907F0B8FD019B802212069E18F6
:10318000291C6061301C08F0F7F80D9907F0ACFDC0
:103190000899A061301C08F0EFF80E9907F0A4FD23
:1031A0000999E061301C08F0E7F80F9907F09CFDE1
:1031B0002062F7BD10B5031CC0680A1C046899683A
:1031C0002368984710BD0000F0B500292BD0164C9D
:1031D00001252368154A2B4004D1154E5360166013
:1031E00093602560134C01252668134B2E4004D1B3
:1031F000124F5A601F601E6125604260036000220A
:1032000090000F4C081800190068002808D1D01D44
:10321000FF30800008187D3243609A60D96002E078
:103220000132192AECD1F0BD5816002048160020B2
:1032300028FC0000541600205C1600201EFF000031
:103240001C04000070B50368041C057A002B0FD025
:103250004268002A0CD0002D0AD0C1685160016973
:10326000D86891600668996833689847002323728C
:10327000281C70BD0A4B08211A6807200A431A60EF
:10328000084B1A1C353211784A33014311701A78F1
:1032900001210A431A701A7802210A431A707047F2
:1032A0001C04004000440041144B08211A680A43E2
:1032B0001A60134B134A5A605A78D209FCD112494A
:1032C0000F4A51805A78D209FCD110490C4A5180DA
:1032D0005A78D209FCD10E49094A51805A78D2094C
:1032E000FCD10C49064A51805A78D209FCD10A49CE
:1032F000034A51805A78D209FCD170471804004023
:10330000000C0040040101000444000007440000D8
:103310001A4400001B4400001C4400000C4B022116
:103320001A680A431A600B4B822252001A818522C6
:1033300052001A81872252001A81892252001A8172
:103340001422FF321A818A2252001A817047C04625
:103350002004004000040042264B20211A680A4342
:103360001A60254B9A7AD209FBD11A8802218A4326
:103370001A80997A204AC909FBD11188012001439A
:103380001180997A1C4AC909FBD1118889B2118030
:10339000997A194AC909FBD111888020014311800B
:1033A0009A7AD209FCD114490A619A7AD209FCD1DD
:1033B0001249114A9161997A0F4AC909FBD1D17911
:1033C00001200143D171997A0B4AC909FBD1908838
:1033D00080214900014391809A7AD209FCD1084B9F
:1033E000C022920099580902090A995008221A60CD
:1033F0007047C04618040040001400400F2700002A
:1034000000E100E0F8B51A4B061C43616423038316
:10341000184B002501271C36011C041C077203628F
:1034200005604560C5600561C5612031301C04F050
:1034300093FDA562251C2435211C281C67622831B8
:1034400004F0C0FD231C2C330B22311C1A70281CE5
:1034500004F0E2FD201CFFF70DFF201CFFF724FF06
:10346000201CFFF75BFF201CFFF776FF201CF8BD38
:103470008096980040420F00C1607047044B0221C3
:103480001A880A431A809A7AD209FCD17047C0463A
:103490000014004010B5041C07485B001B5A201C98
:1034A0005A430B8B211D5A4300232360626004F0B2
:1034B00053FD201C10BDC0460EFF0000F7B540694B
:1034C0000E1C171C019000240A4B6200D15A01986F
:1034D00007F0AAFA311CE5B207F0A6FAB84207D302
:1034E0000134082CF0D10448C921FFF701FD251C47
:1034F000281CFEBD0EFF000022FF0000002330B597
:1035000003604360EFF3108372B6BFF35F8FBFF3C6
:103510004F8FBFF36F8F021C0C3130C930C283F361
:103520001088BFF35F8FBFF34F8FBFF36F8FBFF371
:103530005F8FBFF34F8FBFF36F8F30BD08B549006A
:1035400089B2FFF7BBFF08BD10B5041C211C0C306D
:103550001C3104F04BFD2369002B01D101232372A0
:1035600010BD0000C168426A914209D10269836AB4
:103570009A4205D1034B044A5A60DA68D105FCD45B
:103580007047C046000400420000010238B50F4CED
:10359000051C2C35236929780F220A409BB2134160
:1035A0001A1C01231A420FD0094A1288DA401A4223
:1035B00001D1FFF763FF29780F230B400121226916
:1035C00099400B1C1343236138BDC04600180040CE
:1035D0000014004070B5114B01241A7A22421CD00D
:1035E0001A7AD20919D080220D4E1C721A723368D1
:1035F0000C4D234203D1281CFFF704FF3460281C24
:10360000FFF7A2FF33680124234203D1281CFFF7F0
:10361000F9FE3460281CFFF7A5FF70BD00140040C0
:10362000900700206C01002013B50E2201A9002391
:103630004A700A4A041C0B708B7000F04FFA084B5A
:10364000C4222360074B92009858074901409950C3
:103650008022D202201C1A6016BDC046002C0042F7
:1036600068FF000000E100E0FFFF00FF70B5074DBC
:1036700001262B68064C334203D1201CFFF7D4FFF0
:103680002E602368201C5B68984770BD8C07002063
:103690004006002013B50322041C0B4901A80AF0C0
:1036A000FDF801A9201C094A00F018FA084BC422B1
:1036B0002360084B92009958201C0902090A99506E
:1036C000802212031A6016BDA0FF000000300042E5
:1036D00088FF000000E100E070B5074D01262B686F
:1036E000064C334203D1201CFFF7D4FF2E60236821
:1036F000201C5B68984770BD880700209C01002053
:1037000013B50322041C0B4901A80AF0C7F801A94C
:10371000201C094A00F0E2F9084BC5222360084B3F
:1037200092009958FF208143995080225203201C17
:103730001A6016BDC8FF000000340042B0FF000050
:1037400000E100E070B5074D01262B68064C3342BE
:1037500003D1201CFFF7D4FF2E602368201C5B6878
:10376000984770BDB41700207016002038B5041CAF
:10377000FC34636C051CDA7BD209FCD11A88022167
:103780008A431A80636CDA7BD209FCD12879E02263
:1037900019880002D20002400A431A80636CDA7B67
:1037A000D209FCD11A8860210A431A80636C102167
:1037B0009A798A439A71636CDA7BD209FCD19A793F
:1037C00020218A439A71636CDA7BD209FCD12A1CCE
:1037D00028321278002A08D12B68281C5B69984788
:1037E000EB8B626C5383636C08E09A7902210A4385
:1037F0009A71626CD37BDB09FCD1EDE7DA7BD209ED
:10380000FCD1597B202211435973636C997B0A4385
:103810009A73636CDA7BD209FCD11A8802210A43BD
:103820001A80626CD37BDB09FCD138BD38B5041C2F
:10383000FC34636CDA7BD209FCD11A8802218A43FA
:103840001A80636CDA7BD209FCD10579E0221988F1
:103850002D02D2002A400A431A80636CDA7BD20917
:10386000FCD11A8820210A431A80636CDA7BD209C2
:10387000FCD19A7910218A439A71636CDA7BD20960
:10388000FCD1021C28321278002A0DD003685B6933
:103890009847636C1022597B11435973636C997B71
:1038A0000A439A73636C08E09A7901210A439A717A
:1038B000626CD37BDB09FCD1E8E7DA7BD209FCD16F
:1038C0001A8802210A431A80626CD37BDB09FCD17F
:1038D00038BD10B5031CFC335A6C032314886409EB
:1038E0001C40012C02D100F08BFE06E01288520928
:1038F0001340032B01D100F086FE10BD13B59C24AC
:10390000640001553A24FF3402550124009400F06C
:10391000FFFF13BDF8B5051C2C1C00F021FFFC3483
:10392000281C666CAF8900F046FF616B7F18013F71
:10393000C719BFB23783A26B616B5318A36300230F
:103940006363F8BD031CFC33F0B5041C58688BB0EE
:1039500084460120844462465A601B181B78081C68
:103960005A425341DBB2039304AB019306AB60C8E8
:1039700060C308AB05C905C3271CF4373868614626
:10398000049118214143251CF8352E6861180096D2
:10399000039E0431029005AB01981E700B1C46C8B3
:1039A00046C3019046C846C302980A21013007F079
:1039B0007FF8009E00230922B2425B41F61839606D
:1039C0002E60E378002B08D0039E002E05D02B68D4
:1039D000012B02D9013B2B60F9E70BB0F0BD0000D1
:1039E000F0B5061CFC36736C01259A7B85B0041C6F
:1039F0002A421FD0244F011C3A6820319D73019147
:103A00002A4203D12148FFF7FDFC3D60736C02A8F8
:103A10001A8B1E4901322379FFF73CFD02A9019858
:103A200004F0E4FA2368201C5B699847201C01F02D
:103A30009FF827E09A7B12092A4212D010229A732B
:103A400001F034F8231C28331A7890421AD09221BE
:103A5000490062181278002A14D1211C2031181C48
:103A60000EE09A7B52092A420CD020229A739222AD
:103A70005200A3181B782830002B03D1211C2031C1
:103A8000FFF760FF05B0F0BD900700206C0100203B
:103A900010B5041CFC34636C002B03D10E48C92103
:103AA000FFF726FA636CDA7BD209FCD11A8802216F
:103AB0008A431A80636CDA7BD209FCD15A892321AC
:103AC0000A435A81636C0122597B11435973636C19
:103AD000997B0A439A7310BDCBFF000038B5041CD4
:103AE000151C00F02FFD054B201C08332360231C00
:103AF000FC335D64FFF7CCFF201C38BD00000100E3
:103B0000704700000B4B02211A6810B50A431A6077
:103B1000094C0A4B0F21238100F0AEFAFE23DB0390
:103B200000041840064B18436060E3689A05FCD413
:103B300010BDC046200400400004004207020000FF
:103B4000010000020B4B02211A6810B50A431A60EB
:103B5000094CA123DB0023810B2100F08DFAFE2309
:103B6000DB0300041840054B18436060E368DA0487
:103B7000FCD410BD200400400004004204000002F8
:103B80001FB5A2235B00C35C041C5A4253410222AE
:103B9000D31A0393D7239340C15C1D4BC25C01230E
:103BA000009303AB00F0B4FE201CFFF7CBFF201CFA
:103BB000FC30436C9A689107FCD41A6802218A434E
:103BC0001A60426C93689907FCD4116A8023DB0267
:103BD00019431162426C80211468C90421431160A9
:103BE000426C916A19439162426CD16A0B43D36271
:103BF000436C9A689107FCD49A689107FCD41A68C0
:103C000002210A431A60426C93689907FCD41FBDD5
:103C10005D030000FC30436C9A689107FCD41A687D
:103C200002218A431A60436C9A689107FCD4196890
:103C30000E4A0A401A60436C9A689107FCD4996A4C
:103C40008022120311439962436CD96A0A43DA62F3
:103C5000436C9A689107FCD41A6802210A431A60DF
:103C6000426C93689907FCD47047C046FFFFFFF78A
:103C700037B5041C144901A8032209F00FFE6A4657
:103C80000F23002501A95370201C104B157000F064
:103C90001DFA0F4B0B2208332360D7239B00E554FA
:103CA0000C4B201CE2540C4BA360E360FFF7B2FF07
:103CB0000A4BC32292009958201C0902090A995004
:103CC000802212021A603EBD200001000020004246
:103CD000280001005D030000FFFFFF0000E100E09D
:103CE00070B5074D01262B68064C334203D1201CCA
:103CF000FFF7BEFF2E602368201C5B68984770BDED
:103D000084070020E00200200B4B02211A6810B546
:103D10000A431A60094C0A4B1421238100F0ACF9C4
:103D2000FE23DB0300041840064B18436060E36881
:103D30005A05FCD410BDC0462004004000040042D7
:103D40000D0300000200000213B5072201A90023A1
:103D50004A706A460B708B701370142353700B4BB0
:103D6000041C00F0B3F90A4BC42208332360094B4A
:103D70009200A360E360084BFF209958814399505B
:103D800080225202201C1A6016BDC0460024004248
:103D900050000100FFFFFF0000E100E070B5074D9B
:103DA00001262B68064C334203D1201CFFF7CCFFC1
:103DB0002E602368201C5B68984770BD141B002090
:103DC000B81700200B4B02211A6810B50A431A607D
:103DD000094C0A4B1521238100F04EF9FE23DB0329
:103DE00000041840064B18436060E3681A05FCD4D1
:103DF00010BDC04620040040000400421104000031
:103E00000300000213B50322041C0E4901A809F0A7
:103E100045FD6A46002313701523537001A9201C29
:103E2000094B00F053F9094BC42208332360084BB7
:103E30009200985807490140995080229202201C14
:103E40001A6016BD780001000028004280000100C1
:103E500000E100E0FF00FFFF70B5074D01262B6871
:103E6000064C334203D1201CFFF7CCFF2E602368A1
:103E7000201C5B68984770BD741E0020181B002032
:103E800038B5041CFC34636C051C9A689107FCD49B
:103E90001A6802218A431A60636C9A689107FCD4FD
:103EA0002879E02219680002D20002400A431A6011
:103EB000636C9A689107FCD4DA6B01210A43DA63D8
:103EC000636C9A689107FCD419681E4A0A401A600C
:103ED000636C9A689107FCD42A1C28321278002A55
:103EE00005D02B68281C5B699847636C09E09969C9
:103EF000802252020A439A61626C93689907FCD44B
:103F0000EFE79A681105FCD4EA6852081A65636CF9
:103F10009A681105FCD4996A802252021143996271
:103F2000636CD96A0A43DA62636C9A689107FCD4BD
:103F30001A6802210A431A60626C93689907FCD4DC
:103F400038BDC046FFFFFFFE704708B5031CFC33B9
:103F50005B6CDA6B07231340012B01D100F050FB9F
:103F600008BDF8B5051C00F0FBFB2C1CFC34002838
:103F700003D0E968636C4A081A65281C666CEF6810
:103F800000F019FC626B013FBF1838187064A16B18
:103F9000626B8B18A36300236363F8BD10B5041C28
:103FA000FC34606C002803D10E48C921FEF7A0FF45
:103FB000636C9A689107FCD41A6802218A431A60DC
:103FC000636C996801228807FBD4196A064801438B
:103FD0001962636C996A11439962636CD96A0A43E6
:103FE000DA6210BDA8000100034000001FB5D32312
:103FF0009B00C15C1F4B041CC25C03230393002382
:10400000009303AB00F084FC2368201C9B69984755
:10401000201CFC30436C9A689107FCD41A6802217A
:104020008A431A60426C93689907FCD4116A802312
:104030009B0219431162426C802114688904214358
:104040001160426C916A19439162426CD16A0B43D0
:10405000D362436C9A689107FCD49A689107FCD4A8
:104060001A6802210A431A60426C93689907FCD4CB
:104070001FBDC0464D0300000F23081C18400C3024
:104080007047000008B5D3239B00C15C024BC25CA3
:1040900000F0FEFC08BDC0464D03000030B5051C15
:1040A000F035021C041C111A002308340B510C19A2
:1040B0006360041C10340B51183209194B60AA427A
:1040C000F0D1011CF4310B60136030BDF8B5041C55
:1040D000171C1D1C00F036FA284BA421083323605E
:1040E000231CFC335D64A22300255B00E554A2235E
:1040F0005B00E31849005D7060189D70DD70FFF78C
:10410000CDFF1F4890221F499200A31801262218B4
:104110001D7076421570621815705E6092239B00C8
:10412000E55492239B009322E31892005D70A0183F
:104130009D70DD70FFF7B2FFD12080001249231877
:1041400012486218D3211D7089001570221815704D
:1041500060185E60391C022209F0A0FBD422920094
:10416000A318221C203203CA03C3D6239B00E650A7
:10417000201CFFF713FF201CF8BDC046D80001002B
:104180004102000042020000450300004603000017
:10419000F7B5051CF4352E680924B442A4416442E5
:1041A00001910096002C01D0002A17D0071CF0378F
:1041B000396818234B43019EC3188C4607CE07C3AA
:1041C000019607CE07C3604601300A2106F070FC55
:1041D000009863426341C61839602E600120604038
:1041E000FEBD70B5021CFC32536886B00133051C5D
:1041F00053600093FD352B78041C5A4253416846A6
:1042000003710A1C02AB41CA41C304AB44C944C395
:10421000201D69460122FFF7BBFFE378002B0AD07F
:104220002B78002B07D1221CF8321368012B02D9FE
:10423000013B1360F7E706B070BD38B5031CF433DB
:104240001B68041C0D1E9D420FD2021CF032106828
:104250000A210A30C01A06F02BFC48190A2106F080
:1042600027FC18204843201800E0002038BDF0B596
:10427000051C85B00C1CEFF31086039672B6BFF3D5
:104280005F8FBFF34F8FBFF36F8F2F1CF8373E68E0
:1042900002960026029886420CD0281D311CFFF79A
:1042A000CCFF0379002B01D10136F3E73E6802967B
:1042B000002E01D100201AE02B1CF43318680A21CB
:1042C0000A30801B06F0F4FB002C09D01823594358
:1042D00069180431201C4CC94CC001904CC94CC019
:1042E000029E013E3E602379002BDFD00120039E19
:1042F00086F31088BFF35F8FBFF34F8FBFF36F8FCD
:10430000BFF35F8FBFF34F8FBFF36F8F05B0F0BD6B
:1043100008B54530FF30FFF7AAFF08BDF0B5061C11
:10432000FC36736C0122D96A8BB0041C114217D081
:10433000DA62FDF753FF736C011C5A6C04A801325A
:104340002379FFF7A7F8201C04A9203003F04EFEC4
:104350002368201C5B699847201C00F009FCEEE0F4
:10436000D96AC90C11420FD080221203D420DA621C
:104370008000221C2318203203CA03C3736C1A6DF9
:10438000D6239B00E250DAE0D96A090C114215D01D
:1043900080225202DA6200F089FB231C28331A784B
:1043A000904200D1CBE09221490062181278002A95
:1043B00000D0C4E0211C2031181C43E0D96A490C0C
:1043C00011420FD0196B9B6C490C019304AF02ADE5
:1043D00011427DD1FFF756FE231C2A331B789842E9
:1043E00076D132E0D96A890C114200D1A7E080224F
:1043F000D202DA62736CD96CD6239B00C258D420E7
:1044000080002318914201D2231C203302AD2A1CC4
:1044100003CB03C2FDF7E2FE736C011CDA6C04A847
:104420002379FFF737F804A9281C03F0DFFD90215A
:10443000890063181B78002B00D080E0A222520074
:10444000A018291CFFF7CDFE79E0D6239B00E25887
:104450000198231C2033904202D3D42080002318DB
:104460002A1C03CB03C2FDF7B9FE2379011C019A74
:10447000381CFFF70FF8391C281C03F0B7FD716AD0
:1044800000295CD093225200A3181B78012B07D17E
:10449000201C01392C30FFF7D0FE10300ACD0AC0A5
:1044A0002622FF32A3181D78271C2837012D46D15C
:1044B000716A201C2C300139FFF7BFFE0571FB78B3
:1044C000002B3CD0736A012B39D9013B7362F9E7A9
:1044D000D621890062580198231C2033904202D3D0
:1044E000D4229200A3182A1C03CB03C2FDF776FE48
:1044F0002379011C019A381CFEF7CCFF281C391CBB
:1045000003F074FD92225200A3181B780193012B33
:1045100015D1F36A291C0133F362049308220023A6
:1045200006A83B7109F0BAF9291C082208A809F06D
:10453000B5F9201C2C30391C019AFFF729FE0BB06D
:10454000F0BD0000F8B52C4B041C03602B4B00257C
:104550008360C3600E1C0123211C03620571058268
:104560004561058345838583C583456224312030B9
:1045700003F028FD231C211C8E2228332C315200ED
:104580001D70A7185D709D70DD700B1C081C5A1AF9
:1045900000250830155010184560081C10301550C3
:1045A000183312185560BB42F0D192225200A31862
:1045B000271C2622FC37FF327D623D621D70A31846
:1045C000932252001D70A3181D7001235B42FB62F1
:1045D00096235B00311CE018032209F05FF99C234D
:1045E0005B007D63BD63E5543A23FF33E5543D64CE
:1045F000FDF7F4FD201CF8BD08010100FFFF0000DD
:1046000049008183704781837047000000000000EB
:10461000F7B50190141C02791D1C1F4B5200D05A93
:1046200008F084FF021C0B1C1449134807F026FDF8
:10463000221C2B1C08F08CF9114A124B041C0D1C77
:1046400007F000FA104A114B061C0F1C201C291CF5
:1046500006F0B0FA002802D00D4A0E4B01E00A4ADB
:104660000A4B301C391C08F003FC08F02BFF019C9E
:10467000FC346063F7BDC04600000000D012634107
:10468000000000000000E03F00000000000000000B
:10469000000000000000F03F20010100C046C046BD
:1046A000F0B5428B87B0041C0D1C038B8A4238D0B6
:1046B000002B36D10279264B5200D65A87687743B1
:1046C000381C08F071FF0B1C021C20491E4807F023
:1046D000D5FC06F0E9FA80B20190391C1D4806F0BD
:1046E000E7F94B1E9941019B59180B1C89B2A9424D
:1046F00000D22B1C9AB256436383A3836661301C9D
:1047000008F052FF021C0B1C10490F4807F0B6FCC2
:1047100006F0CAFA311CE0600E4806F0C9F92182A1
:104720000EE0002B0CD00C4B03AA0393FC340323A4
:104730001371206C094B0721936003681B6898472D
:1047400007B0F0BDC046C04600000000D012634173
:10475000200101008096980058FC00003001010003
:1047600030B5828B438B85B0041C00259A421CD047
:10477000031C20336A4603CB03C2FDF72FFD231C25
:10478000FC33011C9A6B02A82379FEF783FE68466E
:1047900002A903F041FC019D6B425D41EDB2002D89
:1047A00003D0A18B201CFFF77BFF281C05B030BD78
:1047B000FC30C162704770B5038B068A4569F618F4
:1047C000B6B2041C291C301C06F072F9301C21837F
:1047D000291C06F029F980B270BD00001E4B08218B
:1047E0001A6830B50A431A602E23FF33C15C1C1CC3
:1047F00096235B00C35C4A10DB01CD0707D5174940
:104800009A185218137840210B43137006E09B1836
:10481000124A04219B181A780A431A7096235B00E7
:10482000C25C015DD2010E4D8A1852191178012423
:10483000214311709722A240825C002A0AD02E22C6
:10484000C35CFF32825CDB01D3185B191A7840210C
:104850000A431A7030BDC0461C0400403044004179
:104860004044004138B5041C0D1CFDF7B7FCA2689C
:10487000291CFEF763FE6D00A9B22071201CFFF712
:104880000FFF2368201CDB689847201CFFF7A6FF5A
:1048900038BD000000000000F8B5041C0D1C161CFB
:1048A000FDF79CFCA268291CFEF708FE291C20715C
:1048B000201CFFF7F5FE301C08F038FE114B104AA3
:1048C00008F046F806F0F0F922790F4B5200D55A5D
:1048D000061C291C06F0ECF80F1C301C791E8F41B9
:1048E000291C06F0A1F823683F18E7831B69201CE8
:1048F0009847201CFFF772FFF8BDC046C046C0466F
:10490000000000000000244020010100C046C04615
:10491000F0B505A807785048082504684F4E2C4389
:1049200001250460C9012C1C88199440446054106E
:104930000019303004785118E4B20470484801245A
:10494000091808782043087008780224204308706A
:1049500019680139A14205D9424940240868204319
:10496000086006E04049414848804878C009FCD1C9
:10497000F2E73F494878C009FBD108780224A043F8
:1049800008704C783A48E409FBD10F264468164079
:104990000125B5402C4344602E1C02240F2A03D865
:1049A00007249442A441644207200240013A1B6854
:1049B000051C0634062A08D8101CA4001D4006F069
:1049C00029F80A0F13171B1F2300A4000A590340DC
:1049D000824313431DE00B5970222D01934317E0CE
:1049E0002D020A59234B12E02D030A59224B0EE0E7
:1049F0002D040A59214B0AE02D050A59204B06E0E7
:104A00002D060A591F4B02E00A591F4B2D07134070
:104A10002B430B51002F05D0CB683343CB600B6980
:104A20001E430E614A78124BD209FBD11A7802203C
:104A300002431A704B78DB09FCD1002F0AD0134BCC
:104A4000C12292009958FF20814380200143995050
:104A500010221A60F0BDC0461C0400400044004112
:104A60004044004118040040000C00400544000090
:104A700000180040FFF8FFFFFF8FFFFFFFFFF8FF68
:104A8000FFFF8FFFFFFFFFF8FFFFFF8F00E100E058
:104A9000054BC901C918086A012393401840431EF9
:104AA0009841C0B27047C0460044004196235B0065
:104AB000C35C074ADB019B182E22FF32825C1B6A13
:104AC000012090401840431E9841C0B27047C04634
:104AD0000044004108B52830FFF7C9FB08BD0000BD
:104AE000F8B5224E3A23FF33041C3169C05C0F2213
:104AF000024089B211410A1CD10735D5251CFC356D
:104B00006B6A002B0BD13A23FF33E15C0F230B4080
:104B10000121326999400B1C1343336124E02621A3
:104B2000FF3162181278022AEDD100215F1E0ED3E8
:104B3000286A0A210A30C01A05F0BAFFC8190A21EA
:104B400005F0B6FF18235943231C2C3359180123B1
:104B50000B71231C2833DB78002BD4D06B6A012B1C
:104B6000D1D9013B6B62F9E7F8BDC046001800409F
:104B700070B5061C406A08F017FD0E4B0C4A041C69
:104B80000D1C06F02BF8002811D0201C291C0A4A05
:104B90000A4B06F00FF8002809D0FDF71FFB326A18
:104BA000C368934203D0FDF719FBC068306270BD43
:104BB0000000000084D7A7410000000084D7C7414F
:104BC00010B50C4B0C4C1A8C0F2313400B4A13706E
:104BD00021780B4A9B00C9B299500A4A9B58002B76
:104BE00000D09847022323700123237004232370ED
:104BF00010BDC046004800414E4800413F480041BA
:104C000090200020602000200B4B1B68002B12D14D
:104C10000A4B20215A690A435A61DA6910210A4372
:104C2000DA61074B40221A60064B074A5A63074A6B
:104C30009A63074A1A807047401F00200004004012
:104C400000E100E000480041801E0020A01F00207D
:104C5000020F000030B5094B42680F24191C224096
:104C60003F310A7040331D78022295431D708068E1
:104C700004400C7019789143197030BD0048004110
:104C8000F0B5041C85B040680392474E0F220240E5
:104C9000464D019332702A78022082432A70444B99
:104CA00001222A701F696068161C8640381CB043B8
:104CB0001861267BFC2036028001304080263604B5
:104CC0003C4F3043072658643E7060683A4F0026D8
:104CD0008000C651E661266822822836A661019EC0
:104CE0006161B6B200966682A218D27F1E1C2E4F5A
:104CF000012A04D00198314B09186161238262684E
:104D00002F4B1001211C103118181022029108F0AD
:104D1000C5FDA0680F2303403B702B78022293430C
:104D20002B7001232B70A0683269191C81408A43C3
:104D30003261617BFC22090292010A408021090450
:104D40000A431C49726407220A70A2681A4990003B
:104D5000009E00224250E26122686682039E283251
:104D600023826261A661E318DB7F1548002B04D023
:104D700001998B19A361134B2382A2680299130135
:104D8000C018102208F08AFD63680F2213403B70A0
:104D90002978022319432970A1680A403A702A78B9
:104DA00013432B7005B0F0BD3F480041404800411F
:104DB000004800414D4800419020002001040000BF
:104DC000801E00200108000038B5041C251C01606D
:104DD000081C012103F07EFE01CD012103F0D4FE69
:104DE000281CFF211E2208F07BFD3E23201C23717E
:104DF00038BD000010B5041C0348FFF72BFF034823
:104E000003F07CF9201C10BD501F0020242400203A
:104E100037B503236A46002413715471051C019AA7
:104E20000448054903F072F92868211C03F0ACFE20
:104E300037BDC0462424002040420F0008B500685A
:104E4000012103F0A1FE024803F07CF908BDC04631
:104E50002424002070B5041C0E1CFFF7D9FF104D50
:104E6000311C281C03F080F90021281C03F07CF978
:104E7000201CFFF7E3FF201CFFF7CAFF281C0021BE
:104E800003F072F90021061C281C03F06DF9051CC3
:104E9000201CFFF7D3FF3002054328B270BDC04687
:104EA0002424002070B5041CFFF7B2FF184D022225
:104EB0006B1CDA77221C211D281C22321E23FFF7CF
:104EC000DFFE6E68A968281C124BB200D258002A77
:104ED00003D18A00D358002BF6D0FFF7BBFEA023E6
:104EE0005B00013BFDD10121206803F04DFE0A4823
:104EF00003F028F924340023E25C084812021A5215
:104F0000E11849780A43C25202331A2BF4D170BD1A
:104F1000501F00209020002024240020801F00200B
:104F2000F8B5802319430B02161CFF2112120E4004
:104F3000802711401E437F000B431F43041CFFF7D3
:104F400067FF0E4D390A281C03F00EF9F9B2281C30
:104F500003F00AF9201CFFF771FF201CFFF758FF30
:104F6000310A281C03F000F9F1B2281C03F0FCF808
:104F7000201CFFF763FF0120F8BDC0462424002059
:104F800010B51A21041C0022FFF7CAFF201C1C21A7
:104F90000022FFF7C5FF201C1E210022FFF7C0FFE3
:104FA000201C20210022FFF7BBFF201C2221002211
:104FB000FFF7B6FF201C24210022FFF7B1FF201CC1
:104FC00026210022FFF7ACFF201C28210022FFF73A
:104FD000A7FF201C2A210022FFF7A2FF201C2C2162
:104FE0000022FFF79DFF201C2E210022FFF798FFD3
:104FF000201C30210022FFF793FF201C34210622C1
:10500000FFF78EFF201C36210122FFF789FF201CAD
:1050100038210E4AFFF784FF201C40210022FFF7B1
:105020007FFF201C42210022FFF77AFF201C442131
:105030000022FFF775FF201C46210022FFF770FFBA
:10504000201C48210022FFF76BFF10BD0204000066
:1050500038B5041C284803F029F8201CFFF790FFFE
:10506000201C3E210222FFF75BFF3E218022201CF4
:10507000FFF756FF9620400003F0AAFB34211622CA
:10508000201CFFF74DFF142003F0A2FB32211B4A26
:10509000201CFFF745FF142003F09AFB3621002265
:1050A000201CFFF73DFF142003F092FB80223821E3
:1050B000D200201CFFF734FF142003F089FBFFF718
:1050C000A3FD0F4CFF22E31CDA77211C221C2231A6
:1050D000201C21320123FFF7D3FD6568A168201C45
:1050E000084BAA00D258002AFAD08A00D358002BC5
:1050F000F6D0FFF7AFFD38BD2424002002020000E7
:10510000501F00209020002070B508200C68156802
:1051100065406408EE0701D51D686C400C60166898
:1051200001387408C0B214600028EFD170BD0000CF
:105130007FB5134B061C0393124B8C1C0093012567
:105140006378301C029323786946019301AA03AB6C
:105150000135FFF7D9FFEDB2301C694602AA03AB57
:10516000FFF7D2FF02340C2DEAD1009AD343180A7C
:10517000FF2210401B02184300B204B070BDC046AD
:1051800021100000FFFF0000054B064A1A600022B4
:105190005A6001229A600A221A7309225A737047D0
:1051A000501F00200018004208B50A300021482294
:1051B00008F096FB08BD38B5041C0325FFF7F4FF83
:1051C0002A1C201C002108F08BFB601900210422FE
:1051D00008F086FB2A1CE01D002108F081FB231C3F
:1051E000002252331A700123A365E36523666434F9
:1051F000227038BD021C10B50023523213700122F8
:105200008265C2650266021C64324365041C137029
:10521000137153719371C36613735373D381FFF783
:10522000CAFF201C10BD836D002B03D1C36D002B62
:1052300000D10366006E0138431E9841C0B270472A
:1052400073B5101C6C461E1CE171151C073408F068
:1052500035FCB0420DD223782C2B0AD00D2B08D070
:10526000202293430A2B04D0281C211C012208F081
:105270002CFC73BD2A2903D05230037859400170A9
:105280007047000013B50322041C0A4901A808F066
:1052900005FB201C01A908F007FC002801D1A0652E
:1052A00001E00123A365A06D0138431E9841C0B2FF
:1052B00016BDC0466201010013B5094B041C01A9CB
:1052C0000330019308F0F0FB002801D1E06501E014
:1052D0000123E365E06D0138431E9841C0B216BD5D
:1052E0005A444100C36D10B5041C011C6434002BEA
:1052F00005D10A312278683000F050F900E0002032
:1053000023780133237010BD10B50021041C102236
:10531000073008F079FC52342378C0B2181A43429F
:105320005841C0B210BD70B5041C0E1E052E2DD8FC
:10533000081C05F06FFB032B070E151D201CFFF743
:105340003AFF23E0636D012B20D1201CFFF79AFF69
:105350000CE0636D022B04D1201CFFF7ADFF05E0CC
:10536000636D032B12D1201CFFF7BCFF051C0BE063
:10537000636D042B0AD1201CFFF7C6FF051C201CFF
:10538000FFF751FF0540EDB2002D04D0201CFFF7C0
:105390000BFF666503E0201CFFF70DFF656570BD20
:1053A00038B5041C406D0D1C052845D805F032FBAE
:1053B000030819273844242942D1201C01213DE04B
:1053C000201CFFF757FF291C201C221C0223FFF77B
:1053D00037FF201C08F072FB011C201C02292FD172
:1053E0002CE0201CFFF746FFE21C201C291C032395
:1053F000FFF726FF2C2D23D1201C03211EE0201CAB
:10540000FFF738FF221C201C291C0A324723FFF714
:1054100017FF2C2DF0D02A2D12D1201C04210DE0D5
:10542000E21D201C0223FFF70BFF0D2D01D00A2DDA
:1054300006D1201C052101E0201C0021FFF773FF8D
:10544000206E38BDF0B5061C85B00020706000AF3E
:10545000081C0D1C08F032FB0123062840D9AA794C
:1054600000232E2A3CD10123072839D06A46C41FC5
:10547000281CBA6008F022FBE4B2A31D83428041DD
:1054800002334042DB08F860DB006846C01A8546FC
:105490006B46621C00217B6008F022FAE91D684619
:1054A000221C08F0FBF969466B465A1AA2420ADA36
:1054B000187800223038092585425241F8680133B6
:1054C0001040F860F1E70A220021786808F026FC15
:1054D000431CF9685A1E93417060BA680B409546A8
:1054E000181CBD4605B0F0BD10B5011C4C8986B036
:1054F0000A7A4B7A00940C780C3001944C78029420
:105500008C78039449680491024908F0ABFA06B01C
:1055100010BDC04665010100F0B585B000AF141C98
:105520000D1CBB60F86008F0C9FA2B19013B8342DF
:105530008041231C0833DB08DB006946C91A8D460D
:10554000621C796046420021684608F0C9F9FA6891
:1055500068465119221C08F0A1F969466B465A1A8F
:10556000A24208DA187800223038092585425241D3
:1055700016400133F3E700210A22786808F0CEFBD9
:10558000FE22031CB96800209A42404130400029A5
:1055900000D00B70BD4605B0F0BD0000F0B58DB079
:1055A00000AF041C0D1C052A68D8101C05F032FA47
:1055B000031F252D7474081C02220021231CFFF7F1
:1055C000ABFF02210A1C061C631C281CFFF7A4FF6A
:1055D000A31C064004210222281CFFF79DFFF6B2FF
:1055E0000640291C201CFFF72DFF304044E0231CFF
:1055F000081C02220021083304E0231C081C02229C
:1056000000210933FFF788FF36E0211C0A316B4681
:10561000281C39607B6008F051FA03268642B641A7
:10562000381C00210C30F96004220171291C08F09B
:1056300035F9002276429446381C61460C300B5CEA
:105640000025303B0922291C9A42694101229444D9
:1056500063460E40042BEFD1291C0A2208F05EFBA2
:10566000114A396882426D41031C281C30400029D0
:1056700000D063817A68954600280DD1381C00213E
:1056800024220C3008F02CF9391C201C0C31232268
:1056900008F004F9002003E0201CFFF725FF01209B
:1056A000BD460DB0F0BDC046FEFF000038B5041C7D
:1056B00004300D1CFCF72EFD226929182A5422699A
:1056C0000A30130A4B70638A8B70E37CCB70A38A19
:1056D0000B711B0A4B71E38A8B711B0ACB71238BF5
:1056E0000B721B0A4B7238BD38B5041C04300D1CFC
:1056F000FCF724FD2A5C291822614B780A301B0232
:10570000134323618A78120413432361CA78120673
:10571000134323614B790A791B021343A382CB798C
:105720008A791B021343E3824B7A0A7A1B021343E2
:10573000238338BD00487047E001010000487047EE
:10574000F701010038B5041C04300D1CFCF7E2FC25
:10575000226929182A5422690630130A4B70638A79
:105760008B70E37CCB70A38A0B711B0A4B7138BD25
:1057700038B5041C04300D1CFCF7E0FC2A5C291829
:1057800022614B7806301B02134323618A7812048E
:1057900013432361CA781206134323614B790A79B4
:1057A0001B021343A38238BD004870471802010052
:1057B000004870472F02010038B5041C04300D1C4E
:1057C000FCF7A8FC226929182A5422690630130A1A
:1057D0004B70638A8B70E37CCB70A38A0B711B0ABE
:1057E0004B7138BD38B5041C04300D1CFCF7A6FC09
:1057F0002A5C291822614B7806301B02134323616F
:105800008A78120413432361CA7812061343236172
:105810004B790A791B021343A38238BD00487047B5
:1058200050020100004870476A020100F0B58D493E
:10583000041C0A68012085B002400ED18A4B8B4DB2
:105840009A601D608A4DDA605D601A619A82DA8220
:105850001A835A839A83DA830860261CFC36756F94
:10586000002703950097BD422CD0306F0A210A30E3
:10587000401B05F01DF9231C49012C335B181A1C31
:1058800079490832082002924018A0CAA0C01869BD
:10589000039F08619A8AA0688A82DA8A013FCA82D5
:1058A0001A8B0A835A8B4A839A8B8A83DB8B77679E
:1058B000CB83002804D00125FDF77CFC009501E096
:1058C000012600966B4901200A68024009D16A4B03
:1058D0006A4E9A601E60664EDA605E601A619A8255
:1058E0000860B0239B00E65800270297BE422AD0EA
:1058F000AF208000231818680A210A30801B05F0A9
:10590000D7F818204143E6225200A01840185A49FF
:10591000051C08235B18083584CD84C30369B025B2
:105920000B61838AAD008B82013E63191E60DC230C
:105930005B00E058002804D00126FDF73BFC0296EE
:1059400001E0012702974E4901200A6802400BD16D
:105950004C4B4D4E9A601E60454EDA605E601A6197
:105960009A82DA821A830860F8239B00E3580027A2
:105970000193BB4229D0F02080002718F8690A2142
:105980000A30C01A05F094F81C235943B122920042
:10599000A3185B181E1C3B490836082503966D1892
:1059A00005CE05C51D69019E0D619A8A013E8A8258
:1059B000DA8ACA821B8B3E620B83DA235B00E058D3
:1059C000002801D0FDF7F6FB0127304901200A68C5
:1059D000024009D12E4B2F4E9A601E60244EDA6091
:1059E0005E601A619A8208609B23DB00E358019392
:1059F000019E00239E4227D0274AF920A318800049
:105A0000251818680A210A30801B05F051F8182063
:105A1000484328181E49051C0835082303955B18C0
:105A200044CD44C303699B250B61838A019EED002D
:105A30008B82013E63191E60DE235B00E058002864
:105A400001D0FDF7B7FB0123009E0120002E06D1F7
:105A5000029D002D03D1181C002F00D0012005B09D
:105A6000F0BDC046C0200020FC200020A8FE0000A1
:105A700028FC0000DC210020C4200020A801010037
:105A8000E021002058210020900101004C2100203D
:105A9000E0200020C0010100D4040000F0B5C7B030
:105AA00003934CAB1B78041C01934DAB1B78029302
:105AB0004EAB1D7801F05CFD5C4BBA214900083308
:105AC00066182360291C301CFFF77EF9DA220023B8
:105AD0005200A350DC225200A350DE225200A350F9
:105AE000E0225200A350E2225200A350E4225200CE
:105AF000A350E6225200AF239B00A118E7180B1C0D
:105B00004B4A081C1A604B4A5D1A5A600830002242
:105B10002A50281842601A619A821833BB42EFD18A
:105B2000B02189006318AF2189001A6063181A60D8
:105B3000B1229200F7239B00A118E7180B1C3E4AE4
:105B4000081C1A603B4A5D1A5A60083000222A502D
:105B5000281842601A619A82DA821A831C33BB4287
:105B6000EDD1F021890063181A62DA613349F92313
:105B70009B00E21809198C46131C31490025196055
:105B80002C49981A5960111C0831455041184D6034
:105B90001D619D8218336345EFD19B22D2002749B6
:105BA000A3181D6063181D60264B019AE550264B13
:105BB0000299E254254B301CE154FFF749FAE6689C
:105BC000AE422FD005A901230D7008AA4D7044A83C
:105BD0008D70CB700023136053609360D3601832D4
:105BE0008242F7D168461230FF3044AA022543931F
:105BF000429313700570437082220123301C5B4274
:105C000052002830459307F049FE301C0399FEF7F7
:105C100029FEE06801230593036801991D68029A33
:105C200005ABA847201C47B0F0BDC046D00101001D
:105C3000A801010028FC000090010100D40400002C
:105C4000C0010100DC040000E2040000E3040000E5
:105C500010B500239A000A4C821812191268002A03
:105C600009D1DA1DFF32920082187D335160C8607D
:105C70008B60012003E00133192BEBD1002010BD14
:105C80001C040000F7B5041C019301F0A3FC60683C
:105C9000002872D0394901250B68394A2B4008D1B8
:105CA000384E93601660384ED3605660136193820D
:105CB0000D60364D01262968354B31400AD1354FEC
:105CC00099601F60304FD9605F6019619982D982F5
:105CD00019832E60304E012135680D400AD12F49BD
:105CE0002F4F8D600F60284FCD604F600D618D820A
:105CF00001213160E22149006350E0214900274D34
:105D00006250E42149006550264901260F68AC46DF
:105D10003740254D05D1019E2F6101272E606A6015
:105D20000F60224A012117680F40214905D1089EC2
:105D30000F6101270E604B6017601E4A0123176830
:105D40001F401D4B06D1099E1F611E60012766463C
:105D50005E601760DA22DC2652007600A150A55161
:105D6000DE256D006351FFF773FFA1596068FFF7EF
:105D70006FFF60686159FFF76BFFF7BDF8200020E7
:105D80001C210020A801010028FC0000B8210020EF
:105D9000BC2100209001010054210020A0210020FE
:105DA000C0010100DC2000203421002088210020D7
:105DB0008C2100204821002074210020F0B5041C13
:105DC000806A8FB0002800D1EDE1E068002800D1A2
:105DD000E9E1914E914DA15D625DFEF759FE00280B
:105DE00000D1E0E1211CE0681031FEF773FE0028CD
:105DF00000D1D8E1A15D625DE068FEF749FE0028B0
:105E000000D1D0E1BA256D00002165190A1C281CBB
:105E10000795FFF747F8A36A2669071C1E61391C1E
:105E20000798FFF785F918217B5E834200D0B3E124
:105E30003B881B06DB0F099345D0E0235B00E3584A
:105E4000002B40D01A1C211C0832183160C960C2D6
:105E5000A26AB88A1669B02236091E619882920039
:105E6000A25809219142924152420692AF229200D9
:105E7000A51808962E680A901821301C4843E62180
:105E80004900621811180A1C08320833B44641CB85
:105E900041C2089A0A9B60460A618B8201300A213E
:105EA00004F006FE2960B025AD00069E63191A684D
:105EB000002E00D10132069D1A60002D03D06068CB
:105EC000002800D071E1A36A002B00D1CEE01A1C9B
:105ED000211C0832183141C941C279885983BD88D3
:105EE00008919D83F8880A95D8833A89251C9A825F
:105EF0007E89FC35DE82B989944619830D91296F1C
:105F00000B9004914A01211C686F2C318A180C9661
:105F1000092602928642B6410832039276421A1C42
:105F200005960832039E069203CA03C6029A1B69AD
:105F3000664613610D9B0C9908989682D182138353
:105F40005083161C0A9A311CB28304980B9E0130B0
:105F5000CE830A2104F0ACFD6A6F059E2967531CAD
:105F6000002E00D0131C6B67059D002D03D06068C8
:105F7000002800D01EE12A4D6059042876D804F08C
:105F800049FD03191C3C570036210798FEF762FFB4
:105F90009C23DB009022E0521201C0B20243362162
:105FA0000798FEF7BDFF606801211E4AFCF77CFBE5
:105FB000012300E00223635158E0606801211A4A7E
:105FC000FCF772FBBB887A885B4252429BB2FE8828
:105FD00012B21A2107980693FEF7A2FF069876429E
:105FE00002B21C21B6B20798FEF79AFF32B20798A8
:105FF0001E21FEF795FF0323DDE7012160680B4AB0
:10600000FCF752FB9C23DB00E25E07983621FEF78B
:1060100087FF0423CFE7C046E2040000E30400004A
:10602000DC0400008B020100A7020100BD02010098
:10603000674901200D68A26A664B054202D11669C4
:1060400008601E6019681269501AFA218900884296
:106050000CD9322107981A60FEF7FCFE80229200CC
:10606000424012B207983221FEF75AFF099D002DD7
:106070004CD0E2235B00E358002B47D01A1C211CB4
:106080000832183141C941C2A26AF989126999825C
:106090003D8A1209DD82788A1A610792F8221883F4
:1060A0009200A258089109219142924152420692CF
:1060B000F02292000A95A518EE6984461C22301C35
:1060C0005043B1229200A1180A18111C09960831F8
:1060D000083341CB41C16046089B108307990A9E53
:1060E000099811619382D68201300A2104F0E0FC04
:1060F0002A6A069EE961531C002E00D0131C2B62F5
:10610000069D002D02D06068002858D1E4235B0072
:10611000E358002B58D01A1C211C0832183141C9F1
:1061200041C2FF8A9B229F82D200A2580925954234
:10613000AD41294A6D42A61808953568BC46182716
:106140006F43F92080002218D719391C1A1C083116
:10615000083209950691079221CA21C11B69099845
:1061600061463B61B98201300A2104F0A1FC9B2207
:10617000D200089DA31831601A68002D00D10132A9
:10618000089E1A60002E1FD0606800281CD00221D3
:10619000124AFCF789FA17E06068002815D002213E
:1061A0000F4AFCF781FA00200FE002210D4AFCF7AC
:1061B0007BFA88E602210C4AFCF776FADBE602213C
:1061C0000A4AFCF771FAA1E701200FB0F0BDC04602
:1061D000D821002050210020D40400001E0301001B
:1061E000D6020100EA020100FC0201000D030100D9
:1061F00083880B70838802201B0A4B7070470B78D2
:1062000083804A7812021343838002207047000083
:1062100000487047B803010000487047C8030100F8
:1062200000487047E903010000487047F903010086
:1062300042680A704268130A4B70C3888B70C37936
:106240000420CB7070470A7842604B781B021343DE
:1062500043608A78120413434360CA7812061343DA
:106260004360042070470000004870471A04010092
:10627000004870472A04010038B5051C0C35041C81
:10628000281CFFF7E0FFA16963694A10E069CC07A9
:1062900001D58158CB58291C8018984738BD006A11
:1062A00070470000004870471A040100004870471A
:1062B0002A04010038B5051C0C35041C281CFFF706
:1062C0009EFFA16963694A10E069CC0701D5815836
:1062D000CB58291C8018984738BD006A70470000C9
:1062E00000487047B803010000487047C803010028
:1062F00070B5041C40680D1C08706268130A4B706E
:10630000E3888B70E379CB70A3680B71A068030AF4
:106310004B7163898B71E37ACB71E2680A72E06832
:10632000030A4B72E3898B72E37BCB72206907F01F
:10633000C5FB0023061CD900301CEA18C8400133F5
:106340001073042BF7D1281C321C2169103007F080
:10635000A5FA301C103070BDF8B5041C1F1C0023BA
:106360008360161C4160E260174A8361C361036267
:10637000436202608362021CF4232C321B189C4689
:10638000151C124B111C2B60A81A002308316B60DE
:10639000435041184B600E49296114356545F0D1D1
:1063A000221CF8321360043A13609E420AD0301C5B
:1063B000822206992830520007F070FA301C391CEE
:1063C000FEF750FA201CF8BD980301006803010095
:1063D000FF0D0100F7B5464E012435680191009389
:1063E00025400CD14349444F0D820F60434F8D61CE
:1063F000CF60434FC8614F610C628A60346042686D
:10640000002A17D0C168FC310A6400218C00902357
:106410001419DB00E4182468002C08D190246400CF
:106420000D19344CAD006431AC50616002E00131B3
:106430001929EBD1334D01262C683349344007D15B
:10644000324F4C608C60CC60314C0F600C612E6020
:106450008162002A4AD02F4D01262F682E4C3740EA
:1064600004D1089B6160236027612E602B4F0125BA
:106470003E6884602E400DD129492A4BC8610B60CB
:10648000294B0098CB60294B0E614B618E610D62E8
:1064900088603D6000239900254D5118491909680D
:1064A000002908D1D91DFF31890051187D334C6076
:1064B000A360E26002E00133192BECD100239900C4
:1064C00090205118C00009180968002908D19021AE
:1064D0004900581812498000643381504B6002E033
:1064E0000133192BEBD1084B019C1C61F7BDC04651
:1064F0003C2200204022002050030100380301000C
:10650000BD65000038220020E4210020680301005E
:10651000FF0D01000C220020F82100201022002095
:1065200014220020A803010080030100F56500008B
:106530001C04000073B50A780C1C42604B78051CE3
:106540001B02134343608A78120413434360CA78E2
:106550001206134343600A7982604B791B0213438E
:1065600083608A79120413438360CA791206134345
:1065700083600A7AC2604B7A1B021343C3608A7A33
:1065800012041343C360CA7A0C3112061343C3606A
:1065900001A8FBF769FF019A231C101C103010336F
:1065A000191B814204D21E78591E0E700133F7E781
:1065B000A21800230F34D3732C6176BD30B5041CB0
:1065C000C0688FB00D1C002810D0036889889B68B4
:1065D00098476368002B09D0AA88054901A807F0ED
:1065E00041FA6068012101AAFCF75EF80FB030BDE6
:1065F0004B04010010B5041CC068002802D0496893
:10660000FEF7D6F86068002803D00121014AFCF7A4
:106610004BF810BD65040100F7B51E49041C0A685B
:106620000120024008D11C4B1C4D5A609A60DA6070
:106630001B4A1D601A610860261CF8363568002068
:106640000095854224D0231CF43318680A210A30AF
:10665000401B04F02DFA14235943271C2C377918BA
:106660004F680D4A0B1C08330820576080180193AF
:10667000A0CBA0C0009D0969A368013D11613560F0
:10668000002B04D0D86899680468236898470120D3
:10669000FEBDC0466422002068220020680301007D
:1066A000FF0D0100F0B5C7B0161C4CAA051C1078F0
:1066B0004DAA14784EAA1278039205AA10700020F1
:1066C00050709470D07008AA44A8002414605460DC
:1066D0009460D46018328242F7D11227FF3701202C
:1066E0006F44387089277F006F44107038704042C3
:1066F000506005AA0092281C321C43944294FFF774
:106700002BFE0A4B039F08332B602B1CFC331F709E
:1067100080235B00EC506B1CFF335C60A64202D010
:10672000301CFDF763FC281C47B0F0BD9804010045
:10673000F0B5C26887B0071C002A00D17DE0836AEB
:10674000002B7AD0061CFC367468002C75D09A6831
:10675000651C954271D1D86806F026FF394B384A3E
:1067600004F028FA002803D000230295039302E0E6
:1067700002340294039002A803A901F023FCBA6A30
:1067800004A8083202A901F05DFC049806F0CEFED0
:10679000041C05980D1C06F0C9FE2B4A2B4B06F075
:1067A000D7F8021C0B1C201C291C05F04BF900908B
:1067B000B068019106F0F8FE224B214A04F0FAF984
:1067C0007C1C7368FF34002803D0029300230393DA
:1067D00002E001330293039002A803A901F0F2FB47
:1067E000221C04A802A901F02DFC049806F09EFECC
:1067F000041C05980D1C06F099FE134A134B06F075
:10680000A7F8021C0B1C201C291C05F01BF9019B7E
:10681000041C5A004E0073080D1C00985108221CDD
:1068200004F0C8F9031CF868002B02D0009A019B01
:1068300001E0221C2B1CFDF7EBFE07B0F0BDC046AB
:106840000000000065CDBD4195D626E80B2E113E17
:10685000F0B5041CC0688BB0002864D0A16A002980
:1068600061D0261C1036311CFEF734F900285AD0AE
:10687000A76A631C3A1CFF33083203CA03C3311CE6
:10688000261C07AD18361031321C281C01F0DAFB2B
:106890002E4B2D4A281C01F077FB3B1C083305CEFC
:1068A00005C3381C291C083001F0A0FBA06A23692D
:1068B000D83643603168271CF43709228A42924156
:1068C000396852428C460592142162465143221C7B
:1068D0002C3251184B60031C029108330831019788
:1068E0000491039384CB84C10069029B0A2118613F
:1068F0006046013004F0DCF8019F30683960059F84
:106900007B427B41C3183360002F02D060680028AF
:106910000BD1231CFC331B780125002B11D0201C2C
:10692000FFF706FF0DE000250BE0094B0721079359
:1069300002232B71074B2A1CAB6003681B68984726
:10694000E7E7281C0BB0F0BD000000000000E03FAE
:1069500058FC000084040100426830B50A704468A5
:10696000230A4B70C3888B70C379CB7082680A711D
:106970008468230A4B7143898B71C37ACB71C268D7
:106980000A72C468230A4B72C3898B72C37BCB72B1
:1069900002690A7304691022230A4B73438A8B73BA
:1069A000C37CCB730B1C1033841864680432250A33
:1069B0001C705D70250C240E9D70DC7004331C2A45
:1069C000F2D10B1C1C33202284580432250A1C707F
:1069D0005D70250C240E9D70DC700433442AF3D1C5
:1069E000436C0A1C40321C0A137054701C0C1B0EA2
:1069F0009470D370836C1C0A137154711C0C1B0EA1
:106A0000D371031C94714C331C8814721B881B0AAD
:106A10005372026D0B1C4A331A70046D4E31220AF8
:106A20005A70046D220C9A70046D5430220EDA7084
:106A300003784F200B7030BD70B50A7842604B78F8
:106A40001B02134343608A78120413434360CA78DD
:106A50001206134343600A7982604B791B02134389
:106A600083608A79120413438360CA791206134340
:106A700083600A7AC2604B7A1B021343C3608A7A2E
:106A800012041343C360CA7A12061343C3600A7B1D
:106A900002614B7B1B02134303618A7B1204134385
:106AA0000361CA7B1206134303610B1C10331022CF
:106AB0005E789D7836022D0435431E788418354360
:106AC000DE78043236063543656004331C2AEFD184
:106AD0000B1C1C3320225D789C782D0224042C434F
:106AE0001D782C43DD7804332D062C43845004326A
:106AF000442AF0D10B1C41331A7801331B7812025F
:106B00001B0413430A1C403212780C1C13430A1C4A
:106B10004332127849341206134343640B1C453345
:106B20001A7801331B7812021B0413430A1C4432E7
:106B3000127813430A1C47321278120613438364F7
:106B40000B1C48331A78031C4C331A802478240217
:106B500022431A800B1C4A331A78013302651B78D2
:106B60001B0213430A1C03654C32127812041343B0
:106B70000A1C03654D3212784E3112061343036529
:106B80000B78543003704F2070BD000000487047F0
:106B9000DC04010000487047EC0401000E4B10B506
:106BA0000360002343608360C3600361021C002311
:106BB000041C43618361C3612032443408C2002154
:106BC000A242FBD1021C00234C3241648164138039
:106BD0000365137210BDC046B0040100F8B5184E2D
:106BE00001273368041C174D3B4203D1281CFFF7D3
:106BF000D5FF3760A168656000291FD0124A0120C7
:106C00001668124B064004D1114F5D601F601E6173
:106C10001060E360002290000E4C08180019006814
:106C2000002808D1D01DFF30800008187D32436055
:106C30009A60D96002E00132192AECD1F8BDC04651
:106C4000EC220020942200207C22002080220020C0
:106C50000D0501001C040000F0B5476893B0061C48
:106C6000002F00D123E1406F391D002852D1B26FAF
:106C7000002A4FD13A1C0C3210A801F0E3F9109B06
:106C800011980E930F90181C06F050FC041C0F98DE
:106C90000D1C06F04BFC894B874A05F059FE021C7F
:106CA0000B1C201C291C04F0CDFE06F003FD3067F0
:106CB0000E9804F01BFE06F0ABFC814A814B05F0F8
:106CC00047FE041C0F980D1C04F010FE06F0A0FCFB
:106CD0007D4A7E4B05F03CFE021C0B1C201C291C2F
:106CE00004F0B0FE06F0E6FC7768FF239B05BB616D
:106CF000774B784AFB61FE239B053B6200237B6256
:106D0000BB62FB627B63BB63FB63734B78613A637B
:106D10003B64C7E0321C743210A801F093F910985C
:106D200006F004FC041C11980D1C06F0FFFB634BDD
:106D3000614A05F00DFE021C0B1C201C291C04F0EE
:106D400081FE06F0B7FC74687864231C4C33188805
:106D500004F028FE656C6269A369011CE469301CBB
:106D6000283000940190281CFCF7C8F87468E36A86
:106D7000256A616AA26A676C0093206B0E9101908C
:106D8000616B0F920291A26B0392E36B0493206CF0
:106D9000231C4C330590188804F004FE0690B1695A
:106DA0000791F269291C0892336A0E9A0993A06927
:106DB000331C0A90E46934330B940C93381C0F9BFA
:106DC000FCF7BAF8726810A8111D0C3201F03AF9FC
:106DD000109804F08BFD06F01BFC394A394B05F086
:106DE000B7FD041C11980D1C04F080FD06F010FC8A
:106DF000354A364B05F0ACFD0B1C021C291C201C2F
:106E000004F020FE06F056FC321C011CB0655C321A
:106E1000B06AFCF737F9321C706B716A6032FCF7AC
:106E20003AF9331C64330093706B316CF26C336E3F
:106E3000FCF73CF9B16A0091F26A0192336B02935C
:106E4000736814330393706EB16EF26EF36DFCF7DA
:106E500041F9B06B0090F16B0191326C0292736C4E
:106E60000393B06C0490F16C0591326D0692736DD2
:106E70000793736820330893F26EB16E706E736B74
:106E8000FCF745F97468231C4C33188804F02EFD78
:106E9000124904F071FAA16904F098FBE16904F069
:106EA0006BFAA06473687436043303CB03C613B063
:106EB000F0BDC046C046C04695D626E80B2E113E12
:106EC0000000000080842E41FCA9F1D24D62503FA9
:106ED0000000C0400AD7233BEC51B83C0D68533B3F
:106EE00070B5446896B0051C002C2BD06846FFF79F
:106EF00055FE231D01AA03CA03C303AA41CA41C305
:106F000005AA43CA43C308AA43CA43C343CA43C3E7
:106F100043CA43C311996164129B149EA36413ABCB
:106F20001A88231C4C331A80266515AB1B78543401
:106F300023706B68D2211A1C4C32FF3111805433FC
:106F400000221A7000236B67AB6716B070BD00009B
:106F5000F0B5444B444E03600023041C4360816041
:106F6000C36030680127C3B0404D384203D1281CAC
:106F7000FCF77EFE376000233D49221C63612561DA
:106F8000183261C961C23B4A6367626200222267AC
:106F9000221C7C32A3671370D36013615361936129
:106FA000354B0122197811431970344B19780A4373
:106FB0001A70334AD379DB09FBD1137801210B43D3
:106FC0001370D1792E4BC909FBD159784020014368
:106FD000597059780120014359701889D221FF3125
:106FE00001431981D179264BC909FBD119780220B7
:106FF00001431970D379DB09FCD12569002D24D018
:1070000001A90B704B708B700123CB7040A804ABAF
:1070100000221A605A609A60DA6018338342F7D10E
:1070200068460230FF30027042703F923E921A7002
:10703000012252425A60A2225200A8188222520013
:1070400006F02CFC281CFCF79BFDA368002B02D04B
:107050002269FC321364201CFFF742FF201C43B05E
:10706000F0BDC046C804010084070020E0020020F3
:10707000D004010017B7D13B3144004142440041E4
:107080000048004200000000F0B5056FC5B0041CC8
:107090000021281C03F0DCFD002805D0FE21281C5F
:1070A000890503F0D5FD03E0281C434903F0BCFD2E
:1070B000431E9841002825D0404E01273368404D9B
:1070C0003B4203D1281CFCF79DF937606368281CFC
:1070D000D968FCF7D1F9636804ADDA68281C1B692C
:1070E000384906F0BFFC384B01AA0193A068012380
:1070F0001371036895601B6807219847201CFFF7F0
:10710000EFFE50E065680021686C03F0A1FD0028E7
:1071100049D02E49A86904F02FF9061C686906F0C9
:1071200077FA244B224A05F013FC06F0C3FA011C3F
:10713000301C04F04BFA2649061C03F075FD0028AC
:1071400007D1301C234903F083FD002802D0214ED3
:1071500000E01F4E301C03F037FC03F08DFD4C3572
:1071600080B228801C4BDA79D209FBD11881DA79F8
:10717000D209FCD16568FE216B6989055800400879
:1071800003F052FD7C34002805D023783C2B03D03B
:107190000133237000E0207023783B229A429B4108
:1071A0005B4254352B7045B0F0BDC046C046C0466A
:1071B0002D54A3FC49A90840000080BF900700207F
:1071C0006C0100201705010058FC000000009B43E3
:1071D00000001B4300C0414400480042C046C04676
:1071E00038B5041C406903283ED803F013FC021A8A
:1071F0002830206900283AD06368002B37D0211C42
:107200008031FDF785F8002831D06168221C883272
:107210000B1D21CA21C3231DDB6F0B650123636195
:1072200025E02368201C1B689847031C0020012BC5
:1072300002D1022363611BE0022B19D115E0201C4F
:10724000FFF70AFD201CFFF71FFF032309E0E36897
:10725000002B05D0D868996802681368626898475F
:1072600000236361012003E00020606100E0002052
:1072700038BD0000F8B5041C171C1E1CFFF768FE83
:107280000B4B251C08339835201C23609C302F6045
:10729000FDF7B0FF231C2868FC330022DA6290421D
:1072A00003D00368311CDB699847201CF8BDC04639
:1072B0003805010000000000F0B5071CFC37061C73
:1072C000F86ACFB0032800D9A7E003F0A3FB02A619
:1072D000A6967268002A00D1A1E0FAF77FFF011C90
:1072E0000AA8FCF70BF972680CA804320AA900F08E
:1072F000A9FE0C9806F01AF9041C0D980D1C06F056
:1073000015F9924B904A05F023FB021C0B1C201C24
:10731000291C04F097FB04900591FAF75FFF071C06
:10732000C06906F003F9041C386A0D1C06F0FEF86B
:10733000864B854A05F00CFB021C0B1C201C291CEB
:1073400004F080FB051C2A1C80250C1C2D060498CB
:107350000599631903F02EFC002807D104980599BC
:107360007B4A7C4B03F03AFC00283CD0B268002AF0
:1073700037D00A9806F018F9069007910B9806F096
:1073800013F9724B704A05F0E3FA021C0B1C0698C5
:10739000079904F057FB746806900791606806F03F
:1073A00003F908900991A06806F0FEF8674B664A59
:1073B00005F0CEFA021C0B1C0898099904F042FB58
:1073C000049C059D069A079B0090019102940395E9
:1073D00063490EA806F046FBB06802210EAAFBF72F
:1073E00063F9022215E05C4A5C4B0498059903F0AE
:1073F000F5FB032200280CD111E0341C98342068DE
:10740000002810D003681B699847002838D10AE08B
:107410000122331CFC33DA6201E00023FB62FC36FC
:10742000F06A4FB0F0BDFAF7D9FE011C0CA8FCF7CA
:1074300065F872680EA804320CA900F003FE0E98DD
:1074400006F074F8041C0F980D1C06F06FF83F4B03
:107450003D4A05F07DFA021C0B1C201C291C04F07F
:10746000F1FA3B4A3B4B03F0B9FB0028D7D0B06898
:10747000002803D003213B4AFBF716F90223CDE78E
:107480002068351C03689C3504955B699847C1B238
:107490000498FDF785FF0028C1D1FD68002DBED1FD
:1074A000206803681B69984701281BDDB268002A21
:1074B0000DD0206803681B6998472B49021C0EA851
:1074C00006F0D0FAB06802210EAAFBF7EDF82068AA
:1074D00003681B6998470028D0D0206803685B695F
:1074E0009847F4E7301CFF304479331CFE33198A87
:1074F000827B437B009484790194C07902900CA82C
:1075000000F07EFE7768002F0CD00CA800F090FEF3
:107510000EAC0E900FA9201C0C370F9500F052FDF9
:1075200024CC24C7341C9834206803681B6998470E
:10753000002800D16CE7206803685B699847C1B2F6
:107540000498FDF72DFFEDE795D626E80B2E113EAA
:107550009A9999999999E93F9A9999999999C93FCD
:1075600048050100DC05010091050100C046C04648
:10757000002341608360C2608361C3610362436230
:10758000114A8362011CB6235B002C3170B5026086
:10759000C6180B1C0D4A0C1C1A600D4A5D1A5A6065
:1075A000083400222A512C1962601A619A82DA8208
:1075B0001A835A839A83DA832033B342EAD1031CB5
:1075C000FC335A671A6770BD10060100A8FE000060
:1075D00028FC0000F0B5314E0124356825400CD15F
:1075E0002F4B304F1D821F602F4F9D61DF602F4F4B
:1075F000D8615F611C62996034604468002C4BD094
:10760000C368FC331C640023990090256118ED00C9
:1076100049190968002908D1902149005D182049BD
:10762000AD00643329514B6002E00133192BEBD1DB
:107630001F4D012629681F4B31400DD11E4F996007
:107640001F601E4FD9605F6019619982D9821983CA
:1076500059839983D9832E60194D01262F6883623F
:107660003740184903D10A604B600F612E6081607A
:1076700000239A00144DA21852191268002A08D14A
:10768000DA1DFF329200A2187D3351608B60CC600E
:1076900002E00133192BECD1F0BDC04614230020C9
:1076A000F02200205003010038030100BD650000F6
:1076B0001823002020230020A8FE000028FC000042
:1076C0001C230020402300201C04000038B5041CAB
:1076D00004300D1CFAF71EFD226929182A5422696C
:1076E0000730130A4B70638A8B70E37CCB70A38ADC
:1076F0000B71A38A1B0A4B71A37D8B7138BD38B502
:10770000041C04300D1CFAF719FD2A5C29182261AB
:107710004B7807301B02134323618A78120413430A
:107720002361CA781206134323610B79A3824A7935
:1077300012021343A3828B79A37538BD00487047AA
:10774000300601000048704748060100F7B51F49A0
:10775000041C0A68012002400AD11D4B1D4D9A608D
:107760001D601D4DDA605D601A619A829A7508602D
:10777000251CFC35AE6A00200096864224D0686A3B
:107780000A210A30801B03F093F918235943271C60
:10779000303779180E4A081C083008270190BF18A6
:1077A00048C848C70F69009E17618B8A013E9382C3
:1077B0008B7DAE629375A368002B04D0D86899685E
:1077C0000468236898470120FEBDC046702300204E
:1077D000B42300202006010028FC000008B503683F
:1077E000C9B21B68984708BDF0B5324E0124356810
:1077F00025400CD1304B314F1D821F60304F9D61B1
:10780000DF60304FD8615F611C629960346041680D
:10781000002943D0C368FC33196400239C009025E1
:107820000C19ED0064192468002C08D19024640020
:107830001D19214CAD0064336C50636002E00133CC
:10784000192BEBD1204D01262C68204B344009D157
:107850001F4F9C601F601F4FDC605F601C619C823B
:107860009C752E601C4D01262F68C36237401B4C4F
:1078700003D12260636027612E60846000239A0038
:10788000174D8A1852191268002A0DD1DA1DFF32DD
:1078900092008A187D335460A360E160C36A002BB4
:1078A00006D01B69836203E00133192BE7D1F5E7AA
:1078B000F0BDC0469C23002074230020500301002B
:1078C00038030100BD650000542300205823002028
:1078D0002006010028FC000098230020A02300209F
:1078E0001C040000F8B51A4C071C0D1C201C62215A
:1078F00000F03EFD8E21201CFFF770FF201C0121AF
:1079000000F0AFFD061E06D07868002803D00221E3
:10791000104AFAF7C9FE201C62210322012300F05D
:1079200040FD002D0FD0201C00F0D4FDA875201CB8
:1079300000F0D0FD071C201C00F0CCFDFFB23F0280
:10794000C0B2C719AF8270427041C0B2F8BDC04624
:10795000342400206906010070B5144C6221061C15
:10796000201C00F005FD0121201CFFF737FF201C23
:10797000012100F076FD051E06D07068002803D0B6
:1079800002210B4AFAF790FE0122131C6221201CEF
:1079900000F007FD201C00F09DFD021C0020854228
:1079A00002D10123101C184070BDC04634240020B1
:1079B0008F060100F7B5041CC068002808D0E16AF2
:1079C000002905D0211C1031FDF784F800280CD1C6
:1079D000E36A002B13D01B69A26A9A420FD0201CC5
:1079E000FFF7BAFF00280AD10BE0E16A221C0B1C4A
:1079F0000833183221CA21C326690E61E8E7002046
:107A00003EE0201CE16AFFF76DFF00282ED0251C08
:107A1000FC35AB6A09269E42B641764200966E6AF4
:107A200018237343E26A211C3031101CCB18083034
:107A300008270190FF1842C842C717691F61918A41
:107A40009982927D0A219A75686A013003F030F8B4
:107A5000AA6A009E6962531C002E00D0131C009F6E
:107A6000AB62002F02D06068002804D1E36A0120D5
:107A70001B69A36204E00221024AFAF715FEF5E74A
:107A8000FEBDC046B806010070B50A4C0E1C201C95
:107A90006221151C00F06CFC311C201C00F0BCFCA9
:107AA000291C201C00F0B8FC201C012100F0D9FC8E
:107AB00070BDC04634240020F0B5C260324A1E1C9E
:107AC00008320023416083608361C36103624362C3
:107AD0000260C3620122011C9023524230315B00DC
