:1020000000800020E1790000C9790000C979000052
:1020100000000000000000000000000000000000C0
:10202000000000000000000000000000C97900006E
:102030000000000000000000C9790000357A0000AF
:10204000C9790000C9790000C97900006D35000028
:1020500089220000C9790000C9790000CD7900000B
:10206000C979000015790000C9790000C97900001C
:10207000ED780000C9790000257900002D3C0000B2
:10208000ED3C0000AD3D0000E13500004D360000A4
:10209000B9360000C9790000C9790000C97900008B
:1020A000C9790000C9790000C9790000C979000028
:1020B0000000000010B5064C2378002B07D1054B1B
:1020C000002B02D0044800E000BF0123237010BDA4
:1020D0008002002000000000C8030100044B10B57E
:1020E000002B03D00349044800E000BF10BDC046E8
:1020F0000000000084020020C803010043680B7048
:1021000043681B0A4B7043681B0C8B7043681B0EA3
:10211000CB7083680B7183681B0A4B7183681B0C3F
:102120008B71836808201B0ECB7170470A78426060
:102130004B781B021A4342608B781B0413434360A5
:10214000CA781206134343600A7982604B791B02F6
:102150001A4382608B791B0413438360CA79120689
:102160001343836008207047004870477DF10000EA
:10217000004870475CF1000000487047EEF0000036
:1021800000487047CDF0000000487047BAF00000EA
:102190000048704799F000000048704707F10000C0
:1021A0000048704778F000009F23DB00C05C704758
:1021B00010B50400034B03602C3002F039FC200002
:1021C00010BDC0466CF6000070B50126054D064CEA
:1021D0002B68334203D1200001F0E0F82E6020008C
:1021E00070BDC046900800209408002070B50126FC
:1021F000054D064C2B68334203D1200001F0CEF987
:102200002E60200070BDC046480700204C0700200B
:10221000174B10B5186803681B689847002826D12B
:10222000144B186803681B68984700281FD1124B8D
:10223000186804F085FF002819D1104B186803684E
:102240001B689847002812D10D4B186804F0C2FA99
:1022500000280CD1FFF7B8FF00F0CEFF002806D110
:10226000084B1868002802D003685B68984710BDC7
:10227000141000200C100020201000201810002046
:10228000101000201C10002010B5FFF79DFF01F07A
:102290004DF9FFF7ABFF02F055FB10BD0B0A0170C3
:1022A00043700B0C090E8370C1707047F8B58388BA
:1022B00006000B7083880D001B0A4B7080680BF0C2
:1022C0002DFA0400A81C2100FFF7E8FF2200B168E6
:1022D000A81D0AF0B3FCF0680BF020FA0700A31D5C
:1022E000E81839000A34FFF7D9FF3A00F1682819D5
:1022F0000AF0A4FC30690BF011FAE4190700281960
:1023000039000434FFF7CAFF3A00281931690AF08E
:1023100095FC7369E4192B551A0A2D196A701A0C69
:102320001B0EAA70EB70201DF8BD4368F7B50B704B
:1023300043680E001B0A4B70436804001B0C8B7033
:1023400043681B0ECB700B1D0021DA1C944662689B
:102350008D1C5F1C981CAD008A420DD9E2680131CA
:102360005519083D2A68100A1A705870100C120E80
:102370009870DA700433E8E7226900211A70624627
:1023800023691B0A3B7023691B0C037023691B0E16
:1023900013707319DA1C944622695F1C981C04356B
:1023A0008A420CD9A0698A0012580131100A1A70A9
:1023B0005870100C120E9870DA700433EAE7E26974
:1023C0001A70E36962461B0A3B700027E3691B0C25
:1023D0000370E3691B0E1370E369BB4215D9636A8E
:1023E000BA0098580BF09AF9019001997019FFF70B
:1023F00055FF636ABA00043599587019019A0AF0BA
:102400001DFC019B0137ED18E6E72800FEBD70B505
:10241000037906000B7080680D000BF07FF9040053
:10242000681C2100FFF73AFF681DB16822000AF01E
:1024300005FC601D70BD002310B50360CA5CDC00A4
:10244000A2400468013322430260042BF6D110BD80
:10245000F0B50C000B7885B083804A780600120234
:1024600013438380023101A8FFF7E5FF611D0B00D4
:10247000019A951D0133181B854203D91F78581EF8
:102480000770F7E70023A218537102A8B160611921
:10249000FFF7D1FF029A2B1D9D181A00954204D90F
:1024A000A05C511E60540132F8E700206119013B25
:1024B000E3184A1E1070F36003A8FFF7BCFF039BEC
:1024C0000435E8182B00984204D9E15C5A1EA15447
:1024D0000133F8E700212218013D531E65191970D8
:1024E0003561537891781B020904D2780B43215C43
:1024F00012060B4313430430736105B0F0BDF0B511
:102500004B780D781B022B438D7887B02D042B431D
:10251000CD7804002D061D4343680E00AB4204D263
:10252000A900C0680BF0B4F8E06000236560371DB7
:102530000193BA787B7812041B0213433A78134351
:10254000FA780437120613430293019B019A981CF0
:10255000830003931D00636893420DD92800210076
:10256000029B0838A360E3680422181808310AF0B7
:1025700065FB019B0133DBE72369029A934204D296
:102580009100A0690BF084F8A061029B2361039B7A
:10259000F71800230193BA787B7812041B021343C7
:1025A0003A7804351343FA7804371206134302933A
:1025B000019A236993420CD92100029B9000636128
:1025C000A3690422181814310AF038FB019B013367
:1025D000E0E7E369029A934204D29100606A0BF04B
:1025E00057F860620027029BE361E369BB421FD991
:1025F000711905A8FFF71FFF059A2B1D9D181A00DA
:10260000954204D9B05C511E70540132F8E70021A4
:102610007219013A11702100013BF3182362636AB9
:10262000B8001818042220310AF008FB0137DCE753
:10263000280007B0F0BDF7B50C000B78050003715A
:10264000013101A8FFF7F7FE221D13000199481D73
:1026500001331E1BB04203D91F785E1E3770F7E7A7
:10266000002364182371AA60FEBD00001FB5054C4D
:1026700001AB0392026819710194072114681A00D2
:10268000A0471FBD3CF000000123F0B5814987B091
:102690000A68814C1340814D41D1814A81482260B2
:1026A000E1221202A2609F22D200A3547E4A6560FA
:1026B000A05018001C32A3500832A3507B4A9A182D
:1026C0000433A050642BF9D1002318009022D200CB
:1026D0009A18121904331060642BF7D1002380225A
:1026E0001E0092001819013306779342FAD1002296
:1026F00080261300B60087208000101800190132D0
:102700000370B242F7D1A222D200A3500832A350E4
:10271000674AA361A350674AA35001230B60664F29
:1027200066483C6005F0CAF9A168606805F074FF6E
:102730000023634A0121A3500432A3500832A3505E
:10274000604A3868A350604AFFF790FF280005F000
:1027500065FF0028FAD001235C4E5D4D34681C40B3
:1027600016D13B680593FFF741FD0A23029303331B
:102770000193FA2302009B0005990094280002F0BF
:10278000BBFE0123534A54492800336007F0FEF989
:102790000124524B1D60524D2B68234215D13B68DA
:1027A000504E05933368234203D14F4801F00AFA93
:1027B0003460012400230294009301940A334A4AAE
:1027C00005994A4803F0A6FA2C600126484B474A6F
:1027D000484D1A602B68484C334207D1E123474AE1
:1027E0005B023968200004F03FF82E600126444B5C
:1027F000444D1C602B68444C334205D1434A396830
:10280000200004F045FC2E60414B424D1C60012429
:102810002B68234211D13B683F4E05933368234216
:1028200003D13E4800F0F0FE34600A233B4A05998C
:102830003B4804F0F5FA01232B603A4C384B2360F7
:10284000FFF7C2FC396800F09BFC374B234801932B
:10285000364B374A00933749374B006802F0C2FEC7
:10286000364B23480093364A3649374B006803F00D
:102870002FF9234B186803F0B3FC254B3349186834
:1028800004F01CFC324A3349206804F033FA07B0E4
:10289000F0BDC046CC0800205C090020E4210020E7
:1028A0006CF0000054F000000C0500001C04000057
:1028B0001C050000240500001C100020B80B0000BF
:1028C000E4040000EC0400008BF10000C4080020C8
:1028D000DC08002000000020B121000014100020BE
:1028E000D00800209C020020A0020020900E0020B2
:1028F0000C100020D4080020C80E00204C1D002021
:1029000010100020D8080020F40F0020881F00209D
:1029100020100020C8080020000600200406002027
:102920002C09002018100020E5F10000FEF1000045
:10293000B6F10000CEF100009DF1000036F200007B
:1029400023F2000031F2000016F2000042F2000013
:1029500053F2000069F2000070B504000E00632914
:1029600005DD9F230025DB00C35CAB4239D0136833
:1029700021491B6861181000984787231F4A9B0054
:10298000E2521F4AC3B2A3541E490212D2B2625489
:102990009B188822DB439200A3541B4B0522E6546C
:1029A0001A4B36B23612E6540023851D954206DBDB
:1029B000872189005118615C01325B18F6E7DB431F
:1029C0000D4A0500201880180370802308359B00ED
:1029D0009D4208DC60681C33E11803682A005B68CC
:1029E0009847280070BD0125094A03212000FFF700
:1029F0003DFE6D42F5E7C04623020000FFFEFFFFEB
:102A00001E0200001F02000021020000220200003E
:102A100023F100001FB5074B01AA01930023029385
:102A2000039303680A211B680400984705F010F817
:102A3000E0601FBD0CF000000022F0B5802705000B
:102A40002B4B89B0029302AB9A802A4B07920493D6
:102A500005930693284BBF00C4186433C618236837
:102A6000002B17D09A68586802A98A801A680368F0
:102A700004929B6898472368059058680368DB6850
:102A8000984721682B68069007971B6802AA096976
:102A9000280098470434B442E1D18026174BB60091
:102AA000EB1801932068002818D0436802AA93808D
:102AB0008368049303689B689847059020680368BF
:102AC000DB6898472B68069020681F6803680796A4
:102AD0005B68984702AA01002800B847019B0434AC
:102AE000A342DFD19F230122DB00EA5409B0F0BDED
:102AF00024F00000B90301001C040000E4040000FD
:102B0000F0B5244B87B00393002304000E00049318
:102B1000059304F09DFFE3683100C51A03A8FFF791
:102B200005FBFA212800890007F064F8FA21049BCC
:102B30008900181804902800019307F0E1F8164E58
:102B4000059B7143C9180193059104F081FFFA2197
:102B5000049B8900070001935D1E07F04BF8FA21E2
:102B60002D1A0E4B2561059D38008900ED1807F0E0
:102B7000C7F820004E432100AE1B143166611030AF
:102B800004F0AEFB04F064FFA023DB00E05007B0CC
:102B9000F0BDC0460CF0000040420F0000CA9A3B56
:102BA000F8B5040004F054FFA023DB00E358774A93
:102BB0000700C31A934203D99F230022DB00E2548B
:102BC000734D6359002B05D0724BE358BB4201D2C1
:102BD00000236351A369002B17D1606803685B6908
:102BE0009847002819DA9F230025DB00E35CAB42FD
:102BF00009D0694E694AA359FB1A934203D92000B0
:102C0000FFF708FFA7512800F8BD04F021FFA369D2
:102C1000C01B9842E1D902258FE0614AA358C3182E
:102C2000A3506659072E0DD1043AA358591CE31836
:102C3000A1501877083AA358013BA350002BC9D1E3
:102C40000823C6E7002E12D1FF2806D101236351C5
:102C50003B00504A1433A350BCE704F0F9FE514B3B
:102C6000C01B9842B6D99F23DB00E654D3E7012E60
:102C70000ED1FE2801D10223ABE7002363519F232D
:102C8000DB00E35C002BA5D12000FFF7C3FEA1E72A
:102C9000022E09D19D230021DB00E0500833E150D2
:102CA00003236351A05095E7032E07D19D23DB003A
:102CB000E25800021018E05004238AE7042E0BD1DA
:102CC000394A134003D5394A013B13430133FF2BE3
:102CD00000D07DE7FA3B7CE7052E03D1344BE05072
:102CE0000623DEE7062E0AD1314B0002E258101807
:102CF000E050072363519D23DB00E3589EE7082E35
:102D000000D067E700226251274A134003D5274AC3
:102D1000013B13430133FF2B00D05BE7244BE35807
:102D2000002B0CD101252000FFF774FE2000FFF7D7
:102D300083FE194BE7500433E7506D4263E70A2BDB
:102D400005D1210020001C31FFF7DAFE42E7062BF7
:102D50000AD12100174B1C31E018FFF7D0FB0123EB
:102D6000A122D200A35435E70B2B02D100239F22CE
:102D7000F7E7BC339B001859002800D12AE721004F
:102D800003681C311B68984724E7C046F82A0000F6
:102D9000E404000004050000FC040000C409000075
:102DA000F404000088130000FF00008000FFFFFF14
:102DB000EC0400000C05000070B5040004300D00A8
:102DC000FFF79CF923692B5423692D181B0A6B709C
:102DD000236910301B0CAB7023691B0EEB7014229F
:102DE000A35E2B719BB21B0A6B711622A35EAB71A3
:102DF0009BB21B0AEB711822A35E2B729BB21B0ABB
:102E00006B721A22A35EAB729BB21B0AEB721C227E
:102E1000A35E2B739BB21B0A6B731E22A35EAB7364
:102E20009BB21B0AEB7370BD70B5040004300D003B
:102E3000FFF77CF92A5C2D1822616B7810301B0299
:102E40001A432261AB781B0413432361EA7812060C
:102E5000134323616A792B7912021343A382EA791F
:102E6000AB7912021343E3826A7A2B7A120213437C
:102E70002383EA7AAB7A1202134363836A7B2B7B48
:102E800012021343A383EA7BAB7B12021343E38357
:102E900070BD000000487047B9F20000004870475C
:102EA00098F2000010B5FA24A400200004F006FEF9
:102EB000FBE70000F7B51D1C071C081C0C4901921C
:102EC00007F02EFC291C07F05DFD0899061C381C34
:102ED00007F026FC011C301C07F022FC019907F0CA
:102EE000ADF8099C089B65602060A360F7BDC046F3
:102EF0000D68533BF0B51E1C802387B01B06C3181A
:102F0000051C059112984C490292009307F008FCA9
:102F1000169907F037FD0D99071C009807F000FC83
:102F2000179907F0FDFB10990190281C07F0F8FB9A
:102F3000391C07F0F5FB019907F080F8029907F0BA
:102F40007DF811990290281C07F0EAFB391C07F064
:102F5000E7FB0E990390009807F0E2FB179907F042
:102F6000DFFB039907F06AF8311C07F067F80C994A
:102F70000490009807F0D4FB1799189C07F0D0FB39
:102F80000F99061C281C07F0CBFB391C07F0C8FB67
:102F9000011C301C07F052F81799061C281C07F07A
:102FA000BFFB029907F0BCFB011C301C07F0EAFCD8
:102FB000291C061C381C07F0B3FB049907F0B0FB72
:102FC000011C301C07F03AF8059907F037F81399FF
:102FD00007F034F8029B0E996360049B2060A360A5
:102FE000281C07F09DFB391C07F09AFB019907F09C
:102FF00025F80C9907F022F81499E0600D9807F075
:103000001DF80E9B206163611099009807F088FB02
:10301000179907F085FB039907F010F80F9907F04F
:103020000DF8109BA061E3611599119807F006F85F
:10303000206207B0F0BDC0460D68533B0B1C10B5B5
:10304000011C181C140007F09DFC206010BD10B579
:10305000140006F0F3FF011CFE20800507F088F93C
:10306000206010BDF8B50F1C191C1D1C161C07F0A4
:1030700057FB069C391C2060281C07F051FB311CB3
:103080006060281C07F04CFBA060F8BDF8B50F1C71
:10309000191C1D1C161C07F043FB069906F0CEFFF9
:1030A000099C391C2060281C07F03AFB079906F0A0
:1030B000C5FF311C6060281C07F032FB089906F040
:1030C000BDFFA060F8BDF7B50D1C011CFE208005FA
:1030D00001921E1C07F056FC311C071C07F020FB58
:1030E000109C08992060381C07F01AFB0999606051
:1030F000381C07F015FB80231B06ED18311CA0605F
:10310000281C07F00DFB0A9906F098FF0899E0606B
:10311000281C07F005FB0B9906F090FF0999206128
:10312000281C07F0FDFA0C9906F088FF8022120691
:103130009446019B311C63446061181C1D0007F01C
:10314000EFFA0D9906F07AFF0899A061281C07F0A4
:10315000E7FA0E9906F072FF0999E061281C07F062
:10316000DFFA0F9906F06AFF2062F7BD10B5C36859
:103170000A0019680C6881681800A04710BD00009B
:10318000F0B5002924D00125144C154B22682A40A3
:1031900004D1144E5A601E609A6025600126124DBB
:1031A000124A2C68344004D1114F536017601461E7
:1031B0002E600CC00F4BC81800230468002C08D1E7
:1031C000D81DFF30800008187D3342609360D160C5
:1031D000F0BD01330430192BEFD1F9E724100020A2
:1031E0002C1000200CF000002810002038100020C7
:1031F000DCF200001C04000070B503680400057ACE
:10320000002B0FD04268002A0CD0002D0AD0C168D4
:1032100051600169D868916001680E689968B0478B
:1032200000232372280070BD08230A4A11680B434B
:103230001360094B07221900353108784A330243DD
:103240000A70012219780A431A70022219780A4377
:103250001A7070471C040040004400410823124AC1
:1032600011680B431360114B114A5A605A78D20906
:10327000FCD1104A5A805A78D209FCD10E4A5A80A1
:103280005A78D209FCD10D4A5A805A78D209FCD119
:103290000B4A5A805A78D209FCD10A4A5A805A7885
:1032A000D209FCD17047C04618040040000C004011
:1032B0000401010004440000074400001A44000017
:1032C0001B4400001C44000002230A4A11680B43FF
:1032D00013608222084B52001A8106321A8104328E
:1032E0001A8104321A811422FF321A8101321A81A2
:1032F0007047C04620040040000400422023234AB7
:1033000011680B431360224A1300917AC909FCD15A
:1033100002201188814311809A7AD209FCD1198840
:1033200001320A431A809A7AD209FCD11A8892B2E1
:103330001A809A7AD209FCD1198880320A431A80FD
:103340009A7AD209FCD11A619A7AD209FCD1114A2F
:103350009A619A7AD209FCD1D97901320A43DA7199
:103360009A7AD209FCD199880132FF320A439A80B5
:103370009A7AD209FCD1C021074A890053581B020E
:103380001B0A5350082313607047C04618040040BE
:10339000001400400F27000000E100E0F8B5040031
:1033A00000250123056045602372184B0700436127
:1033B000642301000383164B1C37C5600561C5619A
:1033C000036220313800260003F054FF012321005E
:1033D000243630006362A562283103F081FF2300A8
:1033E0000B222C3339001A70300003F0A1FF2000AB
:1033F000FFF71AFF2000FFF731FF2000FFF764FFFF
:103400002000FFF77BFF2000F8BDC04680969800A3
:1034100040420F00C16070470222044B19880A43E2
:103420001A809A7AD209FCD17047C0460014004035
:1034300010B5040007485B001B5A200053430A8B59
:10344000211D5A4300236260236003F013FF200014
:1034500010BDC046CCF20000F7B50E000024436951
:103460000C4F019200936300D95B009806F0C2FBF9
:10347000310006F0BFFB019BE5B2984207D301344F
:10348000082CF0D1C9210448FFF70CFD25002800C5
:10349000FEBDC046CCF20000E0F20000002330B5D3
:1034A00003604360EFF3108372B6BFF35F8FBFF327
:1034B0004F8FBFF36F8F02000C3130C930C283F3DE
:1034C0001088BFF35F8FBFF34F8FBFF36F8FBFF3D2
:1034D0005F8FBFF34F8FBFF36F8F30BD10B54900C3
:1034E00089B2FFF7B9FF10BD010010B504001C310F
:1034F0000C3003F009FF2369002B01D10133237243
:1035000010BD0000C368426A934209D10269836A10
:103510009A4205D1034B044A5A60DA68D205FCD4BA
:103520007047C046000400420000010270B505006B
:103530000F210C4C2C3523692A789BB20A40134189
:10354000DB070DD5084B1B889B0701D4FFF764FFF1
:103550000F232A7821691A400E3B93400B432361C5
:1035600070BDC046001800400014004010B50A4B62
:103570001A7AD2070ED51A7AD2090BD001221A7202
:103580007F321A72FEF720FEFFF7AEFFFEF71CFE39
:10359000FFF7B8FF10BDC04600140040E02313B58C
:1035A0001B0101A90B8000230400094A8B7000F065
:1035B0003FFAC421074B89002360074B07485A583C
:1035C00002405A508022D20220001A6016BDC04626
:1035D000002C004224F3000000E100E0FFFF00FFA8
:1035E00070B50126064D074C2B68334203D12000ED
:1035F000FFF7D4FF2E60200000F09EF970BDC0469A
:10360000480700204C07002013B5040003220B4993
:1036100001A809F013FB01A9094A200000F008FAEB
:10362000C421084A084B89002360535820001B021C
:103630001B0A535080231B03136016BD5CF300006C
:103640000030004200E100E044F3000070B50126C4
:10365000064D074C2B68334203D12000FFF7D4FFFF
:103660002E60200000F068F970BDC0460006002002
:103670000406002013B5040003220B4901A809F039
:10368000DDFA01A9094A200000F0D2F9C521FF2086
:10369000074B89002360074B5A5882435A508022B7
:1036A000520320001A6016BD80F30000003400426F
:1036B00068F3000000E100E070B50126064D074CFC
:1036C0002B68334203D12000FFF7D4FF2E60200087
:1036D00000F032F970BDC0464C10002050100020A0
:1036E00070B504000500FC34636CDA7BD209FCD1B0
:1036F00002211A888A431A80626CD37BDB09FCD1D1
:10370000E0202B7911881B02C00003400B4313807B
:10371000636CDA7BD209FCD1198860320A4310212C
:103720001A80626C93798B439371636CDA7BD20954
:10373000FCD120219A798A439A71636CDA7BD20991
:10374000FCD12A0028321278002A07D00222997967
:103750000A439A71626CD37BDB09FCD12B68280089
:103760005B699847626CEB8B5383626CD37BDB099C
:10377000FCD1517B203319435173626C917B0B4315
:103780009373636CDA7BD209FCD1198802320A4345
:103790001A80626CD37BDB09FCD170BD70B504006C
:1037A000FC34636CDA7BD209FCD102211A888A438B
:1037B0001A80626CD37BDB09FCD1E0250379118888
:1037C0001B02ED002B400B431380636CDA7BD209A4
:1037D000FCD1198820320A431A80636CDA7BD20943
:1037E000FCD110219A798A439A71636CDA7BD209F1
:1037F000FCD1020028321278002A07D199790132CF
:103800000A439A71626CD37BDB09FCD103685B6964
:1038100098471023616C4A7B1A434A73626C917B10
:103820000B439373636CDA7BD209FCD119880232A3
:103830000A431A80626CD37BDB09FCD170BD0300A4
:1038400010B5FC335A6C13885B069B0F012B02D119
:1038500000F048FE10BD13885B069B0F032BF9D1C7
:1038600000F043FEF6E713B59C24640001553A24AA
:10387000FF340255393CFF3C009400F089FF13BD32
:1038800070B5040000F0CAFEE36820009DB200F0AD
:10389000F0FEFC34636BED18013D636C4519ADB26D
:1038A0001D83A36B626B9A18A2630022626370BDD2
:1038B0000300F0B504000D00FC335A6889B00132F2
:1038C0005A6001331B7804A80093C0CDC0C0270004
:1038D00006A860C960C0F43739680292009A8C4625
:1038E00051424A4102AB1A716146182225004A43EF
:1038F000A2180197F83504322E6883CB83C21100D9
:1039000085CB85C160460A21013006F0F9F9019B9B
:103910001960092E00D801362E60E378002B08D0FC
:10392000009B002B05D12B68012B02D9013B2B609A
:10393000F9E709B0F0BD0000F0B50600FC36736C85
:1039400085B09A7B0400D20721D501259D73030021
:10395000224F203301933B682B4203D12048FFF7CD
:103960001DFD3D60736C1E491A8B02A8237901323C
:10397000FFF75EFD02A9019803F0C6FC2368200052
:103980005B699847200001F01FF805B0F0BD9A7BF5
:10399000D20614D510229A7300F0BAFF2300283300
:1039A0001A789042F1D022002532FF321278002A94
:1039B000EBD1210018002031FFF77AFFE5E79A7B71
:1039C0009206E2D520229A7323002533FF331B7819
:1039D0002830002BD9D1A118EEE7C046900800206E
:1039E00094080020FC30436C10B50400002B03D178
:1039F000C9210E48FFF756FA636CDA7BD209FCD175
:103A000002211A888A431A80636CDA7BD209FCD1BE
:103A1000598923320A435A810123616C4A7B1A4334
:103A20004A73626C917B0B43937310BD83F3000068
:103A300070B50400150000F00BFD054B20000833A5
:103A400023602300FC335D64FFF7CCFF200070BDD2
:103A5000B4F300007047000070B502250A4A0B4C11
:103A600013680F212B431360094B238100F0F2FAF6
:103A7000FE230004DB031840064B18436060E36834
:103A80001B0A2B42FBD170BD200400400004004201
:103A9000070200000100000202230C4A10B5116861
:103AA0000B4C0B431360A123DB0023810B2100F09F
:103AB000D1FAFE231022DB0300041840054B184303
:103AC0006060E3681B0A1342FBD110BD2004004074
:103AD00000040042040000021FB5A2235B00C35C87
:103AE00004005A1E9341013303931E4BC25C013BF9
:103AF000C15C0123009303AB00F04AFE2000FFF7F6
:103B0000CBFF2000FC30436C9A689207FCD4022162
:103B10001A688A431A60426C93689B07FCD480231E
:103B2000116ADB02194311628022416CD2040C68D5
:103B300022430A60416C8A6A1A438A62426CD16AE3
:103B40000B43D362436C9A689207FCD49A6892073D
:103B5000FCD4022219680A431A60426C93689B07DE
:103B6000FCD41FBD5D030000FC30436C9A689207D3
:103B7000FCD402211A688A431A60436C9A6892073F
:103B8000FCD41A680E490A401A60426C93689B077D
:103B9000FCD48023916A1B0319439162426CD16A61
:103BA0000B43D362436C9A689207FCD402221968D3
:103BB0000A431A60426C93689B07FCD47047C04666
:103BC000FFFFFFF713B503220400134901A809F012
:103BD00035F8F0236A461B0101A9138020000F4B22
:103BE00000F056FA0E4BB02208332360D72312019F
:103BF0009B00E2520B4B2000A360E360FFF7B4FF91
:103C0000C321094A8900535820001B021B0A535044
:103C100080231B02136016BDD4F300000020004275
:103C2000D8F30000FFFFFF0000E100E070B50126BF
:103C3000064D074C2B68334203D12000FFF7C2FF2B
:103C40002E60200000F0F4FA70BDC0469C020020F7
:103C5000A002002002230C4A10B511680B4C0B4344
:103C600013600B4B1421238100F0F4F9FE2304228E
:103C7000DB0300041840074B18436060E3681B0A2D
:103C80001342FBD110BDC046200400400004004296
:103C90000D03000002000002E02313B5DB0001A9C0
:103CA0000B8000238B70A0236A4604005B01138005
:103CB0000A4B00F0EDF9C421FF20094B89000833BD
:103CC0002360084BA360E360074B5A5882435A5065
:103CD0008022520220001A6016BDC0460024004215
:103CE000FCF30000FFFFFF0000E100E070B50126DB
:103CF000064D074C2B68334203D12000FFF7CCFF61
:103D00002E60200000F094FA70BDC046941100208F
:103D10009811002002230C4A10B511680B4C0B437C
:103D200013600B4B1521238100F094F9FE23082228
:103D3000DB0300041840074B18436060E3681B0A6C
:103D40001342FBD110BDC0462004004000040042D5
:103D5000110400000300000213B5032204000E4901
:103D600001A808F06BFFA8236A465B01138001A934
:103D70000A4B200000F08CF9C421094B890008335C
:103D80002360084B08485A5802405A508022920239
:103D900020001A6016BDC04620F400000028004232
:103DA00024F4000000E100E0FF00FFFF70B50126F1
:103DB000064D074C2B68334203D12000FFF7CCFFA0
:103DC0002E60200000F034FA70BDC046F4140020CC
:103DD000F814002070B504000500FC34636C9A6888
:103DE0009207FCD402211A688A431A60626C9368B5
:103DF0009B07FCD4E0202B7911681B02C000034014
:103E00000B431360636C9A689207FCD40122D96B50
:103E10000A43DA63636C9A689207FCD41A681D49F6
:103E20000A401A60636C9A689207FCD42A00283210
:103E30001278002A08D18022996952020A439A61B5
:103E4000626C93689B07FCD42B6828005B699847D9
:103E5000626C93681B05FCD4EB685B081365626CAD
:103E600093681B05FCD48023916A5B02194391621D
:103E7000626CD16A0B43D362636C9A689207FCD47C
:103E8000022219680A431A60626C93689B07FCD48B
:103E900070BDC046FFFFFFFE7047030010B5FC3346
:103EA0005B6CDB6B5B075B0F012B01D100F01AFB36
:103EB00010BD70B5060000F0B1FB3400FC340028E2
:103EC00003D0F368626C5B0813653000F56800F09E
:103ED000D0FB626B013DAD18636C28185864A36B6E
:103EE000626B9B18A3630023636370BD0300F0B58E
:103EF000FC331A7889B00400002A3BD10D005A68BF
:103F000004A801325A6001331B780093C0CDC0C0B1
:103F1000270006A860C960C0F43739680292009A89
:103F20008C4651424A4102AB1A7161461822250063
:103F30004A43A2180197F83504322E6883CB83C216
:103F4000110085CB85C160460A21013005F0D8FEFD
:103F5000019B1960092E00D801362E60E378002BF2
:103F600008D0009B002B05D12B68012B02D9013B07
:103F70002B60F9E709B0F0BDFC30436C10B50400CC
:103F8000002B03D1C9210E48FEF78CFF636C9A68A1
:103F90009207FCD402211A688A431A60636C9A68FB
:103FA0009207FCD4196A074A0A431A620123616C1A
:103FB0008A6A1A438A62626CD16A0B43D36210BD6B
:103FC00048F40000034000001FB5D3239B00C15CF0
:103FD0001F4B0400C25C032303930023009303AB35
:103FE00000F0D6FB236820009B6998472000FC3036
:103FF000436C9A689207FCD402211A688A431A60BB
:10400000426C93689B07FCD48023116A9B0219437E
:1040100011628022416C92040C6822430A60416C58
:104020008A6A1A438A62426CD16A0B43D362436C38
:104030009A689207FCD49A689207FCD40222196805
:104040000A431A60426C93689B07FCD41FBDC046AC
:104050004D0300000F2008400C30704710B5034B93
:10406000C25C013BC15C00F045FC10BD4D0300008B
:10407000010003000022F0319A60DA601A615A618F
:1040800018338B42F8D10100F4310A601A6070478E
:10409000F8B5040017001D0000F0DAF9274B2000E6
:1040A000083323602300FC335D64A22300255B00FA
:1040B000E55423004533FF3349305D70FF309D7078
:1040C000DD70FFF7D5FF902301261D4A9B00E31802
:1040D000A2181D7015701B4A7642A21815705E60FA
:1040E00092239B00E554E3185D709D70DD7093236F
:1040F0009B00E018FFF7BCFFD123134A9B00E31895
:10410000A2181D701570114A3900A21815705E6052
:10411000D3239B00E018022208F090FDD423220054
:104120009B00E318203203CA03C3D6239B00E6504A
:104130002000FFF721FF2000F8BDC04678F4000002
:104140004102000042020000450300004603000057
:104150000300F4331B6870B504000D0000208B428F
:104160000ED92200F03210680A210A30C01A05F078
:10417000C7FD48190A2105F0C3FD1820484320183F
:1041800070BDF0B585B007000191EFF31083029385
:1041900072B6BFF35F8FBFF34F8FBFF36F8F050012
:1041A0000024F835031D2E680393B44226D0210065
:1041B0000398FFF7CDFF0379002B31D03C00F43496
:1041C00003942E68002E19D0019B002B0FD0039B67
:1041D0000A2118680A30801B05F092FD1823594304
:1041E000019B7918043115C915C315C915C3013EC2
:1041F000019B2E6018790028E3D000E00020029B8C
:1042000083F31088BFF35F8FBFF34F8FBFF36F8FC0
:10421000BFF35F8FBFF34F8FBFF36F8F05B0F0BD5C
:104220000134C2E710B54530FF30FFF7AAFF10BDDB
:10423000F0B50600FC36736C8BB0DA6A0400D20766
:1042400019D50122DA62FDF7BFFF736C01005A6CC9
:1042500004A823790132FFF7EBF8200004A92030ED
:1042600003F052F8236820005B699847200000F0B3
:10427000ABFB0BB0F0BDDA6A12030FD5802212033C
:10428000DA62D42302009B00C318203203CA03C39E
:10429000736C1A6DD6239B00E250EAE7DA6AD20308
:1042A0000FD580225202DA6200F032FB230028335D
:1042B0001A789042DDD0210018002031FFF716FE59
:1042C000D7E7DA6A920300D49AE01A6B9B6C04ADCC
:1042D000019302AF930346D5D6239B00E2582300F7
:1042E000019920338A4202D8D4239B00E3183A0074
:1042F00003CB03C2FDF768FF23790100019A280070
:10430000FFF796F82900380002F0FEFF230025335E
:10431000FF331B78012BACD1F36A39000133F36210
:10432000082206A8019308F089FC0822390008A891
:1043300008F084FC1821019B306A04930023414358
:1043400064182C342B712300776A16CD16C3013004
:1043500016CD16C30A2105F0D3FC3162092F00D80F
:104360000137776285E7FFF779FE23002A331B7850
:104370009842B1D1D6239B00E25823000199203303
:104380008A4202D8D4239B00E3183A0003CB03C22D
:10439000FDF71AFF23790100019A2800FFF748F87A
:1043A0002900380002F0B0FF756A002D00D160E7E7
:1043B00023002733FF331B78012B07D12000691E10
:1043C0002C30FFF7C5FE10300CCF0CC02300283373
:1043D0000193FD331F78012F00D04AE72000691EAA
:1043E0002C30FFF7B5FE019B0771DB78002B00D165
:1043F0003FE7736A012B00D83BE7013B7362F8E7A4
:10440000DA6A520300D434E78022D202DA62736C93
:10441000D96CD6239B00C258083BC318914201D2E5
:104420000300203302AD2A0003CB03C2FDF7CCFE0C
:10443000736C0100DA6C04A82379FEF7F9FF04A974
:10444000280002F061FF20004530FF30290035E7E9
:10445000F8B50500214B00240360214B0E0083605A
:10446000C3602900012304710362048244618461F2
:10447000C46144622431203002F032FF2B002A0054
:1044800028331D321C70FF325C709C70DC7004336A
:104490009C60DC601C615C6118339342F8D12B0096
:1044A0002F002533FC37FF337C623C6228001C70F0
:1044B0005C709C7001232D305B42FB623100032253
:1044C000FF3008F0BBFB2B00FE337C63BC635C87D2
:1044D0003C64FDF779FE2800F8BDC046A4F4000056
:1044E000FFFF00004900818370478183704700000F
:1044F000F7B501901D0003791400164A5B00985A25
:1045000008F0E0F902000B000020134906F0C4FF98
:1045100022002B0007F0CAFB0022104B04000D0004
:1045200006F09EFC0022002306000F002000290058
:1045300005F0ECFC00220023002800D0084B3000DE
:10454000390007F025FE08F087F9019CFC34606310
:10455000F7BDC046BCF40000D01263410000E03F4C
:104560000000F03FF0B5428B87B004000F00038BD2
:104570008A4239D0002B39D10379234A5B009B5AF8
:10458000866801935E43300008F0D6F90B00020004
:104590001E49002006F080FF05F032FD31000500C5
:1045A0001B4805F0ADFB4B1E99416D182B1CADB29D
:1045B000BD4200D23B1C9DB26383A383019B5D433C
:1045C0006561280008F0B8F902000B0000200F49CF
:1045D00006F062FF05F014FD2900E0600C4805F0CC
:1045E0008FFB218207B0F0BD002BFBD0094B03AA43
:1045F00003930323FC341371074B206C936003680F
:1046000007211B689847EDE7BCF40000D012634116
:10461000809698003CF00000CCF400007FB56E4618
:10462000438B858B3200ED1A6B1E9D410300040005
:10463000203303CB03C2FDF7C7FD2200FC3201008B
:104640002379926B02A8FEF7F3FE02A9300002F074
:104650006FFE7368EDB25A4253411D4003D0A18BE7
:104660002000FFF77FFF280004B070BDFC30C1625E
:10467000704710B50400008B238A6169C01880B2AE
:1046800005F03EFB80B2218310BD000008231A4ACA
:1046900070B511680B4313602E229623FF325B0026
:1046A000845CC35C6110DB015B1814495B18E40790
:1046B0001ED540211C782143962419706400015DA9
:1046C000835CC9015B1801210D4E9B191D7829439C
:1046D000197097235B00C35C002B08D0835C4022D9
:1046E000015DC9015B189B1919780A431A7070BDE6
:1046F0001C780421DFE7C0461C0400403044004120
:104700004044004170B504000D00FDF75DFDA26856
:104710002900FEF7E3FE6D00A9B220712000FFF72B
:1047200021FF23682000DB6898472000FFF7AEFFD9
:1047300070BD000070B504000D001600FDF744FDCB
:10474000A2682900FEF788FE290020712000FFF7EB
:1047500009FF300008F0B6F800220B4B07F0A6FA6C
:1047600005F04EFC2379094A5B00995A05F0C8FA16
:104770004B1E994123680818E0831B692000984765
:104780002000FFF783FF70BD00002440BCF4000050
:10479000F0B505A806780820484CC90125682843CB
:1047A00020600124250095404548081845605510B3
:1047B0004019303004785118E4B2047041480918A7
:1047C00001200C782043087002200C7820430870E8
:1047D0001C68631E022B05D83B4B3C495980597815
:1047E000C909FCD140233A49086803430B60394B9F
:1047F00019005878C009FCD102251878A843187010
:104800004B78DB09FCD10F200125104085404B6817
:104810002B434B6002230F2A03D8053393429B415D
:104820005B42072706333A40501E9B003C40CA5863
:10483000062805D805F0D4F9072E3235383B3E005E
:10484000BA43144304E020017024A243140004433B
:10485000CC50002E05D0CB682B43CB600B691D4399
:104860000D614B78DB09FCD10A78023313430B70DE
:104870004B78DB09FCD1002E0BD0C120FF21164B59
:1048800080001A588A43110080220A431A501022CD
:104890001A60F0BD2002114C1440D8E72003104CE0
:1048A000FAE720040F4CF7E720050F4CF4E7200649
:1048B0000E4CF1E70E4824070240C2E71C040040FA
:1048C0000044004140440041000C00400544000009
:1048D000180400400018004000E100E0FFF8FFFF6E
:1048E000FF8FFFFFFFFFF8FFFFFF8FFFFFFFFFF8C6
:1048F000FFFFFF8F054BC901C91801239340086AC8
:104900001840431E9841C0B27047C0460044004161
:1049100096235B00C35C074ADB019B182E22FF3203
:10492000825C012090401B6A1840431E9841C0B22F
:104930007047C0460044004110B52830FFF721FC05
:1049400010BD00003A22F0B51E4CFF32815C236995
:104950002B3AFF3A11409BB20B41012785B00191E0
:104960003B422DD00600FC36756A002D22D0030094
:1049700028330293FD331B78022B1BD12C3003907C
:10498000306A0A210A30401B05F0BAF9013D481986
:104990000A2105F0B5F918204843039B1818029B1B
:1049A0000771DB78002B05D0736A012B02D9013B1C
:1049B0007362F9E70123019922698B401343236154
:1049C00005B0F0BD00180040D3B50400406A07F000
:1049D000B3FF00220D4B06000F0005F0ABFA0028D4
:1049E00012D000220A4B3000390005F08FFA00285F
:1049F0000AD0FDF7E9FB01006846FEF74FFD009B7A
:104A0000226A9A4200D02362D3BDC04684D7A74110
:104A100084D7C74110B5040008002160012103F0CC
:104A2000CDF92068012103F015FA200010BD000027
:104A300010B50400024802F0EBFC200010BDC04697
:104A4000001B002037B500246B466A465C710323C7
:104A500005001371019A0449044802F0E1FC28683A
:104A6000210003F0F7F937BD40420F00001B002082
:104A700010B50121006803F0EDF9024802F0ECFCEA
:104A800010BDC046001B002070B50C000500FFF7EC
:104A9000D9FF104E2100300002F0F2FC002130005E
:104AA00002F0EEFC2800FFF7E3FF2800FFF7CAFF43
:104AB0000021300002F0E4FC00210400300002F08C
:104AC000DFFC06002800FFF7D3FF2002304300B2CE
:104AD00070BDC046001B0020F8B50700FFF7B2FF0D
:104AE000554C3E21200002F0CBFC0021200002F0BA
:104AF000C7FC0021200002F0C3FC002106002000BA
:104B000002F0BEFC36024D4D3043288000212000CB
:104B100002F0B6FC00210600200002F0B1FC3602D3
:104B2000304368800021200002F0AAFC002106002A
:104B3000200002F0A5FC36023043A88000212000AE
:104B400002F09EFC00210600200002F099FC3602D3
:104B50003043E8800021200002F092FC0021060092
:104B6000200002F08DFC3602304328810021200015
:104B700002F086FC00210600200002F081FC3602D3
:104B8000304368810021200002F07AFC00210600F9
:104B9000200002F075FC36023043A881002120007D
:104BA00002F06EFC00210600200002F069FC3602D3
:104BB0003043E8810021200002F062FC0021060061
:104BC000200002F05DFC36023043288200212000E4
:104BD00002F056FC00210600200002F051FC3602D3
:104BE000304368820021200002F04AFC00210600C8
:104BF000200002F045FC36023043A882002120004C
:104C000002F03EFC00210600200002F039FC3602D2
:104C10003043E8820021200002F032FC002106002F
:104C2000200002F02DFC3602304328833800FFF7C5
:104C30001FFF2800F8BDC046001B002054180020AC
:104C4000F8B58023140080260500194312127F3323
:104C50001C401A4009020C43760011430E43FFF733
:104C6000F1FE0F4F310A380002F00AFCF1B23800B1
:104C700002F006FC2800FFF7FBFE24B22800FFF735
:104C8000E1FEA1B23800090A02F0FAFBE1B23800F5
:104C900002F0F6FB2800FFF7EBFE0120F8BDC0464E
:104CA000001B002010B5040000221A21FFF7C8FFE6
:104CB00000221C212000FFF7C3FF00221E2120003C
:104CC000FFF7BEFF002220212000FFF7B9FF0022DE
:104CD00022212000FFF7B4FF002224212000FFF74B
:104CE000AFFF002226212000FFF7AAFF0022282183
:104CF0002000FFF7A5FF00222A212000FFF7A0FFD8
:104D000000222C212000FFF79BFF00222E212000F3
:104D1000FFF796FF002230212000FFF791FF0622C7
:104D200034212000FFF78CFF012236212000FFF7FD
:104D300087FF0F4A38212000FFF782FF0022402121
:104D40002000FFF77DFF002242212000FFF778FFBF
:104D5000002244212000FFF773FF0022462120009B
:104D6000FFF76EFF002248212000FFF769FF10BD0A
:104D70000204000010B504001A4802F021FB2000D4
:104D8000FFF790FF02223E212000FFF759FF80220B
:104D90003E212000FFF754FF9620400002F08EFED7
:104DA000562234212000FFF74BFF142002F086FE2C
:104DB0000D4A32212000FFF743FF142002F07EFE4F
:104DC000002236212000FFF73BFF142002F076FE80
:104DD00080223821D2002000FFF732FF142002F099
:104DE0006DFE10BD001B002002020000F0B508207F
:104DF00001250C68176866087C402C4201D01C68AD
:104E000066400E60146801386408C0B2146000285F
:104E1000EFD1F0BDF0B58C1C183107000E00FF2556
:104E2000114B85B00393114B00930022A35E69469A
:104E30001A122A402B400292019301AA03AB3800B8
:104E4000FFF7D4FF023403AB02AA69463800FFF72C
:104E5000CDFFA642E9D1009BDB43180A28401B0284
:104E6000184300B205B0F0BD21100000FFFF0000A4
:104E700010B50A304822002107F0FCFE10BD70B5C5
:104E800004000325FFF7F4FF2A000021200007F0AB
:104E9000F1FE60190422002107F0ECFE2A00E01D5B
:104EA000002107F0E7FE2300002252331A7001238D
:104EB000A365E36523666434227070BD020000239D
:104EC000523210B5137001228265C265026602007B
:104ED000040064324365137093809371C366036763
:104EE000FFF7CDFF200010BD836D002B03D1C36DF4
:104EF000002B00D10366006E0138431E9841C0B2FA
:104F0000704773B51E006B4610001500DC1DD9718B
:104F100008F004FCB0420DD223782C2B0AD00D2BC4
:104F200008D0202293430A2B04D01F3A21002800E6
:104F300008F0FBFB73BD2A2903D052300378594097
:104F40000170704713B504000A49032201A807F055
:104F500075FE01A9200008F0D7FB002806D1A06546
:104F6000A06D0138431E9841C0B216BD0123A36550
:104F7000F6E7C046FEF4000013B5094B040001A992
:104F80000330019308F0C0FB002806D1E065E06D16
:104F90000138431E9841C0B216BD0123E365F6E710
:104FA0005A44410010B50400C36D6434002B09D18C
:104FB000010022780A31683000F050F9237801337B
:104FC000237010BD0020F9E710B504001022002165
:104FD000073008F043FC52342378C0B2181A434219
:104FE0005841C0B210BD70B504000E00052908D8A4
:104FF000080004F0F5FD03060B1920272000FFF739
:105000003EFF2000FFF734FF666570BD636D012B26
:10501000F7D12000FFF796FF0500002DF1D1200009
:10502000FFF72DFF6565F0E7636D022B04D12000CB
:10503000FFF7A2FFF0E7636D032BE2D12000FFF73B
:10504000B1FFE9E7636D042BDBD12000FFF7BCFF64
:1050500005002000FFF748FF0540EDB2DDE770B521
:105060000400406D0D00042844D804F0B9FD030885
:105070001B2838000121242D10D0206E70BD200087
:10508000FFF759FF2900022322002000FFF739FF14
:10509000200008F043FB01000228EED12000FFF7BA
:1050A000A2FFEAE72000FFF746FFE21C03232900E6
:1050B0002000FFF726FF2C2DDFD10321EEE7200093
:1050C000FFF739FF220047230A3229002000FFF7AB
:1050D00018FF2C2DF1D004212A2DCED1DEE7E21DC0
:1050E00002232000FFF70DFF0D2D01D00A2DC4D1A2
:1050F0000521D3E70021D1E7F0B5002585B000AF49
:10510000B860456008000E0008F008FB012306287F
:1051100043D9B2792B002E2A3FD1013307283CD046
:105120006B460738C4B230007B6008F0F7FAA31D65
:10513000834280414342FB60230069460833DB0819
:10514000DB00CB1A9D46621C290068463B6007F0D5
:1051500091FDF11D2200684607F070FD68466B4620
:1051600009211A1A94420ADD2E001A780133303AC6
:1051700091426E413200FE681640FE60F1E70A225D
:105180000021386808F002FC431C5A1E9341FA685B
:105190001340BA6850607A6895461800BD4605B05D
:1051A000F0BD0000010010B54C6886B0437A027A69
:1051B00004948C780C3003944C7802940C7801940D
:1051C00049890091024908F07FFA06B010BDC04637
:1051D00001F50000F0B5140085B000AF0500F960DE
:1051E000BB6008F09BFAFB6869461B19013B8342D0
:1051F000804123000833DB08DB00CB1A9D46621C8C
:105200000021464268467B6007F034FDFB682200BF
:10521000E918684607F012FDEC466B4609200021AC
:1052200062469A1A944207DD0D001A780133303A2B
:1052300090424D412E40F3E70A220021786808F0A1
:10524000A5FBFE22002382425B41BA683340002A5C
:1052500000D010701800BD4605B0F0BDF0B585B0A7
:1052600000AF04000E00052A26D8100004F0B8FC98
:10527000032D35386C6C2300022200213000FFF72B
:10528000A9FF022205001100631C3000FFF7A2FFF6
:105290002B000340DBB21D000222A31C04213000BE
:1052A000FFF798FF2B003100034020001D00FFF79F
:1052B00023FF2840002847D123220021200007F0A7
:1052C000D9FC0020BD4605B0F0BD23000833022202
:1052D00000213000FFF77EFFECE723000933F6E7FB
:1052E0006B4608003B6008F019FA032383429B4198
:1052F0005B427B600C230025FB181D7008230422F1
:105300003100F81807F09AFC2E000922082331001A
:10531000FB185B5D0135303B9A4271410B007968A7
:1053200019407960042DF1D108230A22F8180021D0
:1053300008F02CFB074A03008242764163817868BB
:105340003B6830409D46B5E72000FFF72BFF01206A
:10535000B8E7C046FEFF000070B5040004300D0041
:10536000FCF7CCFE23692B5423692D181B0A6B70A4
:1053700023690A301B0CAB7023691B0EEB701422DF
:10538000A35E2B719BB21B0A6B711622A35EAB71DD
:105390009BB21B0AEB711822A35E2B729BB21B0AF5
:1053A0006B7270BD70B5040004300D00FCF7BEFEDA
:1053B0002A5C2D1822616B780A301B021A43226185
:1053C000AB781B0413432361EA781206134323616D
:1053D0006A792B7912021343A382EA79AB7912021C
:1053E0001343E3826A7A2B7A12021343238370BD3C
:1053F00000487047D8F5000000487047B7F5000036
:1054000070B5050004300C00FCF778FE2B692354BE
:105410002B6924181B0A63702B6906301B0CA370C0
:105420002B691B0EE3701422AB5E23719BB21B0A27
:10543000637170BD70B5040004300D00FCF776FE9A
:105440002A5C2D1822616B7806301B021A432261F8
:10545000AB781B0413432361EA78120613432361DC
:105460006A792B7912021343A38270BD00487047FA
:1054700010F6000000487047EFF5000070B5050019
:1054800004300C00FCF73AFE2B6923542B692418D6
:105490001B0A63702B6906301B0CA3702B691B0E53
:1054A000E3701422AB5E23719BB21B0A637170BD63
:1054B00070B5040004300D00FCF738FE2A5C2D188E
:1054C00022616B7806301B021A432261AB781B0401
:1054D00013432361EA781206134323616A792B7917
:1054E00012021343A38270BD0048704748F60000C3
:1054F0000048704727F60000F0B50500C5B01F0052
:105500004AAB1B782E0000934BAB1B782C360193D3
:105510004CAB1C7801F024FB21000024234B30000D
:1055200008332B60FFF776FA30002C636C63AC63B2
:10553000EC632C646C64AC64FFF71CFCEE68A64260
:1055400031D0012303A90C7040AA4C708C70CB7031
:1055500004AB9C60DC601C615C6118339342F8D141
:10556000022002AA0232FF3241944094107002AA33
:105570000332FF321470012230005242439206324D
:1055800042ABFF3228301C7007F058FB3900300066
:10559000FFF7B8F80123E86803930368019A1C68D1
:1055A000009903ABA047280045B0F0BD64F60000A9
:1055B0000B4B10B5C21800231468002C09D1DA1D5A
:1055C000FF32920082185160C86001207D338B60E9
:1055D00010BD01330432192BEED10020F8E7C0468C
:1055E0001C040000F7B50400019301F0C7FA6368DA
:1055F0000093002B63D001253149324B0A682A40C1
:1056000008D1314E9A601E60304EDA605E601A61D9
:105610009A820D6001262E4D2E4A2968314009D10B
:105620002D4F91601760294FD16057601161516112
:1056300011832E600127294E3168394009D1284D48
:105640002848A96028602148E96068602961A9822A
:1056500037600127244D224E29682264E363666483
:105660003940224A04D101985360106011612F60C3
:1056700001271F4D1F492B683B4005D108980B613E
:10568000086014482F60486001231B4F9C463D680A
:105690001D401A4B05D109985E60186060461D6177
:1056A000386021636263A3630098FFF781FF616B39
:1056B0006068FFF77DFFA16B6068FFF779FFF7BDBA
:1056C0007C180020C018002044F500000CF00000F9
:1056D00074180020901800202CF500008418002079
:1056E000EC1800205CF5000080180020D81800207D
:1056F00078180020AC180020881800200419002019
:10570000F0B5836A85B00400002B04D10023019317
:10571000019805B0F0BDC0680028F7D02100103115
:10572000FFF70AF901900028F0D026002C3630004F
:10573000FFF7D2F9A36A226905001A61010030005F
:10574000FFF768FB1822AB5E8342DFD180232A88F3
:105750001A40029216D0E16B002913D0A36A2200EE
:105760009C460B001832083381CA81C363461B690B
:10577000606B1B090B611422AB5E8B82002801D089
:10578000FDF7F4FCA16A00293AD00B00220008338F
:10579000183281CA81C30222AB5EA0684B83042207
:1057A000AB5E8B830622AB5ECB830822AB5E8B8223
:1057B0000A22AB5ECB820C22AB5E0B83002801D0A9
:1057C000FDF7D4FCA06C04281AD804F009FA034BA6
:1057D0004D6F7E0036213000FFF756F923004C3321
:1057E0001880C2B290200001024336213000FFF73A
:1057F00027FA454A01216068FCF738FF0123A364BA
:10580000029B002B1AD0216C002917D00B0022001C
:105810000833183241CA41C3A36A206B1B691B09B4
:105820000B610E22AB5E8B821022AB5ECB8212220A
:10583000AB5E0B83002801D0FDF798FC616C00295A
:1058400000D165E70B0022000833183241CA41C37A
:105850001622AB5EA06B8B82002800D158E7FDF7C3
:1058600085FC55E70223CAE7284A01216068FCF756
:10587000FDFEAA881A21524293B21F00EA88300026
:10588000524293B26A880393524212B2FFF7D8F998
:105890003AB21C213000FFF7D3F96B461E210C22CF
:1058A0009A5E3000FFF7CCF90323A8E7184A0121DC
:1058B0006068FCF7DBFE23004C3300229A5E362141
:1058C0003000FFF7BDF9042399E70120A36A1149CD
:1058D0001A690B68104F034201D13A600860FA2040
:1058E0003B688000D11A81428AD9322130003A6067
:1058F000FFF7CAF880229200424012B232213000F3
:10590000FFF79EF97CE7C0466CF5000088F50000C3
:105910009EF50000701800208C18002083880B7002
:10592000838802201B0A4B7070470B7883804A786B
:105930001202134383800220704700000048704722
:1059400060F70000004870473FF7000000487047CC
:105950002FF70000004870470EF7000043680B70F7
:1059600043681B0A4B7043681B0C8B704368042010
:105970001B0ECB7070470A7842604B781B021A43AB
:1059800042608B781B0413434360CA7812061343AA
:1059900043600420704700000048704791F7000002
:1059A0000048704770F7000070B5040005000C3423
:1059B0002000FFF7E0FFAA69EB69501018186B6927
:1059C000D20701D50268D3582100984770BD006AFC
:1059D000704700000048704791F70000004870478A
:1059E00070F7000070B5040005000C342000FFF7CC
:1059F0009CFFAA69EB69501018186B69D20701D592
:105A00000268D3582100984770BD006A70470000B3
:105A10000048704760F70000004870473FF70000FB
:105A2000436870B50B70436805001B0A4B704368F0
:105A30000C001B0C8B7043681B0ECB7083680B71C2
:105A400083681B0A4B7183681B0C8B7183681B0E68
:105A5000CB71C3680B72C3681B0A4B72C3681B0C03
:105A60008B72C3681B0ECB72006907F057FE030AE6
:105A70006373030C06002073A373030E2000E3730B
:105A800029693200103007F0D9F83000103070BDAD
:105A900070B504001E000023150041608360E260C1
:105AA0000A4A8361C36103624362026083629D426A
:105AB0000AD02800822204992830520007F0BEF84C
:105AC00031002800FEF71EFE200070BDD8F6000051
:105AD000F7B50126454F01933D6835400CD1444C44
:105AE000444B25822360444BA561E360434BE06156
:105AF00063612662A2603E604468002C11D0C268D7
:105B00009023FC3214640022DB00E5182B68002B84
:105B10005CD115002135364EFF35AD0064322E5173
:105B200072600126364D374A2C68344007D1364F13
:105B300054609460D460354C176014612E604468E2
:105B40008262002C41D00123314F9C463E68314D8A
:105B50001E4005D1089B6A602B6063462E613B6046
:105B600001262D4F85603D6835400DD12B4A2C4BC9
:105B7000156113602B4B9561D3602B4BD061536142
:105B8000019B166293603E60284BE2180023156863
:105B9000002D20D1DA1DFF321E4D9200A2187D3358
:105BA0005560AB60EC6090234468DB00E218002392
:105BB0001568002D14D11A002132184DFF329200C1
:105BC000643315516B60836A1961F7BD0132043586
:105BD000192A9BD1A5E701330432192BD7D1E2E76B
:105BE00001330432192BE3D1EDE7C046241900201C
:105BF0007419002090F6000078F60000DD5C0000CB
:105C00001C1900203C190020A8F60000B90301006F
:105C100018190020281900202019002050190020F0
:105C2000E4F60000C0F60000B95C00001C040000AF
:105C3000F7B50A780C0042604B7805001B021A4346
:105C400042608B781B0413434360CA7812061343E7
:105C500043600A7982604B791B021A4382608B7918
:105C60001B0413438360CA791206134383600A7AC4
:105C7000C2604B7A1B021A43C2608B7A1B04134327
:105C8000C360CA7A0C3112061343C36001A8FCF743
:105C9000D2FB220001990F320800130010300133AB
:105CA0001E1BB04203D91F785E1E3770F7E7002332
:105CB0006418E3732A61FEBD10B50400C0680028B3
:105CC00002D04968FEF7D2FC6068002803D0024A7F
:105CD0000121FCF7CBFC10BDA1F7000030B504009A
:105CE000C0688FB00D00002810D0036889889B68B9
:105CF00098476368002B09D0AA88054901A807F0D6
:105D0000E3FC01AA01216068FCF7B0FC0FB030BDD4
:105D1000F4F60000F0B5C7B016004CAA14784DAAEE
:105D2000050010784EAA177805AA14700024029175
:105D3000547003939070D47042A806AA9460D46003
:105D40001461546118328242F8D10A23012202A957
:105D5000FF335B181A7085235B005B1844A8027040
:105D60001A70023A459205AA0092039B32000299EA
:105D7000280043944294FFF78BFE084B08332B60B6
:105D80002B002C331F702C636C63002E02D030006C
:105D9000FEF71AF9280047B0F0BDC046C0F7000072
:105DA000F0B5C36887B00400002B71D0836A002B64
:105DB0006ED0056B002D6BD09A686E1C964267D131
:105DC000D86806F0B9FD0022384B04F09FF800288F
:105DD00060D000230296039303A902A801F080FA81
:105DE000A26A02A9083204A801F0B6FA059806F0E2
:105DF00069FD2F4A2F4B05F059FF060004980F004C
:105E000006F060FD02000B003000390005F028F8B4
:105E100027000500606B009106F08EFD0022234BE9
:105E2000266B303704F072F8002837D00023029632
:105E3000039303A902A801F053FA3A0002A904A8A7
:105E400001F08AFA059806F03DFD194A194B05F054
:105E50002DFF060004980F0006F034FD02000B0031
:105E60003000390004F0FCFF0700E368009C0E00DE
:105E70006400490001933A004B082800610804F0CF
:105E800045F800280ED02A00009B0198FEF730FB51
:105E900007B0F0BD0235029503909DE701360296EA
:105EA0000390C6E73A003300EFE7C04665CDBD4139
:105EB00095D626E80B2E113EF7B50400C0680028E1
:105EC00002D100273800FEBDA36A002BF9D02500BF
:105ED00010352900FEF730FD071EF2D0A66A230018
:105EE00032003033083203CA03C3290008351031A9
:105EF0002A00684601F030FA0022114B684601F092
:105F0000D1F933003000083306CD06C308306946A6
:105F100001F0FAF92369A26A5360A368002B04D048
:105F2000D86801680D689968A84723002C331D784C
:105F3000002DC7D02000FFF733FF2F00C2E7C04677
:105F40000000E03F436870B50B70436805001B0A12
:105F50004B7043680A001B0C8B70436814351B0E92
:105F6000CB70836810320B7183681B0A4B71836896
:105F70001B0C8B7183681B0ECB71C3680B72C368DB
:105F80001B0A4B72C3681B0C8B72C3681B0ECB724F
:105F900003690B7303691B0A4B7303691B0C8B7337
:105FA00003691B0ECB730B001C3310CD260A147033
:105FB0005670260C240E9670D47004329342F4D19D
:105FC00004000D002034403504CC160A1A705E70AF
:105FD000160C120E9E70DA700433AB42F4D1426C90
:105FE0001A700B00140A41331C70140C120E9A70B4
:105FF0000A005C70836C44321C0A137054701C0CD1
:106000001B0ED370030094704C331C8814711B88D2
:106010001B0A53710B00026D4A331A700A00036D9C
:106020004B321B0A1370036D4E311B0C5370036D02
:1060300054301B0E937003784F200B7070BD70B5F9
:106040000A780C0042604B7805001B021A4342603C
:106050008B7810341B0413434360CA78143512063E
:10606000134343600A7982604B791B021A438260B2
:106070008B791B0413438360CA7912061343836030
:106080000A7AC2604B7A1B021A43C2608B7A1B04E5
:106090001343C360CA7A12061343C3600A7B0261CA
:1060A0004B7B1B021A4302618B7B1B04134303616E
:1060B000CA7B1206134303610B001C336278A67877
:1060C00012023604324326783243E6780434360628
:1060D000324304C5A342F1D104000D002034403501
:1060E0005A789E781202360432431E783243DE78A4
:1060F00004333606324304C4AB42F1D10A000C002B
:1061000041324234127824781B782404120222434C
:1061100013430A0043321278040012061343436407
:106120000A000B00463245331B7812781B0212041A
:1061300013430A00443212784C3413430A004732A6
:1061400012781206134383640B000A0048331B784D
:106150004932238012781202134323800B004A3302
:106160001A78013302651B781B021A430B00026583
:106170004C331B781B0413430A0003654D3212781D
:106180004E311206134303650B78543003704F20D1
:1061900070BD00000048704744F800000048704798
:1061A00023F800000D4B0200036000230100436050
:1061B0008360C36003610023203243618361C36154
:1061C000443108C29142FCD102004364836400233D
:1061D0004C321380036513727047C046D4F7000039
:1061E000F8B50127164E04003368164D3B4203D123
:1061F0002800FFF7D7FF3760A0686560002819D036
:1062000001261149114A0B68334004D1104F5560E3
:10621000176013610E600F4BE260C11800230C6819
:10622000002C08D1D91DFF31890041187D334A6007
:106230009360D060F8BD01330431192BEFD1F9E739
:106240009C190020B419002098190020A0190020E2
:1062500019F800001C040000F0B5456893B0040074
:10626000002D5AD0436F291D002B58D1836F002B6E
:1062700055D12A0010A80C3201F06EF8109B0E9335
:10628000119B18000F9306F01DFB864A864B05F004
:106290000DFD06000E980F0006F014FB02000B0027
:1062A0003000390004F0DCFD06F0CAFB20670E98D0
:1062B00004F04CFD06F072FB00227C4B05F0F6FC6E
:1062C00006000F980F0004F041FD06F067FB784AC6
:1062D000784B05F0EBFC02000B003000390004F0B5
:1062E000BFFD06F0ADFBFF2365689B05AB61724BFC
:1062F000724AEB61FE239B052B6200236B62AB624B
:10630000EB626B63AB63EB636D4B68612A632B6479
:1063100063687434043306CB06C413B0F0BD2200A6
:1063200010A8743201F018F8119806F0CBFA5D4A03
:106330005D4B05F0BBFC060010980F0006F0C2FA9A
:1063400002000B003000390004F08AFD06F078FBF3
:10635000686465682B004C33188804F041FD230005
:1063600028330193EB69011C00936A69AB69686C7F
:10637000FCF7A0FD2300656834330C93EB690B93A5
:10638000AB690A93236A0993E3690893A3690793A6
:106390002B004C33188804F023FD06902B6C0593DA
:1063A000EB6B0493AB6B03936B6B02932B6B0193BF
:1063B000EB6A0093AB6A6A6A296A686CFCF79AFD1B
:1063C000616810A80A0004310C3200F0C5FF109873
:1063D00004F0BCFC06F0E2FA0022344B05F066FC47
:1063E000060011980F0004F0B1FC06F0D7FA304A0D
:1063F000304B05F05BFC0B0002003900300004F06C
:106400002FFD06F01DFB2200011CA0655C32A06A76
:10641000FCF714FE2200616A6032606BFCF717FE25
:10642000230064330093236EE26C216C606BFCF7F5
:1064300019FE636814330393236B0293E36A019399
:10644000A36A0093E36DE26EA16E606EFCF71EFE20
:10645000636820330893636D0793236D0693E36CA1
:106460000593A36C0493636C0393236C0293E36B17
:106470000193A36B0093E26EA16E636B606EFCF7F9
:1064800022FE65682B004C33188804F05FFC0D4930
:1064900004F046F9A96904F075FAE96904F040F9D5
:1064A000A86435E795D626E80B2E113E80842E4150
:1064B000FCA9F1D24D62503F0000C0400AD7233BF7
:1064C000EC51B83C0D68533B30B5446899B00500B9
:1064D000002C32D002A8FFF765FE231D03AA03CAD1
:1064E00003C305AA03CA03C3079B22006361089B79
:1064F0002032A361099BE361002302A81918096AED
:10650000D1500433242BF8D1139BD2216364149B04
:10651000FF31A364019315AB1A8823004C331A8012
:10652000169B236517AB1B78543423706B681A00D5
:106530004C321180002254331A7000236B67AB6712
:1065400019B030BD454BF0B5036000230127444E20
:106550004360C3603368C3B004008160414D3B4277
:1065600003D12800FDF72EFB3760002322003E49AF
:1065700063612561183261C961C23C4A3C4962626B
:106580000022226722007C326367A3671370D36006
:106590001361536193610A7801331A430A70354AD3
:1065A00011780B431370344B1A00D979C909FCD107
:1065B0001878013101431970D379DB09FCD1517886
:1065C00040330B435370012351780B435370D22354
:1065D0001189FF330B431381D379DB09FCD1117887
:1065E00002330B431370D379DB09FCD12569002DED
:1065F00027D0012201A90B703EA84B708B70CA7086
:1066000002AA9360D3601361536118328242F8D1B9
:1066100068460230FF30037068460330FF30037075
:1066200040AA280013703F933E93822201234530F5
:106630005B42FF305200419306F000FB2800FDF75B
:106640004BFAA268002A02D02369FC331A642000A6
:10665000FFF73AFF200043B0F0BDC046ECF7000062
:106660009C020020A0020020F0F7000017B7D13BE9
:10667000314400414244004100480042F0B5066FF9
:10668000C5B004000021301C03F08EFC0125002859
:1066900031D0FE21301C890503F086FC002800D192
:1066A000051CEDB2002D2BD001273F4E3F4D336826
:1066B0003B4203D12800FCF771FE37606368280075
:1066C000D968FCF7A7FE626804AD13693849D2683F
:1066D000280006F0F9FF374B01AA01930123A068B7
:1066E00013719560036807211B6898472000FFF726
:1066F000EBFE45B0F0BD3049301C03F041FCCDE766
:1067000065680021686C03F04FFC0028F1D02B492C
:10671000A86904F005F8061C686906F03FF9284AE4
:10672000284B05F0C3FA06F08BF9011C301C04F06D
:1067300029F92549061C03F023FC00282ED1234902
:10674000301C03F031FC00282AD1301C03F026FA5B
:1067500003F03EFC1E4B80B219004C352880DA79DC
:10676000D209FCD11881CB79DB09FCD1FE21656807
:1067700089056B697C345800400803F001FC00284F
:1067800010D023783C2B01D0013323703B23227897
:10679000543593429B415B422B70AAE70A4ED4E7E3
:1067A0000A4ED2E72070F1E79008002094080020FC
:1067B000FCF700003CF00000000080BF00009B439D
:1067C0002D54A3FC49A9084000001B4300C04144CC
:1067D0000048004270B504004069032840D803F027
:1067E000FFF9021C2D352069002801D1002070BD61
:1067F0006368002BFAD021008031FDF713FD0028DB
:10680000F4D02200616888320B1D21CA21C3231DE8
:10681000DB6F0B6501236361E8E7236820001B68D9
:1068200098470300012803D1022262610120DEE7BC
:106830000120022BDBD100236361F7E72000FFF783
:106840000BFD2000FFF71AFF0323F5E7E368002B99
:10685000F1D0D8689968026815686268A847EAE7C5
:1068600000206061C3E70000F8B5040027001600AF
:106870001D00FFF767FE20000A4B9837083323609E
:106880009C303E60FEF71AFB23000022FC33DA62E4
:106890003868904203D003682900DB6998472000DC
:1068A000F8BDC04610F900000300F0B5FC33CDB0D0
:1068B0000493DB6A0400002B04D0032B00D19BE07F
:1068C0000023CBE04368002B52D0FBF77DFC010096
:1068D00008A8FCF7E3FD636808A91A1D0AA800F0E0
:1068E0003BFD0B9805F0EEFF954A964B05F0DEF95F
:1068F00006000A980F0005F0E5FF02000B003000CB
:10690000390004F0ADFA06900791FBF75DFC050035
:10691000006A05F0D7FF8A4A8A4B05F0C7F90600DE
:10692000E8690F0005F0CEFF02000B0030003900CF
:1069300004F096FA069A079B0600802000060F18BE
:106940003900300003F0F6FA002815D106980799AF
:106950007D4A7E4B03F0EEFA00280DD10698079988
:106960007B4B794A03F0E6FA0323002800D075E058
:10697000FC34E06A4DB0F0BDA368002B37D0099815
:1069800005F0DAFF6E4A6F4B05F090F906000898A3
:106990000F0005F0D1FF02000B003000390004F0B9
:1069A0005FFA069A079B656802920393049005912B
:1069B000A86805F0C1FF624A624B05F077F906004E
:1069C00068680F0005F0B8FF02000B0030003900C6
:1069D00004F046FA049A059B009001915D490CA8C9
:1069E00006F072FE0CAA0221A068FBF73FFE02220D
:1069F0002300FC33DA62BBE70500983528680028DD
:106A00002FD1FBF7E1FB01000AA8FCF747FD636803
:106A10000AA91A1D0CA800F09FFC0D9805F052FF62
:106A2000474A484B05F042F906000C980F0005F064
:106A300049FF02000B003000390004F011FA424A0D
:106A4000424B03F077FA002800D191E7A0680028B4
:106A500003D0414A0321FBF709FE0223049AD362C3
:106A600086E703681B6998470028CAD02868270072
:106A700003689C375B699847C1B23800FEF7EFFAAC
:106A8000002800D074E7049BDE68002E00D06FE77A
:106A9000286803681B699847012823DC200021002F
:106AA000FF30C579FE31437B827B098A0295857967
:106AB0000195407900900AA800F024FD6368002B3E
:106AC0002CD125009835286803681B699847002851
:106AD00033D0286803685B699847C1B23800FEF775
:106AE000BEFAEEE7A368002B0DD0286803681B6987
:106AF00098471A4902000CA806F0E6FD0CAA0221EC
:106B0000A068FBF7B3FD286803681B699847002855
:106B1000A3D0286803685B699847F4E70AA800F0E7
:106B200009FD0CAD0C900DA928000D9600F0D8FBC6
:106B300063680C3306CD06C3C3E7012258E7C0469D
:106B400095D626E80B2E113E9A9999999999E93F85
:106B50009999C93F54F80000E8F800009DF800003A
:106B60000023C260044A416083608361C3610362A1
:106B7000436202608362704724F90000F0B501258A
:106B80002F4E34682C400CD12E4B2F4F1C821F608F
:106B90002E4F9C61DF602E4FD8615F611D6299604E
:106BA00035604168002911D0C368FC331964902313
:106BB000DB00CC1800232568002D36D11C002134C1
:106BC000204DFF34A400643365506B604468002C92
:106BD0002AD001261F4D204B296831400AD11F4F72
:106BE00099601F601E4FD9605F601961596199619A
:106BF000D9612E6001271B4E836235681A493D40DA
:106C000003D10A604B600D613760184B8160E21858
:106C10000023106800280DD1DA1DFF329200A2185F
:106C20007D3351608B60CC60F0BD01330434192B8F
:106C3000C1D1CBE701330432192BEAD1F4E7C046C6
:106C4000141A00204C1A002090F6000078F600007C
:106C5000DD5C0000101A00202C1A002088F20000D1
:106C60000CF000000C1A0020181A00201C04000070
:106C700070B5040004300D00FBF740FA23692B5473
:106C800023692D181B0A6B70236907301B0CAB702E
:106C900023691B0EEB70A38A2B71A38A1B0A6B71ED
:106CA000A37DAB7170BD70B5040004300D00FBF71F
:106CB0003DFA2A5C2D1822616B7807301B021A43BB
:106CC0002261AB781B0413432361EA781206134355
:106CD00023612B79A3826A7912021343A382AB79D1
:106CE000A37570BD0048704761F900000048704707
:106CF00040F90000F0B50125314E34682C400CD12C
:106D0000304B314F1C821F60304F9C61DF60304F31
:106D1000D8615F611D62996035604168002911D0BA
:106D2000C368FC3319649023DB00CC18002325686A
:106D3000002D3AD11C002134224DFF34A4006433CD
:106D400065506B604468002C29D00126214D224BF0
:106D50002968314009D1214F99601F60204FD960C7
:106D60005F601961998299752E6001271D4EC3627B
:106D700035681D493D4003D10A604B600D613760A5
:106D80001A4B8160E21800231568002D12D1DA1D1C
:106D9000FF329200A2187D3351608B60CC60C36AD1
:106DA000002B01D01B698362F0BD01330434192B21
:106DB000BDD1C7E701330432192BE5D1C36AF1E72E
:106DC000781A0020A81A002090F6000078F600003B
:106DD000DD5C0000701A00207C1A002030F90000F1
:106DE0000CF00000741A0020941A00201C0400000B
:106DF00070B50E001500094C6221200000F03CFC2B
:106E00003100200000F081FC2900200000F07DFC12
:106E10000121200000F09EFC70BDC046181B002020
:106E200070B504001E000023150041608360E2601D
:106E3000234AC2B008320260012252428361C36118
:106E4000036243628262C3629D4228D001A902327A
:106E50000A703EA84B708B70CA7002AA9360D36010
:106E60001361536118328242F8D168460230FF3014
:106E700003706846033040AAFF30137003703F93DD
:106E80003E932800012382225B4252002830419326
:106E900005F0D4FE282231002800FDF74BFC094DF7
:106EA000280000F0BBFB2800074900F0D7FB0022B8
:106EB00020001100FFF79CFF200042B070BDC046CB
:106EC000C8F90000181B0020801A060070B5134C8A
:106ED00062210600200000F0CFFB0121200000F01D
:106EE00014FC0121200000F035FC051E06D070685E
:106EF000002803D00A4A0221FBF7B8FB01236221D4
:106F00001A00200000F0D0FB200000F05BFC020023
:106F10000020854201D10130104070BD181B0020B7
:106F200079F90000F8B51A4C07000E002000622124
:106F300000F0A2FB8E21200000F0E7FB01212000E1
:106F400000F008FC051E06D07868002803D0114A1E
:106F50000221FBF78BFB012303226221200000F0BA
:106F6000A3FB002E0FD0200000F02CFCB0752000F9
:106F700000F028FC0700200000F024FCFFB23F02D4
:106F8000C0B2C019B08268426841C0B2F8BDC04604
:106F9000181B0020A2F9000070B50400C06800288A
:106FA00011D0E36A002B11D021001031FDF7C4FC91
:106FB000002808D0E16A22000B001832083321CAE9
:106FC00021C323690B61E36A002B01D1002070BD4E
:106FD0001B69A26A9A42F9D02000FFF777FF0028C8
:106FE000F4D1E16A2000FFF79DFF002808D0A368D4
:106FF000002B05D0D868996802681568E26AA8472E
:10700000E36A01201B69A362E1E770B50400043064
:107010000D00FBF773F823692B5423692D181B0A05
:107020006B70236907301B0CAB7023691B0EEB7070
:10703000A38A2B71A38A1B0A6B71A37DAB7170BDF0
:1070400070B5040004300D00FBF770F82A5C2D18B1
:1070500022616B7807301B021A432261AB781B0454
:1070600013432361EA781206134323612B79A38229
:107070006A7912021343A382AB79A37570BD000035
:107080000048704793FA00000048704772FA000009
:1070900010B500230160FF21040043608360C260DB
:1070A0000174438243619A4205D0E1211368490289
:1070B000DB6910009847200010BD0000F0B504689F
:1070C000002C29D00126174D174B2A68324009D1D0
:1070D000164F9A601F60164FDA605F601A619A82DD
:1070E0009A752E600127134E83603568124A3D4021
:1070F00003D11160536015613760104B4260E11895
:1071000000230868002808D1D91DFF3189006118C3
:107110007D334A609360D460F0BD01330431192B94
:10712000EFD1F9E7CC1A0020D41A0020DCF90000D6
:107130000CF00000D01A0020EC1A00201C04000003
:10714000F0B583689DB00400002B03D10025280012
:107150001DB0F0BDC0680028F8D003681B699847CF
:107160000028F3D0E06803685B6998470500C2B265
:107170006069052834D802F033FD031D353C474EC5
:107180000125FE2AE3D1364F364E3B682B4203D110
:107190003000FCF703F93D606D46A7682800310018
:1071A0000837FCF77BF90CCD0CC70023012563825F
:1071B0006561CCE7022A05D1638A6261023363828A
:1071C0000125C4E72368002B0AD002222649EBB22E
:1071D00003A806F079FA0221206803AAFBF746FA11
:1071E000002304E0638A22749A1803236282636195
:1071F000E6E792B2237C11025B18A1688B82638A56
:10720000D21862820423F2E7A3689A75638A9A18F7
:1072100062820523EBE7E068EDB203681B699847DB
:10722000A37CAB420FD100280FD16368002B05D09F
:10723000D868996802681568A268A847A2681369A7
:1072400001331361CCE7002805D02068074A0028E5
:10725000C6D00221C2E720680028C1D0044AF8E75E
:107260009008002094080020ECF9000021FA0000AA
:1072700049FA000030B50B680268084CA34203DDF0
:10728000074D01325B19F9E7002B03DA034C013A91
:107290001B19F9E702600B6030BDC04600CA9A3B7B
:1072A000003665C4D0B516001F000400006805F064
:1072B00009FB32003B0004F0F9FC05F0CDFA206038
:1072C000606805F0FFFA32003B0004F0EFFC05F0C7
:1072D000C3FA211D60602000FFF7CCFF2000D0BD65
:1072E00070B50D6806000C002800064902F082FC0B
:1072F0003368044918183060280002F001FD21604D
:1073000070BDC04600CA9A3B10B504000A68036805
:107310009B18013B426803604B68011DD318034A68
:107320009B184360FFF7DCFF200010BD00CA9A3BAA
:1073300010B5040003680A68013B9B1A0360054A04
:1073400043689B184A68011D9B1A4360FFF7C8FFFA
:10735000200010BD00CA9A3B10B504000B681068ED
:1073600052681B1A23604B6820009B1A211D636022
:10737000FFF780FF200010BD437A002B04D18372F9
:10738000C372C36001334372704730B5040085B0E7
:1073900002AD00680291039200F0EBFE6B79227A55
:1073A000E17900932068002301F054F82979029ACA
:1073B000206800F0AFFE206800F0D1FE05B030BDBF
:1073C00070B518260400FFF7D7FF33000821207995
:1073D0000D4D4343EB18595600F068FD330008216A
:1073E000A0794343EB18595600F060FD08216079FD
:1073F0004643AD19695600F059FD044B200006CBF9
:10740000FFF7C3FF70BDC046D8FA0000101B002074
:1074100010B50400006800F095FE0023637210BDF3
:1074200007B5837A00910192002B07D09A070AD5FD
:10743000EFF310835A425341C37272B60099019A16
:10744000FFF7A3FF07BDDB07F8D5C368014A9BB26E
:107450009360F3E700180040837A002B05D09A0769
:1074600004D5C37A002B00D062B67047DB07FCD589
:10747000C368024A9BB2D360F7E7C04600180040D9
:1074800010B5006800F07EFE10BD0000084B094AF0
:1074900009491A6000225A711A71084B196008498B
:1074A0005A729980182199711739D9711A727047D7
:1074B000101B002000093D00D4210020001B0020EB
:1074C0001617000070B5002304000D4E92B25D1C2B
:1074D000E8B2814204D9F05C2B00121892B2F6E7B0
:1074E000022903D9A30701D1013292B26E20FF30E5
:1074F0006043E31C9B1001381818101880B270BD4F
:10750000A6FA0000F0B505AC2678084F06AC257841
:1075100007AC2478B94202D9054FC91989B2C6709F
:1075200005710170427083704471F0BDCF07000097
:1075300030F8FFFF10B50400827841780078FFF73B
:10754000C1FF030018205843E3782279C0183C2378
:107550005843801858436379C018014BC01810BDB8
:1075600080436D3800207047F8B505000E00170005
:107570000024BC4208D02B68315D1B682800984766
:10758000002801D00134F4E72000F8BD7047030063
:10759000FC33196ADA69914203D01B6AC018007E75
:1075A000704701204042FBE70300FC33D8691B6AA7
:1075B000C01A01D50130FF3070470000F7B50193C4
:1075C000FA238026002504009B008360124B76007E
:1075D00008330F0045602900009203603200183024
:1075E00005F048FB23002000FC332130DD61320030
:1075F0001D622900FF3005F03DFB87239B00E31847
:107600005D609D606B461B78276123756B461B7917
:10761000A57520006375FEBDB4FA000070B50600C4
:1076200018250C49006900F03BFF306900F0C4FDEB
:107630002B000821307D084C4343E318595600F0D5
:1076400035FC0821707D45436419615600F02EFC1D
:1076500070BDC046A0860100D8FA000070B50400D5
:107660000D00006900F0BDFD2900206900F018FF41
:10767000206900F0A1FD70BD8A2300229B00C15447
:107680000C3BC3185A609A6001238375704702004F
:1076900010B5FC32536894680133DBB29C4202D0CF
:1076A00054680155536010BDF7B50024050017005C
:1076B00001932000A24227D02B00FC33DC611C6226
:1076C0000122286900F0C0FDA0421CD02E0018360F
:1076D000286900F028FE013401003000FFF7D7FFD1
:1076E0002869A74206D000F08FFD0221286900F02A
:1076F00095FDEDE700F07FFD019B002B03D00321FA
:10770000286900F08BFDE0B2FEBD002210B5837D3C
:1077100093420DD087239B00C4186368A46801338B
:10772000DBB2A34204D02130FF30FFF7B0FF0122CB
:10773000100010BD0300FC3399685A68914206D0CE
:107740009A68805C9A680132D2B29A6070470120D0
:107750004042FBE700228A2370B59B00827505003A
:107760000E00C15C006900F06FFD002806D1032106
:10777000286900F053FD0224200070BD87232800F3
:107780009B00EA18536894682130FF301C1B01D518
:107790000134FF34002C0ED02C69FFF7CBFFC1B2AF
:1077A000200000F07EFD0028E8D10321286900F0C8
:1077B00035FD0324E0E7002EDED00321286900F028
:1077C0002DFDD9E710B51830FFF7B4FF10BD70B527
:1077D0000400006900F085FD002814D0206900F045
:1077E0008EFD002810D0206900F00EFD03212069D5
:1077F00000F014FD8C239B00E558002D39D10023A7
:10780000FC34E361236270BD206900F082FD002832
:1078100009D0206900F078FD002804D0206900F02C
:107820007DFD0028DFD0206900F073FD002826D1FF
:10783000206900F05FFD0028E5D0206900F06EFDB2
:10784000002837D087239B00E218536892689B1A60
:1078500001D50133FF33FF21002B05D0200021305B
:10786000FF30FFF767FFC1B2206900F02CFDA07563
:10787000C9E7236820001B699847A847BFE720692C
:1078800000F0C2FC2069032100F0C8FC206900F070
:1078900045FD0028B7D0872300229B00E3185A60DB
:1078A0009A600123A3758B239B00E3589342AAD0CF
:1078B0009847A8E72200FC32D369126A0133DBB291
:1078C0002069934206D100F096FC0321206900F064
:1078D000A5FC98E700F027FD010020001830FFF715
:1078E000D6FE206900F090FCEFE7000010B50248DA
:1078F000FFF76DFF10BDC046181B002010B5152303
:10790000142202490248FFF759FE10BDD021002081
:10791000181B002010B5024801F0BDFF10BDC04685
:10792000881F002010B5024801F0B5FF10BDC04609
:107930004C1D002073B5164E1649300000F060FB58
:107940001549164800F05CFB1549164800F058FB35
:107950001549164800F054FB1549164800F050FB35
:10796000154D1649280000F04BFB01240022310080
:10797000019223000094124801F022FF0323290002
:10798000009301941B331F220E4801F019FF73BDB1
:10799000C421002000080042000C0042C821002041
:1079A00000100042CC21002000140042D021002011
:1079B00000180042D4210020D8210020001C0042E1
:1079C000881F00204C1D0020FEE70000034B10B56F
:1079D0001B68002B00D0984710BDC046DC2100205A
:1079E00070B50F490F4CA14204D100F08DF802F0A0
:1079F0003BF8FEE70C4D00238D42F6D0CA18E8187C
:107A0000A24205D3094B8242EFD00949002204E08B
:107A1000006804331060F1E704C38B42FCD3E4E751
:107A20000000002080020020CC0301008002002022
:107A3000D827002010B500F064F8002801D100F02C
:107A400055F810BD014B18607047C046DC2100207E
:107A5000014B18687047C046E0210020F7B5134875
:107A6000012284461249134C8E68636805689B0E98
:107A70001340019288686268019F920E3A406746FF
:107A80003F6893420ED1BD420CD186420AD35B19A6
:107A9000FA254868AD00861B07486B437043000D0C
:107AA000C018FEBD3D0013000600E3E7E021002002
:107AB00010E000E000ED00E05555000070B5041E38
:107AC00010D0FFF7CBFF050000F01AF8FFF7C6FF54
:107AD000054B401B9842F7D9FA23013C9B00ED1857
