:1020000000800020617700004977000049770000D8
:1020100000000000000000000000000000000000C0
:1020200000000000000000000000000049770000F0
:10203000000000000000000049770000B5770000B4
:10204000497700004977000049770000A13500007A
:102050009922000049770000497700004D77000081
:102060004977000095760000497700004977000025
:102070006D76000049770000A5760000D13B000096
:102080008D3C0000493D000039360000A5360000B7
:1020900011370000497700004977000049770000B8
:1020A0004977000049770000497700004977000030
:1020B0000000000010B5064C2378002B07D1054B1B
:1020C000002B02D0044800E000BF0123237010BDA4
:1020D0005001002000000000D400010008B5084BAA
:1020E000002B03D00748084900E000BF07480368F9
:1020F000002B03D0064B002B00D0984708BDC046EC
:1021000000000000D4000100540100204401002020
:102110000000000042680A704268130A4B70C388CE
:102120008B70C379CB7083680B718268130A4B7113
:1021300043898B71C37A0820CB7170470A7842605B
:102140004B781B02134343608A78120413434360A5
:10215000CA781206134343600A7982604B791B02E6
:10216000134383608A79120413438360CA79120689
:1021700013438360082070470048704708ED000053
:102180000048704716ED00000048704737ED00002A
:102190000048704750ED00000048704771ED0000A6
:1021A0000048704784ED000000487047F5EE0000DD
:1021B00000487047A5ED00009F23DB00C05C70471E
:1021C00010B5044B041C0360143002F0BFFB201C4C
:1021D00010BDC04660F3000070B5064D01262B68A7
:1021E000054C334203D1201C01F0F2F82E60201C74
:1021F00070BDC046F40200206C01002070B5064D91
:1022000001262B68054C334203D1201C01F0F2F962
:102210002E60201C70BDC046F002002090020020FD
:1022200008B5174B186803681B689847002826D123
:10223000144B186803681B68984700281FD1124B7D
:10224000186804F01BFE002819D1104B18680368A9
:102250001B689847002812D10D4B186804F098F9B4
:1022600000280CD1FFF7B8FF00F0D2FF002806D1FC
:10227000084B1868002802D003685B68984708BDBF
:1022800074090020C40900204C09002078090020AE
:10229000940900200C04002008B5FFF79DFF01F011
:1022A0005BF9FFF7ABFF02F0FBFA08BD10B50023A6
:1022B000DA000C1CD440C4540133042BF8D110BDF7
:1022C000F7B58388051C0B7083880C1C1B0A4B70A8
:1022D00080680AF02BFC061C311CA01CFFF7E6FFEF
:1022E000A968321CA01D0AF011FBB31DE868019318
:1022F0000AF01CFC019B071C391CE0180A36FFF78A
:10230000D5FFE9683A1CA0190AF000FB28690AF019
:102310000DFCF719061C311CE0190437FFF7C6FF46
:10232000E0192969321C0AF0F1FA6B69BE19A3554C
:102330001A0AA41962701A0C1B0E301DA270E370E9
:10234000FEBD70B50379051C0B7080680E1C0AF089
:10235000EDFB041C211C701CFFF7A8FF701DA96871
:10236000221C0AF0D3FA601D70BDF7B5041C40684A
:102370000D1C087061682A1D0B0A6B70E388002130
:10238000AB70E379EB706068531B81420CD2E0685C
:102390008B001B580131180A13705070180C1B0E5B
:1023A0009070D3700432EEE72169EA18E95420698D
:1023B0000433010A5170618AEB189170E17CD1708D
:1023C000002221695E1B8A420CD2A0699100095843
:1023D0000132080A19705870080C090E9870D970EB
:1023E0000433EEE7E269AB19AA55E0690436020A44
:1023F0005A70E28B00279A70E27FDA70E0698742B8
:1024000016D2626AB900505801910AF08FFB009011
:102410000099A819FFF74AFF636A019A0436995890
:10242000A819009A0AF072FA009B01379E19E5E795
:10243000301CFEBD10B500230360CC5CDA00944074
:10244000221C0468013322430260042BF5D110BD25
:102450007FB50B780C1C83804A78051C120213434D
:102460008380023101A8FFF7E5FF019AA31D961DA5
:10247000191BB14204D21878591E08700133F7E7CE
:10248000A21800235371631DAB60A11902A8FFF7C6
:10249000D1FF029B321DD618131CB34205D2E05C5B
:1024A000E118013908700133F7E7A119013A4B1E11
:1024B0000020A218187003A8EA60FFF7BBFF039B77
:1024C0000436F018331C834205D2E15CE218013A6D
:1024D00011700133F7E72318013E5A1E0021A61997
:1024E00011702E6159789A78090212041143225C06
:1024F00004301143DA780B1C120613436B6104B0ED
:1025000070BD73B50B780C1C0371051C013101A85B
:10251000FFF790FF019A631D501D191B814204D2E1
:102520001E78591E0E700133F7E7A21800230434F9
:102530001371AC6076BDF7B54E788A780B781204CB
:10254000360216431E43CB7842681B06041C0D1C42
:102550001E43964204D9B100C0680AF09DFAE060BB
:1025600066602F1D002662687B1B964215D27A7822
:10257000BB7812021B0413433A78B0001343FA7875
:10258000211C12061343A360E368083118180422C3
:102590000AF0BCF901360437E5E7EA185778907875
:1025A000E95C3F020004D27807431E1D23690F43F4
:1025B000120617439F4204D9B900A0690AF06CFAC9
:1025C000A0612761AE1900272269731B974215D2BB
:1025D0007278B37812021B0413433278B8001343A5
:1025E000F278211C12061343A2696361101814319A
:1025F00004220AF08BF901370436E5E7EA18567829
:102600009078E95C36020004D27806431F1DE36926
:102610000E43120616439E4204D9B100606A0AF0C6
:102620003BFA6062E6610026E3699E4220D2E91926
:1026300001A8FFF7FFFE019B3A1DD718131CBB42F0
:1026400005D2E85CE918013908700133F7E7EB19A6
:10265000013B0021013A1970AA182262626AB00097
:10266000211C1018203104220AF050F90136DBE752
:10267000381CFEBD1FB5054C01AB039202681971F1
:102680000194146807211A1CA0471FBDC8EC000064
:10269000F0B5894901230A6889B01340874C884DF9
:1026A00043D1884A88482260E1221202A2609F2218
:1026B000D200A354854A6560A050A222D200A35044
:1026C000A322D200A350824AA350824AA350A5223B
:1026D000D200A350A622D200A3507F4AE01880184F
:1026E000043300220260642BF7D1131C9022E018FF
:1026F000D2008018043300220260642BF6D1A018A7
:10270000002303770132802080008242F7D18722A4
:10271000E0189200801800220270013380208000AF
:102720008342F4D10123A2610B606C4E6C4834608B
:1027300005F086F86068A16805F058FE694A002334
:10274000A3509D22D200A3509E22D200A350664ADD
:102750003068A3500121654AFFF78CFF281C05F063
:1027600047FE0028FAD0624D01262F68614C3740A1
:1027700016D15A4B1B680793FFF740FD0D230193B9
:102780000A230293FA23021C07990097201C9B003E
:1027900002F03AFE201C5849584A2E6007F014F9FE
:1027A000574F584B3A681C600124224217D14B4ABC
:1027B000554E126833680792544D234203D1281CAA
:1027C00001F0D0F9346001240023009301940294B5
:1027D0004F4807992A1C0A2303F008FA3C604D4B26
:1027E0004B4A4D4D1A602B6801264C4C33420AD19E
:1027F0003A4AE1231268201C0692111C5B02484AE7
:1028000003F0FCFE2E60474B474D1C602B680126F1
:10281000464C334208D1314A201C12680592111CE3
:10282000434A04F0D1FA2E60424B434F1C603B6890
:102830000124234213D1294B404E1B683268079371
:102840003F4D224203D1281C00F00AFF34600A23C6
:102850003C4807992A1C04F04DFA01233B603A4C8E
:10286000384B2360FFF7B8FC1C4A116800F092FC5B
:10287000244B36491868364B364A0093364B019341
:10288000364B02F015FE234A354B10683549364A5F
:102890000093364B03F072F8224B186803F0A2FB4A
:1028A000244B3349186804F0A5FA20683149324AAC
:1028B00004F0F0F809B0F0BD6C0900201404002009
:1028C00054150020F8EC0000E0EC00000C050000BE
:1028D0001C050000240500001C0400000C0400205E
:1028E000B80B0000E4040000EC040000C6ED00009A
:1028F000C0090020C8090020C121000000000020FC
:102900005009002074090020E8020020F401002092
:1029100098090020C409002048090020F80200207E
:10292000BC1000209409002010040020540900204D
:10293000F81200204C09002070090020EC02002051
:102940009C0100207C09002078090020D8ED0000BF
:1029500024EE0000F3ED00003CEE00000BEE000062
:1029600075EE000055EE00005AEE000068EE000023
:1029700081EE000092EE0000A6EE000070B5041C8F
:102980000E1E632E05DD9F23DB00C35C0020834207
:1029900046D01368101C234A1B68A1189847872348
:1029A000FF229B00E254204BFE22E2541F4AC3B296
:1029B000A3541F4982B2120A6254D3188821DB4300
:1029C000890063541B4B0022E6541B4B360AE65425
:1029D0000523811D994207DB8725E118AD004919C0
:1029E000097801335218F4E7114B051C2018C01860
:1029F000D2438023083502719B009D4209DC606848
:102A0000872203689200A1185B682A1C9847281C3B
:102A100006E0201C0321094A0125FFF72BFE68422E
:102A200070BDC046230200001D0200001E0200000F
:102A30001F0200002102000022020000BCEE000084
:102A40001FB5074B0A2101930023029303930368E8
:102A500001AA1B68041C984704F0BAFEE0601FBD81
:102A600098EC0000F0B52D4B87B000932C4B002262
:102A700069468A8002930393049305929023294A1E
:102A8000DB00041C8518C6182B68002B19D09A6827
:102A9000694658688A801968036802919B6898475C
:102AA0002B68039058680368DB68984780239B0075
:102AB0002A6805932368049011691B68201C6A46E4
:102AC00098470435B542DFD1174AA6182868002870
:102AD0001AD0416882686B469980036802929B68AD
:102AE0009847039028680368DB68984780239B0019
:102AF00004900593286823681F6803685B689847FB
:102B00006A46011C201CB8470435B542DED19F231C
:102B10000122DB00E25407B0F0BDC046B0EC00007B
:102B20001FFE00001C040000E4040000F0B5224B6E
:102B300085B001930023041C0E1C0293039304F040
:102B400047FEE368311CC51A01A8FFF7F7FAFA211E
:102B5000281C890006F0A0FF029BFA21C0180290F1
:102B60008900281C06F0DCFF144D039B6943C9183B
:102B7000039104F02DFEFA218900061C06F08CFF5B
:102B8000029F0F4B013F3F1A2761FA21039F301C20
:102B90008900FF1806F0C4FF4D43201C7F1B211C39
:102BA00014316761103004F045FA04F011FEA023DF
:102BB000DB00E05005B0F0BD98EC000040420F0093
:102BC00000CA9A3BF8B5041C04F002FEA023DB0007
:102BD000E2587B4B061C821A9A4203D99F2300229B
:102BE000DB00E254774FE359002B05D0764BE358D6
:102BF0009E4201D90023E351A169002906D16068F2
:102C000003685B699847002807DAC4E004F0E0FD38
:102C1000A269801B9042F2D9CEE06C4AE559A358D4
:102C2000C118A150674B072D0FD19E21C9006258D2
:102C3000551C6550A2189D211077C9006258013AB1
:102C40006250002AD8D1082208E0002D12D1FF28B6
:102C500006D10122E250321C5B4B1432E250CBE72A
:102C600004F0B6FD5A4B801B9842C5D99F23DB0068
:102C7000E554A1E0012D0DD10222FE28EED0002264
:102C8000E2509F23DB00E35C9342B5D1201CFFF7A9
:102C9000D7FEB1E7022D08D19D21C90060509E21C9
:102CA000C9000025655003211BE0032D07D19D229B
:102CB000D200A15800020818A0500422CEE7042D2B
:102CC0000AD1444B0B4003D5434A013B1343013324
:102CD000FF2B8FD105238EE7052D05D13F4960508D
:102CE0000621E150A05087E7062D0ED13B4A000295
:102CF000A1580818A0500722E2509D23DB00E3589A
:102D0000002B00D078E7082375E7082D00D073E783
:102D10000023E3512F4B0B4003D52F4A013B1343B4
:102D20000133FF2B00D067E72C4BE358002B0CD16D
:102D3000201CFFF785FE201CFFF794FE284B012581
:102D4000E650A023DB00E65037E00A2B05D1211C1A
:102D5000201C1C31FFF7EAFE4EE7062B08D1214A62
:102D6000211CA0181C31FFF7E6FB0122A12303E080
:102D70000B2B04D100229F23DB00E2543CE7BC3341
:102D80009B001859002800D136E70368211C1B68F6
:102D90001C31984730E79F23DB00E35C0025AB4202
:102DA0000CD00F4FE359F21A0F4B9A4206D9201C50
:102DB000FFF746FEE65101E002256D42281CF8BDF2
:102DC000F82A0000E404000004050000F4040000F8
:102DD00088130000FF00008000FFFFFFEC040000EC
:102DE000FC0400000C050000C409000038B5041CF8
:102DF00004300D1CFFF78EF9226929182A54226924
:102E00001030130A4B70638A8B70E37CCB70A38AFB
:102E10000B711B0A4B71E38A8B711B0ACB71238BDD
:102E20000B721B0A4B72638B8B721B0ACB72A38BC8
:102E30000B731B0A4B73E38B8B731B0ACB7338BD6D
:102E400038B5041C04300D1CFFF778F92A5C2918EA
:102E500022614B7810301B02134323618A781204DD
:102E600013432361CA781206134323614B790A790D
:102E70001B021343A382CB798A791B021343E3829B
:102E80004B7A0A7A1B0213432383CB7A8A7A1B027A
:102E9000134363834B7B0A7B1B021343A383CB7BCC
:102EA0008A7B1B021343E38338BD00000048704750
:102EB00030EF00000048704742EF000008B5FA20EC
:102EC000800004F0BDFCFAE7F8B50F1C0699151C4C
:102ED0001C1C07F089FA0A49061C381C07F084FA02
:102EE000211C07F0ABFB011C301C07F07DFA291CEC
:102EF00006F032FF079A069B106054609360F8BD9D
:102F00000D68533BF0B51F1C802387B01B06C31808
:102F1000041C059112984D490192009307F064FA40
:102F2000169907F08BFB0D99051C009807F05CFAC9
:102F3000179907F059FA10990290201C07F054FADB
:102F4000291C07F051FA011C029806F005FF0199AF
:102F500006F002FF11990190201C07F045FA291C88
:102F600007F042FA0E990390009807F03DFA17997E
:102F700007F03AFA039906F0EFFE391C06F0ECFE72
:102F80000C990490009807F02FFA179907F02CFA83
:102F90000F99071C201C07F027FA291C07F024FAB8
:102FA000011C381C06F0D8FE1799071C201C07F0DE
:102FB0001BFA019907F018FA011C381C07F03EFBB8
:102FC000291C071C201C07F00FFA049907F00CFAC3
:102FD000011C381C06F0C0FE059906F0BDFE1399D1
:102FE00006F0BAFE189E3060019B0E997360049B38
:102FF000201CB36007F0F8F9291C07F0F5F9011C53
:10300000029806F0A9FE0C9906F0A6FE1499F0604D
:103010000D9806F0A1FE0E9B306173611099009827
:1030200007F0E2F9179907F0DFF9039906F094FE2B
:103030000F9906F091FE109BB061F36111981599FC
:1030400006F08AFE306207B0F0BDC0460D68533B03
:10305000031C10B5081C191C141C07F0EFFA2060A3
:1030600010BD10B5141C06F077FE011CFE20800573
:1030700006F0D6FF206010BDF8B50F1C191C1D1CF2
:10308000161C07F0B1F9069C291C2060381C07F0BB
:10309000ABF9291C6060301C07F0A6F9A060F8BDF0
:1030A000F8B50F1C191C1D1C161C07F09DF906997C
:1030B00006F052FE099C291C2060381C07F094F988
:1030C000079906F049FE291C6060301C07F08CF956
:1030D000089906F041FEA060F8BDF7B5061CFE2079
:1030E0000F1C8005311C1D1C019207F0A7FA061C5D
:1030F000311C281C07F078F9109C311C20600898BE
:1031000007F072F9311C6060099807F06DF98022B0
:103110001206BF18291CA060381C07F065F90A992F
:1031200006F01AFE0899E060381C07F05DF90B996B
:1031300006F012FE09992061381C07F055F90C9928
:1031400006F00AFE019B802212069E18291C60616F
:10315000301C07F049F90D9906F0FEFD0899A061B1
:10316000301C07F041F90E9906F0F6FD0999E0616F
:10317000301C07F039F90F9906F0EEFD2062F7BD1B
:1031800010B5031CC0680A1C046899682368984736
:1031900010BD0000F0B500292BD0164C0125236886
:1031A000154A2B4004D1154E53601660936025607C
:1031B000134C01252668134B2E4004D1124F5A6040
:1031C0001F601E61256042600360002290000F4C6A
:1031D000081800190068002808D1D01DFF308000B1
:1031E00008187D3243609A60D96002E00132192AE2
:1031F000ECD1F0BD180A0020080A002098EC00006D
:10320000140A00201C0A002096EF00001C04000095
:1032100070B50368041C057A002B0FD04268002AA1
:103220000CD0002D0AD0C16851600169D868916046
:10323000066899683368984700232372281C70BD7C
:103240000A4B08211A6807200A431A60084B1A1C07
:10325000353211784A33014311701A7801210A433B
:103260001A701A7802210A431A7070471C04004031
:1032700000440041144B08211A680A431A60134B9A
:10328000134A5A605A78D209FCD112490F4A518028
:103290005A78D209FCD110490C4A51805A78D20987
:1032A000FCD10E49094A51805A78D209FCD10C4907
:1032B000064A51805A78D209FCD10A49034A518002
:1032C0005A78D209FCD1704718040040000C004025
:1032D0000401010004440000074400001A440000F7
:1032E0001B4400001C4400000C4B02211A680A43D6
:1032F0001A600B4B822252001A81852252001A81D9
:10330000872252001A81892252001A811422FF3228
:103310001A818A2252001A817047C0462004004058
:1033200000040042264B20211A680A431A60254BEC
:103330009A7AD209FBD11A8802218A431A80997A93
:10334000204AC909FBD11188012001431180997AD3
:103350001C4AC909FBD1118889B21180997A194A8E
:10336000C909FBD111888020014311809A7AD209C2
:10337000FCD114490A619A7AD209FCD11249114A46
:103380009161997A0F4AC909FBD1D1790120014392
:10339000D171997A0B4AC909FBD1908880214900E3
:1033A000014391809A7AD209FCD1084BC022920045
:1033B00099580902090A995008221A607047C046B4
:1033C00018040040001400400F27000000E100E056
:1033D000F8B51A4B061C436164230383184B002580
:1033E00001271C36011C041C07720362056045603E
:1033F000C5600561C5612031301C03F0E5FDA562A3
:10340000251C2435211C281C6762283103F012FE7C
:10341000231C2C330B22311C1A70281C03F034FEA1
:10342000201CFFF70DFF201CFFF724FF201CFFF7D7
:103430005BFF201CFFF776FF201CF8BD80969800EC
:1034400040420F00C1607047044B02211A880A43B2
:103450001A809A7AD209FCD17047C0460014004005
:1034600010B5041C07485B001B5A201C5A430B8BE9
:10347000211D5A4300232360626003F0A5FD201C38
:1034800010BDC04686EF0000F7B540690E1C171C42
:10349000019000240A4B6200D15A019806F0FCFA10
:1034A000311CE5B206F0F8FAB84207D30134082C13
:1034B000F0D10448C921FFF701FD251C281CFEBDE1
:1034C00086EF00009AEF0000002330B503604360F0
:1034D000EFF3108372B6BFF35F8FBFF34F8FBFF36D
:1034E0006F8F021C0C3130C930C283F31088BFF3D8
:1034F0005F8FBFF34F8FBFF36F8FBFF35F8FBFF34C
:103500004F8FBFF36F8F30BD08B5490089B2FFF709
:10351000BBFF08BD10B5041C211C0C301C3103F08E
:103520009DFD2369002B01D10123237210BD0000F2
:10353000C168426A914209D10269836A9A4205D1FF
:10354000034B044A5A60DA68D105FCD47047C04680
:10355000000400420000010238B50F4C051C2C3558
:10356000236929780F220A409BB213411A1C0123B8
:103570001A420FD0094A1288DA401A4201D1FFF7E5
:1035800063FF29780F230B400121226999400B1C0E
:103590001343236138BDC0460018004000140040AA
:1035A00070B5114B01241A7A22421CD01A7AD20922
:1035B00019D080220D4E1C721A7233680C4D2342B2
:1035C00003D1281CFFF704FF3460281CFFF7A2FF7B
:1035D00033680124234203D1281CFFF7F9FE34602D
:1035E000281CFFF7A5FF70BD00140040F402002066
:1035F0006C01002013B50E2201A900234A700A4A6B
:10360000041C0B708B7000F0EFF9084BC422236090
:10361000074B920098580749014099508022D202E6
:10362000201C1A6016BDC046002C0042E0EF0000CE
:1036300000E100E0FFFF00FF70B5074D01262B6899
:10364000064C334203D1201CFFF7D4FF2E602368C1
:10365000201C5B68984770BDF0020020900200209B
:1036600013B50322041C0B4901A809F04FF901A965
:10367000201C094A00F0B8F9084BC4222360084B0B
:1036800092009958201C0902090A995080221203BD
:103690001A6016BD18F000000030004200F0000073
:1036A00000E100E070B5074D01262B68064C33425F
:1036B00003D1201CFFF7D4FF2E602368201C5B6819
:1036C000984770BDEC0200209C01002013B5032236
:1036D000041C0B4901A809F019F901A9201C094A89
:1036E00000F082F9084BC5222360084B92009958DC
:1036F000FF208143995080225203201C1A6016BD7E
:1037000040F000000034004228F0000000E100E03A
:1037100070B5074D01262B68064C334203D1201C9F
:10372000FFF7D4FF2E602368201C5B68984770BDAC
:10373000880A0020300A0020436D10B5041CDA7B93
:10374000D209FCD11A8802218A431A80636DDA7B80
:10375000D209FCD12079E02219880002D20002406F
:103760000A431A80636DDA7BD209FCD11A88602182
:103770000A431A80636D10219A798A439A71636DA6
:10378000DA7BD209FCD19A7920218A439A71636D40
:10379000DA7BD209FCD1221C28321278002A08D107
:1037A0002368201C5B699847E38B626D5383636DCC
:1037B00008E09A7902210A439A71626DD37BDB0992
:1037C000FCD1EDE7DA7BD209FCD1597B20221143F1
:1037D0005973636D997B0A439A73636DDA7BD209DF
:1037E000FCD11A8802210A431A80626DD37BDB095F
:1037F000FCD110BD436D10B5041CDA7BD209FCD19D
:103800001A8802218A431A80636DDA7BD209FCD1BF
:103810002079E02219880002D20002400A431A806F
:10382000636DDA7BD209FCD11A8820210A431A8001
:10383000636DDA7BD209FCD19A7910218A439A719F
:10384000636DDA7BD209FCD1221C28321278002A5F
:103850000ED02368201C5B699847636D1022597B4A
:1038600011435973636D997B0A439A73636D08E042
:103870009A7901210A439A71626DD37BDB09FCD1ED
:10388000E7E7DA7BD209FCD11A8802210A431A80C1
:10389000626DD37BDB09FCD110BD10B5426D0323F3
:1038A000148864091C40012C02D100F06DFD06E073
:1038B000128852091340032B01D100F068FD10BD9E
:1038C00013B5041C4C34217062700124009400F084
:1038D000E7FE13BD70B5041C00F006FE201C656DEC
:1038E000A68900F034FEE16B7618013E8619B6B267
:1038F0002E83226CE16B531823640023E36370BDB5
:10390000F0B5436D01259A7B85B0041C2A4220D076
:103910009D73204F031C203301933B681E4E2B42A6
:1039200003D1301CFFF754FD3D60636D02A81A8B74
:10393000311C01322379FFF793FD02A9019803F0AE
:103940008DFB2368201C5B699847201C00F0C4FF96
:103950001DE09A7B12092A4209D010229A7300F0C6
:103960006DFF231C28331A78904208D10FE09A7B10
:1039700052092A420BD020229A73031C28335D700F
:10398000E36A0133E362236A2363636A636305B016
:10399000F0BDC046F40200206C010020436D10B55C
:1039A000041C002B03D10F48C921FFF787FA636D70
:1039B000DA7BD209FCD11A8802218A431A80636D0E
:1039C000DA7BD209FCD15A8923210A435A81636DDB
:1039D0000122597B11435973636D997B0A439A7392
:1039E00010BDC04643F0000038B5041C151C00F0A3
:1039F00091FC044B65650833201C2360FFF7CEFF64
:103A0000201C38BD78F00000704700000B4B0221ED
:103A10001A6810B50A431A60094C0A4B0F2123811A
:103A200000F026FBFE23DB0300041840064B18437E
:103A30006060E3689A05FCD410BDC04620040040D5
:103A40000004004207020000010000020B4B0221AB
:103A50001A6810B50A431A60094CA123DB002381C0
:103A60000B2100F005FBFE23DB0300041840054B8F
:103A700018436060E368DA04FCD410BD2004004001
:103A800000040042040000021FB54B424B410221DA
:103A9000C91A031C0391983319785A780123041C1E
:103AA000009303AB00F0FCFD201CFFF7CFFF636D1C
:103AB0009A689107FCD41A6802218A431A60626DE1
:103AC00093689907FCD4116A8023DB0219431162C1
:103AD000626D80211068C90401431160626D916AB2
:103AE00019439162626DD16A0B43D362636D9A6828
:103AF0009107FCD49A689107FCD41A6802210A4302
:103B00001A60626D93689907FCD41FBD436D9A6873
:103B10009107FCD41A6802218A431A60436D9A689F
:103B20009107FCD419680E4A0A401A60436D9A68DE
:103B30009107FCD4996A8022120311439962436D64
:103B4000D96A0A43DA62436D9A689107FCD41A680D
:103B500002210A431A60426D93689907FCD47047AA
:103B6000FFFFFFF737B5041C144901A8032208F032
:103B7000CDFE6A460F23002501A95370201C104B6F
:103B8000157000F0F1F90F4B0B2208332360231C52
:103B900098331D705A700C4B201CA360E360FFF734
:103BA000B5FF0A4BC32292009958201C0902090A4A
:103BB0009950802212021A603EBDC04698F0000063
:103BC00000200042A0F00000FFFFFF0000E100E045
:103BD00070B5074D01262B68064C334203D1201CDB
:103BE000FFF7C0FF2E602368201C5B68984770BDFC
:103BF000E8020020F40100200B4B02211A6810B5E6
:103C00000A431A60094C0A4B1421238100F030FA50
:103C1000FE23DB0300041840064B18436060E36892
:103C20005A05FCD410BDC0462004004000040042E8
:103C30000D0300000200000213B5072201A90023B2
:103C40004A706A460B708B701370142353700B4BC1
:103C5000041C00F089F90A4BC42208332360094B85
:103C60009200A360E360084BFF209958814399506C
:103C700080225202201C1A6016BDC0460024004259
:103C8000C8F00000FFFFFF0000E100E070B5074D45
:103C900001262B68064C334203D1201CFFF7CCFFD2
:103CA0002E602368201C5B68984770BD240B0020A1
:103CB0008C0A00200B4B02211A6810B50A431A60C7
:103CC000094C0A4B1521238100F0D2F9FE23DB03B6
:103CD00000041840064B18436060E3681A05FCD4E2
:103CE00010BDC04620040040000400421104000042
:103CF0000300000213B50322041C0E4901A808F0BA
:103D000005FE6A46002313701523537001A9201C79
:103D1000094B00F029F9094BC42208332360084BF2
:103D20009200985807490140995080229202201C25
:103D30001A6016BDF0F0000000280042F8F0000004
:103D400000E100E0FF00FFFF70B5074D01262B6882
:103D5000064C334203D1201CFFF7CCFF2E602368B2
:103D6000201C5B68984770BDC00B0020280B00200A
:103D700072B6BFF35F8FBFF34F8FBFF36F8F01201A
:103D800070470000436D10B5041C9A689107FCD47D
:103D90001A6802218A431A60636D9A689107FCD4FD
:103DA0002079E02219680002D20002400A431A601A
:103DB000636D9A689107FCD4DA6B01210A43DA63D8
:103DC000636D9A689107FCD419681E4A0A401A600C
:103DD000636D9A689107FCD4221C28321278002A5D
:103DE00005D02368201C5B699847636D09E09969D9
:103DF000802252020A439A61626D93689907FCD44B
:103E0000EFE79A681105FCD4E1684A081A65636D0A
:103E10009A681105FCD4996A802252021143996272
:103E2000636DD96A0A43DA62636D9A689107FCD4BC
:103E30001A6802210A431A60626D93689907FCD4DC
:103E400010BDC046FFFFFFFE704708B5436DDA6B3B
:103E500007231340012B01D100F096FA08BD70B57D
:103E6000041C00F041FB002803D0E168636D4A08A0
:103E70001A65201C656DE66800F069FBE26B013E87
:103E8000B61830186864216CE26B8B182364002329
:103E9000E36370BD80F31088BFF35F8FBFF34F8F74
:103EA000BFF36F8FBFF35F8FBFF34F8FBFF36F8F82
:103EB0007047F7B5041C0D1C0092EFF310830193BB
:103EC000FFF756FF00281DD0EFF31087FFF750FFD4
:103ED00000280AD063780026B34206D0009A6670A4
:103EE000B24201D0636813600126381C0027FFF737
:103EF000D1FFBE420BD0BD4208D0A368E4682B605E
:103F00006C6003E00198FFF7C5FF04E0012701980A
:103F1000FFF7C0FF381CFEBD10B5041C406D002823
:103F200003D10F48C921FEF7C9FF636D9A68910755
:103F3000FCD41A6802218A431A60636D99680122D1
:103F40008807FBD4196A074801431962636D996AAF
:103F500011439962636DD96A0A43DA6210BDC046A3
:103F600020F1000003400000F8B5041C171C1D1CC4
:103F700000F0D0F9154B012608332360231C65653A
:103F8000764200255833201C1D70391C5D700222BA
:103F900025666566A566E56625676567E66578302A
:103FA00008F0B4FC231C7C331D705D70231DDE679C
:103FB000221C80331D605D608C32643B21CB21C2AA
:103FC000201CDE66FFF7A8FF201CF8BD50F10000A2
:103FD00070B5051C0E1CEFF31084FFF7C9FE002816
:103FE00000D0EE65201CFFF755FF70BD1FB5031C08
:103FF00058331970203319785A7803230393002318
:10400000041C009303AB00F04BFB2368201C9B694E
:104010009847636D9A689107FCD41A6802218A4315
:104020001A60626D93689907FCD4116A80239B0221
:1040300019431162626D8021106889040143116087
:10404000626D916A19439162626DD16A0B43D362CA
:10405000636D9A689107FCD49A689107FCD41A683A
:1040600002210A431A60626D93689907FCD41FBD50
:104070000F23081C18400C30704708B5031C783318
:1040800019785A7800F0CCFB08BD00000000000051
:10409000F0B5436D0126DA6A87B0041C324217D0AE
:1040A000DE62FEF799F8636D011C5A6C04A8921940
:1040B0002379FFF7D5F9201C04A9203002F0CEFFA8
:1040C0002368201C5B699847201C00F005FCC0E0B9
:1040D000DA6AD20C32420CD080221203DA62021C5D
:1040E000031C8C32203321CB21C2636D94341B6DB1
:1040F0005AE0DA6A120C324213D080225202DA629B
:1041000000F09CFB231C28331A78904200D1A0E0D9
:104110005E70E36A206A616A0133E362206361636F
:1041200097E0DA6A520C324210D01A6B9B6C071C73
:10413000520C0193943702AD324237D1FFF79DFF05
:10414000231C58331B78984230D14AE0DA6A920C2B
:1041500032427ED08022D202DA62436DD96C031CD7
:1041600094331A68083B914200D26C3B02AD2A1C82
:1041700003CB03C2FEF730F8636D011CDA6C04A8B0
:104180002379FFF76DF9281C04A902F067FF231CAF
:104190007C3301225A70231DDA6F043301329A678F
:1041A000029A8834DA676B68236052E03A680198B3
:1041B000231C2033904201D3231C8C332A1C03CBB5
:1041C00003C2FEF709F82379011C019A04A8FFF73E
:1041D00047F96834281C04A902F040FF0CCD0CC438
:1041E00037E03A680199231C2033914201D3231C04
:1041F0008C332A1C03CB03C2FDF7EEFF261C237968
:10420000011C019A04A8FFF72BF9683604A9281CA1
:1042100002F024FF04A8291C321C02F04BFF049B6F
:10422000271C5837002B14DB059A236704A8626704
:104230000A4B094A02F0E0FE301C04A902F00EFF0E
:1042400001237B70E36DE56E0133E365A36E2366A6
:10425000656607B0F0BDC046000000000000E03F0A
:1042600008B57C30FFF725FE08BDF7B5061C0091A8
:1042700001921D1CEFF31087FFF77AFD00280FD085
:10428000301C58300099019AFFF713FE0024A04219
:1042900006D0A54203D0336F766F2B606E60012489
:1042A000381CFFF7F7FD201CFEBD72B6BFF35F8F11
:1042B000BFF34F8FBFF36F8F0120704780F31088DB
:1042C000BFF35F8FBFF34F8FBFF36F8FBFF35F8F6E
:1042D000BFF34F8FBFF36F8F7047F8B5051C0F1CEE
:1042E000EFF31086FFF7E1FF002809D06B78002478
:1042F000A3420AD06C70A74206D06B683B6003E013
:10430000301CFFF7DBFF04E00124301CFFF7D6FF71
:10431000201CF8BDF8B51A4B041C0360194B00258E
:104320000F1C8360C360211C012345620571058257
:104330004561058345838583C5830362243120302D
:1043400002F078FE0126231C28337642201C1D70C3
:10435000391C5D700322E66225636563383008F01E
:10436000D5FA231C4433E56325641D705D70A66493
:104370001D725D722565FDF72FFF201CF8BDC0463C
:1043800080F10000FFFF00004900818370478183B6
:104390007047000000000000F7B50190141C02797E
:1043A0001D1C1F4B5200D05A08F0F8F8021C0B1CC1
:1043B0001449134806F09AFE221C2B1C07F000FB40
:1043C000114A124B041C0D1C06F074FB104A114BD1
:1043D000061C0F1C201C291C05F024FC002802D000
:1043E0000D4A0E4B01E00A4A0A4B301C391C07F0FB
:1043F00077FD08F09FF8019BD863F7BDC046C04623
:1044000000000000D0126341000000000000E03F07
:104410000000000000000000000000000000F03F6D
:1044200098F10000C046C046F0B5428B87B0041C2E
:104430000D1C038B8A4238D0002B36D10279264BD3
:104440005200D65A87687743381C08F0E5F80B1CF1
:10445000021C20491E4806F049FE05F05DFC80B2B2
:104460000190391C1D4805F05BFB4B1E9941019BD7
:1044700059180B1C89B2A94200D22B1C9AB2564380
:104480006383A3836661301C08F0C6F8021C0B1C12
:1044900010490F4806F02AFE05F03EFC311CE06092
:1044A0000E4805F03DFB21820DE0002B0BD00C4B9C
:1044B00003AA039303231371206D0A4B0721936012
:1044C00003681B68984707B0F0BDC046C046C046A9
:1044D00000000000D012634198F10000809698001F
:1044E000C8EC0000A8F100007FB5438B868B6A46BC
:1044F000F61A031C2033041C03CB03C2FDF76CFE29
:104500002379011C226C02A8FEF7AAFF684602A9C3
:10451000751EAE4102F0B8FD019DF6B26B425D41E1
:10452000354003D0A18B201CFFF77EFF281C04B070
:1045300070BD70B5051C0E1CEFF31084FFF7B5FEBF
:10454000002800D0EE62201CFFF7B8FE70BD70B5E9
:10455000038B068A4569F618B6B2041C291C301C68
:1045600005F0DEFA301C2183291C05F095FA80B293
:1045700070BD00001C4B30B51A6808210A431A6050
:10458000021C39321178031C38334C10CD0709D581
:1045900019784025C9010C19144964182178294358
:1045A000217008E019780425C90109190F4C09196F
:1045B0000C782C430C70197814780D4DC9016118D2
:1045C00049190C7801252C430C703A3001780029E8
:1045D00009D01B7812780649DB01D3185B181A78CA
:1045E00040210A431A7030BD1C0400403044004191
:1045F0004044004138B5031C2833041C1A700D1CBC
:10460000FDF7EAFDA268291CFEF77EFF6D00A9B246
:104610002071201CFFF708FF2368201CDB689847E7
:10462000201CFFF7A7FF38BDF8B5161C021C283266
:10463000041C13700D1CFDF7CFFDA268291CFEF7AA
:1046400023FF291C2071201CFFF7EEFE301C07F011
:10465000A5FF104B0E4A07F0B3F905F05DFB227978
:104660000D4B5200D55A061C291C05F059FA0F1C97
:10467000301C791E8F41291C05F00EFA23683F1863
:10468000E7831B69201C9847201CFFF773FFF8BDC8
:10469000000000000000244098F10000C046C04621
:1046A000F0B505A807785048082504684F4E2C43FC
:1046B00001250460C9012C1C8819944044605410E1
:1046C0000019303004785118E4B2047048480124CD
:1046D00009180878204308700878022420430870DD
:1046E00019680139A14205D942494024086820438C
:1046F000086006E04049414848804878C009FCD13C
:10470000F2E73F494878C009FBD108780224A0436A
:1047100008704C783A48E409FBD10F2644681640EB
:104720000125B5402C4344602E1C02240F2A03D8D7
:1047300007249442A441644207200240013A1B68C6
:10474000051C0634062A08D8101CA4001D4005F0DC
:1047500099F90A0F13171B1F2300A4000A590340DD
:10476000824313431DE00B5970222D01934317E040
:104770002D020A59234B12E02D030A59224B0EE059
:104780002D040A59214B0AE02D050A59204B06E059
:104790002D060A591F4B02E00A591F4B2D071340E3
:1047A0002B430B51002F05D0CB683343CB600B69F3
:1047B0001E430E614A78124BD209FBD11A780220AF
:1047C00002431A704B78DB09FCD1002F0AD0134B3F
:1047D000C12292009958FF208143802001439950C3
:1047E00010221A60F0BDC0461C0400400044004185
:1047F0004044004118040040000C00400544000003
:1048000000180040FFF8FFFFFF8FFFFFFFFFF8FFDA
:10481000FFFF8FFFFFFFFFF8FFFFFF8F00E100E0CA
:10482000054BC901C918086A012393401840431E6B
:104830009841C0B27047C04600440041031C383361
:104840001B78064A3930DB019B1802781B6A01206D
:1048500090401840431E9841C0B270470044004148
:1048600008B52830FFF725FB08BD73B5041C2830B8
:104870000E1CFFF71EFB051E0BD0FDF7ADFC226CD6
:10488000011C23796846FEF7EBFD301C694602F0F7
:10489000FBFB281C76BD08B54430FFF71EFD08BDA4
:1048A00010B50B4B021C4D3211781C690F221140C0
:1048B000A4B20C410122144209D0041C4434627099
:1048C000846CA418846418698A4002431A6110BD7C
:1048D000001800400000000073B5061C406A07F095
:1048E0009BFE104B0E4A041C0D1C05F0AFF900286E
:1048F00012D0201C291C0C4A0C4B05F093F90028FF
:104900000AD0FDF769FC011C6846FEF7DDFD009B3F
:10491000326A934200D0336273BDC046C046C0467F
:104920000000000084D7A7410000000084D7C741E1
:1049300010B5041C0160081C012103F003F9206874
:10494000012103F059F9201C10BD000010B5041C12
:10495000024802F00BFC201C10BDC046780E00205F
:1049600037B503236A46002413715471051C019A5C
:104970000448054902F002FC2868211C03F03CF9B8
:1049800037BDC046780E002040420F0008B50068D1
:10499000012103F031F9024802F00CFC08BDC046C9
:1049A000780E002070B5041C0E1CFFF7D9FF104DC7
:1049B000311C281C02F010FC0021281C02F00CFC09
:1049C000201CFFF7E3FF201CFFF7CAFF281C002173
:1049D00002F002FC0021061C281C02F0FDFB051C55
:1049E000201CFFF7D3FF3002054328B270BDC0463C
:1049F000780E0020F8B5061CFFF7B2FF554C3E219B
:104A0000201C02F0E9FB201C002102F0E5FB201C29
:104A1000002102F0E1FB0021071C201C02F0DCFB5E
:104A20003F024D4D07430021201C2F8002F0D4FB94
:104A30000021071C201C02F0CFFB3F02074300218E
:104A4000201C6F8002F0C8FB0021071C201C02F014
:104A5000C3FB3F0207430021201CAF8002F0BCFBD8
:104A60000021071C201C02F0B7FB3F020743002176
:104A7000201CEF8002F0B0FB0021071C201C02F07C
:104A8000ABFB3F0207430021201C2F8102F0A4FB57
:104A90000021071C201C02F09FFB3F02074300215E
:104AA000201C6F8102F098FB0021071C201C02F0E3
:104AB00093FB3F0207430021201CAF8102F08CFBD7
:104AC0000021071C201C02F087FB3F020743002146
:104AD000201CEF8102F080FB0021071C201C02F04B
:104AE0007BFB3F0207430021201C2F8202F074FB56
:104AF0000021071C201C02F06FFB3F02074300212E
:104B0000201C6F8202F068FB0021071C201C02F0B1
:104B100063FB3F0207430021201CAF8202F05CFBD5
:104B20000021071C201C02F057FB3F020743002115
:104B3000201CEF8202F050FB0021071C201C02F019
:104B40004BFB3F020743301C2F83FFF71FFF281C3E
:104B5000F8BDC046780E0020C40B0020F8B58023B5
:104B600019430B02161CFF2112120E408027114020
:104B70001E437F000B431F43041CFFF7F1FE0E4D45
:104B8000390A281C02F028FBF9B2281C02F024FB89
:104B9000201CFFF7FBFE201CFFF7E2FE310A281C59
:104BA00002F01AFBF1B2281C02F016FB201CFFF7E2
:104BB000EDFE0120F8BDC046780E002010B51A2188
:104BC000041C0022FFF7CAFF201C1C210022FFF753
:104BD000C5FF201C1E210022FFF7C0FF201C202142
:104BE0000022FFF7BBFF201C22210022FFF7B6FFA7
:104BF000201C24210022FFF7B1FF201C26210022C7
:104C0000FFF7ACFF201C28210022FFF7A7FF201C84
:104C10002A210022FFF7A2FF201C2C210022FFF7EF
:104C20009DFF201C2E210022FFF798FF201C302121
:104C30000022FFF793FF201C34210622FFF78EFF8E
:104C4000201C36210122FFF789FF201C38210E4A43
:104C5000FFF784FF201C40210022FFF77FFF201C6C
:104C600042210022FFF77AFF201C44210022FFF797
:104C700075FF201C46210022FFF770FF201C4821F1
:104C80000022FFF76BFF10BD0204000010B5041CEA
:104C90001A4802F043FA201CFFF790FF201C3E2127
:104CA0000222FFF75BFF3E218022201CFFF756FF08
:104CB0009620400002F0C4FD34215622201CFFF74C
:104CC0004DFF142002F0BCFD32210D4A201CFFF7DD
:104CD00045FF142002F0B4FD36210022201CFFF70E
:104CE0003DFF142002F0ACFD80223821D200201CB0
:104CF000FFF734FF142002F0A3FD10BD780E002052
:104D00000202000070B508200C6815686540640850
:104D1000EE0701D51D686C400C60166801387408F8
:104D2000C0B214600028EFD170BD00007FB5134BF6
:104D3000061C0393124B8C1C009301256378301CD6
:104D4000029323786946019301AA03AB0135FFF76B
:104D5000D9FFEDB2301C694602AA03ABFFF7D2FFC0
:104D600002340C2DEAD1009AD343180AFF221040D6
:104D70001B02184300B204B070BDC04621100000F1
:104D8000FFFF000008B50A300021482207F0E0FDCF
:104D900008BD38B5041C0325FFF7F4FF2A1C201CAE
:104DA000002107F0D5FD60190021042207F0D0FD95
:104DB0002A1CE01D002107F0CBFD231C00225233EA
:104DC0001A700123A365E36523666434227038BD3D
:104DD000021C10B500235232137001228265C26595
:104DE0000266021C64324365041C13701371537114
:104DF0009371C36613735373D381FFF7CAFF201CEB
:104E000010BD836D002B03D1C36D002B00D1036651
:104E1000006E0138431E9841C0B2704773B5101C34
:104E20006C461E1CE171151C073407F07FFEB04272
:104E30000DD223782C2B0AD00D2B08D0202293439F
:104E40000A2B04D0281C211C012207F076FE73BD1A
:104E50002A2903D05230037859400170704700006E
:104E600013B50322041C0A4901A807F04FFD201CBA
:104E700001A907F051FE002801D1A06501E001233E
:104E8000A365A06D0138431E9841C0B216BDC0464F
:104E9000DAF1000013B5094B041C01A9033001939A
:104EA00007F03AFE002801D1E06501E00123E36547
:104EB000E06D0138431E9841C0B216BD5A4441000E
:104EC000C36D10B5041C011C6434002B05D10A31DC
:104ED0002278683000F050F900E000202378013398
:104EE000237010BD10B50021041C1022073007F0FC
:104EF000C3FE52342378C0B2181A43425841C0B29C
:104F000010BD70B5041C0E1E052E2DD8081C04F013
:104F1000B9FD032B070E151D201CFFF73AFF23E0F8
:104F2000636D012B20D1201CFFF79AFF0CE0636D0D
:104F3000022B04D1201CFFF7ADFF05E0636D032BAE
:104F400012D1201CFFF7BCFF051C0BE0636D042B86
:104F50000AD1201CFFF7C6FF051C201CFFF751FFDC
:104F60000540EDB2002D04D0201CFFF70BFF666555
:104F700003E0201CFFF70DFF656570BD38B5041C0C
:104F8000406D0D1C052845D804F07CFD0308192749
:104F90003844242942D1201C01213DE0201CFFF788
:104FA00057FF291C201C221C0223FFF737FF201C5F
:104FB00007F0BCFD011C201C02292FD12CE0201C75
:104FC000FFF746FFE21C201C291C0323FFF726FFE6
:104FD0002C2D23D1201C03211EE0201CFFF738FFBD
:104FE000221C201C291C0A324723FFF717FF2C2DF7
:104FF000F0D02A2D12D1201C04210DE0E21D201C2E
:105000000223FFF70BFF0D2D01D00A2D06D1201C26
:10501000052101E0201C0021FFF773FF206E38BD41
:10502000F0B5061C85B00020706000AF081C0D1C98
:1050300007F07CFD0123062840D9AA7900232E2AF7
:105040003CD10123072839D06A46C41F281CBA6006
:1050500007F06CFDE4B2A31D83428041023340425D
:10506000DB08F860DB006846C01A85466B46621CA8
:1050700000217B6007F06CFCE91D6846221C07F0EC
:1050800045FC69466B465A1AA2420ADA1878002291
:105090003038092585425241F86801331040F860E4
:1050A000F1E70A220021786807F070FE431CF968D6
:1050B0005A1E93417060BA680B409546181CBD4655
:1050C00005B0F0BD10B5011C4C8986B00A7A4B7A48
:1050D00000940C780C3001944C7802948C780394F2
:1050E00049680491024907F0F5FC06B010BDC046BE
:1050F000DDF10000F0B585B000AF141C0D1CBB60E5
:10510000F86007F013FD2B19013B83428041231CFB
:105110000833DB08DB006946C91A8D46621C7960DA
:1051200046420021684607F013FCFA6868465119A8
:10513000221C07F0EBFB69466B465A1AA24208DABA
:105140001878002230380925854252411640013333
:10515000F3E700210A22786807F018FEFE22031CFC
:10516000B96800209A4240413040002900D00B70BD
:10517000BD4605B0F0BD0000F0B58DB000AF041C19
:105180000D1C052A68D8101C04F07CFC031F252D7B
:105190007474081C02220021231CFFF7ABFF0221BC
:1051A0000A1C061C631C281CFFF7A4FFA31C064056
:1051B00004210222281CFFF79DFFF6B20640291C9D
:1051C000201CFFF72DFF304044E0231C081C022266
:1051D0000021083304E0231C081C022200210933AB
:1051E000FFF788FF36E0211C0A316B46281C396026
:1051F0007B6007F09BFC03268642B641381C0021E9
:105200000C30F96004220171291C07F07FFB002299
:1052100076429446381C61460C300B5C0025303BCE
:105220000922291C9A4269410122944463460E4096
:10523000042BEFD1291C0A2207F0A8FD114A396876
:1052400082426D41031C281C3040002900D063813C
:105250007A68954600280DD1381C002124220C3094
:1052600007F076FB391C201C0C31232207F04EFB83
:10527000002003E0201CFFF725FF0120BD460DB0F4
:10528000F0BDC046FEFF000038B5041C04300D1C04
:10529000FCF740FF226929182A5422690A30130AB0
:1052A0004B70638A8B70E37CCB70A38A0B711B0AF3
:1052B0004B71E38A8B711B0ACB71238B0B721B0A18
:1052C0004B7238BD38B5041C04300D1CFCF736FF9A
:1052D0002A5C291822614B780A301B021343236190
:1052E0008A78120413432361CA7812061343236198
:1052F0004B790A791B021343A382CB798A791B026B
:105300001343E3824B7A0A7A1B021343238338BD8B
:105310000048704748F20000004870475FF2000004
:1053200038B5041C04300D1CFCF7F4FE2269291862
:105330002A5422690630130A4B70638A8B70E37C0F
:10534000CB70A38A0B711B0A4B7138BD38B5041C96
:1053500004300D1CFCF7F2FE2A5C291822614B7800
:1053600006301B02134323618A781204134323611E
:10537000CA781206134323614B790A791B0213433F
:10538000A38238BD0048704780F200000048704793
:1053900097F2000038B5041C04300D1CFCF7BAFE6F
:1053A000226929182A5422690630130A4B70638A2D
:1053B0008B70E37CCB70A38A0B711B0A4B7138BDD9
:1053C00038B5041C04300D1CFCF7B8FE2A5C291803
:1053D00022614B7806301B02134323618A78120442
:1053E00013432361CA781206134323614B790A7968
:1053F0001B021343A38238BD00487047B8F2000077
:1054000000487047D2F20000F0B585B01F1C0AAB0F
:105410001B78041C00930BAB1B78261C01930CAB70
:105420001D7801F06DFA144B14360833291C2360E3
:105430000025301CFFF77CFA301CA561E561256270
:105440006562A562E56225636563A563FFF71EFCDF
:10545000E068A8420CD02A1C391CFFF7CBF8E068A2
:1054600001230393036800991D68019A03ABA847C1
:10547000201C05B0F0BDC04658F3000010B5002355
:105480009A000A4C821812191268002A09D1DA1DF2
:10549000FF32920082187D335160C8608B6001201A
:1054A00003E00133192BEBD1002010BD1C040000D8
:1054B000F7B5041C019301F02DFA6068002866D04E
:1054C000334901250B68334A2B4008D1324E936093
:1054D0001660324ED3605660136193820D60304D7A
:1054E000012629682F4B31400AD12F4F99601F6048
:1054F0002A4FD9605F6019619982D98219832E6021
:105500002A4E012135680D400AD12949294F8D6065
:105510000F60224FCD604F600D618D82012131609F
:105520002549234D0F680126E562AC46A3626262FD
:105530003740224D05D1019E2F6101272E606A6000
:105540000F601F4A012117680F401E4905D1089EB0
:105550000F6101270E604B6017601B4A012317681B
:105560001F401A4B06D1099E1F611E600127664627
:105570005E601760A1612362E561FFF77FFFE1696B
:105580006068FFF77BFF6068216AFFF777FFF7BD70
:10559000800C0020280C002020F2000098EC000075
:1055A000200C0020400C002008F20000840C002099
:1055B000F40B002038F200005C0C00200C0C0020E2
:1055C0007C0C0020E00B0020600C0020640C00200C
:1055D000F0B5041CC06885B0002807D02269002AF5
:1055E00004D0211C10323031FFF73AF9206900282D
:1055F0001DD0E06800281AD00021FFF74CF90028E0
:1056000015D0261C1436301CFFF7F4F9051C291C94
:10561000301CFFF78BFB18216B5E834209D060685A
:10562000002800D1D1E00221694AFDF723F80020CB
:10563000CBE02F883F06FF0F019713D0616A002946
:1056400010D00822271C5218303709CF09C223690D
:10565000E0691B691B090B61AB8A8B82002801D0B2
:10566000FDF78EFD2169002900D182E00822271C68
:105670005218303709CF09C26B88A0684B83AB88BA
:105680008B83EB88CB832B898B826B89CB82AB8915
:105690000B83002801D0FDF773FDA06B042868D8A8
:1056A00004F0F0F903171A3A47003621301CFFF7CF
:1056B00079F99022A0871201C0B202433621301C32
:1056C000FFF74CFA60680121424AFCF7D3FF01233F
:1056D00000E00223A3634CE0606801213E4AFCF72E
:1056E000C9FFAB886A885B429FB2EB8852425B423B
:1056F0009BB212B21A21301C0393FFF72FFA3AB271
:105700001C21301CFFF72AFA039F301C3AB21E21DD
:10571000FFF724FA0323DDE7606801212F4AFCF735
:10572000A9FF3C20225E3621301CFFF717FA042324
:10573000D0E72B49012294460F6860462269294B25
:10574000074202D1176908601F6019681269501A70
:10575000FA21890088420CD93221301C1A60FFF7E7
:1057600021F980229200424012B2301C3221FFF710
:10577000F5F9019E002E17D0A16A002914D00B1C48
:10578000221C0833303281CA81C32369A0691B6996
:105790001B090B61EB898B822B8ACB826B8A0B8373
:1057A000002801D0FDF7ECFCE16A00290CD00B1CAD
:1057B000221C08333032C0CAC0C3EB8A206A8B82F5
:1057C000002801D0FDF7DCFC012005B0F0BDC0468B
:1057D0003EF30000F3F200000FF3000025F3000099
:1057E000780C0020240C002083880B708388022012
:1057F0001B0A4B7070470B7883804A781202134360
:10580000838002207047000000487047F0F30000DA
:105810000048704700F400000048704721F4000081
:105820000048704731F4000042680A704268130A69
:105830004B70C3888B70C3790420CB7070470A7893
:1058400042604B781B02134343608A78120413436F
:105850004360CA7812061343436004207047000077
:105860000048704752F400000048704762F400009E
:1058700038B5051C0C35041C281CFFF7E0FFA16996
:1058800063694A10E069CC0701D58158CB58291CBF
:105890008018984738BD006A70470000004870477C
:1058A00052F400000048704762F4000038B5051C4F
:1058B0000C35041C281CFFF79EFFA16963694A1080
:1058C000E069CC0701D58158CB58291C801898472E
:1058D00038BD006A7047000000487047F0F30000D0
:1058E0000048704700F4000070B5041C40680D1CAF
:1058F00008706268130A4B70E3888B70E379CB7091
:10590000A3680B71A068030A4B7163898B71E37AFA
:10591000CB71E2680A72E068030A4B72E3898B720A
:10592000E37BCB72206907F001F90023061CD90044
:10593000301CEA18C84001331073042BF7D1281C1F
:10594000321C2169103006F0E1FF301C103070BDB0
:1059500038B5041C61600849101C002504AA0831F0
:105960001278A560E06021602561A84202D0191C70
:10597000FEF740FE201C38BDE0F30000F7B5444FB1
:1059800001253E6801932E400CD1424C424B2682A9
:105990002360424BA661E360414BE0616361256295
:1059A000A2603D604468002C70D0C268146500227B
:1059B000950090266519F600AD192D68002D08D1C7
:1059C00090235B00D618334DB600643235516A60BF
:1059D00002E00132192AEBD1324D01262C68324AFD
:1059E000344007D1314F54609460D460304C17601C
:1059F00014612E602F4D01262F68026137402E4C16
:105A000004D1089B6260236027612E602B4E012524
:105A1000376884602F400DD1294A2A4B17611360E3
:105A2000294B0427D360019B57619561D0611562B2
:105A300093603560426800239D00244E5519AD19CE
:105A40002D68002D08D1DD1DFF35AD0055197D33C2
:105A50006C60A360E26002E00133192BECD10023FB
:105A60009C0090251419ED0064192468002C08D1BD
:105A7000902676009D19124CAD006433AC506360E3
:105A800002E00133192BEBD103691961F7BDC04660
:105A9000E00C0020E40C002088F3000070F300000C
:105AA000595B0000AC0C0020CC0C0020A0F30000DF
:105AB0001FFE0000C80C0020B00C0020C40C002009
:105AC000880C0020D0F30000B8F300001C04000094
:105AD00073B50A780C1C42604B78051C1B021343FB
:105AE00043608A78120413434360CA781206134352
:105AF00043600A7982604B791B02134383608A7981
:105B0000120413438360CA791206134383600A7A2E
:105B1000C2604B7A1B021343C3608A7A1204134398
:105B2000C360CA7A0C3112061343C36001A8FCF7A4
:105B300081FC019A231C101C10301033191B814268
:105B400004D21E78591E0E700133F7E7A218002305
:105B50000F34D3732C6176BD30B5041CC0688FB090
:105B60000D1C002810D0036889889B6898476368DB
:105B7000002B09D0AA88054901A806F0ABFF606890
:105B8000012101AAFCF776FD0FB030BD83F40000BF
:105B900010B5041CC068002802D04968FEF7C9FC93
:105BA0006068002803D00121014AFCF763FD10BDA5
:105BB0009DF400001FB5041CC068002810D049687F
:105BC000FEF706FA606800280AD0064B01AA019386
:105BD00001231371044B0721936003681B689847E6
:105BE0001FBDC046C8EC0000BEF40000F7B5151C90
:105BF00008AA041C127809A806780AA80778009257
:105C0000201C2A1CFFF7A4FE084B277508332360CD
:105C10000023A361E361236263629D4203D0281CD9
:105C2000311CFEF7E3F9201CFEBDC046E0F4000085
:105C3000F0B5C36885B0061C002B4CD0036A002B5E
:105C400049D00269011C0832183102A801F032FA69
:105C5000029806F0A3FC041C03980D1C06F09EFCA1
:105C6000204B1F4A05F0ACFE0B1C021C291C201CFB
:105C700004F020FF32690F1C0191311C08320090A2
:105C8000203102A801F016FA029806F087FC041CE5
:105C900003980D1C06F082FC124B114A05F090FE91
:105CA000021C0B1C201C291C04F004FF7B00041C9C
:105CB0004F000D1C00985908221C7B0803F0B2FF0E
:105CC000031CF068002B02D0009A019B01E0221C0B
:105CD0002B1CFEF761FB05B0F0BDC046C046C046B8
:105CE00095D626E80B2E113E37B5041CC06800225D
:105CF0006D4600920192904207D0237D934204D0DA
:105D00006946FEF7B2FD00280ED1E068002815D0E4
:105D10002269002A12D0111C083104320023FEF738
:105D2000A4FA00280CD109E0231C221C20331832CD
:105D300003CA03C3103B05CD05C3E6E700200FE00F
:105D4000237D002B02D0201CFFF772FFA368002BDD
:105D500005D0D8689968056822692B6898470120A2
:105D60003EBD426830B50A704468230A4B70C38850
:105D70008B70C379CB7082680A718468230A4B7177
:105D800043898B71C37ACB71C2680A72C468230AD3
:105D90004B72C3898B72C37BCB7202690A7304692D
:105DA0001022230A4B73438A8B73C37CCB730B1C67
:105DB0001033841864680432250A1C705D70250C49
:105DC000240E9D70DC7004331C2AF2D10B1C1C3392
:105DD000202284580432250A1C705D70250C240E84
:105DE0009D70DC700433442AF3D1436C0A1C4032AA
:105DF0001C0A137054701C0C1B0E9470D370836CAF
:105E00001C0A137154711C0C1B0ED371031C94716A
:105E10004C331C8814721B881B0A5372026D0B1CB6
:105E20004A331A70046D4E31220A5A70046D220CE6
:105E30009A70046D5430220EDA7003784F200B7084
:105E400030BD70B50A7842604B781B021343436043
:105E50008A78120413434360CA78120613434360DE
:105E60000A7982604B791B02134383608A7912049A
:105E700013438360CA791206134383600A7AC260AF
:105E80004B7A1B021343C3608A7A12041343C36024
:105E9000CA7A12061343C3600A7B02614B7B1B0262
:105EA000134303618A7B120413430361CA7B120606
:105EB000134303610B1C103310225E789D78360269
:105EC0002D0435431E7884183543DE7804323606B7
:105ED0003543656004331C2AEFD10B1C1C33202290
:105EE0005D789C782D0224042C431D782C43DD78AA
:105EF00004332D062C4384500432442AF0D10B1C69
:105F000041331A7801331B7812021B0413430A1C15
:105F1000403212780C1C13430A1C43321278493465
:105F20001206134343640B1C45331A7801331B7864
:105F300012021B0413430A1C4432127813430A1C36
:105F4000473212781206134383640B1C48331A78C5
:105F5000031C4C331A802478240222431A800B1C21
:105F60004A331A78013302651B781B0213430A1C5B
:105F700003654C321278120413430A1C03654D3238
:105F800012784E311206134303650B7854300370B8
:105F90004F2070BD0048704724F50000004870474E
:105FA00034F500000E4B10B503600023436083609E
:105FB000C3600361021C0023041C43618361C3614D
:105FC0002032443408C20021A242FBD1021C00232B
:105FD0004C324164816413800365137210BDC04666
:105FE000F8F40000F8B5184E01273368041C174D6B
:105FF0003B4203D1281CFFF7D5FF3760A1686560DD
:1060000000291FD0124A01201668124B064004D105
:10601000114F5D601F601E611060E3600022900000
:106020000E4C081800190068002808D1D01DFF3058
:10603000800008187D3243609A60D96002E0013226
:10604000192AECD1F8BDC046780D0020200D0020A3
:10605000080D00200C0D002055F500001C04000068
:10606000F0B5476893B0061C002F00D123E1406FC4
:10607000391D002852D1B26F002A4FD13A1C0C3280
:1060800010A801F017F8109B11980E930F90181C90
:1060900006F084FA041C0F980D1C06F07FFA894B59
:1060A000874A05F08DFC021C0B1C201C291C04F0E7
:1060B00001FD06F037FB30670E9804F04FFC06F048
:1060C000DFFA814A814B05F07BFC041C0F980D1C04
:1060D00004F044FC06F0D4FA7D4A7E4B05F070FCD7
:1060E000021C0B1C201C291C04F0E4FC06F01AFB0B
:1060F0007768FF239B05BB61774B784AFB61FE23E2
:106100009B053B6200237B62BB62FB627B63BB63DC
:10611000FB63734B78613A633B64C7E0321C7432B3
:1061200010A800F0C7FF109806F038FA041C119868
:106130000D1C06F033FA634B614A05F041FC021C6A
:106140000B1C201C291C04F0B5FC06F0EBFA74684B
:106150007864231C4C33188804F05CFC656C62691D
:10616000A369011CE469301C283000940190281CAC
:10617000FCF7AAFE7468E36A256A616AA26A676C22
:106180000093206B0E910190616B0F920291A26BB4
:106190000392E36B0493206C231C4C330590188806
:1061A00004F038FC0690B1690791F269291C089245
:1061B000336A0E9A0993A069331C0A90E469343358
:1061C0000B940C93381C0F9BFCF79CFE726810A874
:1061D000111D0C3200F06EFF109804F0BFFB06F0AA
:1061E0004FFA394A394B05F0EBFB041C11980D1C92
:1061F00004F0B4FB06F044FA354A364B05F0E0FBF8
:106200000B1C021C291C201C04F054FC06F08AFA0A
:10621000321C011CB0655C32B06AFCF719FF321CFD
:10622000706B716A6032FCF71CFF331C643300939F
:10623000706B316CF26C336EFCF71EFFB16A00912B
:10624000F26A0192336B0293736814330393706E96
:10625000B16EF26EF36DFCF723FFB06B0090F16B43
:106260000191326C0292736C0393B06C0490F16CE8
:106270000591326D0692736D07937368203308930E
:10628000F26EB16E706E736BFCF727FF7468231C9F
:106290004C33188804F062FB124904F0A5F8A16998
:1062A00004F0CCF9E16904F09FF8A06473687436D7
:1062B000043303CB03C613B0F0BDC046C046C0468E
:1062C00095D626E80B2E113E0000000080842E415A
:1062D000FCA9F1D24D62503F0000C0400AD7233BD9
:1062E000EC51B83C0D68533B70B5446896B0051C42
:1062F000002C2BD06846FFF755FE231D01AA03CAC8
:1063000003C303AA41CA41C305AA43CA43C308AA97
:1063100043CA43C343CA43C343CA43C311996164D5
:10632000129B149EA36413AB1A88231C4C331A804F
:10633000266515AB1B78543423706B68D2211A1C68
:106340004C32FF311180543300221A7000236B67E6
:10635000AB6716B070BD0000F8B52F4B2F4E036031
:106360000023041C43608160C360306801272C4D0A
:10637000384203D1281CFDF7F5FB3760002229497C
:10638000231C62612561183361C961C3264B6267B2
:10639000636200232367231C7C33A2671A70234B9C
:1063A0000122197811431970214B19780A431A7088
:1063B000204AD379DB09FBD1137801210B431370F9
:1063C000D1791C4BC909FBD1597840200143597040
:1063D00059780120014359701889D221FF310143B6
:1063E0001981D179134BC909FBD1197802200143D6
:1063F0001970D179C909FCD12069002801D0FDF7B5
:1064000043FBA368002B01D022691365201CFFF712
:106410006BFF201CF8BDC04610F50000E80200200C
:10642000F401002018F5000017B7D13B31440041BA
:106430004244004100480042F0B5056FC5B0041C5D
:106440000021281C03F03CFC002805D0FE21281C5C
:10645000890503F035FC03E0281C434903F01CFCCC
:10646000431E9841002825D0404E01273368404DF7
:106470003B4203D1281CFCF7ABFF37606368281C44
:10648000D968FCF7DFFF636804ADDA68281C1B6974
:10649000384906F01FFB384B01AA0193A06801237D
:1064A0001371036895601B6807219847201CFFF74C
:1064B0001BFF50E065680021686C03F001FC0028B8
:1064C00049D02E49A86903F08FFF061C686906F0C1
:1064D000D7F8244B224A05F073FA06F023F9011C81
:1064E000301C04F0ABF82649061C03F0D5FB00284D
:1064F00007D1301C234903F0E3FB002802D0214ED2
:1065000000E01F4E301C03F097FA03F0EDFB4C3512
:1065100080B228801C4BDA79D209FBD11881DA7954
:10652000D209FCD16568FE216B69890558004008D5
:1065300003F0B2FB7C34002805D023783C2B03D039
:106540000133237000E0207023783B229A429B4164
:106550005B4254352B7045B0F0BDC046C046C046C6
:106560002D54A3FC49A90840000080BFF40200207C
:106570006C0100205FF50000C8EC000000009B43A8
:1065800000001B4300C0414400480042C046C046D2
:1065900010B5041C406903282CD803F073FA0210CC
:1065A0001A222069002827D06268002A24D0111DF1
:1065B0005032FDF755FE00281ED001231BE0236852
:1065C000201C1B6898470223012814D0022813D1ED
:1065D00010E0201CFFF744FD201CFFF72DFF0323D4
:1065E00009E0E368002B05D0D86899680268136851
:1065F0006268984700236361002010BDF8B5041C51
:10660000171C1E1CFFF7A8FE0A4B251C083308C5E3
:10661000201CEF678430FEF7DBFB231CE86FFC33A4
:1066200000225A61904203D00368311CDB6998470D
:10663000201CF8BD80F50000F0B5071CFC37061CD7
:106640007869CFB0032800D9A4E003F01BFA02A3B5
:10665000A3997168002900D19EE0FBF7BDFD011CE4
:106660000AA8FCF731FF72680CA804320AA900F0EE
:1066700021FD0C9805F092FF041C0D980D1C05F0EF
:106680008DFF964B944A05F09BF9021C0B1C201CB5
:10669000291C04F00FFA04900591FBF79DFD071CDF
:1066A000C06905F07BFF041C386A0D1C05F076FFFD
:1066B0008A4B894A05F084F9021C0B1C201C291CFA
:1066C00004F0F8F9051C2A1C80250C1C2D060498E2
:1066D0000599631903F0A6FA002807D104980599D3
:1066E0007F4A804B03F0B2FA00283CD0B168002901
:1066F00037D00A9805F090FF069007910B9805F0A7
:106700008BFF764B744A05F05BF9021C0B1C069854
:10671000079904F0CFF9746806900791606805F056
:106720007BFF08900991A06805F076FF6B4B6A4AE1
:1067300005F046F9021C0B1C0898099904F0BAF9F7
:10674000049C059D069A079B009001910294039575
:1067500067490EA806F0BEF9B06802210EAAFBF741
:1067600089FF022208E0049805995F4A5F4B03F015
:106770006DFA002810D00322331CFC335A610BE061
:10678000341DE06F00280BD003681B699847002870
:1067900033D105E000237B61FC3670694FB0F0BD5A
:1067A000FBF71AFD011C0CA8FCF78EFE72680EA800
:1067B00004320CA900F07EFC0E9805F0EFFE041CDC
:1067C0000F980D1C05F0EAFE444B434A05F0F8F81B
:1067D000021C0B1C201C291C04F06CF9404A414B84
:1067E00003F034FA0028D7D0B068002803D0032182
:1067F000404AFBF73FFF0223CDE7E06F351C0368FB
:10680000843504955B699847C1B20498FEF7B6FBDE
:106810000028C1D1331CF0331D68002DBCD1E06FBE
:1068200003681B69984701281BDDB16800290DD05A
:10683000E06F03681B6998472F49021C0EA806F0F9
:1068400049F9B06802210EAAFBF714FFE06F036854
:106850001B6998470028CED0E06F03685B699847B2
:10686000F4E7331C301CF633EC3019880078013B18
:106870001A78013B1B780090301CED3000780190B5
:10688000301CEE30007802900CA800F0F1FC746827
:106890000694002C0DD00CA800F002FD0EAC0E905A
:1068A0000FA9201C0F9500F0C5FB069B0C3322CCD2
:1068B00022C3341DE06F03681B699847002808D085
:1068C000E06F03685B699847C1B20498FEF756FB16
:1068D000EFE701235FE7C04695D626E80B2E113E71
:1068E0009A9999999999E93F9A9999999999C93F4A
:1068F00090F5000024F60000D9F50000C046C0461F
:10690000C260034A002341608360026003617047F4
:1069100058F60000F0B5304E0124356825400CD102
:106920002E4B2F4F1D821F602E4F9D61DF602E4F1B
:10693000D8615F611C62996034604468002C4AD061
:10694000C3681C650023990090256118ED00491962
:106950000968002908D1902149005D181F49AD0040
:10696000643329514B6002E00133192BEBD11F4DE9
:10697000012629681E4B31400DD11E4F99601F60C2
:106980001D4FD9605F6019619982D982198359833B
:106990009983D9832E60194D01262F6803613740F2
:1069A000174903D10A604B600F612E60816000239C
:1069B0009A00144DA21852191268002A08D1DA1D43
:1069C000FF329200A2187D3351608B60CC6002E0F0
:1069D0000133192BECD1F0BDA00D0020A40D002037
:1069E00088F3000070F30000595B00007C0D00206C
:1069F000800D002020EF000098EC0000C80D002062
:106A0000CC0D00201C04000038B5041C04300D1C03
:106A1000FBF780FB226929182A5422690730130AE0
:106A20004B70638A8B70E37CCB70A38A0B71A38A53
:106A30001B0A4B71A37D8B7138BD38B5041C043023
:106A40000D1CFBF77BFB2A5C291822614B78073071
:106A50001B02134323618A78120413432361CA780B
:106A60001206134323610B79A3824A79120213435E
:106A7000A3828B79A37538BD0048704778F6000073
:106A80000048704790F6000008B50368C9B21B685B
:106A9000984708BDF0B5324E0124356825400CD129
:106AA000304B314F1D821F60304F9D61DF60304F92
:106AB000D8615F611C62996034604168002943D0ED
:106AC000C368196500239C0090250C19ED0064191A
:106AD0002468002C08D1902464001D19214CAD00BD
:106AE00064336C50636002E00133192BEBD1214C0D
:106AF00001252168204B294009D1204E99601E6054
:106B00001F4ED9605E6019619982997525601D4C90
:106B10000125266843612E401B4903D10A604B6062
:106B20000E6125604268816000239C00174D141996
:106B300064192468002C0DD1DC1DFF34A400141945
:106B40007D3361608B60CA604369002B06D01B698E
:106B5000036103E00133192BE7D1F5E7F0BDC0462F
:106B6000F80D0020000E002088F3000070F30000F4
:106B7000595B0000FC0D0020240E002068F6000088
:106B800098EC0000E00D0020E40D00201C04000043
:106B9000F8B51A4C071C0D1C201C622100F020FCCB
:106BA0008E21201CFFF770FF201C012100F091FCBA
:106BB000061E06D07868002803D00221104AFBF791
:106BC00059FD201C62210322012300F022FC002D2C
:106BD0000FD0201C00F0B6FCA875201C00F0B2FC01
:106BE000071C201C00F0AEFCFFB23F02C0B2C71968
:106BF000AF8270427041C0B2F8BDC046880E00201E
:106C0000B1F6000070B5144C6221061C201C00F087
:106C1000E7FB0121201CFFF737FF201C012100F0BA
:106C200058FC051E06D07068002803D002210B4ACC
:106C3000FBF720FD0122131C6221201C00F0E9FB60
:106C4000201C00F07FFC021C0020854202D10123A1
:106C5000101C184070BDC046880E0020D7F60000FA
:106C600010B5041CC068002807D06269002A04D04F
:106C7000111C08311032FDF7F3FD6369002B08D0B9
:106C80001B6922699A4204D0201CFFF7BBFF002831
:106C900001D0002014E0201C6169FFF779FF002873
:106CA00002D0A368002B04D1636901201B69236112
:106CB00006E0D86899680268136862699847F3E744
:106CC00010BD000070B50A4C0E1C201C6221151C62
:106CD00000F086FB311C201C00F0D6FB291C201C78
:106CE00000F0D2FB201C012100F0F3FB70BDC04678
:106CF000880E002038B541601049041C083121601D
:106D0000012100204942A060E2602161606182426D
:106D100005D0101C191C28220123FDF785FC084D05
:106D2000281C00F02FFB281C064900F04BFB00211B
:106D3000201C0A1CFFF7C6FF201C38BD00F700000E
:106D4000880E0020801A060038B5041C04300D1C83
:106D5000FBF7E0F9226929182A5422690730130A3F
:106D60004B70638A8B70E37CCB70A38A0B71A38A10
:106D70001B0A4B71A37D8B7138BD38B5041C0430E0
:106D80000D1CFBF7DBF92A5C291822614B780730D0
:106D90001B02134323618A78120413432361CA78C8
:106DA0001206134323610B79A3824A79120213431B
:106DB000A3828B79A37538BD0048704728F700007F
:106DC000004870473BF7000010B500230160FF2129
:106DD000041C43608360C2600174438243619A4231
:106DE00005D01368E121DB69101C49029847201C7B
:106DF00010BD0000026870B5002A30D0184C012583
:106E00002268184B2A4009D1174E9A601E60174E0F
:106E1000DA605E601A619A829A752560144C0125C9
:106E2000266883602E40134A03D1116053601661B7
:106E3000256001684260002398000F4C0818001973
:106E40000068002808D1D81DFF30800008187D3365
:106E500042609360D16002E00133192BECD170BD28
:106E6000540E0020580E002018F7000098EC000087
:106E70003C0E0020400E00201C040000F0B581688C
:106E80009FB0041C002900D18FE0C068002800D109
:106E90008BE003681B699847002800D185E0E06813
:106EA00003685B699847051CC2B26069052803D96D
:106EB00000236361012579E002F0E4FD031F353B07
:106EC000454C0125FE2A71D13A4FA2683B680192D8
:106ED000394E2B4203D1301CFCF77AFA3D6002ADEB
:106EE000281C311CFCF7F0FA019B083306CD06C3C1
:106EF000002301256382656158E0022A04D1638A78
:106F0000626102336382D5E72368002BD0D02B491E
:106F10000222EBB205A805F0DDFD2068022105AADA
:106F2000FBF7A8FBC4E7638A2274D21862820323AA
:106F3000BFE7217C1302CB18A1688B82638AD21829
:106F400062820423B5E7A3689A75638AD2186282C5
:106F50000523AEE7E06803681B699847628A4342ED
:106F60005841FF231D40C0B213409D420FD100285D
:106F70000FD06368002B05D0D86899680268136841
:106F8000A2689847A3681A6901321A6190E700283D
:106F900005D1206800288BD00221094AC0E720686B
:106FA000002885D00221074ABAE70025281C1FB017
:106FB000F0BDC046F40200206C0100205CF7000028
:106FC00091F70000B9F7000010B50B680268084C93
:106FD000A34203DD074C01321B19F8E7002B03DA4B
:106FE000034C013A1B19F9E702600B6010BDC04663
:106FF00000CA9A3B003665C470B5061C1D1C141CE3
:10700000006805F0CBFA2B1C221C04F0D9FC05F01B
:1070100091FA3060706805F0C1FA2B1C221C04F054
:10702000CFFC05F087FA311D7060301CFFF7CCFFF4
:10703000301C70BD70B50D68061C0C1C281C064960
:1070400002F02AFD3368044918183060281C02F049
:1070500067FD216070BDC04600CA9A3B036810B549
:10706000041C0868013B1B182360064863681A1853
:107070004B68201CD3186360211DFFF7DBFF201C29
:1070800010BDC04600CA9A3B036810B5041C0868CE
:10709000013B1B1A2360064863681A184B68201CC2
:1070A000D31A6360211DFFF7C5FF201C10BDC04629
:1070B00000CA9A3B38B5041C156808684968431B28
:1070C00023605368201CCB1A6360211DFFF77CFFEF
:1070D000201C38BD437A002B04D18372C372C36075
:1070E00001234372704730B585B0041C02AD0068BF
:1070F0000291039200F026FF6B79E179227A0093E6
:107100002068002301F090F829792068029A00F0A5
:10711000E9FE206800F00CFF05B030BD70B5041C1E
:107120001826FFF7D7FF2079331C43430D4D082164
:10713000EB18595600F090FDA079331C4343082109
:10714000EB18595600F088FD607908214643AD19C7
:10715000695600F081FD044B201C06CBFFF7C3FFEE
:1071600070BDC04618F80000700E002010B5041C59
:10717000006800F0CFFE0023637210BD07B5837A6C
:1071800000910192002B0DD09A0706D5EFF31083E2
:107190005A425341C37272B604E0DA0702D58289BB
:1071A000034B9A600099019AFFF79DFF07BDC04607
:1071B00000180040837A002B0BD09A0704D5C37ABD
:1071C000002B06D062B604E0DA0702D58289014BB3
:1071D000DA6070470018004008B5006800F0BBFE98
:1071E00008BD0000094B0A4A0A491A6000225A7178
:1071F0001A71094B196016211971182199711721FB
:10720000597101215A72D9711A727047700E00209B
:1072100000093D0044150020780E0020114B10B5E8
:10722000984202D9104BC01880B200230133DCB25F
:107230008C4206D20D4CE418013C2478121992B20B
:10724000F4E7022903D9830701D1013292B26E23F8
:10725000FF3343430330013B80101818121890B2DB
:1072600010BDC046CF07000030F8FFFFE2F7000076
:10727000F0B505AC2678084F06AC257807AC247825
:10728000B94202D9054FC91989B2C670057101709A
:10729000427083704471F0BDCF07000030F8FFFFEB
:1072A00010B5041CA27800786178FFF7B7FF1823A7
:1072B0005843E3782279C0183C2358438018584338
:1072C0006279024B8018C01810BDC04680436D38EB
:1072D00000207047F8B5051C0F1C161C0024B44292
:1072E00008D02B68395D1B68281C9847002801D0FE
:1072F0000134F4E7201CF8BD7047031CFC33196A05
:10730000DA69914203D01B6AC018007E01E00120B7
:1073100040427047031CFC33D8691B6AC01A01D570
:107320000130FF3070470000F7B50193FA239B004E
:107330008360134B8026002576000833041C0F1C45
:107340004560291C00920360321C183005F000FBD8
:10735000231C9022FC335200DD61A0181D62321CF8
:10736000291C05F0F5FA87229200A3185D60019AA6
:107370009D60009B2761A575201C23756275FEBD6D
:10738000F0F7000070B50D49041C006900F070FFB3
:10739000206900F0FBFD1826207D331C4343084D77
:1073A0000821EB18595600F057FC607D0821464330
:1073B000AD19695600F050FC70BDC046A0860100B2
:1073C00018F8000038B5041C0D1C006900F0F2FD2F
:1073D000291C206900F04CFF206900F0D7FD38BD62
:1073E0008A2387229B009200C154831800225A608E
:1073F0009A60012383757047031CFC335A6810B5EB
:1074000001329C68D2B2A24202D05C6801555A6037
:1074100010BDF7B501930023041C151C181C9A42DB
:1074200031D0221CFC32D36120691362012200F0AA
:10743000F3FD002825D0206900F05DFE271C1837D9
:10744000011C381CFFF7D8FF01262069AE420ED080
:1074500000F0C2FD0221206900F0C8FD206900F0A3
:107460004AFE011C381CFFF7C7FF0136EDE700F0AC
:10747000ABFD019B002B05D02069032100F0B6FD78
:1074800000E0051CE8B2FEBD10B5827D00239A42E3
:107490000DD08724A4000219546892680134E4B224
:1074A000944204D02130FF30FFF7A6FF0123181CBF
:1074B00010BD031CFC3399685A68914206D09A6843
:1074C000805C9A680132D2B29A6001E001204042A9
:1074D000704770B500228A2382759B00041C0E1C25
:1074E000C15C006900F098FD002805D120690321E6
:1074F00000F07CFD022523E090235B00E018872349
:107500009B00E21851689368CB1A01D50133FF3311
:10751000002B0ED02569FFF7CCFFC1B2281C00F06C
:10752000AAFD0028E8D12069032100F05FFD0325B2
:1075300006E01D1C002E03D02069032100F056FD3B
:10754000281C70BD08B51830FFF7B3FF08BD38B56B
:10755000041C006900F0ADFD002800D184E0206922
:1075600000F0B5FD00280ED1206900F0BAFD00281A
:107570001FD0206900F0B0FD00281AD0206900F06B
:10758000B5FD002815D1206900F026FD20690321F2
:1075900000F02CFD8C239B00E558002D04D02368BF
:1075A000201C1B699847A847FC340023E361236231
:1075B0005AE0206900F095FD031C2069002B19D0CA
:1075C00000F00AFD2069032100F010FD206900F0A1
:1075D0008DFD002848D087229200A31800225A600F
:1075E0009A600123A3758B239B00E35893423BD001
:1075F000984739E000F066FD002835D0206900F09A
:1076000075FD002816D087239B00E2185168936807
:10761000CB1A01D50133FF33FF21002B05D0902277
:107620005200A018FFF745FFC1B2206900F034FDF9
:10763000A07519E0231CFC33DA691B6A0132D2B24F
:1076400020699A4202D100F0BFFC09E000F053FD2E
:10765000011C201C1830FFF7CFFE206900F0BCFC95
:107660002069032100F0C2FC38BD000008B50248C3
:10767000FFF76DFF08BDC046880E002008B503481F
:10768000034914221523FFF74FFE08BD880E002082
:107690003415002008B5024802F030F808BDC04695
:1076A000F812002008B5024802F028F808BDC046CC
:1076B000BC10002073B5164E1649301C00F08AFB32
:1076C0001549164800F086FB1549164800F082FB64
:1076D0001549164800F07EFB1549164800F07AFB64
:1076E000154D1649281C00F075FB01240022311CA1
:1076F0000192231C0094124801F018FF0323009309
:10770000291C01941F221E230E4801F00FFF73BD98
:107710003815002000080042000C00423C150020F3
:1077200000100042401500200014004234150020D3
:10773000001800424415002048150020001C00429B
:10774000F8120020BC100020FEE7000008B5034B33
:107750001B68002B00D0984708BDC0464C15002080
:1077600038B50F490F4CA14204D100F091F802F056
:10777000ABF80BE00C4D8D42F7D00023CA18E81887
:10778000A24204D2006804331060F7E7FEE790429B
:10779000EBD0064B064A9342E7D2002204C3F9E736
:1077A0000000002050010020D800010050010020FE
:1077B0004C1B002008B500F068F8002801D100F04B
:1077C00059F808BD014B18607047C0464C150020A1
:1077D000014B18687047C04650150020F7B5144D8E
:1077E000144CA9681448626803685201D20F2E1C19
:1077F000271C8446B0687D6801906D016046ED0FDE
:107800000468AA4203D02A1C231C0199F2E7A34270
:10781000FAD101988142F7D30548D2184068FA237B
:10782000411A06489B0048435343000DC018FEBD53
:1078300010E000E000ED00E050150020555500007C
:1078400038B5041E13D0FFF7C9FF051C00F01CF863
:10785000FFF7C4FF064B401B984206D9FA239B0052
:10786000013CED18002CF3D101E0002CEED138BD25
:10787000E703000008B5034B1A6801321A6000F0F4
:107880006FFA08BD501500207047002070470000B7
:1078900070B5494A1E21536802208B430343474970
:1078A00053608B69082423438B61454C454B9C8274
:1078B0009C8A20439882101CDA689407FCD5424ABF
:1078C000012414701478E50704D53F4C647864B241
:1078D000002CF7DB01249460547864B2002CFBDBAD
:1078E0003A4D394C6560547864B2002CFBDB82253C
:1078F000354CED016580547864B2002CFBDB02242A
:107900009C84DC68E606FCD5314D2E4CE562DD68D2
:107910002C4CEE06FBD5A58C2E4E3543A584DD6898
:10792000284CEE06FBD5A58C02263543A584DC68E1
:107930002506FCD5234CE4686606F8D5DC68E50628
:10794000FCD500249460547864B2002CFBDB224DFB
:107950001D4C656055781C4C6DB2002DFADB1E6A1B
:107960001E4D35401D621D6A8026B5431D620323EE
:10797000A3601B4B636053785BB2002BFBDB0023DF
:107980000B72184A4B728B72CB72174BFF211A6025
:10799000164B174A1B6812685C01D20E2140114336
:1079A0009A06520F12020B1C1343124A13854368A6
:1079B00080221343436070BD00400041000400403A
:1079C0000C06000000080040000C0040010501000A
:1079D000B905FF7D040A000000070300FFFCFFFF5C
:1079E00003060100006CDC0204000020246080001B
:1079F0002060800000400042314BFA21186810B529
:107A0000890002F049F82F4B0138984224D82E4AB9
:107A10002E4B5060186AC0210002000A090601437B
:107A200019620024072194601160196A80220902FA
:107A3000090A12060A431A62254BFC211A6A0A43F4
:107A40001A62196AFC2292010A431A62196AA02278
:107A5000D2020A431A6200E0FEE7201C0021013432
:107A600000F070F8142CF8D11A4C63785BB2002B3C
:107A7000FADB194B6380194B5A7ED209012AFAD0DE
:107A8000E422D2009A803F22DA70597E134AC90953
:107A90000129FAD0C0235B0100201361907000F02F
:107AA00023F863785BB2002BFBDB0D4A094B5A804D
:107AB0000C4BDA79D209012AFAD041225A7010BD52
:107AC00004000020FFFFFF0010E000E000ED00E0F8
:107AD00000040040000C00401E4000000040004236
