:1020000000800020517D0000397D0000397D0000F6
:1020100000000000000000000000000000000000C0
:10202000000000000000000000000000397D0000FA
:102030000000000000000000397D0000A57D0000C8
:10204000397D0000397D0000397D0000E534000055
:1020500099220000397D0000397D00003D7D00009F
:10206000397D0000857C0000397D0000397D00004D
:102070005D7C0000397D0000957C0000153B000070
:10208000D13B00008D3C00007D350000E9350000AB
:1020900055360000397D0000397D0000397D000093
:1020A000397D0000397D0000397D0000397D000058
:1020B0000000000010B5064C2378002B07D1054B1B
:1020C000002B02D0044800E000BF0123237010BDA4
:1020D00050010020000000009407010008B5084BE3
:1020E000002B03D00748084900E000BF07480368F9
:1020F000002B03D0064B002B00D0984708BDC046EC
:102100000000000094070100540100204401002059
:102110000000000042680A704268130A4B70C388CE
:102120008B70C379CB7083680B718268130A4B7113
:1021300043898B71C37A0820CB7170470A7842605B
:102140004B781B02134343608A78120413434360A5
:10215000CA781206134343600A7982604B791B02E6
:10216000134383608A79120413438360CA79120689
:10217000134383600820704700487047F8F200005E
:102180000048704706F300000048704727F300003E
:102190000048704740F300000048704761F30000BA
:1021A0000048704774F3000000487047F5F40000E1
:1021B0000048704795F300009F23DB00C05C704728
:1021C00010B5044B041C0360143002F05FFB201CAC
:1021D00010BDC04688F9000070B5064D01262B6879
:1021E000054C334203D1201C01F094F82E60201CD2
:1021F00070BDC046F40200206C01002070B5064D91
:1022000001262B68054C334203D1201C01F094F9C0
:102210002E60201C70BDC046F002002090020020FD
:1022200008B5174B186803681B689847002826D123
:10223000144B186803681B68984700281FD1124B7D
:10224000186805F0F1F8002819D1104B18680368D8
:102250001B689847002812D10D4B186804F0C0FA8B
:1022600000280CD1FFF7B8FF00F074FF002806D15A
:10227000084B1868002802D003685B68984708BDBF
:1022800074090020C40900204C09002078090020AE
:10229000940900200C04002008B5FFF79DFF01F011
:1022A000FDF8FFF7ABFF02F09BFA08BD10B5002365
:1022B000DA000C1CD440C4540133042BF8D110BDF7
:1022C000F7B58388051C0B7083880C1C1B0A4B70A8
:1022D00080680AF023FF061C311CA01CFFF7E6FFF4
:1022E000A968321CA01D0AF009FEB31DE86801931D
:1022F0000AF014FF019B071C391CE0180A36FFF78F
:10230000D5FFE9683A1CA0190AF0F8FD28690AF01F
:1023100005FFF719061C311CE0190437FFF7C6FF4B
:10232000E0192969321C0AF0E9FD6B69BE19A35551
:102330001A0AA41962701A0C1B0E301DA270E370E9
:10234000FEBD70B50379051C0B7080680E1C0AF089
:10235000E5FE041C211C701CFFF7A8FF701DA96876
:10236000221C0AF0CBFD601D70BDF7B5041C40684F
:102370000D1C087061682A1D0B0A6B70E388002130
:10238000AB70E379EB706068531B81420CD2E0685C
:102390008B001B580131180A13705070180C1B0E5B
:1023A0009070D3700432EEE72169EA18E95420698D
:1023B0000433010A5170618AEB189170E17CD1708D
:1023C000002221695E1B8A420CD2A0699100095843
:1023D0000132080A19705870080C090E9870D970EB
:1023E0000433EEE7E269AB19AA55E0690436020A44
:1023F0005A70E28B00279A70E27FDA70E0698742B8
:1024000016D2626AB900505801910AF087FE009016
:102410000099A819FFF74AFF636A019A0436995890
:10242000A819009A0AF06AFD009B01379E19E5E79A
:10243000301CFEBD10B500230360CC5CDA00944074
:10244000221C0468013322430260042BF5D110BD25
:102450007FB50B780C1C83804A78051C120213434D
:102460008380023101A8FFF7E5FF019AA31D961DA5
:10247000191BB14204D21878591E08700133F7E7CE
:10248000A21800235371631DAB60A11902A8FFF7C6
:10249000D1FF029B321DD618131CB34205D2E05C5B
:1024A000E118013908700133F7E7A119013A4B1E11
:1024B0000020A218187003A8EA60FFF7BBFF039B77
:1024C0000436F018331C834205D2E15CE218013A6D
:1024D00011700133F7E72318013E5A1E0021A61997
:1024E00011702E6159789A78090212041143225C06
:1024F00004301143DA780B1C120613436B6104B0ED
:1025000070BD73B50B780C1C0371051C013101A85B
:10251000FFF790FF019A631D501D191B814204D2E1
:102520001E78591E0E700133F7E7A21800230434F9
:102530001371AC6076BDF7B54E788A780B781204CB
:10254000360216431E43CB7842681B06041C0D1C42
:102550001E43964204D9B100C0680AF095FDE060C0
:1025600066602F1D002662687B1B964215D27A7822
:10257000BB7812021B0413433A78B0001343FA7875
:10258000211C12061343A360E368083118180422C3
:102590000AF0B4FC01360437E5E7EA18577890787A
:1025A000E95C3F020004D27807431E1D23690F43F4
:1025B000120617439F4204D9B900A0690AF064FDCE
:1025C000A0612761AE1900272269731B974215D2BB
:1025D0007278B37812021B0413433278B8001343A5
:1025E000F278211C12061343A2696361101814319A
:1025F00004220AF083FC01370436E5E7EA1856782E
:102600009078E95C36020004D27806431F1DE36926
:102610000E43120616439E4204D9B100606A0AF0C6
:1026200033FD6062E6610026E3699E4220D2E9192B
:1026300001A8FFF7FFFE019B3A1DD718131CBB42F0
:1026400005D2E85CE918013908700133F7E7EB19A6
:10265000013B0021013A1970AA182262626AB00097
:10266000211C1018203104220AF048FC0136DBE757
:10267000381CFEBD1FB5054C01AB039202681971F1
:102680000194146807211A1CA0471FBDB8F200006E
:10269000F0B58B4901230A6889B01340894C8A4DF3
:1026A00043D18A4A8A482260E1221202A2609F2214
:1026B000D200A354874A6560A050A222D200A35042
:1026C000A322D200A350844AA350844AA350A52237
:1026D000D200A350A622D200A350814AE01880184D
:1026E000043300220260642BF7D1131C9022E018FF
:1026F000D2008018043300220260642BF6D1A018A7
:10270000002303770132802080008242F7D18722A4
:10271000E0189200801800220270013380208000AF
:102720008342F4D10123A2610B606E4E6E48346087
:1027300005F07EFB6068A16806F050F96B4A002343
:10274000A3509D22D200A3509E22D200A350684ADB
:102750003068A3500121674AFFF78CFF281C06F060
:102760003FF90028FAD0644D01262F68634C3740AA
:1027700016D15C4B1B680793FFF740FD0D230193B7
:102780000A230293FA23021C07990097201CB340E6
:1027900002F0BCFE201C5A495A4A2E6007F00CFC7D
:1027A000594F5A4B3A681C600124224217D14D4AB6
:1027B000574E126833680792564D234203D1281CA6
:1027C00001F072F934600124002300930194029413
:1027D000514807992A1C0A2303F02EFB3C604F4BFB
:1027E0004D4A4F4D1A602B6801264E4C33420AD198
:1027F0003C4AE1231268201C0692111C5B024A4AE3
:1028000004F024F82E60494B494D1C602B680126CA
:10281000484C334208D1334A201C12680592111CDF
:10282000454A04F06CFD2E60444B454F1C603B68EC
:102830000124234213D12B4B424E1B68326807936D
:10284000414D224203D1281C00F0ACFE34600A2323
:102850003E4807992A1C04F00BFD01233B603C4CC9
:102860003A4B2360FFF7B8FC1E4A116800F034FCB5
:10287000264B38491868384B384A0093384B019337
:10288000384B0293384B02F01BFF244A374B106839
:1028900037490093374A384B03F0DAF9234B18686D
:1028A00003F0C8FC254B35491868354A04F03CFD57
:1028B00020683449344A354B04F014FB09B0F0BDAC
:1028C0006C090020140400206C160020E8F20000BF
:1028D000D0F200000C0500001C05000024050000DB
:1028E0001C0400000C040020B80B0000E4040000ED
:1028F000EC040000B6F30000C0090020C809002065
:10290000C1210000000000205009002074090020AF
:10291000E8020020F401002098090020C4090020EA
:1029200048090020F8020020D4110020940900205A
:102930001004002054090020101400204C0900202D
:1029400070090020EC0200209C0100207C0900207E
:1029500078090020C8F300000CF40000D6F3000052
:1029600023F4000039F40000F1F3000070F40000DB
:1029700050F4000055F4000063F400007CF4000003
:1029800082F400008DF4000098F40000ACF4000024
:1029900070B5041C0E1E632E05DD9F23DB00C35C97
:1029A0000020834246D01368101C234A1B68A118DC
:1029B00098478723FF229B00E254204BFE22E254DB
:1029C0001F4AC3B2A3541F4982B2120A6254D318D9
:1029D0008821DB43890063541B4B0022E6541B4BC8
:1029E000360AE6540523811D994207DB8725E11845
:1029F000AD004919097801335218F4E7114B051C51
:102A00002018C018D2438023083502719B009D42D4
:102A100009DC6068872203689200A1185B682A1CA1
:102A20009847281C06E0201C0321094A0125FFF7CE
:102A300021FE684270BDC046230200001D02000056
:102A40001E0200001F0200002102000022020000FE
:102A5000BCF400001FB5074B0A2101930023029329
:102A60000393036801AA1B68041C984705F0A8F9A2
:102A7000E0601FBD88F20000F0B52D4B87B00093D9
:102A80002C4B002269468A8002930393049305929B
:102A90009023294ADB00041C8518C6182B68002BDC
:102AA00019D09A68694658688A8019680368029143
:102AB0009B6898472B68039058680368DB689847C1
:102AC00080239B002A6805932368049011691B6882
:102AD000201C6A4698470435B542DFD1174AA6182C
:102AE000286800281AD0416882686B46998003687C
:102AF00002929B689847039028680368DB689847B0
:102B000080239B0004900593286823681F6803684E
:102B10005B6898476A46011C201CB8470435B542DB
:102B2000DED19F230122DB00E25407B0F0BDC04696
:102B3000A0F20000DF0401001C040000E404000017
:102B4000F0B5224B85B001930023041C0E1C0293A8
:102B5000039305F035F9E368311CC51A01A8FFF7A6
:102B6000EDFAFA21281C890007F08EFA029BFA215F
:102B7000C01802908900281C07F0CAFA144D039B64
:102B80006943C918039105F01BF9FA218900061C55
:102B900007F07AFA029F0F4B013F3F1A2761FA2193
:102BA000039F301C8900FF1807F0B2FA4D43201C28
:102BB0007F1B211C14316761103004F033FD05F0D8
:102BC000FFF8A023DB00E05005B0F0BD88F2000064
:102BD00040420F0000CA9A3BF8B5041C05F0F0F81B
:102BE000A023DB00E2587B4B061C821A9A4203D9D1
:102BF0009F230022DB00E254774FE359002B05D0DE
:102C0000764BE3589E4201D90023E351A169002984
:102C100006D1606803685B699847002807DAC4E05A
:102C200005F0CEF8A269801B9042F2D9CEE06C4A42
:102C3000E559A358C118A150674B072D0FD19E210C
:102C4000C9006258551C6550A2189D211077C90013
:102C50006258013A6250002AD8D1082208E0002DBB
:102C600012D1FF2806D10122E250321C5B4B1432F4
:102C7000E250CBE705F0A4F85A4B801B9842C5D927
:102C80009F23DB00E554A1E0012D0DD10222FE2897
:102C9000EED00022E2509F23DB00E35C9342B5D1EB
:102CA000201CFFF7D7FEB1E7022D08D19D21C900F6
:102CB00060509E21C9000025655003211BE0032DB3
:102CC00007D19D22D200A15800020818A05004226A
:102CD000CEE7042D0AD1444B0B4003D5434A013BB8
:102CE00013430133FF2B8FD105238EE7052D05D12B
:102CF0003F4960500621E150A05087E7062D0ED1D4
:102D00003B4A0002A1580818A0500722E2509D2318
:102D1000DB00E358002B00D078E7082375E7082D87
:102D200000D073E70023E3512F4B0B4003D52F4A0C
:102D3000013B13430133FF2B00D067E72C4BE358D3
:102D4000002B0CD1201CFFF785FE201CFFF794FE02
:102D5000284B0125E650A023DB00E65037E00A2B84
:102D600005D1211C201C1C31FFF7EAFE4EE7062B83
:102D700008D1214A211CA0181C31FFF7DCFB0122DD
:102D8000A12303E00B2B04D100229F23DB00E2549C
:102D90003CE7BC339B001859002800D136E7036894
:102DA000211C1B681C31984730E79F23DB00E35C44
:102DB0000025AB420CD00F4FE359F21A0F4B9A4249
:102DC00006D9201CFFF746FEE65101E002256D42C0
:102DD000281CF8BDF82A0000E404000004050000E7
:102DE000F404000088130000FF00008000FFFFFFD4
:102DF000EC040000FC0400000C050000C409000005
:102E000008B5FA20800005F013F8FAE7F8B50F1CB2
:102E10000699151C1C1C07F0DFFD0A49061C381C0E
:102E200007F0DAFD211C07F001FF011C301C07F040
:102E3000D3FD291C07F088FA079A069B106054609E
:102E40009360F8BD0D68533BF0B51F1C802387B01D
:102E50001B06C318041C059112984D49019200935A
:102E600007F0BAFD169907F0E1FE0D99051C0098D0
:102E700007F0B2FD179907F0AFFD10990290201CE2
:102E800007F0AAFD291C07F0A7FD011C029807F016
:102E90005BFA019907F058FA11990190201C07F08C
:102EA0009BFD291C07F098FD0E990390009807F0F0
:102EB00093FD179907F090FD039907F045FA391C27
:102EC00007F042FA0C990490009807F085FD1799D5
:102ED00007F082FD0F99071C201C07F07DFD291CBF
:102EE00007F07AFD011C381C07F02EFA1799071C11
:102EF000201C07F071FD019907F06EFD011C381CC4
:102F000007F094FE291C071C201C07F065FD04999E
:102F100007F062FD011C381C07F016FA059907F04E
:102F200013FA139907F010FA189E3060019B0E995E
:102F30007360049B201CB36007F04EFD291C07F052
:102F40004BFD011C029807F0FFF90C9907F0FCF902
:102F50001499F0600D9807F0F7F90E9B30617361DA
:102F60001099009807F038FD179907F035FD03997F
:102F700007F0EAF90F9907F0E7F9109BB061F361E8
:102F80001198159907F0E0F9306207B0F0BDC0461E
:102F90000D68533B031C10B5081C191C141C07F0CA
:102FA00045FE206010BD10B5141C07F0CDF9011CC2
:102FB000FE20800507F02CFB206010BDF8B50F1C2B
:102FC000191C1D1C161C07F007FD069C291C2060FF
:102FD000381C07F001FD291C6060301C07F0FCFC68
:102FE000A060F8BDF8B50F1C191C1D1C161C07F0BD
:102FF000F3FC069907F0A8F9099C291C2060381CED
:1030000007F0EAFC079907F09FF9291C6060301C63
:1030100007F0E2FC089907F097F9A060F8BDF7B552
:10302000061CFE200F1C8005311C1D1C019207F0A0
:10303000FDFD061C311C281C07F0CEFC109C311C29
:103040002060089807F0C8FC311C6060099807F000
:10305000C3FC80221206BF18291CA060381C07F090
:10306000BBFC0A9907F070F90899E060381C07F07A
:10307000B3FC0B9907F068F909992061381C07F037
:10308000ABFC0C9907F060F9019B802212069E1898
:10309000291C6061301C07F09FFC0D9907F054F962
:1030A0000899A061301C07F097FC0E9907F04CF9C5
:1030B0000999E061301C07F08FFC0F9907F044F983
:1030C0002062F7BD10B5031CC0680A1C046899682B
:1030D0002368984710BD0000F0B500292BD0164C8E
:1030E00001252368154A2B4004D1154E5360166004
:1030F00093602560134C01252668134B2E4004D1A4
:10310000124F5A601F601E612560426003600022FA
:1031100090000F4C081800190068002808D1D01D35
:10312000FF30800008187D3243609A60D96002E069
:103130000132192AECD1F0BD180A0020080A00203B
:1031400088F20000140A00201C0A002022F500006A
:103150001C04000070B50368041C057A002B0FD016
:103160004268002A0CD0002D0AD0C1685160016964
:10317000D86891600668996833689847002323727D
:10318000281C70BD0A4B08211A6807200A431A60E0
:10319000084B1A1C353211784A33014311701A78E2
:1031A00001210A431A701A7802210A431A707047E3
:1031B0001C04004000440041144B08211A680A43D3
:1031C0001A60134B134A5A605A78D209FCD112493B
:1031D0000F4A51805A78D209FCD110490C4A5180CB
:1031E0005A78D209FCD10E49094A51805A78D2093D
:1031F000FCD10C49064A51805A78D209FCD10A49BF
:10320000034A51805A78D209FCD170471804004013
:10321000000C0040040101000444000007440000C9
:103220001A4400001B4400001C4400000C4B022107
:103230001A680A431A600B4B822252001A818522B7
:1032400052001A81872252001A81892252001A8163
:103250001422FF321A818A2252001A817047C04616
:103260002004004000040042264B20211A680A4333
:103270001A60254B9A7AD209FBD11A8802218A4317
:103280001A80997A204AC909FBD11188012001438B
:103290001180997A1C4AC909FBD1118889B2118021
:1032A000997A194AC909FBD11188802001431180FC
:1032B0009A7AD209FCD114490A619A7AD209FCD1CE
:1032C0001249114A9161997A0F4AC909FBD1D17902
:1032D00001200143D171997A0B4AC909FBD1908829
:1032E00080214900014391809A7AD209FCD1084B90
:1032F000C022920099580902090A995008221A60BE
:103300007047C04618040040001400400F2700001A
:1033100000E100E0F8B51A4B061C43616423038307
:10332000184B002501271C36011C041C0772036280
:1033300005604560C5600561C5612031301C04F041
:103340003BF9A562251C2435211C281C6762283105
:1033500004F068F9231C2C330B22311C1A70281C32
:1033600004F08AF9201CFFF70DFF201CFFF724FF53
:10337000201CFFF75BFF201CFFF776FF201CF8BD29
:103380008096980040420F00C1607047044B0221B4
:103390001A880A431A809A7AD209FCD17047C0462B
:1033A0000014004010B5041C07485B001B5A201C89
:1033B0005A430B8B211D5A4300232360626004F0A3
:1033C000FBF8201C10BDC04612F50000F7B540699F
:1033D0000E1C171C019000240A4B6200D15A019860
:1033E00006F052FE311CE5B206F04EFEB84207D39D
:1033F0000134082CF0D10448C921FFF701FD251C38
:10340000281CFEBD12F5000026F50000002330B593
:1034100003604360EFF3108372B6BFF35F8FBFF3B7
:103420004F8FBFF36F8F021C0C3130C930C283F352
:103430001088BFF35F8FBFF34F8FBFF36F8FBFF362
:103440005F8FBFF34F8FBFF36F8F30BD08B549005B
:1034500089B2FFF7BBFF08BD10B5041C211C0C305E
:103460001C3104F0F3F82369002B01D101232372EE
:1034700010BD0000C168426A914209D10269836AA5
:103480009A4205D1034B044A5A60DA68D105FCD44C
:103490007047C046000400420000010238B50F4CDE
:1034A000051C2C35236929780F220A409BB2134151
:1034B0001A1C01231A420FD0094A1288DA401A4214
:1034C00001D1FFF763FF29780F230B400121226907
:1034D00099400B1C1343236138BDC04600180040BF
:1034E0000014004070B5114B01241A7A22421CD0FE
:1034F0001A7AD20919D080220D4E1C721A723368C2
:103500000C4D234203D1281CFFF704FF3460281C14
:10351000FFF7A2FF33680124234203D1281CFFF7E1
:10352000F9FE3460281CFFF7A5FF70BD00140040B1
:10353000F40200206C01002013B50E2201A9002323
:103540004A700A4A041C0B708B7000F0EFF9084BAC
:10355000C4222360074B92009858074901409950B4
:103560008022D202201C1A6016BDC046002C0042E8
:1035700070F5000000E100E0FFFF00FF70B5074DAF
:1035800001262B68064C334203D1201CFFF7D4FFE1
:103590002E602368201C5B68984770BDF0020020F5
:1035A0009002002013B50322041C0B4901A809F066
:1035B000A5FC01A9201C094A00F0B8F9084BC42257
:1035C0002360084B92009958201C0902090A99505F
:1035D000802212031A6016BDA8F5000000300042D8
:1035E00090F5000000E100E070B5074D01262B6862
:1035F000064C334203D1201CFFF7D4FF2E60236812
:10360000201C5B68984770BDEC0200209C010020E4
:1036100013B50322041C0B4901A809F06FFC01A992
:10362000201C094A00F082F9084BC5222360084B90
:1036300092009958FF208143995080225203201C08
:103640001A6016BDD0F5000000340042B8F5000045
:1036500000E100E070B5074D01262B68064C3342AF
:1036600003D1201CFFF7D4FF2E602368201C5B6869
:10367000984770BD880A0020300A0020436D10B5BD
:10368000041CDA7BD209FCD11A8802218A431A80F1
:10369000636DDA7BD209FCD12079E022198800021F
:1036A000D20002400A431A80636DDA7BD209FCD152
:1036B0001A8860210A431A80636D10219A798A431F
:1036C0009A71636DDA7BD209FCD19A7920218A4301
:1036D0009A71636DDA7BD209FCD1221C28321278F0
:1036E000002A08D12368201C5B699847E38B626D30
:1036F0005383636D08E09A7902210A439A71626DDF
:10370000D37BDB09FCD1EDE7DA7BD209FCD1597B15
:10371000202211435973636D997B0A439A73636D39
:10372000DA7BD209FCD11A8802210A431A80626D21
:10373000D37BDB09FCD110BD436D10B5041CDA7BD3
:10374000D209FCD11A8802218A431A80636DDA7B80
:10375000D209FCD12079E02219880002D20002406F
:103760000A431A80636DDA7BD209FCD11A882021C2
:103770000A431A80636DDA7BD209FCD19A79102151
:103780008A439A71636DDA7BD209FCD1221C2832FC
:103790001278002A0ED02368201C5B699847636D5D
:1037A0001022597B11435973636D997B0A439A73B5
:1037B000636D08E09A7901210A439A71626DD37BA7
:1037C000DB09FCD1E7E7DA7BD209FCD11A880221B8
:1037D0000A431A80626DD37BDB09FCD110BD10B5A2
:1037E000426D0323148864091C40012C02D100F0AF
:1037F0006BFD06E0128852091340032B01D100F043
:1038000066FD10BD13B5041C4C3421706270012498
:10381000009400F0E5FE13BD70B5041C00F004FE3A
:10382000201C656DA68900F032FEE16B7618013E22
:103830008619B6B22E83226CE16B531823640023E1
:10384000E36370BDF0B5436D01259A7B85B0041C20
:103850002A4220D09D73204F031C203301933B68E4
:103860001E4E2B4203D1301CFFF754FD3D60636DAB
:1038700002A81A8B311C01322379FFF793FD02A9AC
:10388000019803F0E3FE2368201C5B699847201C25
:1038900000F0C2FF1DE09A7B12092A4209D01022D3
:1038A0009A7300F06BFF231C28331A78904208D1DA
:1038B0000FE09A7B52092A420BD020229A73031CF4
:1038C00028335D70E36A0133E362236A2363636A2A
:1038D000636305B0F0BDC046F40200206C01002017
:1038E000436D10B5041C002B03D10F48C921FFF70D
:1038F00087FA636DDA7BD209FCD11A8802218A43E8
:103900001A80636DDA7BD209FCD15A8923210A43DC
:103910005A81636D0122597B11435973636D997B01
:103920000A439A7310BDC046D3F5000038B5041C95
:10393000151C00F08FFC044B65650833201C2360C8
:10394000FFF7CEFF201C38BD08F6000070470000CE
:103950000B4B02211A6810B50A431A60094C0A4B36
:103960000F21238100F026FBFE23DB030004184017
:10397000064B18436060E3689A05FCD410BDC0464E
:103980002004004000040042070200000100000281
:103990000B4B02211A6810B50A431A60094CA12387
:1039A000DB0023810B2100F005FBFE23DB03000479
:1039B0001840054B18436060E368DA04FCD410BD7E
:1039C0002004004000040042040000021FB54B42E6
:1039D0004B410221C91A031C0391983319785A7874
:1039E0000123041C009303AB00F0FAFD201CFFF739
:1039F000CFFF636D9A689107FCD41A6802218A434D
:103A00001A60626D93689907FCD4116A8023DB0207
:103A100019431162626D80211068C904014311606D
:103A2000626D916A19439162626DD16A0B43D362F0
:103A3000636D9A689107FCD49A689107FCD41A6860
:103A400002210A431A60626D93689907FCD41FBD76
:103A5000436D9A689107FCD41A6802218A431A6060
:103A6000436D9A689107FCD419680E4A0A401A609F
:103A7000436D9A689107FCD4996A8022120311431E
:103A80009962436DD96A0A43DA62436D9A68910775
:103A9000FCD41A6802210A431A60426D93689907A0
:103AA000FCD47047FFFFFFF737B5041C144901A889
:103AB000032209F023FA6A460F23002501A9537057
:103AC000201C104B157000F0F1F90F4B0B2208333E
:103AD0002360231C98331D705A700C4B201CA3606C
:103AE000E360FFF7B5FF0A4BC32292009958201CF0
:103AF0000902090A9950802212021A603EBDC0468E
:103B000028F600000020004230F60000FFFFFF0012
:103B100000E100E070B5074D01262B68064C3342EA
:103B200003D1201CFFF7C0FF2E602368201C5B68B8
:103B3000984770BDE8020020F40100200B4B0221E1
:103B40001A6810B50A431A60094C0A4B14212381E4
:103B500000F030FAFE23DB0300041840064B184344
:103B60006060E3685A05FCD410BDC04620040040E4
:103B7000000400420D0300000200000213B50722FA
:103B800001A900234A706A460B708B7013701423CE
:103B900053700B4B041C00F089F90A4BC422083304
:103BA0002360094B9200A360E360084BFF20995803
:103BB0008143995080225202201C1A6016BDC046D3
:103BC0000024004258F60000FFFFFF0000E100E083
:103BD00070B5074D01262B68064C334203D1201CDB
:103BE000FFF7CCFF2E602368201C5B68984770BDF0
:103BF000240B00208C0A00200B4B02211A6810B500
:103C00000A431A60094C0A4B1521238100F0D2F9AE
:103C1000FE23DB0300041840064B18436060E36892
:103C20001A05FCD410BDC046200400400004004228
:103C3000110400000300000213B50322041C0E4906
:103C400001A809F05BF96A4600231370152353702D
:103C500001A9201C094B00F029F9094BC4220833A3
:103C60002360084B920098580749014099508022E0
:103C70009202201C1A6016BD80F600000028004247
:103C800088F6000000E100E0FF00FFFF70B5074D7F
:103C900001262B68064C334203D1201CFFF7CCFFD2
:103CA0002E602368201C5B68984770BDC00B002005
:103CB000280B002072B6BFF35F8FBFF34F8FBFF3A7
:103CC0006F8F012070470000436D10B5041C9A6887
:103CD0009107FCD41A6802218A431A60636D9A68BE
:103CE0009107FCD42079E02219680002D20002403A
:103CF0000A431A60636D9A689107FCD4DA6B01215C
:103D00000A43DA63636D9A689107FCD419681E4A06
:103D10000A401A60636D9A689107FCD4221C28320D
:103D20001278002A05D02368201C5B699847636DD0
:103D300009E09969802252020A439A61626D936890
:103D40009907FCD4EFE79A681105FCD4E1684A08AA
:103D50001A65636D9A681105FCD4996A8022520233
:103D600011439962636DD96A0A43DA62636D9A6896
:103D70009107FCD41A6802210A431A60626D9368A5
:103D80009907FCD410BDC046FFFFFFFE704708B581
:103D9000436DDA6B07231340012B01D100F094FA35
:103DA00008BD70B5041C00F03FFB002803D0E1689B
:103DB000636D4A081A65201C656DE66800F067FBB4
:103DC000E26B013EB61830186864216CE26B8B1808
:103DD00023640023E36370BD80F31088BFF35F8F1B
:103DE000BFF34F8FBFF36F8FBFF35F8FBFF34F8F63
:103DF000BFF36F8F7047F7B5041C0D1C0092EFF3F3
:103E000010830193FFF756FF00281DD0EFF31087B2
:103E1000FFF750FF00280AD063780026B34206D08F
:103E2000009A6670B24201D0636813600126381CA4
:103E30000027FFF7D1FFBE420BD0BD4208D0A368D8
:103E4000E4682B606C6003E00198FFF7C5FF04E0B5
:103E500001270198FFF7C0FF381CFEBD10B5041CF8
:103E6000406D002803D10F48C921FEF7C9FF636DDB
:103E70009A689107FCD41A6802218A431A60636D1C
:103E8000996801228807FBD4196A0748014319621F
:103E9000636D996A11439962636DD96A0A43DA6264
:103EA00010BDC046B0F6000003400000F8B5041C89
:103EB000171C1D1C00F0CEF9154B0126083323609A
:103EC000231C6565764200255833201C1D70391C63
:103ED0005D70022225666566A566E56625676567ED
:103EE000E665783009F00AF8231C7C331D705D709C
:103EF000231DDE67221C80331D605D608C32643BB5
:103F000021CB21C2201CDE66FFF7A8FF201CF8BDD4
:103F1000E0F6000070B5051C0E1CEFF31084FFF7EF
:103F2000C9FE002800D0EE65201CFFF755FF70BDCC
:103F30001FB5031C58331970203319785A7803239E
:103F400003930023041C009303AB00F049FB236898
:103F5000201C9B699847636D9A689107FCD41A6886
:103F600002218A431A60626D93689907FCD4116A32
:103F700080239B0219431162626D802110688904BD
:103F800001431160626D916A19439162626DD16A59
:103F90000B43D362636D9A689107FCD49A689107CA
:103FA000FCD41A6802210A431A60626D936899076B
:103FB000FCD41FBD0F23081C18400C30704708B5F7
:103FC000031C783319785A7800F0CAFB08BD00004A
:103FD000F0B5436D0126DA6A87B0041C324217D06F
:103FE000DE62FEF7F9F8636D011C5A6C04A89219A1
:103FF0002379FFF7D7F9201C04A9203003F026FB12
:104000002368201C5B699847201C00F005FCC0E079
:10401000DA6AD20C32420CD080221203DA62021C1D
:10402000031C8C32203321CB21C2636D94341B6D71
:104030005AE0DA6A120C324213D080225202DA625B
:1040400000F09CFB231C28331A78904200D1A0E09A
:104050005E70E36A206A616A0133E3622063616330
:1040600097E0DA6A520C324210D01A6B9B6C071C34
:10407000520C0193943702AD324237D1FFF79FFFC4
:10408000231C58331B78984230D14AE0DA6A920CEC
:1040900032427ED08022D202DA62436DD96C031C98
:1040A00094331A68083B914200D26C3B02AD2A1C43
:1040B00003CB03C2FEF790F8636D011CDA6C04A811
:1040C0002379FFF76FF9281C04A903F0BFFA231C1A
:1040D0007C3301225A70231DDA6F043301329A6750
:1040E000029A8834DA676B68236052E03A68019874
:1040F000231C2033904201D3231C8C332A1C03CB76
:1041000003C2FEF769F82379011C019A04A8FFF79E
:1041100049F96834281C04A903F098FA0CCD0CC4A2
:1041200037E03A680199231C2033914201D3231CC4
:104130008C332A1C03CB03C2FEF74EF8261C2379CE
:10414000011C019A04A8FFF72DF9683604A9281C60
:1041500003F07CFA04A8291C321C03F0A3FA049B88
:10416000271C5837002B14DB059A236704A86267C5
:104170000A4B094A03F038FA301C04A903F066FA26
:1041800001237B70E36DE56E0133E365A36E236667
:10419000656607B0F0BDC046000000000000E03FCB
:1041A00008B57C30FFF727FE08BDF7B5061C009167
:1041B00001921D1CEFF31087FFF77CFD00280FD044
:1041C000301C58300099019AFFF715FE0024A042D8
:1041D00006D0A54203D0336F766F2B606E6001244A
:1041E000381CFFF7F9FD201CFEBD72B6BFF35F8FD0
:1041F000BFF34F8FBFF36F8F0120704780F310889C
:10420000BFF35F8FBFF34F8FBFF36F8FBFF35F8F2E
:10421000BFF34F8FBFF36F8F7047F8B5051C0F1CAE
:10422000EFF31086FFF7E1FF002809D06B78002438
:10423000A3420AD06C70A74206D06B683B6003E0D3
:10424000301CFFF7DBFF04E00124301CFFF7D6FF32
:10425000201CF8BDF8B51A4B041C0360194B00254F
:104260000F1C8360C360211C012345620571058218
:104270004561058345838583C583036224312030EE
:1042800003F0D0F90126231C28337642201C1D7030
:10429000391C5D700322E66225636563383008F0DF
:1042A0002DFE231C4433E56325641D705D70A664F8
:1042B0001D725D722565FDF78FFF201CF8BDC0469D
:1042C00010F70000FFFF00004900818370478183E1
:1042D0007047000000000000F7B50190141C02793F
:1042E0001D1C1F4B5200D05A08F050FC021C0B1C26
:1042F0001449134807F0F2F9221C2B1C07F058FE52
:10430000114A124B041C0D1C06F0CCFE104A114B36
:10431000061C0F1C201C291C05F07CFF002802D065
:104320000D4A0E4B01E00A4A0A4B301C391C08F0BA
:10433000CFF808F0F7FB019BD863F7BDC046C04635
:1043400000000000D0126341000000000000E03FC8
:104350000000000000000000000000000000F03F2E
:1043600028F70000C046C046F0B5428B87B0041C59
:104370000D1C038B8A4238D0002B36D10279264B94
:104380005200D65A87687743381C08F03DFC0B1C56
:10439000021C20491E4807F0A1F905F0B5FF80B2C4
:1043A0000190391C1D4805F0B3FE4B1E9941019B3D
:1043B00059180B1C89B2A94200D22B1C9AB2564341
:1043C0006383A3836661301C08F01EFC021C0B1C77
:1043D00010490F4807F082F905F096FF311CE060A4
:1043E0000E4805F095FE21820DE0002B0BD00C4B02
:1043F00003AA039303231371206D0A4B07219360D3
:1044000003681B68984707B0F0BDC046C046C04669
:1044100000000000D012634128F700008096980049
:10442000B8F2000038F700007FB5438B868B6A46F0
:10443000F61A031C2033041C03CB03C2FDF7CCFE89
:104440002379011C226C02A8FEF7ACFF684602A982
:10445000751EAE4103F010F9019DF6B26B425D414D
:10446000354003D0A18B201CFFF77EFF281C04B031
:1044700070BD70B5051C0E1CEFF31084FFF7B5FE80
:10448000002800D0EE62201CFFF7B8FE70BD70B5AA
:10449000038B068A4569F618B6B2041C291C301C29
:1044A00005F036FE301C2183291C05F0EDFD80B29D
:1044B00070BD00001C4B30B51A6808210A431A6011
:1044C000021C39321178031C38334C10CD0709D542
:1044D00019784025C9010C19144964182178294319
:1044E000217008E019780425C90109190F4C091930
:1044F0000C782C430C70197814780D4DC901611893
:1045000049190C7801252C430C703A3001780029A8
:1045100009D01B7812780649DB01D3185B181A788A
:1045200040210A431A7030BD1C0400403044004151
:104530004044004138B5031C2833041C1A700D1C7C
:10454000FDF74AFEA268291CFEF780FF6D00A9B2A4
:104550002071201CFFF708FF2368201CDB689847A8
:10456000201CFFF7A7FF38BDF8B5161C021C283227
:10457000041C13700D1CFDF72FFEA268291CFEF70A
:1045800025FF291C2071201CFFF7EEFE301C08F0CF
:10459000FDFA104B0E4A07F00BFD05F0B5FE22792F
:1045A0000D4B5200D55A061C291C05F0B1FD0F1CFD
:1045B000301C791E8F41291C05F066FD23683F18C9
:1045C000E7831B69201C9847201CFFF773FFF8BD89
:1045D000000000000000244028F70000C046C0464C
:1045E000F0B505A807785048082504684F4E2C43BD
:1045F00001250460C9012C1C8819944044605410A2
:104600000019303004785118E4B20470484801248D
:10461000091808782043087008780224204308709D
:1046200019680139A14205D942494024086820434C
:10463000086006E04049414848804878C009FCD1FC
:10464000F2E73F494878C009FBD108780224A0432B
:1046500008704C783A48E409FBD10F2644681640AC
:104660000125B5402C4344602E1C02240F2A03D898
:1046700007249442A441644207200240013A1B6887
:10468000051C0634062A08D8101CA4001D4005F09D
:10469000F1FC0A0F13171B1F2300A4000A59034043
:1046A000824313431DE00B5970222D01934317E001
:1046B0002D020A59234B12E02D030A59224B0EE01A
:1046C0002D040A59214B0AE02D050A59204B06E01A
:1046D0002D060A591F4B02E00A591F4B2D071340A4
:1046E0002B430B51002F05D0CB683343CB600B69B4
:1046F0001E430E614A78124BD209FBD11A78022070
:1047000002431A704B78DB09FCD1002F0AD0134BFF
:10471000C12292009958FF20814380200143995083
:1047200010221A60F0BDC0461C0400400044004145
:104730004044004118040040000C004005440000C3
:1047400000180040FFF8FFFFFF8FFFFFFFFFF8FF9B
:10475000FFFF8FFFFFFFFFF8FFFFFF8F00E100E08B
:10476000054BC901C918086A012393401840431E2C
:104770009841C0B27047C04600440041031C383322
:104780001B78064A3930DB019B1802781B6A01202E
:1047900090401840431E9841C0B270470044004109
:1047A00008B52830FFF727FB08BD73B5041C283077
:1047B0000E1CFFF720FB051E0BD0FDF70DFD226C34
:1047C000011C23796846FEF7EDFD301C694602F0B6
:1047D00053FF281C76BD08B54430FFF71EFD08BD09
:1047E00010B50B4B021C4D3211781C690F22114081
:1047F000A4B20C410122144209D0041C443462705A
:10480000846CA418846418698A4002431A6110BD3C
:10481000001800400000000073B5061C406A08F054
:10482000F3F9104B0E4A041C0D1C05F007FD00287F
:1048300012D0201C291C0C4A0C4B05F0EBFC002864
:104840000AD0FDF7C9FC011C6846FEF7DFFD009B9E
:10485000326A934200D0336273BDC046C046C04640
:104860000000000084D7A7410000000084D7C741A2
:1048700010B5041C0160081C012103F05BFC2068DA
:10488000012103F0B1FC201C10BD000010B5041C78
:10489000024802F063FF201C10BDC046900F0020AC
:1048A00037B503236A46002413715471051C019A1D
:1048B0000448054902F05AFF2868211C03F094FCC3
:1048C00037BDC046900F002040420F0008B5006879
:1048D000012103F089FC024802F064FF08BDC046D4
:1048E000900F002070B5041C0E1CFFF7D9FF104D6F
:1048F000311C281C02F068FF0021281C02F064FF14
:10490000201CFFF7E3FF201CFFF7CAFF281C002133
:1049100002F05AFF0021061C281C02F055FF051C5E
:10492000201CFFF7D3FF3002054328B270BDC046FC
:10493000900F0020F8B5061CFFF7B2FF554C3E2142
:10494000201C02F041FF201C002102F03DFF201C32
:10495000002102F039FF0021071C201C02F034FF67
:104960003F024D4D07430021201C2F8002F02CFFF9
:104970000021071C201C02F027FF3F0207430021F3
:10498000201C6F8002F020FF0021071C201C02F079
:104990001BFF3F0207430021201CAF8002F014FFE1
:1049A0000021071C201C02F00FFF3F0207430021DB
:1049B000201CEF8002F008FF0021071C201C02F0E1
:1049C00003FF3F0207430021201C2F8102F0FCFE61
:1049D0000021071C201C02F0F7FE3F0207430021C4
:1049E000201C6F8102F0F0FE0021071C201C02F049
:1049F000EBFE3F0207430021201CAF8102F0E4FEE2
:104A00000021071C201C02F0DFFE3F0207430021AB
:104A1000201CEF8102F0D8FE0021071C201C02F0B0
:104A2000D3FE3F0207430021201C2F8202F0CCFE60
:104A30000021071C201C02F0C7FE3F020743002193
:104A4000201C6F8202F0C0FE0021071C201C02F017
:104A5000BBFE3F0207430021201CAF8202F0B4FEE0
:104A60000021071C201C02F0AFFE3F02074300217B
:104A7000201CEF8202F0A8FE0021071C201C02F07F
:104A8000A3FE3F020743301C2F83FFF71FFF281CA4
:104A9000F8BDC046900F0020C40B0020F8B580235D
:104AA00019430B02161CFF2112120E4080271140E1
:104AB0001E437F000B431F43041CFFF7F1FE0E4D06
:104AC000390A281C02F080FEF9B2281C02F07CFE94
:104AD000201CFFF7FBFE201CFFF7E2FE310A281C1A
:104AE00002F072FEF1B2281C02F06EFE201CFFF7ED
:104AF000EDFE0120F8BDC046900F002010B51A2130
:104B0000041C0022FFF7CAFF201C1C210022FFF713
:104B1000C5FF201C1E210022FFF7C0FF201C202102
:104B20000022FFF7BBFF201C22210022FFF7B6FF67
:104B3000201C24210022FFF7B1FF201C2621002287
:104B4000FFF7ACFF201C28210022FFF7A7FF201C45
:104B50002A210022FFF7A2FF201C2C210022FFF7B0
:104B60009DFF201C2E210022FFF798FF201C3021E2
:104B70000022FFF793FF201C34210622FFF78EFF4F
:104B8000201C36210122FFF789FF201C38210E4A04
:104B9000FFF784FF201C40210022FFF77FFF201C2D
:104BA00042210022FFF77AFF201C44210022FFF758
:104BB00075FF201C46210022FFF770FF201C4821B2
:104BC0000022FFF76BFF10BD0204000010B5041CAB
:104BD0001A4802F09BFD201CFFF790FF201C3E218D
:104BE0000222FFF75BFF3E218022201CFFF756FFC9
:104BF0009620400003F01CF934215622201CFFF7B8
:104C00004DFF142003F014F932210D4A201CFFF748
:104C100045FF142003F00CF936210022201CFFF779
:104C20003DFF142003F004F9822238215200201C99
:104C3000FFF734FF142003F0FBF810BD900F0020A5
:104C40000202000070B508200C6815686540640811
:104C5000EE0701D51D686C400C60166801387408B9
:104C6000C0B214600028EFD170BD00007FB5134BB7
:104C7000061C0393124B8C1C009301256378301C97
:104C8000029323786946019301AA03AB0135FFF72C
:104C9000D9FFEDB2301C694602AA03ABFFF7D2FF81
:104CA00002340C2DEAD1009AD343180AFF22104097
:104CB0001B02184300B204B070BDC04621100000B2
:104CC000FFFF00000000000008B5081C07F05EFFB1
:104CD000044B034A07F06CF908F01CF808BDC04605
:104CE000B1FECF61BEBC803F08B5081C07F04EFF87
:104CF000044B034A07F05CF908F00CF808BDC04605
:104D000091815F695AE0263F08B5081C07F03EFF15
:104D1000064B054A07F04CF9054A064B06F0C2F966
:104D200007F0F8FF08BDC0460D897B2C7DE8B23F37
:104D30000000000000003F4008B5081C07F026FFF7
:104D4000021C0B1C06F0AEF907F0E4FF08BD0000E2
:104D500008B5081C07F01AFF044B034A07F028F9AE
:104D600007F0D8FF08BDC0469EA766B502B04E3E0C
:104D700008B50A300021482208F0E2F808BD38B52D
:104D8000041C0325FFF7F4FF2A1C201C002108F057
:104D9000D7F860190021042208F0D2F82A1CE01D7F
:104DA000002108F0CDF8231C002252331A70012391
:104DB000A365E36523666434227038BD021C10B518
:104DC00000235232137001228265C2650266021C02
:104DD00064324365041C1370137153719371C3667D
:104DE00013735373D381FFF7CAFF201C10BD836D6B
:104DF000002B03D1C36D002B00D10366006E013878
:104E0000431E9841C0B2704773B5101C6C461E1CFF
:104E1000E171151C073408F081F9B0420DD22378F6
:104E20002C2B0AD00D2B08D0202293430A2B04D020
:104E3000281C211C012208F078F973BD2A2903D00F
:104E400052300378594001707047000013B50322B7
:104E5000041C0A4901A808F051F8201C01A908F017
:104E600053F9002801D1A06501E00123A365A06DDD
:104E70000138431E9841C0B216BDC0466AF7000013
:104E800013B5094B041C01A90330019308F03CF948
:104E9000002801D1E06501E00123E365E06D013800
:104EA000431E9841C0B216BD5A444100C36D10B5AF
:104EB000041C011C6434002B05D10A3122786830AF
:104EC00000F050F900E0002023780133237010BD7A
:104ED00010B50021041C1022073008F0C5F9523427
:104EE0002378C0B2181A43425841C0B210BD70B501
:104EF000041C0E1E052E2DD8081C05F0BBF8032B34
:104F0000070E151D201CFFF73AFF23E0636D012BF0
:104F100020D1201CFFF79AFF0CE0636D022B04D117
:104F2000201CFFF7ADFF05E0636D032B12D1201CA1
:104F3000FFF7BCFF051C0BE0636D042B0AD1201C9E
:104F4000FFF7C6FF051C201CFFF751FF0540EDB21F
:104F5000002D04D0201CFFF70BFF666503E0201C2A
:104F6000FFF70DFF656570BD38B5041C406D0D1C65
:104F7000052845D805F07EF8030819273844242968
:104F800042D1201C01213DE0201CFFF757FF291CC6
:104F9000201C221C0223FFF737FF201C08F0BEF85C
:104FA000011C201C02292FD12CE0201CFFF746FFFA
:104FB000E21C201C291C0323FFF726FF2C2D23D1E4
:104FC000201C03211EE0201CFFF738FF221C201CA0
:104FD000291C0A324723FFF717FF2C2DF0D02A2D6A
:104FE00012D1201C04210DE0E21D201C0223FFF73A
:104FF0000BFF0D2D01D00A2D06D1201C052101E04B
:10500000201C0021FFF773FF206E38BDF0B5061C91
:1050100085B00020706000AF081C0D1C08F07EF801
:105020000123062840D9AA7900232E2A3CD1012346
:10503000072839D06A46C41F281CBA6008F06EF8E9
:10504000E4B2A31D8342804102334042DB08F86092
:10505000DB006846C01A85466B46621C00217B60F7
:1050600007F06EFFE91D6846221C07F047FF6946FE
:105070006B465A1AA2420ADA1878002230380925FB
:1050800085425241F86801331040F860F1E70A2286
:105090000021786808F072F9431CF9685A1E9341A0
:1050A0007060BA680B409546181CBD4605B0F0BD4F
:1050B00010B5011C4C8986B00A7A4B7A00940C78A2
:1050C0000C3001944C7802948C78039449680491D4
:1050D000024907F0F7FF06B010BDC0466DF70000AB
:1050E000F0B585B000AF141C0D1CBB60F86008F073
:1050F00015F82B19013B83428041231C0833DB0840
:10510000DB006946C91A8D46621C7960464200215F
:10511000684607F015FFFA6868465119221C07F027
:10512000EDFE69466B465A1AA24208DA1878002248
:10513000303809258542524116400133F3E70021FA
:105140000A22786808F01AF9FE22031CB9680020C8
:105150009A4240413040002900D00B70BD4605B056
:10516000F0BD0000F0B58DB000AF041C0D1C052A89
:1051700068D8101C04F07EFF031F252D7474081CD2
:1051800002220021231CFFF7ABFF02210A1C061C90
:10519000631C281CFFF7A4FFA31C06400421022265
:1051A000281CFFF79DFFF6B20640291C201CFFF7C4
:1051B0002DFF304044E0231C081C0222002108334C
:1051C00004E0231C081C022200210933FFF788FF9A
:1051D00036E0211C0A316B46281C39607B6007F0E1
:1051E0009DFF03268642B641381C00210C30F96031
:1051F00004220171291C07F081FE002276429446A8
:10520000381C61460C300B5C0025303B0922291C00
:105210009A4269410122944463460E40042BEFD127
:10522000291C0A2208F0AAF8114A396882426D4105
:10523000031C281C3040002900D063817A68954601
:1052400000280DD1381C002124220C3007F078FEF4
:10525000391C201C0C31232207F050FE002003E0F3
:10526000201CFFF725FF0120BD460DB0F0BDC04654
:10527000FEFF00000048704708F800000048704733
:1052800018F800000048704739F8000000487047DF
:105290004FF800000048704770F800000048704761
:1052A0008AF8000000487047ABF8000000487047DB
:1052B000C5F8000000487047E6F800000048704755
:1052C000FEF8000070B5041C40680D1C0870626890
:1052D000130A4B70E3888B70E379CB70A3680B7172
:1052E000A068030A4B7163898B71E37ACB71E26822
:1052F0000A72E068030A4B72E3898B72E37BCB721C
:10530000206907F00BFF0023061CD900301CEA18A7
:10531000C84001331073042BF7D1281C321C2169BB
:10532000103007F0EBFD301C103070BD38B5CB15D8
:105330004A02DBB2041C520AFF2B13D0002B03D00D
:10534000E02080001B180EE0002A0CD0E023520061
:105350009B00100203D4013B52009BB2F9E75202BA
:10536000520A00E00E4B002020706070A0705001C7
:10537000E070D0082071D00A6071D20C180102438D
:105380005B05081CA27100215D0E04F07DFF002862
:1053900002D080235B421D43E571082038BDC04622
:1053A000FF07000070B5041C0D1C081C6168FFF7A6
:1053B000BDFFA168061C2818FFF7B8FF3618A8190A
:1053C000E168FFF7B3FF301870BD70B5041C0430FE
:1053D0000D1CFFF777FFA169061C2818FFF7A6FF31
:1053E0003618A819E169FFF7A1FF301870BDF8B5AC
:1053F000061C04300F1CFFF765FF041C301C391914
:105400001830FFF7CFFF0025241873193819996A4F
:10541000FFF78CFF04352418242DF6D1201CF8BD8D
:1054200070B5041C04300D1CFFF74CFFA169061C6D
:105430002818FFF77BFF3618A819E169FFF776FFF8
:10544000301870BD30B5C278037912091B011343BF
:1054500042790F24120313438279C579144024053D
:1054600023437F242C4012092401184D1443221E8B
:10547000AA4216D0164DAC4218DCE025AD00AC4275
:1054800003DD144AA418A4B20CE0DA250024AD0010
:10549000AA4207DD80256D042B430F4DAA1AD34085
:1054A00000E0FF240D4A934202D102E00023FF24D2
:1054B0000133E4055B0823430B60C4797F229443E6
:1054C0002406234308200B6030BDC046FF070000C0
:1054D0007E04000080FCFFFF81030000FFFFFF004F
:1054E00070B50D1C041C011D281CFFF7ABFF211C0F
:1054F000061C08312818FFF7A5FF211C3618A8192B
:105500000C31FFF79FFF301870BD0000F0B585B07B
:105510001F1C0AAB1B78041C00930BAB1B78261CCA
:1055200001930CAB1D7801F091FB144B143608333A
:10553000291C23600025301CFFF79AF9301CA56157
:10554000E56125626562A562E56225636563A56321
:10555000FFF73CFBE068A8420CD02A1C391CFEF780
:10556000E9FFE06801230393036800991D68019A2D
:1055700003ABA847201C05B0F0BDC04680F9000071
:1055800073B50A780C1C42604B78051C1B02134350
:1055900043608A78120413434360CA7812061343A7
:1055A00043600A7982604B791B02134383608A79D6
:1055B000120413438360CA791206134383600A7A84
:1055C000C2604B7A1B021343C3608A7A12041343EE
:1055D000C360CA7A0C3112061343C36001A8FCF7FA
:1055E00029FF019A231C101C10301033191B814213
:1055F00004D21E78591E0E700133F7E7A21800235B
:105600000F34D3732C6176BD70B5041C04300D1CAF
:10561000FFF7B6FF211C061C18312818FFF712FFF0
:10562000211C3618A8191C31FFF70CFF301870BD6B
:10563000F8B5061C04300F1CFFF7A2FF041C301C39
:1056400039191830FFF74CFF00252418311C283178
:1056500038194919FFF7F6FE04352418242DF5D121
:10566000201CF8BD70B5041C04300D1CFFF788FF2A
:10567000211C061C18312818FFF7E4FE211C3618DF
:10568000A8191C31FFF7DEFE301870BD10B50023DD
:105690009A000A4C821812191268002A09D1DA1DE0
:1056A000FF32920082187D335160C8608B60012008
:1056B00003E00133192BEBD1002010BD1C040000C6
:1056C000F8B5041C0D1C111C1A1C01F0C9FA606805
:1056D000002800D182E04A4901260A6832400DD1F3
:1056E000484B494F9A60DA601A61484A1F60484F38
:1056F0005A6100225F609A61DA610E60454A0123B7
:105700001168161C0B40444A15D14449936011603E
:105710003F49D36051603D491361516140499161F6
:105720000021D16111625162D7180433B962242B70
:10573000FAD1012333603B4E0123316819403A4BC3
:105740000DD13A4F9960D960196130491F60596194
:105750002F4F00219961D96101215F603160E362BF
:10576000334B01211E68274F0E40A2626762B44688
:10577000304906D1069E4F600E60674601260F61D4
:105780001E602D4E012337681F40BC462B4B06D1AF
:10579000079F5A601F60624601271A613760284ED2
:1057A000012732683A4094466746264A002F07D1BF
:1057B000089F17601C4F57606746176101273760C5
:1057C000A361E1612262191CFFF760FFE169606873
:1057D000FFF75CFF6068216AFFF758FF2369002B21
:1057E00000D05D61A36A002B00D05D61636A002B6D
:1057F00000D05D61E36A002B00D05D61F8BDC0465A
:10580000600C0020680C0020C8F70000DF040100D5
:1058100098F70000F80B0020140C0020E0F70000BF
:10582000B0F70000640C00208C0C0020F8F700009A
:10583000C40C0020FC0B0020880C0020AC0C0020C5
:10584000E00B0020E40B0020F0B5041CC06887B01A
:10585000002807D02269002A04D0211C08323031E8
:10586000FEF79EFF206900281DD0E06800281AD0AE
:105870000021FEF7B0FF002815D0251C1435281C88
:10588000FFF758F8061C311C281CFFF7EFF9182108
:10589000735E834209D06068002800D134E10221A0
:1058A0009A4AFCF7E7FE00202EE133881B06DB0F47
:1058B00003931AD0676A002F17D03B1C221C0C33AD
:1058C000303203CA03C323691422B15E9B68281CCB
:1058D0001B09BB60FFF730FA616AB8618C4BE06965
:1058E000CB61002801D0FDF7EDFB2769002F00D127
:1058F000BCE03B1C221C0C33303203CA03C3002320
:105900000493844B04A805A9059301F055FE381CA7
:1059100004A90C3001F0B0FE7D4B27690222B15E74
:10592000FB62281CFFF7E0F90423F15E7865281C70
:105930002769FFF7D9F9B8650620315E281C276969
:10594000FFF7D2F9F8652769734B3A1D3B663B6751
:10595000281CD3670822B15EFFF7B6F98837386094
:105960000A23F15E281C2769FFF7AEF98C373860EF
:105970000C20315E281C2769FFF7A6F921699037B2
:105980003860664B0A1CA06894321360136113627E
:10599000002801D0FDF796FBA06B042866D804F020
:1059A00069FB03171A3A47003621281CFEF79AFFB5
:1059B0009022A0871201C0B202433621281CFFF7B3
:1059C0006DF860680121564AFCF754FE012300E09F
:1059D0000223A3634AE060680121524AFCF74AFEB1
:1059E000B788F38872887F425B4252429BB2BFB253
:1059F00012B21A21281C0293FFF750F83AB21C2168
:105A0000281CFFF74BF8029F281C3AB21E21FFF713
:105A100045F80323DDE760680121434AFCF72AFECD
:105A20003C20225E3621281CFFF738F80423D0E7FB
:105A30003E4901200F6822693D4B074202D1976819
:105A400008601F6019689268501AFA21490088425C
:105A50000CD93221281C1A60FEF744FF80229200E4
:105A6000424012B2281C3221FFF718F8039F002F82
:105A700028D0A76A002F25D03B1C221C0C333032C3
:105A800003CA03C323690E22B15E9B68281C1B094D
:105A9000BB60FFF75DF91023F15EF861281CA76A6F
:105AA000FFF756F938621220315E281CA76AFFF70B
:105AB0004FF9A16A7862164BA0698B62002801D069
:105AC000FDF700FBE76A0397002F1CD02169039FB5
:105AD0008868B8600C2084460A18BC440292634669
:105AE00081CA81C34969039F79611620315E281CF0
:105AF000FFF70AF9E16AB861054B206ACB6100281B
:105B000001D0FDF7DFFA012007B0F0BD6AF900000F
:105B1000000080BF0048E8018F28CE31B1AB333D93
:105B20001FF900003BF9000051F90000C00C0020F3
:105B3000100C002083880B70838802201B0A4B7096
:105B400070470B7883804A781202134383800220C7
:105B5000704700000048704700FA00000048704796
:105B600010FA000042680A704268130A4B70C3883A
:105B70008B70C3790420CB7070470A7842604B78F1
:105B80001B02134343608A78120413434360CA78AC
:105B9000120613434360042070470000004870471A
:105BA00031FA00000048704741FA000038B5051C82
:105BB0000C35041C281CFFF7E0FFA16963694A103B
:105BC000E069CC0701D58158CB58291C801898472B
:105BD00038BD006A704700000048704731FA000085
:105BE0000048704741FA000038B5051C0C35041C0C
:105BF000281CFFF7A6FFA16963694A10E069CC077A
:105C000001D58158CB58291C8018984738BD006AA7
:105C1000704700000048704700FA000000487047D5
:105C200010FA000038B5041C61600849101C0025FA
:105C300004AA08311278A560E06021602561A842BD
:105C400002D0191CFEF776FC201C38BDF0F90000CC
:105C5000F7B5444F01253E6801932E400CD1424CCC
:105C6000424B26822360424BA661E360414BE061D8
:105C700063612562A2603D604468002C70D0C268F8
:105C800014650022950090266519F600AD192D685F
:105C9000002D08D190235B00D618334DB600643236
:105CA00035516A6002E00132192AEBD1324D0126EA
:105CB0002C68324A344007D1314F54609460D4602C
:105CC000304C176014612E602F4D01262F68026141
:105CD00037402E4C04D1089B6260236027612E6000
:105CE0002B4E0125376884602F400DD1294A2A4B5D
:105CF00017611360294B0427D360019B576195619D
:105D0000D061156293603560426800239D00244E87
:105D10005519AD192D68002D08D1DD1DFF35AD00D9
:105D200055197D336C60A360E26002E00133192BEA
:105D3000ECD100239C0090251419ED00641924680F
:105D4000002C08D1902676009D19124CAD006433CA
:105D5000AC50636002E00133192BEBD10369196188
:105D6000F7BDC046200D0020240D0020B0F9000032
:105D700098F90000A55D0000EC0C00200C0D00203F
:105D800098F70000DF040100080D0020F00C00204F
:105D9000040D0020C80C0020E0F90000C8F9000044
:105DA0001C04000030B5041CC0688FB00D1C002816
:105DB00010D0036889889B6898476368002B09D0D6
:105DC000AA88054901A807F07DF96068012101AAA8
:105DD000FCF750FC0FB030BD62FA000010B5041C97
:105DE000C068002802D04968FEF743FB60680028BD
:105DF00003D00121014AFCF73DFC10BD7CFA0000F4
:105E00001FB5041CC068002810D04968FEF782F84E
:105E1000606800280AD0064B01AA01930123137180
:105E2000044B0721936003681B6898471FBDC04659
:105E3000B8F200009DFA0000F7B5151C08AA041C72
:105E4000127809A806780AA807780092201C2A1C54
:105E5000FFF7E8FE084B2775083323600023A36192
:105E6000E361236263629D4203D0281C311CFEF76C
:105E70005FF8201CFEBDC046C0FA00000000000014
:105E8000F0B5C36885B0061C002B4CD0036A002B0C
:105E900049D00269011C0832183102A801F002FC45
:105EA000029806F073FE041C03980D1C06F06EFEAB
:105EB000204B1F4A06F07CF80B1C021C291C201CDE
:105EC00005F0F0F832690F1C0191311C0832009086
:105ED000203102A801F0E6FB029806F057FE041CF0
:105EE00003980D1C06F052FE124B114A06F060F8A2
:105EF000021C0B1C201C291C05F0D4F87B00041C80
:105F00004F000D1C00985908221C7B0804F082F9F0
:105F1000031CF068002B02D0009A019B01E0221CB8
:105F20002B1CFEF7D9F905B0F0BDC046C046C046EF
:105F300095D626E80B2E113E37B5041CC06800220A
:105F40006D4600920192904207D0237D934204D087
:105F50006946FEF72AFC00280ED1E068002815D01B
:105F60002269002A12D0111C083104320023FEF7E6
:105F70001CF900280CD109E0231C221C2033183204
:105F800003CA03C3103B05CD05C3E6E700200FE0BD
:105F9000237D002B02D0201CFFF772FFA368002B8B
:105FA00005D0D8689968056822692B689847012050
:105FB0003EBD426830B50A704468230A4B70C388FE
:105FC0008B70C379CB7082680A718468230A4B7125
:105FD00043898B71C37ACB71C2680A72C468230A81
:105FE0004B72C3898B72C37BCB7202690A730469DB
:105FF0001022230A4B73438A8B73C37CCB730B1C15
:106000001033841864680432250A1C705D70250CF6
:10601000240E9D70DC7004331C2AF2D10B1C1C333F
:10602000202284580432250A1C705D70250C240E31
:106030009D70DC700433442AF3D1436C0A1C403257
:106040001C0A137054701C0C1B0E9470D370836C5C
:106050001C0A137154711C0C1B0ED371031C947118
:106060004C331C8814721B881B0A5372026D0B1C64
:106070004A331A70046D4E31220A5A70046D220C94
:106080009A70046D5430220EDA7003784F200B7032
:1060900030BD70B50A7842604B781B0213434360F1
:1060A0008A78120413434360CA781206134343608C
:1060B0000A7982604B791B02134383608A79120448
:1060C00013438360CA791206134383600A7AC2605D
:1060D0004B7A1B021343C3608A7A12041343C360D2
:1060E000CA7A12061343C3600A7B02614B7B1B0210
:1060F000134303618A7B120413430361CA7B1206B4
:10610000134303610B1C103310225E789D78360216
:106110002D0435431E7884183543DE780432360664
:106120003543656004331C2AEFD10B1C1C3320223D
:106130005D789C782D0224042C431D782C43DD7857
:1061400004332D062C4384500432442AF0D10B1C16
:1061500041331A7801331B7812021B0413430A1CC3
:10616000403212780C1C13430A1C43321278493413
:106170001206134343640B1C45331A7801331B7812
:1061800012021B0413430A1C4432127813430A1CE4
:10619000473212781206134383640B1C48331A7873
:1061A000031C4C331A802478240222431A800B1CCF
:1061B0004A331A78013302651B781B0213430A1C09
:1061C00003654C321278120413430A1C03654D32E6
:1061D00012784E311206134303650B785430037066
:1061E0004F2070BD0048704704FB00000048704716
:1061F00014FB00000E4B10B5036000234360836066
:10620000C3600361021C0023041C43618361C361FA
:106210002032443408C20021A242FBD1021C0023D8
:106220004C324164816413800365137210BDC04613
:10623000D8FA0000F8B5184E01273368041C174D32
:106240003B4203D1281CFFF7D5FF3760A16865608A
:1062500000291FD0124A01201668124B064004D1B3
:10626000114F5D601F601E611060E36000229000AE
:106270000E4C081800190068002808D1D01DFF3006
:10628000800008187D3243609A60D96002E00132D4
:10629000192AECD1F8BDC046B80D0020600D0020D1
:1062A000480D00204C0D002035FB00001C040000B0
:1062B000F0B5476893B0061C002F00D123E1406F72
:1062C000391D002852D1B26F002A4FD13A1C0C322E
:1062D00010A801F0E7F9109B11980E930F90181C6D
:1062E00006F054FC041C0F980D1C06F04FFC894B63
:1062F000874A05F05DFE021C0B1C201C291C04F0C3
:10630000D1FE06F007FD30670E9804F01FFE06F080
:10631000AFFC814A814B05F04BFE041C0F980D1C0D
:1063200004F014FE06F0A4FC7D4A7E4B05F040FE0E
:10633000021C0B1C201C291C04F0B4FE06F0EAFC15
:106340007768FF239B05BB61774B784AFB61FE238F
:106350009B053B6200237B62BB62FB627B63BB638A
:10636000FB63734B78613A633B64C7E0321C743261
:1063700010A801F097F9109806F008FC041C119879
:106380000D1C06F003FC634B614A05F011FE021C74
:106390000B1C201C291C04F085FE06F0BBFC746855
:1063A0007864231C4C33188804F02CFE656C6269F9
:1063B000A369011CE469301C283000940190281C5A
:1063C000FCF724FD7468E36A256A616AA26A676C57
:1063D0000093206B0E910190616B0F920291A26B62
:1063E0000392E36B0493206C231C4C3305901888B4
:1063F00004F008FE0690B1690791F269291C089221
:10640000336A0E9A0993A069331C0A90E469343305
:106410000B940C93381C0F9BFCF716FD726810A8A8
:10642000111D0C3201F03EF9109804F08FFD06F0BA
:106430001FFC394A394B05F0BBFD041C11980D1C9B
:1064400004F084FD06F014FC354A364B05F0B0FD2F
:106450000B1C021C291C201C04F024FE06F05AFC14
:10646000321C011CB0655C32B06AFCF793FD321C33
:10647000706B716A6032FCF796FD331C64330093D5
:10648000706B316CF26C336EFCF798FDB16A009161
:10649000F26A0192336B0293736814330393706E44
:1064A000B16EF26EF36DFCF79DFDB06B0090F16B79
:1064B0000191326C0292736C0393B06C0490F16C96
:1064C0000591326D0692736D0793736820330893BC
:1064D000F26EB16E706E736BFCF7A1FD7468231CD5
:1064E0004C33188804F032FD124904F075FAA169A2
:1064F00004F09CFBE16904F06FFAA06473687436E1
:10650000043303CB03C613B0F0BDC046C046C0463B
:1065100095D626E80B2E113E0000000080842E4107
:10652000FCA9F1D24D62503F0000C0400AD7233B86
:10653000EC51B83C0D68533B70B5446896B0051CEF
:10654000002C2BD06846FFF755FE231D01AA03CA75
:1065500003C303AA41CA41C305AA43CA43C308AA45
:1065600043CA43C343CA43C343CA43C31199616483
:10657000129B149EA36413AB1A88231C4C331A80FD
:10658000266515AB1B78543423706B68D2211A1C16
:106590004C32FF311180543300221A7000236B6794
:1065A000AB6716B070BD0000F8B52F4B2F4E0360DF
:1065B0000023041C43608160C360306801272C4DB8
:1065C000384203D1281CFDF76FFA376000222949B1
:1065D000231C62612561183361C961C3264B626760
:1065E000636200232367231C7C33A2671A70234B4A
:1065F0000122197811431970214B19780A431A7036
:10660000204AD379DB09FBD1137801210B431370A6
:10661000D1791C4BC909FBD15978402001435970ED
:1066200059780120014359701889D221FF31014363
:106630001981D179134BC909FBD119780220014383
:106640001970D179C909FCD12069002801D0FDF762
:10665000BDF9A368002B01D022691365201CFFF748
:106660006BFF201CF8BDC046F0FA0000E8020020D5
:10667000F4010020F8FA000017B7D13B3144004183
:106680004244004100480042F0B5056FC5B0041C0B
:106690000021281C03F00CFE002805D0FE21281C38
:1066A000890503F005FE03E0281C434903F0ECFDD7
:1066B000431E9841002825D0404E01273368404DA5
:1066C0003B4203D1281CFCF725FE37606368281C79
:1066D000D968FCF759FE636804ADDA68281C1B69A9
:1066E000384906F0EFFC384B01AA0193A06801235A
:1066F0001371036895601B6807219847201CFFF7FA
:106700001BFF50E065680021686C03F0D1FD002894
:1067100049D02E49A86904F05FF9061C686906F0A3
:10672000A7FA244B224A05F043FC06F0F3FA011CB9
:10673000301C04F07BFA2649061C03F0A5FD002856
:1067400007D1301C234903F0B3FD002802D0214EAD
:1067500000E01F4E301C03F067FC03F0BDFD4C351C
:1067600080B228801C4BDA79D209FBD11881DA7902
:10677000D209FCD16568FE216B6989055800400883
:1067800003F082FD7C34002805D023783C2B03D015
:106790000133237000E0207023783B229A429B4112
:1067A0005B4254352B7045B0F0BDC046C046C04674
:1067B0002D54A3FC49A90840000080BFF40200202A
:1067C0006C0100203FFB0000B8F2000000009B437A
:1067D00000001B4300C0414400480042C046C04680
:1067E00010B5041C406903282CD803F043FC0210A8
:1067F0001A222069002827D06268002A24D0111D9F
:106800005032FDF7CDFC00281ED001231BE0236889
:10681000201C1B6898470223012814D0022813D19A
:1068200010E0201CFFF744FD201CFFF72DFF032381
:1068300009E0E368002B05D0D868996802681368FE
:106840006268984700236361002010BDF8B5041CFE
:10685000171C1E1CFFF7A8FE0A4B251C083308C591
:10686000201CEF678430FEF7A9FA231CE86FFC3385
:1068700000225A61904203D00368311CDB699847BB
:10688000201CF8BD60FB0000F0B5071CFC37061C9F
:106890007869CFB0032800D9A4E003F0EBFB02A392
:1068A000A3997168002900D19EE0FBF795FC011CBB
:1068B0000AA8FCF7ABFD72680CA804320AA900F024
:1068C000F1FE0C9806F062F9041C0D980D1C06F000
:1068D0005DF9964B944A05F06BFB021C0B1C201CC7
:1068E000291C04F0DFFB04900591FBF775FC071CE5
:1068F000C06906F04BF9041C386A0D1C06F046F915
:106900008A4B894A05F054FB021C0B1C201C291CD5
:1069100004F0C8FB051C2A1C80250C1C2D060498BD
:106920000599631903F076FC002807D104980599AE
:106930007F4A804B03F082FC00283CD0B1680029DC
:1069400037D00A9806F060F9069007910B9806F088
:106950005BF9764B744A05F02BFB021C0B1C069866
:10696000079904F09FFB746806900791606806F031
:106970004BF908900991A06806F046F96B4B6A4AFA
:1069800005F016FB021C0B1C0898099904F08AFB01
:10699000049C059D069A079B009001910294039523
:1069A00067490EA806F08EFBB06802210EAAFBF71D
:1069B00061FE022208E0049805995F4A5F4B03F0EC
:1069C0003DFC002810D00322331CFC335A610BE03D
:1069D000341DE06F00280BD003681B69984700281E
:1069E00033D105E000237B61FC3670694FB0F0BD08
:1069F000FBF7F2FB011C0CA8FCF708FD72680EA85F
:106A000004320CA900F04EFE0E9806F0BFF8041CEC
:106A10000F980D1C06F0BAF8444B434A05F0C8FA2B
:106A2000021C0B1C201C291C04F03CFB404A414B5F
:106A300003F004FC0028D7D0B068002803D003215D
:106A4000404AFBF717FE0223CDE7E06F351C0368D1
:106A5000843504955B699847C1B20498FEF784FABF
:106A60000028C1D1331CF0331D68002DBCD1E06F6C
:106A700003681B69984701281BDDB16800290DD008
:106A8000E06F03681B6998472F49021C0EA806F0A7
:106A900019FBB06802210EAAFBF7ECFDE06F03685A
:106AA0001B6998470028CED0E06F03685B69984760
:106AB000F4E7331C301CF633EC3019880078013BC6
:106AC0001A78013B1B780090301CED300078019063
:106AD000301CEE30007802900CA800F0C1FE746803
:106AE0000694002C0DD00CA800F0D2FE0EAC0E9037
:106AF0000FA9201C0F9500F095FD069B0C3322CCAE
:106B000022C3341DE06F03681B699847002808D032
:106B1000E06F03685B699847C1B20498FEF724FAF6
:106B2000EFE701235FE7C04695D626E80B2E113E1E
:106B30009A9999999999E93F9A9999999999C93FF7
:106B400070FB000004FC0000B9FB0000C046C0461A
:106B50000048704770FC00000048704789FC000046
:106B600000487047AAFC000000487047BAFC0000CB
:106B700070B5041C0D1C081C6168FEF7D7FBA168EA
:106B8000061C2818FEF7D2FB3618A819E168FEF794
:106B9000CDFB3618A8192169FEF7C8FB301870BD67
:106BA000F8B5041C04300D1CFEF78CFB061C201CE1
:106BB000A9191830FFF7DCFF00273618E319A819C8
:106BC000D96AFEF7B3FB04373618242FF6D1201C00
:106BD000A9195030FEF7E6FB00273618E319A8196B
:106BE000196EFEF7A3FB04373618242FF6D1201CAC
:106BF000A9198430FEF7D6FB00273618E319943321
:106C0000A8191968FEF792FB04373618242FF5D11E
:106C1000301CF8BD70B50D1C041C011D281CFEF7AE
:106C200011FC211C061C08312818FEF70BFC211C46
:106C30003618A8190C31FEF705FC211C3618A819C6
:106C40001031FEF7FFFB301870BD0000C260034A30
:106C500000234160836002600361704768FC0000AC
:106C6000F7B5484E01243568019225400CD1464BBA
:106C7000464F1D821F60464F9D61DF60454FD861C2
:106C80005F611C62996034604168002979D0C368F3
:106C9000196500239C0090220C19D200A4182468C6
:106CA000002C08D1902464001D19374CAD006433CA
:106CB0006C50636002E00133192BEBD1364F012495
:106CC0003E68364B34403BD1354D9C601D60354DA0
:106CD000DC605D60344D1C615D61344D9D6100255B
:106CE000DD611D625D629D621E19B4466246043418
:106CF0000026D562242CF7D12D4C5E651C659E655F
:106D0000DE6500241E19B44662460434002615666A
:106D1000242CF7D11C1C264A0834E2671C1C88343A
:106D200026601C1C8C3426601C1C903426600024B9
:106D30001E19943604343560242CF9D101243C60AA
:106D40001C4D01262F68036137401B4C04D1019A6A
:106D50006360226027612E60846000239A00174DD3
:106D60008A1852191268002A08D1DA1DFF329200DF
:106D70008A187D335460A360E16002E00133192B6F
:106D8000ECD1F7BD780E00207C0E0020B0F9000099
:106D900098F90000A55D0000BC0D0020C00D00208A
:106DA00050FC000098F70000DF04010038FC0000F0
:106DB000B0F70000A00E0020A40E00201C0400006C
:106DC000F8B5041C04300D1CFEF7DAFB061C201C71
:106DD000A9191830FFF71EFF00273618211C2C3187
:106DE000A819C919FEF72EFB04373618242FF5D140
:106DF000201CA9195030FEF773FB00273618211C00
:106E00006031A819C919FEF71DFB04373618242F65
:106E1000F5D1201CA9198430FEF762FB0027361833
:106E2000211C9431A819C919FEF70CFB0437361838
:106E3000242FF5D1301CF8BD0048704710FD00002C
:106E40000048704722FD00000048704743FD0000E5
:106E50000048704756FD000038B5041C04300D1C76
:106E6000FEF730FA237E29182B54E36911301A0AF1
:106E70004B708A701A0C1B0ECA700B71236A1A0AA7
:106E80004B718A711A0C1B0ECA710B72636A1A0A53
:106E90004B728A721A0C1B0ECA720B73A36A1A0AFF
:106EA0004B738A731A0C1B0ECA730B7438BD38B53A
:106EB000051C04300C1CFFF7CFFF2B1C30331B7854
:106EC000211823546B6B05301A0A4B708A701A0C08
:106ED0001B0ECA700B7138BD08B50368C9B21B68B8
:106EE000984708BDF7B53E4F01253E6801932E40F7
:106EF0000CD13C4C3C4B268223603C4BA661E360AA
:106F00003B4BE06163612562A2603D604468002CF8
:106F100050D0C26814650022950090266519F600CD
:106F2000AD192D68002D08D190235B00D6182D4D8A
:106F3000B600643235516A6002E00132192AEBD1A1
:106F40002C4E012734683C4015D12B4A2B4D302361
:106F500015602B4DD46055602A4D146195602A4D03
:106F60005461956100251477156255629562D5626A
:106F70009C5455633760254C1F4F26680125476197
:106F80002E40234A04D1019B57601360166125608F
:106F90004468826000239D001E4E6519AD192D685E
:106FA000002D17D1DD1DFF35AD0065197D336A60F9
:106FB0009360D4604369002B10D001221A77996145
:106FC000154A43691A62154A5A62154A9A62DB6881
:106FD000036103E00133192BDDD1EBE7F7BDC046B8
:106FE0001C0F0020BC0E0020B0F9000098F9000032
:106FF000A55D0000180F0020E00E002000FD00003D
:10700000E8FC000098F70000DF040100B80E002043
:10701000200F00201C0400006F12033CCDCC4C3D1F
:107020000000F04138B5041C04300D1CFEF7A8FA2E
:107030002B5C291823768A78CB7812021B04134321
:107040004A78113013430A7912061343E3618A79AF
:10705000CB7912021B0413434A7913430A7A1206AE
:10706000134323628A7ACB7A12021B0413434A7AAF
:1070700013430A7B1206134363628A7BCB7B1202A3
:107080001B0413434A7B13430A7C12061343A36277
:1070900038BD38B5041C04300D1CFFF7C3FF231C9A
:1070A0002A5C303329181A708A78CB7812021B04B4
:1070B00013434A78053013430A7912061343636376
:1070C00038BD000000000000F8B5274E071C0C1C5E
:1070D000301C622100F07CFC8E21301CFFF7FCFE8E
:1070E000301C012100F0EDFC051E06D07868002858
:1070F00003D002211D4AFBF7BDFA301C6221032296
:10710000012300F07EFC002C23D0301C00F012FD87
:10711000231C30331870301C00F00CFD071C301C91
:1071200000F008FDFF231F403F020340F81805F060
:107130002DFD0C4B0A4A04F03BFF05F0EBFD0C491A
:10714000E06203F0A1F8002801D00A4B00E00A4BEE
:10715000636368426841C0B2F8BDC046C046C046DD
:107160007B14AE47E17A843FA00F002077FD00003A
:107170000000A040B4A29138B4A2913AC046C046E3
:1071800070B5144C6221061C201C00F021FC01216A
:10719000201CFFF7A1FE201C012100F092FC051E1F
:1071A00006D07068002803D002210B4AFBF762FA70
:1071B0000122131C6221201C00F023FC201C00F083
:1071C000B9FC021C0020854202D10123101C18408A
:1071D00070BDC046A00F00209DFD000010B5041C2E
:1071E000C068002807D06269002A04D0111C103141
:1071F0000C32FDF7D5FA6369002B08D0DB682269F1
:107200009A4204D0201CFFF7BBFF002801D00020C9
:1072100014E0201C6169FFF757FF002802D0A36823
:10722000002B04D163690120DB68236106E0D86884
:1072300099680268136862699847F3E710BD000017
:1072400070B50A4C0E1C201C6221151C00F0C0FBFE
:10725000311C201C00F010FC291C201C00F00CFC30
:10726000201C012100F02DFC70BDC046A00F0020A5
:1072700038B541601049041C08312160012100200B
:107280004942A060E26021616061824205D0101C29
:10729000191C28220123FDF767F9084D281C00F06E
:1072A00069FB281C064900F085FB0021201C0A1CF4
:1072B000FFF7C6FF201C38BDC8FD0000A00F00204E
:1072C000801A060000487047F0FD00000048704733
:1072D000FEFD000038B5051C04300C1CFFF7BCFD9A
:1072E0002B1C30331B78211823546B6B05301A0A82
:1072F0004B708A701A0C1B0ECA700B7138BD10B51A
:1073000000230160FF21041C43608360C26001749C
:10731000438243619A4205D01368E121DB69101C66
:1073200049029847201C10BDF7B501920268002A57
:107330003DD0264E012734683C4015D1244B254DC5
:1073400030221D60244DDC605D60244D1C619D6019
:10735000234D5C619D6100251C771D625D629D620D
:10736000DD62D4545D6337601E4C194F26680125D9
:1073700087602E401C4B04D1019A5F601A601E6129
:1073800025600468436000229500184E6519AD1908
:107390002D68002D08D1D51DFF35AD0065197D3252
:1073A0006B609A60DC6002E00132192AECD18368DC
:1073B000002B0AD001221A7799610D4A83681A625C
:1073C000FC2292055A620B4A9A62F7BD800F002098
:1073D000480F0020E0FD0000E8FC000098F70000E6
:1073E000DF040100840F0020340F00201C04000083
:1073F0003333B33E0000484238B5041C04300D1C42
:10740000FFF710FE231C2A5C303329181A708A7883
:10741000CB7812021B0413434A78053013430A79D0
:1074200012061343636338BDF0B581689FB0041C36
:10743000002900D1A6E0C068002800D1A2E00368BE
:107440001B699847002800D19CE0E06803685B69ED
:107450009847071CC6B26069052803D900236361F9
:10746000012590E002F006FE0320363C596101251B
:10747000FE2E00D087E0484FA2683B680192474E3D
:107480002B4203D1301CFBF745FF3D6002AD281CA9
:10749000311CFBF7BBFF019B103306CD06C3002355
:1074A0000125638265616EE0022E04D1638A666104
:1074B00002336382D4E72368002BCFD038490222FD
:1074C000FBB205A805F0FEFD2068022105AAFBF726
:1074D000D1F8C3E7638A2674F61866820323BEE7F1
:1074E000237CF8B20002C01805F050FB294B284A53
:1074F00004F05EFD05F00EFCA568FE21E86289053A
:1075000002F0C2FE002801D0264B00E0264B6B6340
:10751000638AF61866820423A1E7A36830331E70DD
:10752000638AF6186682052399E7E06803681B6999
:107530009847628A43425841FF231F40C0B213401C
:107540009F420FD100280FD06368002B05D0D86868
:10755000996802681368A2689847A368DA680132DC
:10756000DA607BE7002806D12068002800D175E7A3
:1075700002210E4AABE72068002800D16EE7022105
:107580000B4AA4E70025281C1FB0F0BDC046C0462A
:107590007B14AE47E17A843FF40200206C010020A6
:1075A0001FFE000017B7D139DC693A3954FE0000DC
:1075B0007CFE0000C046C04610B50B680268084C4F
:1075C000A34203DD074C01321B19F8E7002B03DA55
:1075D000034C013A1B19F9E702600B6010BDC0466D
:1075E00000CA9A3B003665C470B5061C1D1C141CED
:1075F000006805F0CBFA2B1C221C04F0D9FC05F026
:1076000091FA3060706805F0C1FA2B1C221C04F05E
:10761000CFFC05F087FA311D7060301CFFF7CCFFFE
:10762000301C70BD70B50D68061C0C1C281C06496A
:1076300002F02AFD3368044918183060281C02F053
:1076400067FD216070BDC04600CA9A3B036810B553
:10765000041C0868013B1B182360064863681A185D
:107660004B68201CD3186360211DFFF7DBFF201C33
:1076700010BDC04600CA9A3B036810B5041C0868D8
:10768000013B1B1A2360064863681A184B68201CCC
:10769000D31A6360211DFFF7C5FF201C10BDC04633
:1076A00000CA9A3B38B5041C156808684968431B32
:1076B00023605368201CCB1A6360211DFFF77CFFF9
:1076C000201C38BD437A002B04D18372C372C3607F
:1076D00001234372704730B585B0041C02AD0068C9
:1076E0000291039200F026FF6B79E179227A0093F0
:1076F0002068002301F090F829792068029A00F0B0
:10770000E9FE206800F00CFF05B030BD70B5041C28
:107710001826FFF7D7FF2079331C43430D4D08216E
:10772000EB18595600F090FDA079331C4343082113
:10773000EB18595600F088FD607908214643AD19D1
:10774000695600F081FD044B201C06CBFFF7C3FFF8
:1077500070BDC046D8FE0000880F002010B5041C84
:10776000006800F0CFFE0023637210BD07B5837A76
:1077700000910192002B0DD09A0706D5EFF31083EC
:107780005A425341C37272B604E0DA0702D58289C5
:10779000034B9A600099019AFFF79DFF07BDC04611
:1077A00000180040837A002B0BD09A0704D5C37AC7
:1077B000002B06D062B604E0DA0702D58289014BBD
:1077C000DA6070470018004008B5006800F0BBFEA2
:1077D00008BD0000094B0A4A0A491A6000225A7182
:1077E0001A71094B19601621197118219971172105
:1077F000597101215A72D9711A727047880F00208D
:1078000000093D005C160020900F0020114B10B5C0
:10781000984202D9104BC01880B200230133DCB269
:107820008C4206D20D4CE418013C2478121992B215
:10783000F4E7022903D9830701D1013292B26E2302
:10784000FF3343430330013B80101818121890B2E5
:1078500010BDC046CF07000030F8FFFFA5FE0000B6
:10786000F0B505AC2678084F06AC257807AC24782F
:10787000B94202D9054FC91989B2C67005710170A4
:10788000427083704471F0BDCF07000030F8FFFFF5
:1078900010B5041CA27800786178FFF7B7FF1823B1
:1078A0005843E3782279C0183C2358438018584342
:1078B0006279024B8018C01810BDC04680436D38F5
:1078C00000207047F8B5051C0F1C161C0024B4429C
:1078D00008D02B68395D1B68281C9847002801D008
:1078E0000134F4E7201CF8BD7047031CFC33196A0F
:1078F000DA69914203D01B6AC018007E01E00120C2
:1079000040427047031CFC33D8691B6AC01A01D57A
:107910000130FF3070470000F7B50193FA239B0058
:107920008360134B8026002576000833041C0F1C4F
:107930004560291C00920360321C183005F000FBE2
:10794000231C9022FC335200DD61A0181D62321C02
:10795000291C05F0F5FA87229200A3185D60019AB0
:107960009D60009B2761A575201C23756275FEBD77
:10797000B0FE000070B50D49041C006900F070FFF6
:10798000206900F0FBFD1826207D331C4343084D81
:107990000821EB18595600F057FC607D082146433A
:1079A000AD19695600F050FC70BDC046A0860100BC
:1079B000D8FE000038B5041C0D1C006900F0F2FD73
:1079C000291C206900F04CFF206900F0D7FD38BD6C
:1079D0008A2387229B009200C154831800225A6098
:1079E0009A60012383757047031CFC335A6810B5F5
:1079F00001329C68D2B2A24202D05C6801555A6042
:107A000010BDF7B501930023041C151C181C9A42E5
:107A100031D0221CFC32D36120691362012200F0B4
:107A2000F3FD002825D0206900F05DFE271C1837E3
:107A3000011C381CFFF7D8FF01262069AE420ED08A
:107A400000F0C2FD0221206900F0C8FD206900F0AD
:107A50004AFE011C381CFFF7C7FF0136EDE700F0B6
:107A6000ABFD019B002B05D02069032100F0B6FD82
:107A700000E0051CE8B2FEBD10B5827D00239A42ED
:107A80000DD08724A4000219546892680134E4B22E
:107A9000944204D02130FF30FFF7A6FF0123181CC9
:107AA00010BD031CFC3399685A68914206D09A684D
:107AB000805C9A680132D2B29A6001E001204042B3
:107AC000704770B500228A2382759B00041C0E1C2F
:107AD000C15C006900F098FD002805D120690321F0
