:102000000080002099850000818500008185000006
:1020100000000000000000000000000000000000C0
:1020200000000000000000000000000081850000AA
:10203000000000000000000081850000ED85000028
:102040008185000081850000818500009D350000AC
:10205000B922000081850000414A0000858500000A
:1020600081850000CD84000081850000818500000D
:10207000A584000081850000DD8400005D3C000037
:102080001D3D0000DD3D0000113600007D360000E2
:10209000E93600008185000081850000818500000F
:1020A0008185000081850000818500008185000018
:1020B0000000000010B5064C2378002B07D1054B1B
:1020C000002B02D0044800E000BF0123237010BDA4
:1020D0008002002000000000F00F0100044B10B54A
:1020E000002B03D00349044800E000BF10BDC046E8
:1020F0000000000084020020F00F010043680B7014
:1021000043681B0A4B7043681B0C8B7043681B0EA3
:10211000CB7083680B7183681B0A4B7183681B0C3F
:102120008B71836808201B0ECB7170470A78426060
:102130004B781B021A4342608B781B0413434360A5
:10214000CA781206134343600A7982604B791B02F6
:102150001A4382608B791B0413438360CA79120689
:10216000134383600820704700487047C1FC00009B
:1021700000487047A0FC00000048704732FC000097
:102180000048704711FC000000487047FEFB00004B
:1021900000487047DDFB0000004870474BFC000022
:1021A00000487047BCFB00009F23DB00C05C704709
:1021B00010B50400034B03607530FF3002F062FD80
:1021C000200010BD4802010070B50126054D064CE7
:1021D0002B68334203D1200001F0F8F82E60200074
:1021E00070BDC046900800209408002070B50126FC
:1021F000054D064C2B68334203D1200001F0E6F96F
:102200002E60200070BDC046480700204C0700200B
:10221000F8B5234F386803685B68984700283DD1BC
:10222000204B186804F072FF002837D11E4E30682A
:1022300003685B689847002830D11C4D286805F07A
:102240002BFD00282AD11A4C206803685B68984748
:10225000002823D1386803681B68984700281DD1DF
:10226000306803681B689847002817D1286805F074
:10227000CDFC002812D1206803681B68984700280D
:102280000CD1FFF7A1FF00F0CFFF002806D1094BCA
:102290001868002802D003685B689847F8BDC046FC
:1022A0006C170020681700206417002078170020A2
:1022B000701700207417002010B5FFF785FF01F09C
:1022C0004DF9FFF793FF02F055FB10BD0B0A0170AB
:1022D00043700B0C090E8370C1707047F8B583888A
:1022E00006000B7083880D001B0A4B7080680BF092
:1022F000B7FF0400A81C2100FFF7E8FF2200B16827
:10230000A81D0BF03DFAF0680BF0AAFF0700A31D13
:10231000E81839000A34FFF7D9FF3A00F1682819A4
:102320000BF02EFA30690BF09BFFE4190700281917
:1023300039000434FFF7CAFF3A00281931690BF05D
:102340001FFA7369E4192B551A0A2D196A701A0CB1
:102350001B0EAA70EB70201DF8BD4368F7B50B701B
:1023600043680E001B0A4B70436804001B0C8B7003
:1023700043681B0ECB700B1D0021DA1C944662686B
:102380008D1C5F1C981CAD008A420DD9E26801319A
:102390005519083D2A68100A1A705870100C120E50
:1023A0009870DA700433E8E7226900211A706246F7
:1023B00023691B0A3B7023691B0C037023691B0EE6
:1023C00013707319DA1C944622695F1C981C04353B
:1023D0008A420CD9A0698A0012580131100A1A7079
:1023E0005870100C120E9870DA700433EAE7E26944
:1023F0001A70E36962461B0A3B700027E3691B0CF5
:102400000370E3691B0E1370E369BB4215D9636A5D
:10241000BA0098580BF024FF019001997019FFF74A
:1024200055FF636ABA00043599587019019A0BF088
:10243000A7F9019B0137ED18E6E72800FEBD70B54E
:10244000037906000B7080680D000BF009FF040093
:10245000681C2100FFF73AFF681DB16822000BF0ED
:102460008FF9601D70BD002310B50360CA5CDC00ED
:10247000A2400468013322430260042BF6D110BD50
:10248000F0B50C000B7885B083804A780600120204
:1024900013438380023101A8FFF7E5FF611D0B00A4
:1024A000019A951D0133181B854203D91F78581EC8
:1024B0000770F7E70023A218537102A8B1606119F1
:1024C000FFF7D1FF029A2B1D9D181A00954204D9DF
:1024D000A05C511E60540132F8E700206119013BF5
:1024E000E3184A1E1070F36003A8FFF7BCFF039BBC
:1024F0000435E8182B00984204D9E15C5A1EA15417
:102500000133F8E700212218013D531E65191970A7
:102510003561537891781B020904D2780B43215C12
:1025200012060B4313430430736105B0F0BDF0B5E0
:102530004B780D781B022B438D7887B02D042B43ED
:10254000CD7804002D061D4343680E00AB4204D233
:10255000A900C0680BF03EFEE06000236560371DF7
:102560000193BA787B7812041B0213433A78134321
:10257000FA780437120613430293019B019A981CC0
:10258000830003931D00636893420DD92800210046
:10259000029B0838A360E3680422181808310BF086
:1025A000EFF8019B0133DBE72369029A934204D2DF
:1025B0009100A0690BF00EFEA061029B2361039BBA
:1025C000F71800230193BA787B7812041B02134397
:1025D0003A7804351343FA7804371206134302930A
:1025E000019A236993420CD92100029B90006361F8
:1025F000A3690422181814310BF0C2F8019B0133AF
:10260000E0E7E369029A934204D29100606A0BF01A
:10261000E1FD60620027029BE361E369BB421FD9D1
:10262000711905A8FFF71FFF059A2B1D9D181A00A9
:10263000954204D9B05C511E70540132F8E7002174
:102640007219013A11702100013BF3182362636A89
:10265000B8001818042220310BF092F80137DCE79B
:10266000280007B0F0BDF7B50C000B78050003712A
:10267000013101A8FFF7F7FE221D13000199481D43
:1026800001331E1BB04203D91F785E1E3770F7E777
:10269000002364182371AA60FEBD00001FB5054C1D
:1026A00001AB0392026819710194072114681A00A2
:1026B000A0471FBD80FB00000123F0B5814987B012
:1026C0000A68814C1340814D41D1814A8148226082
:1026D000E1221202A2609F22D200A3547E4A6560CA
:1026E000A05018001C32A3500832A3507B4A9A18FD
:1026F0000433A050642BF9D1002318009022D2009B
:102700009A18121904331060642BF7D10023802229
:102710001E0092001819013306779342FAD1002265
:1027200080261300B600872080001018001901329F
:102730000370B242F7D1A222D200A3500832A350B4
:10274000674AA361A350674AA35001230B60664FF9
:1027500066483C6005F05EFFA168606806F0FEFC1C
:102760000023634A0121A3500432A3500832A3502E
:10277000604A3868A350604AFFF790FF280006F0CF
:10278000EFFC0028FAD001235C4E5D4D34681C40FC
:1027900016D13B680593FFF729FD0A230293033303
:1027A0000193FA2302009B0005990094280003F08E
:1027B000E1F80123534A54492800336007F088FFA9
:1027C0000124524B1D60524D2B68234215D13B68AA
:1027D000504E05933368234203D14F4801F00AFA63
:1027E0003460012400230294009301940A334A4A7E
:1027F00005994A4803F0F2FE2C600126484B474AEF
:10280000484D1A602B68484C334207D1E123474AB0
:102810005B023968200004F0C3FC2E600126444BA3
:10282000444D1C602B68444C334205D1434A3968FF
:10283000200005F07BF92E60414B424D1C600124C5
:102840002B68234211D13B683F4E059333682342E6
:1028500003D13E4800F0F0FE34600A233B4A05995C
:102860003B4804F0E3FF01232B603A4C384B2360D4
:10287000FFF7AAFC396800F09BFC374B2348019313
:10288000364B374A00933749374B006803F04CF911
:10289000364B23480093364A3649374B006803F0DD
:1028A00037FD234B186804F037F9254B3349186876
:1028B00005F06AF9324A3349206804F021FF07B075
:1028C000F0BDC046CC080020EC0E0020242C0020D7
:1028D000B0FB000098FB00000C0500001C04000089
:1028E0001C0500002405000074170020B80B000030
:1028F000E4040000EC040000CFFC0000C408002049
:10290000DC08002000000020B12100006C1700202E
:10291000D00800209C020020A002002020140020EB
:1029200064170020D4080020281500208C270020E0
:1029300068170020D808002054160020C82900205D
:1029400078170020C8080020000600200406002098
:10295000C40D00207017002029FD000042FD00007A
:10296000FAFC000012FD0000E1FC00007AFD00000E
:1029700067FD000075FD00005AFD000086FD0000A7
:1029800097FD0000ADFD000070B504000E00632946
:1029900005DD9F230025DB00C35CAB4239D0136803
:1029A00021491B6861181000984787231F4A9B0024
:1029B000E2521F4AC3B2A3541E490212D2B2625459
:1029C0009B188822DB439200A3541B4B0522E6543C
:1029D0001A4B36B23612E6540023851D954206DBAB
:1029E000872189005118615C01325B18F6E7DB43EF
:1029F0000D4A0500201880180370802308359B00BD
:102A00009D4208DC60681C33E11803682A005B689B
:102A10009847280070BD0125094A03212000FFF7CF
:102A20003DFE6D42F5E7C04623020000FFFEFFFFBA
:102A30001E0200001F02000021020000220200000E
:102A400067FC00001FB5074B01AA01930023029306
:102A5000039303680A211B680400984705F0D4FD1E
:102A6000E0601FBD50FB00000022F0B5802705008C
:102A70002B4B89B0029302AB9A802A4B07920493A6
:102A800005930693284BBF00C4186433C618236807
:102A9000002B17D09A68586802A98A801A680368C0
:102AA00004929B6898472368059058680368DB6820
:102AB000984721682B68069007971B6802AA096946
:102AC000280098470434B442E1D18026174BB60061
:102AD000EB1801932068002818D0436802AA93805D
:102AE0008368049303689B6898470590206803688F
:102AF000DB6898472B68069020681F680368079674
:102B00005B68984702AA01002800B847019B04347B
:102B1000A342DFD19F230122DB00EA5409B0F0BDBC
:102B200068FB0000E10F01001C040000E404000049
:102B3000F0B5244B87B00393002304000E000493E8
:102B4000059305F061FDE3683100C51A03A8FFF79E
:102B5000EDFAFA212800890007F0EEFDFA21049B26
:102B60008900181804902800019307F06BFE164E98
:102B7000059B7143C9180193059105F045FDFA21A4
:102B8000049B8900070001935D1E07F0D5FDFA2123
:102B90002D1A0E4B2561059D38008900ED1807F0B0
:102BA00051FE20004E432100AE1B143166611030EF
:102BB00005F072F905F028FDA023DB00E05007B016
:102BC000F0BDC04650FB000040420F0000CA9A3BD7
:102BD000F8B5040005F018FDA023DB00E358774AA0
:102BE0000700C31A934203D99F230022DB00E2545B
:102BF000734D6359002B05D0724BE358BB4201D291
:102C000000236351A369002B17D1606803685B69D7
:102C10009847002819DA9F230025DB00E35CAB42CC
:102C200009D0694E694AA359FB1A934203D920007F
:102C3000FFF708FFA7512800F8BD05F0E5FCA369E0
:102C4000C01B9842E1D902258FE0614AA358C318FE
:102C5000A3506659072E0DD1043AA358591CE31806
:102C6000A1501877083AA358013BA350002BC9D1B3
:102C70000823C6E7002E12D1FF2806D10123635195
:102C80003B00504A1433A350BCE705F0BDFC514B48
:102C9000C01B9842B6D99F23DB00E654D3E7012E30
:102CA0000ED1FE2801D10223ABE7002363519F23FD
:102CB000DB00E35C002BA5D12000FFF7C3FEA1E7FA
:102CC000022E09D19D230021DB00E0500833E150A2
:102CD00003236351A05095E7032E07D19D23DB000A
:102CE000E25800021018E05004238AE7042E0BD1AA
:102CF000394A134003D5394A013B13430133FF2BB3
:102D000000D07DE7FA3B7CE7052E03D1344BE05041
:102D10000623DEE7062E0AD1314B0002E2581018D6
:102D2000E050072363519D23DB00E3589EE7082E04
:102D300000D067E700226251274A134003D5274A93
:102D4000013B13430133FF2B00D05BE7244BE358D7
:102D5000002B0CD101252000FFF774FE2000FFF7A7
:102D600083FE194BE7500433E7506D4263E70A2BAB
:102D700005D1210020001C31FFF7DAFE42E7062BC7
:102D80000AD12100174B1C31E018FFF7D0FB0123BB
:102D9000A122D200A35435E70B2B02D100239F229E
:102DA000F7E7BC339B001859002800D12AE721001F
:102DB00003681C311B68984724E7C046F82A0000C6
:102DC000E404000004050000FC040000C409000045
:102DD000F404000088130000FF00008000FFFFFFE4
:102DE000EC0400000C05000070B5040004300D0078
:102DF000FFF784F923692B5423692D181B0A6B7084
:102E0000236910301B0CAB7023691B0EEB7014226E
:102E1000A35E2B719BB21B0A6B711622A35EAB7172
:102E20009BB21B0AEB711822A35E2B729BB21B0A8A
:102E30006B721A22A35EAB729BB21B0AEB721C224E
:102E4000A35E2B739BB21B0A6B731E22A35EAB7334
:102E50009BB21B0AEB7370BD70B5040004300D000B
:102E6000FFF764F92A5C2D1822616B7810301B0281
:102E70001A432261AB781B0413432361EA781206DC
:102E8000134323616A792B7912021343A382EA79EF
:102E9000AB7912021343E3826A7A2B7A120213434C
:102EA0002383EA7AAB7A1202134363836A7B2B7B18
:102EB00012021343A383EA7BAB7B12021343E38327
:102EC00070BD000000487047FDFD000000487047DD
:102ED000DCFD000010B5FA24A400200005F09AFBE8
:102EE000FBE70000F7B51D1C071C081C0C490192EC
:102EF00008F0B8F9291C08F0E7FA0899061C381CF4
:102F000008F0B0F9011C301C08F0ACF9019907F089
:102F100037FE099C089B65602060A360F7BDC04632
:102F20000D68533BF0B51E1C802387B01B06C318E9
:102F3000051C059112984C490292009308F092F9F1
:102F4000169908F0C1FA0D99071C009808F08AF943
:102F5000179908F087F910990190281C08F082F958
:102F6000391C08F07FF9019907F00AFE029907F071
:102F700007FE11990290281C08F074F9391C08F01A
:102F800071F90E990390009808F06CF9179908F000
:102F900069F9039907F0F4FD311C07F0F1FD0C9974
:102FA0000490009808F05EF91799189C08F05AF9F7
:102FB0000F99061C281C08F055F9391C08F052F925
:102FC000011C301C07F0DCFD1799061C281C08F0BA
:102FD00049F9029908F046F9011C301C08F074FA0E
:102FE000291C061C381C08F03DF9049908F03AF930
:102FF000011C301C07F0C4FD059907F0C1FD1399B1
:1030000007F0BEFD029B0E996360049B2060A360E5
:10301000281C08F027F9391C08F024F9019907F059
:10302000AFFD0C9907F0ACFD1499E0600D9807F026
:10303000A7FD0E9B206163611099009808F012F9BA
:10304000179908F00FF9039907F09AFD0F9907F007
:1030500097FD109BA061E3611599119807F090FD11
:10306000206207B0F0BDC0460D68533B0B1C10B585
:10307000011C181C140008F027FA206010BD10B5C0
:10308000140007F07DFD011CFE20800507F012FFF3
:10309000206010BDF8B50F1C191C1D1C161C08F073
:1030A000E1F8069C391C2060281C08F0DBF8311C74
:1030B0006060281C08F0D6F8A060F8BDF8B50F1CB9
:1030C000191C1D1C161C08F0CDF8069907F058FDB8
:1030D000099C391C2060281C08F0C4F8079907F0E7
:1030E0004FFD311C6060281C08F0BCF8089907F0FF
:1030F00047FDA060F8BDF7B50D1C011CFE20800542
:1031000001921E1C08F0E0F9311C071C08F0AAF817
:10311000109C08992060381C08F0A4F80999606098
:10312000381C08F09FF880231B06ED18311CA060A6
:10313000281C08F097F80A9907F022FD0899E0602A
:10314000281C08F08FF80B9907F01AFD09992061E7
:10315000281C08F087F80C9907F012FD802212064F
:103160009446019B311C63446061181C1D0008F0EB
:1031700079F80D9907F004FD0899A061281C08F062
:1031800071F80E9907F0FCFC0999E061281C08F021
:1031900069F80F9907F0F4FC2062F7BD10B5C36819
:1031A0000A0019680C6881681800A04710BD00006B
:1031B000F0B5002924D00125144C154B22682A4073
:1031C00004D1144E5A601E609A6025600126124D8B
:1031D000124A2C68344004D1114F536017601461B7
:1031E0002E600CC00F4BC81800230468002C08D1B7
:1031F000D81DFF30800008187D3342609360D16095
:10320000F0BD01330430192BEFD1F9E77C17002012
:103210008417002050FB000080170020901700202A
:1032200020FE00001C04000070B503680400057A4D
:10323000002B0FD04268002A0CD0002D0AD0C168A4
:1032400051600169D868916001680E689968B0475B
:1032500000232372280070BD08230A4A11680B431B
:103260001360094B07221900353108784A330243AD
:103270000A70012219780A431A70022219780A4347
:103280001A7070471C040040004400410823124A91
:1032900011680B431360114B114A5A605A78D209D6
:1032A000FCD1104A5A805A78D209FCD10E4A5A8071
:1032B0005A78D209FCD10D4A5A805A78D209FCD1E9
:1032C0000B4A5A805A78D209FCD10A4A5A805A7855
:1032D000D209FCD17047C04618040040000C0040E1
:1032E0000401010004440000074400001A440000E7
:1032F0001B4400001C44000002230A4A11680B43CF
:1033000013608222084B52001A8106321A8104325D
:103310001A8104321A811422FF321A8101321A8171
:103320007047C04620040040000400422023234A86
:1033300011680B431360224A1300917AC909FCD12A
:1033400002201188814311809A7AD209FCD1198810
:1033500001320A431A809A7AD209FCD11A8892B2B1
:103360001A809A7AD209FCD1198880320A431A80CD
:103370009A7AD209FCD11A619A7AD209FCD1114AFF
:103380009A619A7AD209FCD1D97901320A43DA7169
:103390009A7AD209FCD199880132FF320A439A8085
:1033A0009A7AD209FCD1C021074A890053581B02DE
:1033B0001B0A5350082313607047C046180400408E
:1033C000001400400F27000000E100E0F8B5040001
:1033D00000250123056045602372184B07004361F7
:1033E000642301000383164B1C37C5600561C5616A
:1033F000036220313800260004F018FD012321006B
:10340000243630006362A562283104F045FD2300B4
:103410000B222C3339001A70300004F065FD2000B7
:10342000FFF71AFF2000FFF731FF2000FFF764FFCE
:103430002000FFF77BFF2000F8BDC0468096980073
:1034400040420F00C16070470222044B19880A43B2
:103450001A809A7AD209FCD17047C0460014004005
:1034600010B5040007485B001B5A200053430A8B29
:10347000211D5A4300236260236004F0D7FC200022
:1034800010BDC04610FE0000F7B50E0000244369D1
:103490000C4F019200936300D95B009807F04CF940
:1034A000310007F049F9019BE5B2984207D3013496
:1034B000082CF0D1C9210448FFF70CFD2500280095
:1034C000FEBDC04610FE000024FE0000002330B503
:1034D00003604360EFF3108372B6BFF35F8FBFF3F7
:1034E0004F8FBFF36F8F02000C3130C930C283F3AE
:1034F0001088BFF35F8FBFF34F8FBFF36F8FBFF3A2
:103500005F8FBFF34F8FBFF36F8F30BD10B5490092
:1035100089B2FFF7B9FF10BD010010B504001C31DE
:103520000C3004F0CDFC2369002B01D10133237250
:1035300010BD0000C368426A934209D10269836AE0
:103540009A4205D1034B044A5A60DA68D205FCD48A
:103550007047C046000400420000010270B505003B
:103560000F210C4C2C3523692A789BB20A40134159
:10357000DB070DD5084B1B889B0701D4FFF764FFC1
:103580000F232A7821691A400E3B93400B43236195
:1035900070BDC046001800400014004010B50A4B32
:1035A0001A7AD2070ED51A7AD2090BD001221A72D2
:1035B0007F321A72FEF708FEFFF7AEFFFEF704FE39
:1035C000FFF7B8FF10BDC04600140040E02313B55C
:1035D0001B0101A90B8000230400094A8B7000F035
:1035E0003FFAC421074B89002360074B07485A580C
:1035F00002405A508022D20220001A6016BDC046F6
:10360000002C004268FE000000E100E0FFFF00FF28
:1036100070B50126064D074C2B68334203D12000BC
:10362000FFF7D4FF2E60200000F09EF970BDC04669
:10363000480700204C07002013B5040003220B4963
:1036400001A80AF09DF801A9094A200000F008FA33
:10365000C421084A084B89002360535820001B02EC
:103660001B0A535080231B03136016BDA0FE0000ED
:103670000030004200E100E088FE000070B5012645
:10368000064D074C2B68334203D12000FFF7D4FFCF
:103690002E60200000F068F970BDC04600060020D2
:1036A0000406002013B5040003220B4901A80AF008
:1036B00067F801A9094A200000F0D2F9C521FF20CE
:1036C000074B89002360074B5A5882435A50802287
:1036D000520320001A6016BDC4FE000000340042F0
:1036E000ACFE000000E100E070B50126064D074C7D
:1036F0002B68334203D12000FFF7D4FF2E60200057
:1037000000F032F970BDC046A4170020A8170020B1
:1037100070B504000500FC34636CDA7BD209FCD17F
:1037200002211A888A431A80626CD37BDB09FCD1A0
:10373000E0202B7911881B02C00003400B4313804B
:10374000636CDA7BD209FCD1198860320A431021FC
:103750001A80626C93798B439371636CDA7BD20924
:10376000FCD120219A798A439A71636CDA7BD20961
:10377000FCD12A0028321278002A07D00222997937
:103780000A439A71626CD37BDB09FCD12B68280059
:103790005B699847626CEB8B5383626CD37BDB096C
:1037A000FCD1517B203319435173626C917B0B43E5
:1037B0009373636CDA7BD209FCD1198802320A4315
:1037C0001A80626CD37BDB09FCD170BD70B504003C
:1037D000FC34636CDA7BD209FCD102211A888A435B
:1037E0001A80626CD37BDB09FCD1E0250379118858
:1037F0001B02ED002B400B431380636CDA7BD20974
:10380000FCD1198820320A431A80636CDA7BD20912
:10381000FCD110219A798A439A71636CDA7BD209C0
:10382000FCD1020028321278002A07D1997901329E
:103830000A439A71626CD37BDB09FCD103685B6934
:1038400098471023616C4A7B1A434A73626C917BE0
:103850000B439373636CDA7BD209FCD11988023273
:103860000A431A80626CD37BDB09FCD170BD030074
:1038700010B5FC335A6C13885B069B0F012B02D1E9
:1038800000F048FE10BD13885B069B0F032BF9D197
:1038900000F043FEF6E713B59C24640001553A247A
:1038A000FF340255393CFF3C009400F089FF13BD02
:1038B00070B5040000F0CAFEE36820009DB200F07D
:1038C000F1FEFC34636BED18013D636C4519ADB23C
:1038D0001D83A36B626B9A18A2630022626370BDA2
:1038E0000300F0B504000D00FC335A6889B00132C2
:1038F0005A6001331B7804A80093C0CDC0C02700D4
:1039000006A860C960C0F43739680292009A8C46F4
:1039100051424A4102AB1A716146182225004A43BE
:10392000A2180197F83504322E6883CB83C21100A8
:1039300085CB85C160460A21013006F083FF019BDB
:103940001960092E00D801362E60E378002B08D0CC
:10395000009B002B05D12B68012B02D9013B2B606A
:10396000F9E709B0F0BD0000F0B50600FC36736C55
:1039700085B09A7B0400D20721D501259D730300F1
:10398000224F203301933B682B4203D12048FFF79D
:103990001DFD3D60736C1E491A8B02A8237901320C
:1039A000FFF75EFD02A9019804F08AFA236820005F
:1039B0005B699847200001F01FF805B0F0BD9A7BC5
:1039C000D20614D510229A7300F0BAFF23002833D0
:1039D0001A789042F1D022002532FF321278002A64
:1039E000EBD1210018002031FFF77AFFE5E79A7B41
:1039F0009206E2D520229A7323002533FF331B78E9
:103A00002830002BD9D1A118EEE7C046900800203D
:103A100094080020FC30436C10B50400002B03D147
:103A2000C9210E48FFF756FA636CDA7BD209FCD144
:103A300002211A888A431A80636CDA7BD209FCD18E
:103A4000598923320A435A810123616C4A7B1A4304
:103A50004A73626C917B0B43937310BDC7FE0000E9
:103A600070B50400150000F00BFD054B2000083375
:103A700023602300FC335D64FFF7CCFF200070BDA2
:103A8000F8FE00007047000070B502250A4A0B4C92
:103A900013680F212B431360094B238100F0F2FAC6
:103AA000FE230004DB031840064B18436060E36804
:103AB0001B0A2B42FBD170BD2004004000040042D1
:103AC000070200000100000202230C4A10B5116831
:103AD0000B4C0B431360A123DB0023810B2100F06F
:103AE000D1FAFE231022DB0300041840054B1843D3
:103AF0006060E3681B0A1342FBD110BD2004004044
:103B000000040042040000021FB5A2235B00C35C56
:103B100004005A1E9341013303931E4BC25C013BC8
:103B2000C15C0123009303AB00F04AFE2000FFF7C5
:103B3000CBFF2000FC30436C9A689207FCD4022132
:103B40001A688A431A60426C93689B07FCD48023EE
:103B5000116ADB02194311628022416CD2040C68A5
:103B600022430A60416C8A6A1A438A62426CD16AB3
:103B70000B43D362436C9A689207FCD49A6892070D
:103B8000FCD4022219680A431A60426C93689B07AE
:103B9000FCD41FBD5D030000FC30436C9A689207A3
:103BA000FCD402211A688A431A60436C9A6892070F
:103BB000FCD41A680E490A401A60426C93689B074D
:103BC000FCD48023916A1B0319439162426CD16A31
:103BD0000B43D362436C9A689207FCD402221968A3
:103BE0000A431A60426C93689B07FCD47047C04636
:103BF000FFFFFFF713B503220400134901A809F0E2
:103C0000BFFDF0236A461B0101A9138020000F4B62
:103C100000F056FA0E4BB02208332360D72312016E
:103C20009B00E2520B4B2000A360E360FFF7B4FF60
:103C3000C321094A8900535820001B021B0A535014
:103C400080231B02136016BD18FF000000200042F5
:103C50001CFF0000FFFFFF0000E100E070B501263F
:103C6000064D074C2B68334203D12000FFF7C2FFFB
:103C70002E60200000F0F4FA70BDC0469C020020C7
:103C8000A002002002230C4A10B511680B4C0B4314
:103C900013600B4B1421238100F0F4F9FE2304225E
:103CA000DB0300041840074B18436060E3681B0AFD
:103CB0001342FBD110BDC046200400400004004266
:103CC0000D03000002000002E02313B5DB0001A990
:103CD0000B8000238B70A0236A4604005B011380D5
:103CE0000A4B00F0EDF9C421FF20094B890008338D
:103CF0002360084BA360E360074B5A5882435A5035
:103D00008022520220001A6016BDC04600240042E4
:103D100040FF0000FFFFFF0000E100E070B501265A
:103D2000064D074C2B68334203D12000FFF7CCFF30
:103D30002E60200000F094FA70BDC046EC18002000
:103D4000F018002002230C4A10B511680B4C0B43ED
:103D500013600B4B1521238100F094F9FE230822F8
:103D6000DB0300041840074B18436060E3681B0A3C
:103D70001342FBD110BDC0462004004000040042A5
:103D8000110400000300000213B5032204000E49D1
:103D900001A809F0F5FCA8236A465B01138001A97C
:103DA0000A4B200000F08CF9C421094B890008332C
:103DB0002360084B08485A5802405A508022920209
:103DC00020001A6016BDC04664FF000000280042B3
:103DD00068FF000000E100E0FF00FFFF70B5012672
:103DE000064D074C2B68334203D12000FFF7CCFF70
:103DF0002E60200000F034FA70BDC0464C1C00203C
:103E0000501C002070B504000500FC34636C9A68F7
:103E10009207FCD402211A688A431A60626C936884
:103E20009B07FCD4E0202B7911681B02C0000340E3
:103E30000B431360636C9A689207FCD40122D96B20
:103E40000A43DA63636C9A689207FCD41A681D49C6
:103E50000A401A60636C9A689207FCD42A002832E0
:103E60001278002A08D18022996952020A439A6185
:103E7000626C93689B07FCD42B6828005B699847A9
:103E8000626C93681B05FCD4EB685B081365626C7D
:103E900093681B05FCD48023916A5B0219439162ED
:103EA000626CD16A0B43D362636C9A689207FCD44C
:103EB000022219680A431A60626C93689B07FCD45B
:103EC00070BDC046FFFFFFFE7047030010B5FC3316
:103ED0005B6CDB6B5B075B0F012B01D100F01AFB06
:103EE00010BD70B5060000F0B1FB3400FC340028B2
:103EF00003D0F368626C5B0813653000F56800F06E
:103F0000D1FB626B013DAD18636C28185864A36B3C
:103F1000626B9B18A3630023636370BD0300F0B55D
:103F2000FC331A7889B00400002A3BD10D005A688E
:103F300004A801325A6001331B780093C0CDC0C081
:103F4000270006A860C960C0F43739680292009A59
:103F50008C4651424A4102AB1A7161461822250033
:103F60004A43A2180197F83504322E6883CB83C2E6
:103F7000110085CB85C160460A21013006F062FC44
:103F8000019B1960092E00D801362E60E378002BC2
:103F900008D0009B002B05D12B68012B02D9013BD7
:103FA0002B60F9E709B0F0BDFC30436C10B504009C
:103FB000002B03D1C9210E48FEF78CFF636C9A6871
:103FC0009207FCD402211A688A431A60636C9A68CB
:103FD0009207FCD4196A074A0A431A620123616CEA
:103FE0008A6A1A438A62626CD16A0B43D36210BD3B
:103FF0008CFF0000034000001FB5D3239B00C15C71
:104000001F4B0400C25C032303930023009303AB04
:1040100000F0D6FB236820009B6998472000FC3005
:10402000436C9A689207FCD402211A688A431A608A
:10403000426C93689B07FCD48023116A9B0219434E
:1040400011628022416C92040C6822430A60416C28
:104050008A6A1A438A62426CD16A0B43D362436C08
:104060009A689207FCD49A689207FCD402221968D5
:104070000A431A60426C93689B07FCD41FBDC0467C
:104080004D0300000F2008400C30704710B5034B63
:10409000C25C013BC15C00F045FC10BD4D0300005B
:1040A000010003000022F0319A60DA601A615A615F
:1040B00018338B42F8D10100F4310A601A6070475E
:1040C000F8B5040017001D0000F0DAF9274B2000B6
:1040D000083323602300FC335D64A22300255B00CA
:1040E000E55423004533FF3349305D70FF309D7048
:1040F000DD70FFF7D5FF902301261D4A9B00E318D2
:10410000A2181D7015701B4A7642A21815705E60C9
:1041100092239B00E554E3185D709D70DD7093233E
:104120009B00E018FFF7BCFFD123134A9B00E31864
:10413000A2181D701570114A3900A21815705E6022
:10414000D3239B00E018022209F01AFBD42322009B
:104150009B00E318203203CA03C3D6239B00E6501A
:104160002000FFF721FF2000F8BDC046BCFF000083
:104170004102000042020000450300004603000027
:104180000300F4331B6870B504000D0000208B425F
:104190000ED92200F03210680A210A30C01A06F047
:1041A00051FB48190A2106F04DFB182048432018FE
:1041B00070BDF0B585B007000191EFF31083029355
:1041C00072B6BFF35F8FBFF34F8FBFF36F8F0500E2
:1041D0000024F835031D2E680393B44226D0210035
:1041E0000398FFF7CDFF0379002B31D03C00F43466
:1041F00003942E68002E19D0019B002B0FD0039B37
:104200000A2118680A30801B06F01CFB182359434A
:10421000019B7918043115C915C315C915C3013E91
:10422000019B2E6018790028E3D000E00020029B5B
:1042300083F31088BFF35F8FBFF34F8FBFF36F8F90
:10424000BFF35F8FBFF34F8FBFF36F8F05B0F0BD2C
:104250000134C2E710B54530FF30FFF7AAFF10BDAB
:10426000F0B50600FC36736C8BB0DA6A0400D20736
:1042700019D50122DA62FDF7A7FF736C01005A6CB1
:1042800004A823790132FFF7EBF8200004A92030BD
:1042900003F016FE236820005B699847200000F0B9
:1042A000ABFB0BB0F0BDDA6A12030FD5802212030C
:1042B000DA62D42302009B00C318203203CA03C36E
:1042C000736C1A6DD6239B00E250EAE7DA6AD203D8
:1042D0000FD580225202DA6200F032FB230028332D
:1042E0001A789042DDD0210018002031FFF716FE29
:1042F000D7E7DA6A920300D49AE01A6B9B6C04AD9C
:10430000019302AF930346D5D6239B00E2582300C6
:10431000019920338A4202D8D4239B00E3183A0043
:1043200003CB03C2FDF750FF23790100019A280057
:10433000FFF796F82900380003F0C2FD230025336B
:10434000FF331B78012BACD1F36A39000133F362E0
:10435000082206A8019309F013FA0822390008A8D8
:1043600009F00EFA1821019B306A0493002341439F
:1043700064182C342B712300776A16CD16C30130D4
:1043800016CD16C30A2106F05DFA3162092F00D856
:104390000137776285E7FFF779FE23002A331B7820
:1043A0009842B1D1D6239B00E258230001992033D3
:1043B0008A4202D8D4239B00E3183A0003CB03C2FD
:1043C000FDF702FF23790100019A2800FFF748F862
:1043D0002900380003F074FD756A002D00D160E7F4
:1043E00023002733FF331B78012B07D12000691EE0
:1043F0002C30FFF7C5FE10300CCF0CC02300283343
:104400000193FD331F78012F00D04AE72000691E79
:104410002C30FFF7B5FE019B0771DB78002B00D134
:104420003FE7736A012B00D83BE7013B7362F8E773
:10443000DA6A520300D434E78022D202DA62736C63
:10444000D96CD6239B00C258083BC318914201D2B5
:104450000300203302AD2A0003CB03C2FDF7B4FEF4
:10446000736C0100DA6C04A82379FEF7F9FF04A944
:10447000280003F025FD20004530FF30290035E7F6
:10448000F8B50500214B00240360214B0E0083602A
:10449000C3602900012304710362048244618461C2
:1044A000C46144622431203003F0F6FC2B002A0062
:1044B00028331D321C70FF325C709C70DC7004333A
:1044C0009C60DC601C615C6118339342F8D12B0066
:1044D0002F002533FC37FF337C623C6228001C70C0
:1044E0005C709C7001232D305B42FB623100032223
:1044F000FF3009F045F92B00FE337C63BC635C8719
:104500003C64FDF761FE2800F8BDC046E8FF0000EE
:10451000FFFF0000490081837047818370470000DE
:10452000F7B501901D0003791400164A5B00985AF4
:1045300008F06AFF02000B000020134907F04EFD4F
:1045400022002B0008F054F90022104B04000D004B
:1045500007F028FA0022002306000F00200029009F
:1045600006F076FA00220023002800D0084B300025
:10457000390008F0AFFB08F011FF019CFC346063C8
:10458000F7BDC04600000100D01263410000E03FCB
:104590000000F03FF0B5428B87B004000F00038BA2
:1045A0008A4239D0002B39D10379234A5B009B5AC8
:1045B000866801935E43300008F060FF0B00020044
:1045C0001E49002007F00AFD06F0BCFA3100050084
:1045D0001B4806F037F94B1E99416D182B1CADB2E4
:1045E000BD4200D23B1C9DB26383A383019B5D430C
:1045F0006561280008F042FF02000B0000200F490F
:1046000007F0ECFC06F09EFA2900E0600C4806F08A
:1046100019F9218207B0F0BD002BFBD0094B03AA8A
:1046200003930323FC341371074B206C93600368DE
:1046300007211B689847EDE700000100D012634195
:104640008096980080FB00001000010030B5828B3E
:10465000438B85B0040000259A421DD06D460300AF
:104660002A00203303CB03C2FDF7AEFD2200FC324B
:1046700001002379926B02A8FEF7F2FE280002A93E
:1046800003F032FC6B685D425D41EDB2002B03D15B
:10469000A18B2000FFF77EFF280005B030BDFC3065
:1046A000C162704710B50400008B238A6169C0188D
:1046B00080B206F0C7F880B2218310BD08231A4AE1
:1046C00070B511680B4313602E229623FF325B00F6
:1046D000845CC35C6110DB015B1814495B18E40760
:1046E0001ED540211C782143962419706400015D79
:1046F000835CC9015B1801210D4E9B191D7829436C
:10470000197097235B00C35C002B08D0835C4022A8
:10471000015DC9015B189B1919780A431A7070BDB5
:104720001C780421DFE7C0461C04004030440041EF
:104730004044004170B504000D00FDF745FDA2683E
:104740002900FEF7E3FE6D00A9B220712000FFF7FB
:1047500021FF23682000DB6898472000FFF7AEFFA9
:1047600070BD000070B504000D001600FDF72CFDB3
:10477000A2682900FEF788FE290020712000FFF7BB
:1047800009FF300008F040FE00220B4B08F030F823
:1047900006F0D8F92379094A5B00995A06F052F8D5
:1047A0004B1E994123680818E0831B692000984735
:1047B0002000FFF783FF70BD0000244000000100CF
:1047C000F0B505A806780820484CC901256828439B
:1047D0002060012425009540454808184560551083
:1047E0004019303004785118E4B204704148091877
:1047F00001200C782043087002200C7820430870B8
:104800001C68631E022B05D83B4B3C4959805978E4
:10481000C909FCD140233A49086803430B60394B6E
:1048200019005878C009FCD102251878A8431870DF
:104830004B78DB09FCD10F200125104085404B68E7
:104840002B434B6002230F2A03D8053393429B412D
:104850005B42072706333A40501E9B003C40CA5833
:10486000062805D805F05EFF072E3235383B3E009E
:10487000BA43144304E020017024A243140004430B
:10488000CC50002E05D0CB682B43CB600B691D4369
:104890000D614B78DB09FCD10A78023313430B70AE
:1048A0004B78DB09FCD1002E0BD0C120FF21164B29
:1048B00080001A588A43110080220A431A5010229D
:1048C0001A60F0BD2002114C1440D8E72003104CB0
:1048D000FAE720040F4CF7E720050F4CF4E7200619
:1048E0000E4CF1E70E4824070240C2E71C040040CA
:1048F0000044004140440041000C004005440000D9
:10490000180400400018004000E100E0FFF8FFFF3D
:10491000FF8FFFFFFFFFF8FFFFFF8FFFFFFFFFF895
:10492000FFFFFF8F054BC901C91801239340086A97
:104930001840431E9841C0B27047C0460044004131
:1049400096235B00C35C074ADB019B182E22FF32D3
:10495000825C012090401B6A1840431E9841C0B2FF
:104960007047C0460044004110B52830FFF721FCD5
:1049700010BD00003A22F0B51E4CFF32815C236965
:104980002B3AFF3A11409BB20B41012785B00191B0
:104990003B422DD00600FC36756A002D22D0030064
:1049A00028330293FD331B78022B1BD12C3003904C
:1049B000306A0A210A30401B05F044FF013D4819C6
:1049C0000A2105F03FFF18204843039B1818029B5B
:1049D0000771DB78002B05D0736A012B02D9013BEC
:1049E0007362F9E70123019922698B401343236124
:1049F00005B0F0BD00180040D0B50400406A08F0D2
:104A00003DFD00220C4B06000F0006F035F8002893
:104A100011D00022094B3000390006F019F80028A7
:104A200009D0FDF7D1FB226AC3689A4203D0FDF793
:104A3000CBFBC3682362D0BD84D7A74184D7C741CD
:104A40000F2210B50B4B0C4C1B8C0C4913400C4A1D
:104A5000137022789B00D2B25A500A4A9B58002BFE
:104A600000D0984702232370013B23700333237047
:104A700010BDC046004800414E4800418021002042
:104A80003F480041B02100200B4B1B68002B12D186
:104A900020220A4B59690A435A611022D9690A43F4
:104AA000DA614022064B1A60064B074A5A63074AEE
:104AB0009A63074A1A807047E021002000040040F2
:104AC00000E100E00048004100200020C02000205C
:104AD000020F0000094B70B50F261D00022441682B
:104AE0003F353140297040331978A14319708268ED
:104AF00032402A701A78A2431A7070BD00480041F3
:104B0000F0B585B000930F23039242684A4D1340DD
:104B10004A4A04001370944602222B78484E93436D
:104B20002B70012318002B7067683269B8408243EC
:104B3000FC203261227B800112021040802212048C
:104B400002437264072200273E48027062683E48B2
:104B5000920017502268E7612832A2616A461288E3
:104B6000238201926A46928861616282E318DB7F48
:104B7000344A67460292012B04D0009BC918334B7C
:104B800061612382230010330293636810221801AD
:104B90002F4B0299C01808F0F3FD0F23A2681340B1
:104BA00002223B702B789343013A11002B702A703C
:104BB000A068336981408B43FC213361637B8901A9
:104BC0001B020B40802109040B43736407231D491A
:104BD0001D480B700021A3689B0019502368E161F8
:104BE000283363616B469B8822826382039BA361A7
:104BF000A318DB7F8B4206D0009A039B9446634444
:104C0000A361144B2382A36802991801104B102250
:104C1000181808F0B5FD0F20636803403B700223AD
:104C2000297819432970A26802403A702A78134300
:104C30002B7005B0F0BDC046404800413F480041E0
:104C4000004800414D48004180210020010400003F
:104C5000002000200108000070B5040025000800B5
:104C60002160012103F04CFE01CD012103F094FEEF
:104C700028001E22FF2108F09FFD3E232000237103
:104C800070BD000010B504000348FFF723FF034880
:104C900003F09AF9200010BDB01F0020402500202D
:104CA00037B500246B466A465C7103230500137117
:104CB000019A0449044803F08FF92868210003F0A1
:104CC0006BFE37BD40420F004025002010B501218A
:104CD000006803F061FE024803F09AF910BDC04677
:104CE0004025002070B50C000500FFF7D9FF104EDD
:104CF0002100300003F0A0F90021300003F09CF9FE
:104D00002800FFF7E3FF2800FFF7CAFF002130006B
:104D100003F092F900210400300003F08DF9060041
:104D20002800FFF7D3FF2002304300B270BDC04619
:104D30004025002070B50400FFF7B2FF0222184D95
:104D4000211D6B1CDA7722001E2322322800FFF778
:104D5000D7FE6B6813499A00AB689B005058002837
:104D600002D158580028F9D02800FFF7B3FEA0233D
:104D70005B00013BFDD10121206803F00DFE0A48D4
:104D800003F046F9002309482434E256E1181202E0
:104D90001A5249780A431A5202331A2BF5D170BDC0
:104DA000B01F00208021002040250020E01F0020AF
:104DB000F8B58023140080260500194312127F33B2
:104DC0001C401A4009020C43760011430E43FFF7C2
:104DD00067FF0F4F310A380003F02EF9F1B23800A7
:104DE00003F02AF92800FFF771FF24B22800FFF72B
:104DF00057FFA1B23800090A03F01EF9E1B23800EA
:104E000003F01AF92800FFF761FF0120F8BDC04642
:104E10004025002010B5040000221A21FFF7C8FF2A
:104E200000221C212000FFF7C3FF00221E212000CA
:104E3000FFF7BEFF002220212000FFF7B9FF00226C
:104E400022212000FFF7B4FF002224212000FFF7D9
:104E5000AFFF002226212000FFF7AAFF0022282111
:104E60002000FFF7A5FF00222A212000FFF7A0FF66
:104E700000222C212000FFF79BFF00222E21200082
:104E8000FFF796FF002230212000FFF791FF062256
:104E900034212000FFF78CFF012236212000FFF78C
:104EA00087FF0F4A38212000FFF782FF00224021B0
:104EB0002000FFF77DFF002242212000FFF778FF4E
:104EC000002244212000FFF773FF0022462120002A
:104ED000FFF76EFF002248212000FFF769FF10BD99
:104EE0000204000010B50400284803F045F8200033
:104EF000FFF790FF02223E212000FFF759FF80229A
:104F00003E212000FFF754FF9620400003F082FB73
:104F1000162234212000FFF74BFF142003F07AFB08
:104F20001B4A32212000FFF743FF142003F072FBDD
:104F3000002236212000FFF73BFF142003F06AFB1C
:104F400080223821D2002000FFF732FF142003F026
:104F500061FBFFF799FDFF220E4CE31CDA7721007D
:104F600022002231213201232000FFF7C9FD6368AE
:104F700009499A00A3689B0050580028FCD0585853
:104F80000028F9D02000FFF7A5FD10BD4025002026
:104F900002020000B01F002080210020F0B5082090
:104FA00001250C68176866087C402C4201D01C68FB
:104FB00066400E60146801386408C0B214600028AE
:104FC000EFD1F0BDF0B58C1C183107000E00FF25A5
:104FD000114B85B00393114B00930022A35E6946E9
:104FE0001A122A402B400292019301AA03AB380007
:104FF000FFF7D4FF023403AB02AA69463800FFF77B
:10500000CDFFA642E9D1009BDB43180A28401B02D2
:10501000184300B205B0F0BD21100000FFFF0000F2
:10502000044B054A1A6000225A6001329A60034A12
:105030009A817047B01F0020001800420A09000042
:1050400010B50A304822002108F0B6FB10BD70B53B
:1050500004000325FFF7F4FF2A000021200008F0D8
:10506000ABFB60190422002108F0A6FB2A00E01D1A
:10507000002108F0A1FB2300002252331A70012303
:10508000A365E36523666434227070BD02000023CB
:10509000523210B5137001228265C26502660200A9
:1050A000040064324365137093809371C366036791
:1050B000FFF7CDFF200010BD836D002B03D1C36D22
:1050C000002B00D10366006E0138431E9841C0B228
:1050D000704773B51E006B4610001500DC1DD971BA
:1050E00009F0BEF8B0420DD223782C2B0AD00D2B3C
:1050F00008D0202293430A2B04D01F3A2100280015
:1051000009F0B5F873BD2A2903D05230037859400D
:105110000170704713B504000A49032201A808F082
:105120002FFB01A9200009F091F8002806D1A06505
:10513000A06D0138431E9841C0B216BD0123A3657E
:10514000F6E7C0464200010013B5094B040001A96F
:105150000330019309F07AF8002806D1E065E06D8C
:105160000138431E9841C0B216BD0123E365F6E73E
:105170005A44410010B50400C36D6434002B09D1BA
:10518000010022780A31683000F050F923780133A9
:10519000237010BD0020F9E710B504001022002193
:1051A000073009F0FDF852342378C0B2181A434290
:1051B0005841C0B210BD70B504000E00052908D8D2
:1051C000080005F0AFFA03060B1920272000FFF7AF
:1051D0003EFF2000FFF734FF666570BD636D012B55
:1051E000F7D12000FFF796FF0500002DF1D1200038
:1051F000FFF72DFF6565F0E7636D022B04D12000FA
:10520000FFF7A2FFF0E7636D032BE2D12000FFF769
:10521000B1FFE9E7636D042BDBD12000FFF7BCFF92
:1052200005002000FFF748FF0540EDB2DDE770B54F
:105230000400406D0D00042844D805F073FA0308FB
:105240001B2838000121242D10D0206E70BD2000B5
:10525000FFF759FF2900022322002000FFF739FF42
:10526000200008F0FDFF01000228EED12000FFF72A
:10527000A2FFEAE72000FFF746FFE21C0323290014
:105280002000FFF726FF2C2DDFD10321EEE72000C1
:10529000FFF739FF220047230A3229002000FFF7D9
:1052A00018FF2C2DF1D004212A2DCED1DEE7E21DEE
:1052B00002232000FFF70DFF0D2D01D00A2DC4D1D0
:1052C0000521D3E70021D1E7F0B5002585B000AF77
:1052D000B860456008000E0008F0C2FF01230628F0
:1052E00043D9B2792B002E2A3FD1013307283CD075
:1052F0006B460738C4B230007B6008F0B1FFA31DD5
:10530000834280414342FB60230069460833DB0847
:10531000DB00CB1A9D46621C290068463B6008F002
:105320004BFAF11D2200684608F02AFA68466B46DF
:1053300009211A1A94420ADD2E001A780133303AF4
:1053400091426E413200FE681640FE60F1E70A228B
:105350000021386809F0BCF8431C5A1E9341FA68D2
:105360001340BA6850607A6895461800BD4605B08B
:10537000F0BD0000010010B54C6886B0437A027A97
:1053800004948C780C3003944C7802940C7801943B
:1053900049890091024908F039FF06B010BDC046A6
:1053A00045000100F0B5140085B000AF0500F960BC
:1053B000BB6008F055FFFB6869461B19013B83423F
:1053C000804123000833DB08DB00CB1A9D46621CBA
:1053D0000021464268467B6008F0EEF9FB68220037
:1053E000E918684608F0CCF9EC466B460920002124
:1053F00062469A1A944207DD0D001A780133303A5A
:1054000090424D412E40F3E70A220021786809F0CE
:105410005FF8FE22002382425B41BA683340002AD3
:1054200000D010701800BD4605B0F0BDF0B585B0D5
:1054300000AF04000E00052A26D8100005F072F90E
:10544000032D35386C6C2300022200213000FFF759
:10545000A9FF022205001100631C3000FFF7A2FF24
:105460002B000340DBB21D000222A31C04213000EC
:10547000FFF798FF2B003100034020001D00FFF7CD
:1054800023FF2840002847D123220021200008F0D4
:1054900093F90020BD4605B0F0BD23000833022279
:1054A00000213000FFF77EFFECE723000933F6E729
:1054B0006B4608003B6008F0D3FE032383429B4108
:1054C0005B427B600C230025FB181D70082304221F
:1054D0003100F81808F054F92E0009220823310091
:1054E000FB185B5D0135303B9A4271410B007968D6
:1054F00019407960042DF1D108230A22F8180021FF
:1055000008F0E6FF074A030082427641638178682B
:105510003B6830409D46B5E72000FFF72BFF012098
:10552000B8E7C046FEFF000070B5040004300D006F
:10553000FCF7E4FD23692B5423692D181B0A6B70BB
:1055400023690A301B0CAB7023691B0EEB7014220D
:10555000A35E2B719BB21B0A6B711622A35EAB710B
:105560009BB21B0AEB711822A35E2B729BB21B0A23
:105570006B7270BD70B5040004300D00FCF7D6FDF1
:105580002A5C2D1822616B780A301B021A432261B3
:10559000AB781B0413432361EA781206134323619B
:1055A0006A792B7912021343A382EA79AB7912024A
:1055B0001343E3826A7A2B7A12021343238370BD6A
:1055C00000487047B4010100004870479301010092
:1055D00070B5050004300C00FCF790FD2B692354D6
:1055E0002B6924181B0A63702B6906301B0CA370EF
:1055F0002B691B0EE3701422AB5E23719BB21B0A56
:10560000637170BD70B5040004300D00FCF78EFDB1
:105610002A5C2D1822616B7806301B021A43226126
:10562000AB781B0413432361EA781206134323610A
:105630006A792B7912021343A38270BD0048704728
:10564000EC01010000487047CB01010070B5050076
:1056500004300C00FCF752FD2B6923542B692418ED
:105660001B0A63702B6906301B0CA3702B691B0E81
:10567000E3701422AB5E23719BB21B0A637170BD91
:1056800070B5040004300D00FCF750FD2A5C2D18A5
:1056900022616B7806301B021A432261AB781B042F
:1056A00013432361EA781206134323616A792B7945
:1056B00012021343A38270BD004870472402010008
:1056C0000048704703020100F0B5040001209B4927
:1056D00087B00B6803400BD1994A9A4D93601560CF
:1056E000994DD3605560136153619361D361086034
:1056F0002600FC36736F019300230293019B002B5D
:105700002FD0306F0A210A30C01A05F09BF88C4A5E
:105710004B01E3181800110034300831A0C8A0C1B3
:10572000D96B019D1161991CC98F013D9182191D91
:10573000C98FD182991DC98F118319000831C98F72
:10574000518319004A331B884831D38301230988C8
:1057500075679183A0680293002802D01100FDF7BD
:105760001DFD012079490B68034009D1784A794D24
:1057700093601560744DD360556013619382086027
:10578000B02300259B00E658AE422CD0043BE31822
:1057900018680A210A30801B05F054F81823594371
:1057A0006B4A63181D0010009C46D5350830FF3544
:1057B00088CD88C06346DD33FF331B68013E13612B
:1057C0002300CD33FF335B189B8A01259382B023DE
:1057D0009B00E3181E60DC235B00E058002802D029
:1057E0001100FDF7DBFC01205B490B6803400AD187
:1057F0005A4A5B4E93601660534ED36056601361F5
:10580000536113830860F8239B00E658002301933B
:105810009E423CD0F0239B00E318D8690A210A304D
:10582000801B039305F00EF81C204C4B48431900D5
:105830002218083101920A00B32189008C4601998F
:1058400004908C44614681C981C2B521019A8900C6
:105850005118096804981961B12189006118091863
:10586000888AC98A013ED982B721890052181288D4
:1058700098821A83039A1662DA225200A058B43A28
:10588000FF3A0192002802D01900FDF787FC0120A1
:1058900034490B68034009D1334A344E9360166093
:1058A000294ED36056601361938208609B230027C2
:1058B000DB00E658BE4233D0F43BE31805932C4B93
:1058C0000A21E31818680A30801B04F0BBFF264B3E
:1058D0001822180008304A430100FB20800084464B
:1058E0000392A21894446046049284C884C1FD20A7
:1058F000049A80001218126803991A61059A013EF1
:1059000051188A8A01279A829B22D200A218166017
:10591000DE225200A058002802D01900FDF73EFCFC
:10592000029B002B08D1002D03D1019D002D00D139
:105930003D00280007B0F0BD029DFAE7E8210020F5
:1059400014220020CCFD000050FB0000F0210020BC
:105950005022002088000100EC2100203422002089
:1059600070000100F421002068220020A000010046
:10597000D4040000F0B504002600C5B001934AAB82
:105980001F784BAB1B78753600934CAB1D7801F03C
:1059900083FD4F4BFF360833290023603000FFF7AB
:1059A0005BF9DA2200235200A3500432A3500432E0
:1059B000A3500432A3500432A350AF210432A350A9
:1059C00022008900CD326018424D4349FF321560F4
:1059D00051609360D3601361938218328242F6D192
:1059E000B0208000201803601360F722B1239200DA
:1059F000A01800229B00394DE3181D6059609A6081
:105A0000DA601A619A82DA821A831C338342F4D1F3
:105A1000F0239B00E3181A62DA61F9230025304A6B
:105A20009B0030482C49E318A218186059609D600B
:105A3000DD601D619D8218339342F6D19B22D20016
:105A4000A21815606A461D60274B1278E550274B57
:105A50003000E754264BE254FFF744FAE068002890
:105A600032D0002303A90B7001234D708D70CB70D1
:105A7000002304AA40AD9360D360136153611832D0
:105A8000AA42F8D1022602AD0235FF354193409378
:105A90002E7002AD033542AAFF3513702B7082229F
:105AA000012352005B422830439307F069FE0199BD
:105AB000E068FEF73FFE0123E06803930368009A65
:105AC0001D68390003ABA847200045B0F0BDC046B3
:105AD000400201008800010050FB0000700001003E
:105AE000D4040000A0000100DC040000E404000075
:105AF000E50400000B4B10B5C21800231468002CFD
:105B000009D1DA1DFF32920082185160C86001206D
:105B10007D338B6010BD01330432192BEED1002090
:105B2000F8E7C0461C040000F7B50400019301F03B
:105B3000DFFC6368002B6AD001203549354A0B68C9
:105B4000034008D1344E93601660344ED3605660E3
:105B500013619382086001263148324B016831405D
:105B600009D1314F99601F602C4FD9605F60196176
:105B700059611983066001272C4E2D493068384041
:105B800008D12C4D88600D60244DC8604D600861BF
:105B900088823760E220012740002350264E0438D7
:105BA00022500830215031682448394004D1019DE9
:105BB00042600560016137600126214D21492A6854
:105BC000324004D1089F4B600F600A612E600126AD
:105BD0001D4D1E4B2A68324005D1099F1A611F6076
:105BE000134F2E605F60DA22DC26DE25520076003D
:105BF0006D00A150A05163516068FFF77BFFA15970
:105C00006068FFF777FF61596068FFF773FFF7BDC2
:105C100000220020B02200208800010050FB00007C
:105C2000F8210020802200207000010008220020BE
:105C3000DC220020A000010004220020C822002055
:105C4000FC2100209C2200200C220020F4220020B5
:105C500003000022F0B57533FF330400AFB011002C
:105C600018000493FFF766F8A36A226903901A618B
:105C700001000498FFF7A6F9039B18229B5E83425C
:105C800000D021E2039B1A8880231A4006924CD050
:105C9000E0225200A358002B47D0210008331831CE
:105CA00021C921C3A36AA1581B691B090B61039B6E
:105CB00014215B5EA1588B82B0239B00E658043B05
:105CC000E5182B68A7589C46182362465343059352
:105CD000E31819003800D5310793FF3108300CC89C
:105CE0000CC1079A3969DD32FF321160220014239A
:105CF000F95ECD32059BFF32D318998263460A21A3
:105D0000581C04F09FFD33002960092E00D8731C35
:105D1000B0229200A2181360092E06D960680028EC
:105D200003D0DD4A0221FCF7B9FCA36A002B00D1A5
:105D300095E0220025000833183203CA03C3039BF1
:105D4000FC3502229B5EA26A6E6F5383039B05950E
:105D500004229B5EA26A9383039B06229B5EA26A37
:105D6000D383039B08229B5EA26A9382039B0A2231
:105D70009B5EA26AD382039B0C229B5EA26A138362
:105D80002B6FA26A9C465B01E3181900170034319F
:105D9000083721CF21C111696046D9631421575EAC
:105DA000991CCF871621575E191DCF871821575E82
:105DB000991DCF871A21575E19000831CF871C2102
:105DC000575E190048310F801E21525E4A331A80F7
:105DD00001300A2104F036FD059B19673300092EB6
:105DE00000D8731C059A5367092E06D960680028ED
:105DF00003D0AA4A0221FCF751FCA94FE05903281D
:105E00002DD804F08FFC029C9EE038210498FEF708
:105E100069FFFF258022A34B5200E0522840024335
:105E200038210498FEF7C4FF36210498FEF75AFF84
:105E30009C23C022DB00E05212012840024336219D
:105E40000498FEF7B5FF0C22974908A808F0DEF980
:105E500008AA01216068FCF721FC0123E351069B9D
:105E6000002B62D0E2225200A358002B5DD021000B
:105E70000833183121C921C30820A36AA1581B691E
:105E80001C271B090B61039B84460E215B5EA158F6
:105E90008B82039B10215B5EA158CB82039B122156
:105EA0005B5EA1580B83F8239B00E558203BE61866
:105EB000F369A15805937B430693E3180493B32336
:105EC0008C446046049A9B00D31884C884C3B523CD
:105ED000049A9B000869D318186014228B5E069AF6
:105EE0009C46B12360469B00E3189B1898821622BB
:105EF0008F5E0598DF8218228B5EB721049A890095
:105F00005218138001300A2104F09CFC2B00F1612F
:105F1000092D00D86B1C3362092D06D96068002852
:105F200003D0624A0221FCF7B9FBE421490063581F
:105F3000002B00D066E0012420002FB0F0BD02232A
:105F40008CE7039B04229B5E039A5B420221525E14
:105F5000039952420620095E08A84942009154491B
:105F600008F054F908AA01216068FCF797FB039B2D
:105F70001A219E885A88DD887642524212B2B6B201
:105F80006D420498FEF714FFADB232B21C210498A2
:105F9000FEF70EFF2AB21E210498FEF709FF454ABC
:105FA00001216068FCF77AFB3E4B3821E25E0498E1
:105FB000FEF7FEFE9C23DB00E25E36210498FEF72E
:105FC000F7FE03234AE701203B49A36A0D681A69DB
:105FD0003A4B054201D11A600860FA201968800026
:105FE000511A814200D83AE7322104981A60FEF72C
:105FF00079FE80229200424012B232210498FEF7CC
:10600000D7FE2CE722000833183221CA21C3039B94
:1060100016229B5E625893829B2318226758FB21AD
:10602000DB00E558264B8900E61833685A43039392
:10603000A31805935B1808218C46BC4461461800E0
:1060400004920CC90CC0FD21059B89005B183969BD
:10605000049A19601423F95EF9239B00E31803984E
:106060009B18998201300A2104F0ECFB2B0031606F
:10607000092D00D86B1C9B22D200A2181360092D99
:1060800000D858E76068002800D154E70D4A022183
:10609000FCF704FB4FE7C046B0000100C20001005E
:1060A000DC040000E2040000D30001005C010100F8
:1060B0000F01010036010100E42100201022002020
:1060C000D40400006D01010060680024A04200D1EA
:1060D00032E7024A0221FCF7E1FA2DE77F010100D5
:1060E00070B5836A0400002B01D1002070BDC06828
:1060F0000028FAD00C4E0D4DA25D615DFEF712FC3A
:106100000028F2D02100E0681031FEF72DFC0028B5
:10611000EBD0A25D615DE068FEF704FC0028E4D0EE
:106120002000FFF795FDE1E7E5040000E40400002E
:1061300083880B70838802201B0A4B7070470B7892
:1061400083804A7812021343838002207047000044
:1061500000487047440301000048704723030100D2
:10616000004870471303010000487047F202010025
:1061700043680B7043681B0A4B7043681B0C8B70A1
:10618000436804201B0ECB7070470A7842604B783E
:106190001B021A4342608B781B0413434360CA7886
:1061A0001206134343600420704700000048704704
:1061B00075030100004870475403010070B50400E6
:1061C00005000C342000FFF7E0FFAA69EB695010CE
:1061D00018186B69D20701D50268D3582100984777
:1061E00070BD006A704700000048704775030100E9
:1061F000004870475403010070B5040005000C34DA
:106200002000FFF79CFFAA69EB69501018186B6912
:10621000D20701D50268D3582100984770BD006AA3
:106220007047000000487047440301000048704771
:1062300023030100436870B50B70436805001B0A17
:106240004B7043680C001B0C8B7043681B0ECB70AB
:1062500083680B7183681B0A4B7183681B0C8B71FD
:1062600083681B0ECB71C3680B72C3681B0A4B7229
:10627000C3681B0C8B72C3681B0ECB72006907F0DE
:10628000EFFF030A6373030C06002073A373030E6E
:106290002000E37329693200103007F071FA3000F2
:1062A000103070BDF8B504001E000023416083600B
:1062B0001500E260134A0100026002008361C361BD
:1062C000036243628362104F10482C32F43117602E
:1062D00053609360D360106114328A42F7D1210079
:1062E000F8310B601360002D0AD028008222069935
:1062F0002830520007F044FA31002800FEF71AFA5D
:106300002000F8BDB802010088020100E10F010081
:10631000F7B50126454F01933D6835400CD1444CFB
:10632000444B25822360444BA561E360434BE0610D
:1063300063612662A2603E604468002C11D0C2688E
:106340009023FC3214640022DB00E5182B68002B3C
:106350005CD115002135364EFF35AD0064322E512B
:1063600072600126364D374A2C68344007D1364FCB
:1063700054609460D460354C176014612E6044689A
:106380008262002C41D00123314F9C463E68314D42
:106390001E4005D1089B6A602B6063462E613B60FE
:1063A00001262D4F85603D6835400DD12B4A2C4B81
:1063B000156113602B4B9561D3602B4BD0615361FA
:1063C000019B166293603E60284BE218002315681B
:1063D000002D20D1DA1DFF321E4D9200A2187D3310
:1063E0005560AB60EC6090234468DB00E21800234A
:1063F0001568002D14D11A002132184DFF32920079
:10640000643315516B60836A1961F7BD013204353D
:10641000192A9BD1A5E701330432192BD7D1E2E722
:1064200001330432192BE3D1EDE7C04614230020D9
:106430006423002070020100580201001D65000065
:106440000C2300202C23002088020100E10F010012
:1064500008230020182300201023002040230020C0
:10646000C8020100A0020100F96400001C04000041
:10647000F7B50A780C0042604B7805001B021A43FE
:1064800042608B781B0413434360CA78120613439F
:1064900043600A7982604B791B021A4382608B79D0
:1064A0001B0413438360CA791206134383600A7A7C
:1064B000C2604B7A1B021A43C2608B7A1B041343DF
:1064C000C360CA7A0C3112061343C36001A8FBF7FC
:1064D000CAFF220001990F32080013001030013367
:1064E0001E1BB04203D91F785E1E3770F7E70023EA
:1064F0006418E3732A61FEBD10B50400C06800286B
:1065000002D04968FEF7CBF86068002803D0024A41
:106510000121FCF7C3F810BD8503010030B504006C
:10652000C0688FB00D00002810D0036889889B6870
:1065300098476368002B09D0AA88054901A807F08D
:1065400065FE01AA01216068FCF7A8F80FB030BD14
:10655000D8020100F7B5050001201C490B68034073
:1065600008D11B4A1B4C53609360D3601A4B1460D4
:10657000136108602E000027F83634680196330056
:10658000BC4220D0043B18680A210A30001B04F0EA
:1065900059F91423594369180B6B0D4A08005360CD
:1065A000130034300833C0C8C0C3CB6B013C136147
:1065B000019B01271C60AB68002B04D0D8680168E0
:1065C0000C689968A0473800FEBDC04688230020AB
:1065D0008C23002088020100E10F0100F0B5C7B054
:1065E00016004CAA14784DAA050010784EAA177808
:1065F00005AA147000240291547003939070D47013
:1066000042A806AA9460D460146154611832824290
:10661000F8D10A23012202A9FF335B181A708523DF
:106620005B005B1844A802701A70023A459205AAF2
:106630000092039B32000299280043944294FFF792
:1066400031FE094B08332B602B00FC331F70802375
:106650005B00EC50EB185C60002E02D03000FDF7C0
:10666000CBFC280047B0F0BDB8030100F0B5C3680B
:1066700087B00400002B72D0836A002B6FD0050016
:10668000FC356E68002E6AD09A68771C974266D1F6
:10669000D86806F0F3FE0022374B04F0D9F9002841
:1066A0005FD000230297039303A902A801F0F4FB33
:1066B000A26A02A9083204A801F02AFC059806F093
:1066C000A3FE2E4A2E4B06F093F8060004980F0006
:1066D00006F09AFE02000B003000390005F062F966
:1066E0000090A8680191671C06F0C8FE0022224BAA
:1066F0006E68FF3704F0ACF9002836D0002302960C
:10670000039303A902A801F0C7FB3A0002A904A859
:1067100001F0FEFB059806F077FE184A184B06F0CC
:1067200067F8060004980F0006F06EFE02000B00EA
:106730003000390005F036F90600019B0D005F00BE
:1067400049004B08320000987908E46804F080F9A9
:1067500000280ED0009A019B2000FDF7E1FE07B053
:10676000F0BD0236029603909EE701360296039032
:10677000C7E732002B00EFE765CDBD4195D626E88F
:106780000B2E113EF0B50400C0688BB0002804D178
:106790000023029302980BB0F0BDA36A002BF7D040
:1067A000250010352900FEF7DFF802900028EFD011
:1067B000A76A631C3A00FF33083203CA03C32900E7
:1067C00007AE083510312A00300001F0A1FB00228D
:1067D000274B300001F042FB3B0038002700083314
:1067E00006CD06C3F8373100083001F069FB3B687D
:1067F000D43501932B68A16A03931423039822696B
:106800004343E3184A601A63342294460A009C44C6
:106810006046049705950832A0CAA0C00A6903988B
:10682000DA6301300A2104F00DF8059B1960019B21
:10683000092B00D80133049A1360019B092B0DD951
:10684000606800280AD00B4B320007930223337193
:10685000094B0721B36003681B6898472300FC338A
:106860001D78002D96D02000FFF700FF029591E7DC
:106870000000E03F80FB0000A4030100436870B506
:106880000B70436805001B0A4B7043680A001B0C21
:106890008B70436814351B0ECB70836810320B71FC
:1068A00083681B0A4B7183681B0C8B7183681B0EFA
:1068B000CB71C3680B72C3681B0A4B72C3681B0C95
:1068C0008B72C3681B0ECB7203690B7303691B0ABF
:1068D0004B7303691B0C8B7303691B0ECB730B008B
:1068E0001C3310CD260A14705670260C240E967098
:1068F000D47004329342F4D104000D0020344035AA
:1069000004CC160A1A705E70160C120E9E70DA70A5
:106910000433AB42F4D1426C1A700B00140A4133B9
:106920001C70140C120E9A700A005C70836C443256
:106930001C0A137054701C0C1B0ED370030094704F
:106940004C331C8814711B881B0A53710B00026D99
:106950004A331A700A00036D4B321B0A1370036D21
:106960004E311B0C5370036D54301B0E9370037823
:106970004F200B7070BD70B50A780C0042604B78E8
:1069800005001B021A4342608B7810341B0413432A
:106990004360CA7814351206134343600A79826053
:1069A0004B791B021A4382608B791B04134383606B
:1069B000CA791206134383600A7AC2604B7A1B02BB
:1069C0001A43C2608B7A1B041343C360CA7A12064F
:1069D0001343C3600A7B02614B7B1B021A430261B3
:1069E0008B7B1B0413430361CA7B120613430361B1
:1069F0000B001C336278A6781202360432432678E4
:106A00003243E67804343606324304C5A342F1D15A
:106A100004000D00203440355A789E781202360466
:106A200032431E783243DE7804333606324304C4E0
:106A3000AB42F1D10A000C00413242341278247882
:106A40001B7824041202224313430A0043321278B3
:106A500004001206134343640A000B004632453318
:106A60001B7812781B02120413430A004432127876
:106A70004C3413430A0047321278120613438364DE
:106A80000B000A0048331B78493223801278120227
:106A9000134323800B004A331A78013302651B78B5
:106AA0001B021A430B0002654C331B781B04134373
:106AB0000A0003654D3212784E3112061343036506
:106AC0000B78543003704F2070BD000000487047B1
:106AD00040040100004870471F0401000D4B0200F4
:106AE00003600023010043608360C36003610023EF
:106AF000203243618361C361443108C29142FCD1B9
:106B000002004364836400234C32138003651372D4
:106B10007047C046D0030100F8B50127164E0400A7
:106B20003368164D3B4203D12800FFF7D7FF37608B
:106B3000A0686560002819D001261149114A0B6828
:106B4000334004D1104F5560176013610E600F4B36
:106B5000E260C11800230C68002C08D1D91DFF3158
:106B6000890041187D334A609360D060F8BD0133DD
:106B70000431192BEFD1F9E7A4230020BC23002016
:106B8000A0230020A8230020150401001C040000FD
:106B9000F0B5456893B00400002D5AD0436F291D0D
:106BA000002B58D1836F002B55D12A0010A80C322E
:106BB00001F0AEF9109B0E93119B18000F9306F095
:106BC00023FC864A864B05F013FE06000E980F0044
:106BD00006F01AFC02000B003000390004F0E2FE5F
:106BE00006F0D0FC20670E9804F052FE06F078FC08
:106BF00000227C4B05F0FCFD06000F980F0004F00E
:106C000047FE06F06DFC784A784B05F0F1FD020076
:106C10000B003000390004F0C5FE06F0B3FCFF2382
:106C200065689B05AB61724B724AEB61FE239B0565
:106C30002B6200236B62AB62EB626B63AB63EB6353
:106C40006D4B68612A632B6463687434043306CB2C
:106C500006C413B0F0BD220010A8743201F058F938
:106C6000119806F0D1FB5D4A5D4B05F0C1FD0600B1
:106C700010980F0006F0C8FB02000B00300039002E
:106C800004F090FE06F07EFC686465682B004C33CF
:106C9000188804F047FE230028330193EB69011C98
:106CA00000936A69AB69686CFCF71CF9230065689E
:106CB00034330C93EB690B93AB690A93236A099302
:106CC000E3690893A36907932B004C33188804F0F9
:106CD00029FE06902B6C0593EB6B0493AB6B03932F
:106CE0006B6B02932B6B0193EB6A0093AB6A6A6A3E
:106CF000296A686CFCF716F9616810A80A0004316B
:106D00000C3201F005F9109804F0C2FD06F0E8FB22
:106D10000022344B05F06CFD060011980F0004F0C2
:106D2000B7FD06F0DDFB304A304B05F061FD0B008E
:106D300002003900300004F035FE06F023FC22008A
:106D4000011CA0655C32A06AFCF790F92200616A20
:106D50006032606BFCF793F9230064330093236E79
:106D6000E26C216C606BFCF795F963681433039354
:106D7000236B0293E36A0193A36A0093E36DE26ECF
:106D8000A16E606EFCF79AF9636820330893636D17
:106D90000793236D0693E36C0593A36C0493636CD4
:106DA0000393236C0293E36B0193A36B0093E26E56
:106DB000A16E636B606EFCF79EF965682B004C3327
:106DC000188804F065FD0D4904F04CFAA96904F037
:106DD0007BFBE96904F046FAA86435E795D626E816
:106DE0000B2E113E80842E41FCA9F1D24D62503F02
:106DF0000000C0400AD7233BEC51B83C0D68533B20
:106E000030B5446899B00500002C32D002A8FFF7D5
:106E100065FE231D03AA03CA03C305AA03CA03C34D
:106E2000079B22006361089B2032A361099BE361F9
:106E3000002302A81918096AD1500433242BF8D171
:106E4000139BD2216364149BFF31A364019315ABA0
:106E50001A8823004C331A80169B236517AB1B78C6
:106E6000543423706B681A004C3211800022543362
:106E70001A7000236B67AB6719B030BD454BF0B596
:106E8000036000230127444E4360C3603368C3B0EE
:106E900004008160414D3B4203D12800FCF7AAFE6B
:106EA0003760002322003E4963612561183261C9C1
:106EB00061C23C4A3C4962620022226722007C3265
:106EC0006367A3671370D3601361536193610A789A
:106ED00001331A430A70354A11780B431370344B4F
:106EE0001A00D979C909FCD1187801310143197008
:106EF000D379DB09FCD1517840330B435370012324
:106F000051780B435370D2231189FF330B43138104
:106F1000D379DB09FCD1117802330B431370D37999
:106F2000DB09FCD12569002D27D0012201A90B70B6
:106F30003EA84B708B70CA7002AA9360D360136135
:106F4000536118328242F8D168460230FF30037034
:106F500068460330FF30037040AA280013703F9347
:106F60003E938222012345305B42FF305200419321
:106F700006F006FC2800FCF7C7FDA268002A02D034
:106F80002369FC331A642000FFF73AFF200043B066
:106F9000F0BDC046E80301009C020020A0020020D2
:106FA000EC03010017B7D13B31440041424400419A
:106FB00000480042F0B5066FC5B004000021301C47
:106FC00003F094FD0125002831D0FE21301C8905F5
:106FD00003F08CFD002800D1051CEDB2002D2BD054
:106FE00001273F4E3F4D33683B4203D12800FCF759
:106FF000EDF9376063682800D968FCF723FA626806
:1070000004AD13693849D268280007F0FFF8374B00
:1070100001AA01930123A0681371956003680721F9
:107020001B6898472000FFF7EBFE45B0F0BD3049E4
:10703000301C03F047FDCDE765680021686C03F064
:1070400055FD0028F1D02B49A86904F00BF9061C66
:10705000686906F045FA284A284B05F0C9FB06F096
:1070600091FA011C301C04F02FFA2549061C03F08C
:1070700029FD00282ED12349301C03F037FD0028BC
:107080002AD1301C03F02CFB03F044FD1E4B80B2D0
:1070900019004C352880DA79D209FCD11881CB79D6
:1070A000DB09FCD1FE21656889056B697C345800D9
:1070B000400803F007FD002810D023783C2B01D0B6
:1070C000013323703B232278543593429B415B422A
:1070D0002B70AAE70A4ED4E70A4ED2E72070F1E7F8
:1070E0009008002094080020F803010080FB0000B5
:1070F000000080BF00009B432D54A3FC49A9084019
:1071000000001B4300C041440048004270B5040029
:107110004069032841D803F005FB021C2B35206988
:10712000002801D1002070BD6368002BFAD0210037
:107130008031FDF78FF80028F4D022006168883292
:107140000B1D21CA21C3231DDB6F0B650123636166
:10715000E8E7236820001B68984703000020012B04
:1071600002D101336361DEE7022BDBD16061DAE734
:107170002000FFF70DFD2000FFF71CFF03236361D4
:107180000120D0E7E368002B05D0D8689968026831
:1071900015686268A8470023F1E70020E6E70000D1
:1071A000F8B50400270016001D00FFF767FE200059
:1071B0000A4B9837083323609C303E60FDF766FF2A
:1071C00023000022FC33DA623868904203D003685F
:1071D0002900DB6998472000F8BDC0460C05010076
:1071E0000300F0B5FC33CDB00493DB6A0400002B40
:1071F00004D0032B00D19BE00023CBE04368002B9D
:1072000052D0FAF7E1FF010008A8FCF75FF96368C4
:1072100008A91A1D0AA800F07BFE0B9806F0F4F8E6
:10722000954A964B05F0E4FA06000A980F0006F01E
:10723000EBF802000B003000390004F0B3FB0690BD
:107240000791FAF7C1FF0500006A06F0DDF88A4AE7
:107250008A4B05F0CDFA0600E8690F0006F0D4F875
:1072600002000B003000390004F09CFB069A079BDB
:107270000600802000060F183900300003F0FCFBE8
:10728000002815D1069807997D4A7E4B03F0F4FB40
:1072900000280DD1069807997B4B794A03F0ECFB47
:1072A0000323002800D075E0FC34E06A4DB0F0BD47
:1072B000A368002B37D0099806F0E0F86E4A6F4BB0
:1072C00005F096FA060008980F0006F0D7F80200BD
:1072D0000B003000390004F065FB069A079B6568D7
:1072E0000292039304900591A86806F0C7F8624AD9
:1072F000624B05F07DFA060068680F0006F0BEF8E4
:1073000002000B003000390004F04CFB049A059B8E
:10731000009001915D490CA806F078FF0CAA0221AB
:10732000A068FBF7BBF902222300FC33DA62BBE75B
:1073300005009835286800282FD1FAF745FF01008D
:107340000AA8FCF7C3F863680AA91A1D0CA800F084
:10735000DFFD0D9806F058F8474A484B05F048FA0B
:1073600006000C980F0006F04FF802000B003000EA
:10737000390004F017FB424A424B03F07DFB002822
:1073800000D191E7A068002803D0414A0321FBF710
:1073900085F90223049AD36286E703681B6998473C
:1073A0000028CAD02868270003689C375B69984783
:1073B000C1B23800FDF73BFF002800D074E7049B02
:1073C000DE68002E00D06FE7286803681B699847C5
:1073D000012823DC20002100FF30C579FE31437BEA
:1073E000827B098A029585790195407900900AA8E7
:1073F00000F064FE6368002B2CD1250098352868C6
:1074000003681B699847002833D0286803685B69C4
:107410009847C1B23800FDF70AFFEEE7A368002BDA
:107420000DD0286803681B6998471A4902000CA808
:1074300006F0ECFE0CAA0221A068FBF72FF92868E1
:1074400003681B6998470028A3D0286803685B6914
:107450009847F4E70AA800F049FE0CAD0C900DA97E
:1074600028000D9600F018FD63680C3306CD06C3A6
:10747000C3E7012258E7C04695D626E80B2E113EF9
:107480009A9999999999E93F9999C93F50040100AE
:10749000E404010099040100C260124A4160010045
:1074A00000230260020030B56D310F4D0F4C836038
:1074B0008361C3610362436283622C32FF311560D2
:1074C00054609360D36013619382D3821383538398
:1074D0009383D38320328A42F1D10200FC32536776
:1074E000136730BD20050100CCFD000050FB0000FB
:1074F000F0B501252F4E34682C400CD12E4B2F4F68
:107500001C821F602E4F9C61DF602E4FD8615F612F
:107510001D62996035604168002911D0C368FC3351
:1075200019649023DB00CC1800232568002D36D188
:107530001C002134204DFF34A400643365506B607F
:107540004468002C2AD001261F4D204B2968314069
:107550000AD11F4F99601F601E4FD9605F6019618B
:1075600059619961D9612E6001271B4E836235688C
:107570001A493D4003D10A604B600D613760184BDA
:107580008160E2180023106800280DD1DA1DFF3257
:107590009200A2187D3351608B60CC60F0BD013346
:1075A0000434192BC1D1CBE701330432192BEAD1B2
:1075B000F4E7C0461C24002054240020700201007F
:1075C000580201001D65000018240020342400200A
:1075D000CCFD000050FB00001424002020240020DB
:1075E0001C04000070B5040004300D00FAF786FD9D
:1075F00023692B5423692D181B0A6B7023690730EC
:107600001B0CAB7023691B0EEB70A38A2B71A38A32
:107610001B0A6B71A37DAB7170BD70B504000430A3
:107620000D00FAF783FD2A5C2D1822616B78073074
:107630001B021A432261AB781B0413432361EA78CF
:107640001206134323612B79A3826A791202134332
:10765000A382AB79A37570BD004870476105010036
:107660000048704740050100F7B50500012020499A
:107670000B6803400AD11F4A1F4C936014601F4CD3
:10768000D360546013619382937508602E000027C5
:10769000FC36B46ABC4228D0706A0A210A30001B4A
:1076A00003F0D0F818234B439C46124AAC44100018
:1076B00067460193083038370ACF0AC06346186C12
:1076C0000633DB8F019993822B00303359188B7D61
:1076D000013C9375AB681061B4620127002B04D0A4
:1076E000D86801680C689968A0473800FEBDC0469C
:1076F00078240020882400203005010050FB000081
:10770000F0B50125314E34682C400CD1304B314F4F
:107710001C821F60304F9C61DF60304FD8615F6119
:107720001D62996035604168002911D0C368FC333F
:1077300019649023DB00CC1800232568002D3AD172
:107740001C002134224DFF34A400643365506B606B
:107750004468002C29D00126214D224B2968314054
:1077600009D1214F99601F60204FD9605F60196176
:10777000998299752E6001271D4EC36235681D4997
:107780003D4003D10A604B600D6137601A4B816048
:10779000E21800231568002D12D1DA1DFF32920085
:1077A000A2187D3351608B60CC60C36A002B01D07E
:1077B0001B698362F0BD01330434192BBDD1C7E7C7
:1077C00001330432192BE5D1C36AF1E78424002088
:1077D000CC24002070020100580201001D65000049
:1077E0007C240020A02400203005010050FB000074
:1077F00080240020B82400201C04000070B50E0076
:107800001500094C6221200000F012FD310020001B
:1078100000F057FD2900200000F053FD0121200059
:1078200000F074FD70BDC0465825002070B5C260E0
:10783000314A4160083202600122010052421D00BB
:10784000002382620200040083608361C3610362DB
:107850004362C3622131294E2948C2B03032FF3120
:10786000166050609360D3601361938293751832F1
:107870008A42F5D12200E668FC3293625362002E00
:1078800029D0012201A90A704B708B70CA700022A6
:1078900002AB3EA89A60DA601A615A6118338342DB
:1078A000F8D168460230FF3002706846033040ABC2
:1078B000FF3002703F923E921A7001223000524215
:1078C00041920632FF32283005F05AFF2822290063
:1078D0003000FCF747FF0B4D280000F07BFC280030
:1078E000094900F097FC002220001100FFF786FFF5
:1078F000200042B070BDC046E00501003005010027
:1079000050FB000058250020801A060070B5134C6B
:1079100062210600200000F08BFC0121200000F015
:10792000D0FC0121200000F0F1FC051E06D070689B
:10793000002803D00A4A0221FAF7B0FE012362218F
:107940001A00200000F08CFC200000F017FD02005F
:107950000020854201D10130104070BD5825002023
:1079600091050100F8B51A4C07000E0020006221B5
:1079700000F05EFC8E21200000F0A3FC012120001D
:1079800000F0C4FC051E06D07868002803D0114A18
:107990000221FAF783FE012303226221200000F076
:1079A0005FFC002E0FD0200000F0E8FCB075200036
:1079B00000F0E4FC0700200000F0E0FCFFB23F0212
:1079C000C0B2C019B08268426841C0B2F8BDC046BA
:1079D00058250020BA050100F0B50400C06885B044
:1079E000002811D0E36A002B11D021001031FCF7E0
:1079F000BBFF002808D0E16A22000B0018320833D0
:107A000021CA21C323690B61E36A002B02D1002044
:107A100005B0F0BD1B69A26A9A42F8D02000FFF7BA
:107A200075FF0028F3D1E16A2000FFF79BFF0028D3
:107A300033D026001822FC36736AE16A029353435E
:107A40000393E3181F00383701933B000827BC4617
:107A50008C446746B56A05CF05C30F69019B039A3D
:107A60001F648F8A0633DF872300897D30330298B5
:107A70009A18917501300A2102F0E4FE2B00716220
:107A8000092D00D86B1CB362092D06D96068002847
:107A900003D0044A0221FAF701FEE36A01201B69C0
:107AA000A362B5E77905010070B5040004300D004C
:107AB000FAF724FB23692B5423692D181B0A6B70DA
:107AC000236907301B0CAB7023691B0EEB70A38A74
:107AD0002B71A38A1B0A6B71A37DAB7170BD70B54E
