:10200000008000204176000029760000297600003B
:1020100000000000000000000000000000000000C0
:102020000000000000000000000000002976000011
:1020300000000000000000002976000095760000F6
:102040002976000029760000297600006D35000011
:102050008922000029760000297600002D760000F4
:1020600029760000757500002976000029760000A9
:102070004D7500002976000085750000713B000059
:10208000313C0000F13C0000E13500004D3600001D
:10209000B936000029760000297600002976000074
:1020A00029760000297600002976000029760000B4
:1020B0000000000010B5064C2378002B07D1054B1B
:1020C000002B02D0044800E000BF0123237010BDA4
:1020D000800200200000000068000100044B10B5E1
:1020E000002B03D00349044800E000BF10BDC046E8
:1020F00000000000840200206800010043680B70AB
:1021000043681B0A4B7043681B0C8B7043681B0EA3
:10211000CB7083680B7183681B0A4B7183681B0C3F
:102120008B71836808201B0ECB7170470A78426060
:102130004B781B021A4342608B781B0413434360A5
:10214000CA781206134343600A7982604B791B02F6
:102150001A4382608B791B0413438360CA79120689
:10216000134383600820704700487047DDED00008E
:1021700000487047BCED0000004870474EED00007D
:10218000004870472DED0000004870471AED000030
:1021900000487047F9EC00000048704767ED000008
:1021A00000487047D8EC00009F23DB00C05C7047FC
:1021B00010B50400034B0360143002F04BFB200009
:1021C00010BDC046E0F2000070B50126054D064C7A
:1021D0002B68334203D1200001F0E0F82E6020008C
:1021E00070BDC046F4030020F803002070B501263E
:1021F000054D064C2B68334203D1200001F0CEF987
:102200002E60200070BDC046980300209C03002073
:10221000174B10B5186803681B689847002826D12B
:10222000144B186803681B68984700281FD1124B8D
:10223000186804F0B5FD002819D1104B1868036820
:102240001B689847002812D10D4B186804F03AF922
:1022500000280CD1FFF7B8FF00F0CEFF002806D110
:10226000084B1868002802D003685B68984710BDC7
:10227000280B0020200B0020340B00202C0B00200A
:10228000240B0020300B002010B5FFF79DFF01F05C
:102290004DF9FFF7ABFF02F08FFA10BD0B0A01708A
:1022A00043700B0C090E8370C1707047F8B58388BA
:1022B00006000B7083880D001B0A4B7080680BF0C2
:1022C0005DF80400A81C2100FFF7E8FF2200B168B8
:1022D000A81D0AF0E3FAF0680BF050F80700A31D00
:1022E000E81839000A34FFF7D9FF3A00F1682819D5
:1022F0000AF0D4FA30690BF041F8E4190700281904
:1023000039000434FFF7CAFF3A00281931690AF08E
:10231000C5FA7369E4192B551A0A2D196A701A0C3B
:102320001B0EAA70EB70201DF8BD4368F7B50B704B
:1023300043680E001B0A4B70436804001B0C8B7033
:1023400043681B0ECB700B1D0021DA1C944662689B
:102350008D1C5F1C981CAD008A420DD9E2680131CA
:102360005519083D2A68100A1A705870100C120E80
:102370009870DA700433E8E7226900211A70624627
:1023800023691B0A3B7023691B0C037023691B0E16
:1023900013707319DA1C944622695F1C981C04356B
:1023A0008A420CD9A0698A0012580131100A1A70A9
:1023B0005870100C120E9870DA700433EAE7E26974
:1023C0001A70E36962461B0A3B700027E3691B0C25
:1023D0000370E3691B0E1370E369BB4215D9636A8E
:1023E000BA0098580AF0CAFF019001997019FFF7D6
:1023F00055FF636ABA00043599587019019A0AF0BA
:102400004DFA019B0137ED18E6E72800FEBD70B5D7
:10241000037906000B7080680D000AF0AFFF04001E
:10242000681C2100FFF73AFF681DB16822000AF01E
:1024300035FA601D70BD002310B50360CA5CDC0076
:10244000A2400468013322430260042BF6D110BD80
:10245000F0B50C000B7885B083804A780600120234
:1024600013438380023101A8FFF7E5FF611D0B00D4
:10247000019A951D0133181B854203D91F78581EF8
:102480000770F7E70023A218537102A8B160611921
:10249000FFF7D1FF029A2B1D9D181A00954204D90F
:1024A000A05C511E60540132F8E700206119013B25
:1024B000E3184A1E1070F36003A8FFF7BCFF039BEC
:1024C0000435E8182B00984204D9E15C5A1EA15447
:1024D0000133F8E700212218013D531E65191970D8
:1024E0003561537891781B020904D2780B43215C43
:1024F00012060B4313430430736105B0F0BDF0B511
:102500004B780D781B022B438D7887B02D042B431D
:10251000CD7804002D061D4343680E00AB4204D263
:10252000A900C0680AF0E4FEE06000236560371D82
:102530000193BA787B7812041B0213433A78134351
:10254000FA780437120613430293019B019A981CF0
:10255000830003931D00636893420DD92800210076
:10256000029B0838A360E3680422181808310AF0B7
:1025700095F9019B0133DBE72369029A934204D268
:102580009100A0690AF0B4FEA061029B2361039B45
:10259000F71800230193BA787B7812041B021343C7
:1025A0003A7804351343FA7804371206134302933A
:1025B000019A236993420CD92100029B9000636128
:1025C000A3690422181814310AF068F9019B013339
:1025D000E0E7E369029A934204D29100606A0AF04C
:1025E00087FE60620027029BE361E369BB421FD95B
:1025F000711905A8FFF71FFF059A2B1D9D181A00DA
:10260000954204D9B05C511E70540132F8E70021A4
:102610007219013A11702100013BF3182362636AB9
:10262000B8001818042220310AF038F90137DCE725
:10263000280007B0F0BDF7B50C000B78050003715A
:10264000013101A8FFF7F7FE221D13000199481D73
:1026500001331E1BB04203D91F785E1E3770F7E7A7
:10266000002364182371AA60FEBD00001FB5054C4D
:1026700001AB0392026819710194072114681A00D2
:10268000A0471FBD9CEC00000123F0B5814987B035
:102690000A68814C1340814D41D1814A81482260B2
:1026A000E1221202A2609F22D200A3547E4A6560FA
:1026B000A05018001C32A3500832A3507B4A9A182D
:1026C0000433A050642BF9D1002318009022D200CB
:1026D0009A18121904331060642BF7D1002380225A
:1026E0001E0092001819013306779342FAD1002296
:1026F00080261300B60087208000101800190132D0
:102700000370B242F7D1A222D200A3500832A350E4
:10271000674AA361A350674AA35001230B60664F29
:1027200066483C6004F0FAFFA168606805F0A4FD0B
:102730000023634A0121A3500432A3500832A3505E
:10274000604A3868A350604AFFF790FF280005F000
:1027500095FD0028FAD001235C4E5D4D34681C4085
:1027600016D13B680593FFF741FD0A23029303331B
:102770000193FA2302009B0005990094280002F0BF
:10278000CDFD0123534A54492800336007F02EF849
:102790000124524B1D60524D2B68234215D13B68DA
:1027A000504E05933368234203D14F4801F0ACF9F2
:1027B0003460012400230294009301940A334A4AAE
:1027C00005994A4803F0B0F92C600126484B474A66
:1027D000484D1A602B68484C334207D1E123474AE1
:1027E0005B023968200003F0A5FE2E600126444BF1
:1027F000444D1C602B68444C334205D1434A396830
:10280000200004F075FA2E60414B424D1C600124FB
:102810002B68234211D13B683F4E05933368234216
:1028200003D13E4800F0F0FE34600A233B4A05998C
:102830003B4804F059F901232B603A4C384B236094
:10284000FFF7C2FC396800F09BFC374B234801932B
:10285000364B374A00933749374B006802F0B2FDD8
:10286000364B23480093364A3649374B006803F00D
:1028700023F8234B186803F059FB254B334918689C
:1028800004F04CFA324A3349206804F097F807B054
:10289000F0BDC046300400209804002084160020BB
:1028A000CCEC0000B4EC00000C0500001C0400009F
:1028B0001C05000024050000300B0020B80B0000B0
:1028C000E4040000EC040000EBED0000280400200C
:1028D0004004002000000020B1210000280B00204F
:1028E000340400209C020020A0020020CC0900201B
:1028F000200B002038040020F4090020EC110020F7
:10290000240B00203C040020080B00202814002089
:10291000340B00202C0400203C0300204003002046
:10292000800400202C0B002045EE00005EEE00002D
:1029300016EE00002EEE0000FDED000096EE000009
:1029400083EE000091EE000076EE0000A2EE0000A3
:10295000B3EE0000C9EE000070B504000E0063295C
:1029600005DD9F230025DB00C35CAB4239D0136833
:1029700021491B6861181000984787231F4A9B0054
:10298000E2521F4AC3B2A3541E490212D2B2625489
:102990009B188822DB439200A3541B4B0522E6546C
:1029A0001A4B36B23612E6540023851D954206DBDB
:1029B000872189005118615C01325B18F6E7DB431F
:1029C0000D4A0500201880180370802308359B00ED
:1029D0009D4208DC60681C33E11803682A005B68CC
:1029E0009847280070BD0125094A03212000FFF700
:1029F0003DFE6D42F5E7C04623020000FFFEFFFFEB
:102A00001E0200001F02000021020000220200003E
:102A100083ED00001FB5074B01AA01930023029329
:102A2000039303680A211B680400984704F040FEE2
:102A3000E0601FBD6CEC00000022F0B580270500AF
:102A40002B4B89B0029302AB9A802A4B07920493D6
:102A500005930693284BBF00C4186433C618236837
:102A6000002B17D09A68586802A98A801A680368F0
:102A700004929B6898472368059058680368DB6850
:102A8000984721682B68069007971B6802AA096976
:102A9000280098470434B442E1D18026174BB60091
:102AA000EB1801932068002818D0436802AA93808D
:102AB0008368049303689B689847059020680368BF
:102AC000DB6898472B68069020681F6803680796A4
:102AD0005B68984702AA01002800B847019B0434AC
:102AE000A342DFD19F230122DB00EA5409B0F0BDED
:102AF00084EC0000590001001C040000E404000004
:102B0000F0B5244B87B00393002304000E00049318
:102B1000059304F0CDFDE3683100C51A03A8FFF763
:102B200005FBFA212800890006F094FEFA21049B97
:102B30008900181804902800019306F011FF164E22
:102B4000059B7143C9180193059104F0B1FDFA2169
:102B5000049B8900070001935D1E06F07BFEFA21AD
:102B60002D1A0E4B2561059D38008900ED1806F0E1
:102B7000F7FE20004E432100AE1B14316661103079
:102B800004F0DEF904F094FDA023DB00E05007B070
:102B9000F0BDC0466CEC000040420F0000CA9A3BFA
:102BA000F8B5040004F084FDA023DB00E358774A65
:102BB0000700C31A934203D99F230022DB00E2548B
:102BC000734D6359002B05D0724BE358BB4201D2C1
:102BD00000236351A369002B17D1606803685B6908
:102BE0009847002819DA9F230025DB00E35CAB42FD
:102BF00009D0694E694AA359FB1A934203D92000B0
:102C0000FFF708FFA7512800F8BD04F051FDA369A4
:102C1000C01B9842E1D902258FE0614AA358C3182E
:102C2000A3506659072E0DD1043AA358591CE31836
:102C3000A1501877083AA358013BA350002BC9D1E3
:102C40000823C6E7002E12D1FF2806D101236351C5
:102C50003B00504A1433A350BCE704F029FD514B0C
:102C6000C01B9842B6D99F23DB00E654D3E7012E60
:102C70000ED1FE2801D10223ABE7002363519F232D
:102C8000DB00E35C002BA5D12000FFF7C3FEA1E72A
:102C9000022E09D19D230021DB00E0500833E150D2
:102CA00003236351A05095E7032E07D19D23DB003A
:102CB000E25800021018E05004238AE7042E0BD1DA
:102CC000394A134003D5394A013B13430133FF2BE3
:102CD00000D07DE7FA3B7CE7052E03D1344BE05072
:102CE0000623DEE7062E0AD1314B0002E258101807
:102CF000E050072363519D23DB00E3589EE7082E35
:102D000000D067E700226251274A134003D5274AC3
:102D1000013B13430133FF2B00D05BE7244BE35807
:102D2000002B0CD101252000FFF774FE2000FFF7D7
:102D300083FE194BE7500433E7506D4263E70A2BDB
:102D400005D1210020001C31FFF7DAFE42E7062BF7
:102D50000AD12100174B1C31E018FFF7D0FB0123EB
:102D6000A122D200A35435E70B2B02D100239F22CE
:102D7000F7E7BC339B001859002800D12AE721004F
:102D800003681C311B68984724E7C046F82A0000F6
:102D9000E404000004050000FC040000C409000075
:102DA000F404000088130000FF00008000FFFFFF14
:102DB000EC0400000C05000070B5040004300D00A8
:102DC000FFF79CF923692B5423692D181B0A6B709C
:102DD000236910301B0CAB7023691B0EEB7014229F
:102DE000A35E2B719BB21B0A6B711622A35EAB71A3
:102DF0009BB21B0AEB711822A35E2B729BB21B0ABB
:102E00006B721A22A35EAB729BB21B0AEB721C227E
:102E1000A35E2B739BB21B0A6B731E22A35EAB7364
:102E20009BB21B0AEB7370BD70B5040004300D003B
:102E3000FFF77CF92A5C2D1822616B7810301B0299
:102E40001A432261AB781B0413432361EA7812060C
:102E5000134323616A792B7912021343A382EA791F
:102E6000AB7912021343E3826A7A2B7A120213437C
:102E70002383EA7AAB7A1202134363836A7B2B7B48
:102E800012021343A383EA7BAB7B12021343E38357
:102E900070BD00000048704719EF000000487047FF
:102EA000F8EE000010B5FA24A400200004F036FC6F
:102EB000FBE70000F7B51D1C071C081C0C4901921C
:102EC00007F05EFA291C07F08DFB0899061C381CD8
:102ED00007F056FA011C301C07F052FA019906F06F
:102EE000DDFE099C089B65602060A360F7BDC046BD
:102EF0000D68533BF0B51E1C802387B01B06C3181A
:102F0000051C059112984C490292009307F038FA7B
:102F1000169907F067FB0D99071C009807F030FA27
:102F2000179907F02DFA10990190281C07F028FA3C
:102F3000391C07F025FA019906F0B0FE029906F057
:102F4000ADFE11990290281C07F01AFA391C07F0FF
:102F500017FA0E990390009807F012FA179907F0E4
:102F60000FFA039906F09AFE311C06F097FE0C99B1
:102F70000490009807F004FA1799189C07F000FADB
:102F80000F99061C281C07F0FBF9391C07F0F8F90B
:102F9000011C301C06F082FE1799061C281C07F045
:102FA000EFF9029907F0ECF9011C301C07F01AFB4D
:102FB000291C061C381C07F0E3F9049907F0E0F916
:102FC000011C301C06F06AFE059906F067FE139995
:102FD00006F064FE029B0E996360049B2060A36070
:102FE000281C07F0CDF9391C07F0CAF9019906F041
:102FF00055FE0C9906F052FE1499E0600D9806F00B
:103000004DFE0E9B206163611099009807F0B8F99E
:10301000179907F0B5F9039906F040FE0F9906F0ED
:103020003DFE109BA061E3611599119806F036FEF4
:10303000206207B0F0BDC0460D68533B0B1C10B5B5
:10304000011C181C140007F0CDFA206010BD10B54B
:10305000140006F023FE011CFE20800506F0B8FFD8
:10306000206010BDF8B50F1C191C1D1C161C07F0A4
:1030700087F9069C391C2060281C07F081F9311C57
:103080006060281C07F07CF9A060F8BDF8B50F1C43
:10309000191C1D1C161C07F073F9069906F0FEFD9D
:1030A000099C391C2060281C07F06AF9079906F072
:1030B000F5FD311C6060281C07F062F9089906F0E4
:1030C000EDFDA060F8BDF7B50D1C011CFE208005CC
:1030D00001921E1C07F086FA311C071C07F050F9FC
:1030E000109C08992060381C07F04AF90999606023
:1030F000381C07F045F980231B06ED18311CA06031
:10310000281C07F03DF90A9906F0C8FD0899E0600F
:10311000281C07F035F90B9906F0C0FD09992061CC
:10312000281C07F02DF90C9906F0B8FD8022120634
:103130009446019B311C63446061181C1D0007F01C
:103140001FF90D9906F0AAFD0899A061281C07F047
:1031500017F90E9906F0A2FD0999E061281C07F005
:103160000FF90F9906F09AFD2062F7BD10B5C368FC
:103170000A0019680C6881681800A04710BD00009B
:10318000F0B5002924D00125144C154B22682A40A3
:1031900004D1144E5A601E609A6025600126124DBB
:1031A000124A2C68344004D1114F536017601461E7
:1031B0002E600CC00F4BC81800230468002C08D1E7
:1031C000D81DFF30800008187D3342609360D160C5
:1031D000F0BD01330430192BEFD1F9E7380B002093
:1031E000400B00206CEC00003C0B00204C0B00203E
:1031F0003CEF00001C04000070B503680400057A71
:10320000002B0FD04268002A0CD0002D0AD0C168D4
:1032100051600169D868916001680E689968B0478B
:1032200000232372280070BD08230A4A11680B434B
:103230001360094B07221900353108784A330243DD
:103240000A70012219780A431A70022219780A4377
:103250001A7070471C040040004400410823124AC1
:1032600011680B431360114B114A5A605A78D20906
:10327000FCD1104A5A805A78D209FCD10E4A5A80A1
:103280005A78D209FCD10D4A5A805A78D209FCD119
:103290000B4A5A805A78D209FCD10A4A5A805A7885
:1032A000D209FCD17047C04618040040000C004011
:1032B0000401010004440000074400001A44000017
:1032C0001B4400001C44000002230A4A11680B43FF
:1032D00013608222084B52001A8106321A8104328E
:1032E0001A8104321A811422FF321A8101321A81A2
:1032F0007047C04620040040000400422023234AB7
:1033000011680B431360224A1300917AC909FCD15A
:1033100002201188814311809A7AD209FCD1198840
:1033200001320A431A809A7AD209FCD11A8892B2E1
:103330001A809A7AD209FCD1198880320A431A80FD
:103340009A7AD209FCD11A619A7AD209FCD1114A2F
:103350009A619A7AD209FCD1D97901320A43DA7199
:103360009A7AD209FCD199880132FF320A439A80B5
:103370009A7AD209FCD1C021074A890053581B020E
:103380001B0A5350082313607047C04618040040BE
:10339000001400400F27000000E100E0F8B5040031
:1033A00000250123056045602372184B0700436127
:1033B000642301000383164B1C37C5600561C5619A
:1033C000036220313800260003F084FD0123210030
:1033D000243630006362A562283103F0B1FD23007A
:1033E0000B222C3339001A70300003F0D1FD20007D
:1033F000FFF71AFF2000FFF731FF2000FFF764FFFF
:103400002000FFF77BFF2000F8BDC04680969800A3
:1034100040420F00C16070470222044B19880A43E2
:103420001A809A7AD209FCD17047C0460014004035
:1034300010B5040007485B001B5A200053430A8B59
:10344000211D5A4300236260236003F043FD2000E6
:1034500010BDC0462CEF0000F7B50E0000244369F4
:103460000C4F019200936300D95B009806F0F2F9CB
:10347000310006F0EFF9019BE5B2984207D3013421
:10348000082CF0D1C9210448FFF70CFD25002800C5
:10349000FEBDC0462CEF000040EF0000002330B519
:1034A00003604360EFF3108372B6BFF35F8FBFF327
:1034B0004F8FBFF36F8F02000C3130C930C283F3DE
:1034C0001088BFF35F8FBFF34F8FBFF36F8FBFF3D2
:1034D0005F8FBFF34F8FBFF36F8F30BD10B54900C3
:1034E00089B2FFF7B9FF10BD010010B504001C310F
:1034F0000C3003F039FD2369002B01D10133237215
:1035000010BD0000C368426A934209D10269836A10
:103510009A4205D1034B044A5A60DA68D205FCD4BA
:103520007047C046000400420000010270B505006B
:103530000F210C4C2C3523692A789BB20A40134189
:10354000DB070DD5084B1B889B0701D4FFF764FFF1
:103550000F232A7821691A400E3B93400B432361C5
:1035600070BDC046001800400014004010B50A4B62
:103570001A7AD2070ED51A7AD2090BD001221A7202
:103580007F321A72FEF720FEFFF7AEFFFEF71CFE39
:10359000FFF7B8FF10BDC04600140040E02313B58C
:1035A0001B0101A90B8000230400094A8B7000F065
:1035B000EBF9C421074B89002360074B07485A5891
:1035C00002405A508022D20220001A6016BDC04626
:1035D000002C004284EF000000E100E0FFFF00FF4C
:1035E00070B50126064D074C2B68334203D12000ED
:1035F000FFF7D4FF2E60200000F052F970BDC046E6
:10360000980300209C03002013B5040003220B49FB
:1036100001A809F043F901A9094A200000F0B4F912
:10362000C421084A084B89002360535820001B021C
:103630001B0A535080231B03136016BDBCEF000010
:103640000030004200E100E0A4EF000070B5012668
:10365000064D074C2B68334203D12000FFF7D4FFFF
:103660002E60200000F01CF970BDC0463C03002015
:103670004003002013B5040003220B4901A809F000
:103680000DF901A9094A200000F07EF9C521FF20AB
:10369000074B89002360074B5A5882435A508022B7
:1036A000520320001A6016BDE0EF00000034004213
:1036B000C8EF000000E100E070B50126064D074CA0
:1036C0002B68334203D12000FFF7D4FF2E60200087
:1036D00000F0E6F870BDC046600B0020640B0020CF
:1036E00010B50400436DDA7BD209FCD102211A889F
:1036F0008A431A80626DD37BDB09FCD1E0202379F9
:1037000011881B02C00003400B431380636DDA7BFA
:10371000D209FCD1198860320A4310211A80626DE7
:1037200093798B439371636DDA7BD209FCD12021AD
:103730009A798A439A71636DDA7BD209FCD12200AF
:1037400028321278002A07D0022299790A439A7106
:10375000626DD37BDB09FCD1236820005B6998474D
:10376000626DE38B5383626DD37BDB09FCD1517BAC
:10377000203319435173626D917B0B439373636DD7
:10378000DA7BD209FCD1198802320A431A80626DB1
:10379000D37BDB09FCD110BD10B50400436DDA7B8F
:1037A000D209FCD102211A888A431A80626DD37B28
:1037B000DB09FCD1E020237911881B02C000034003
:1037C0000B431380636DDA7BD209FCD11988203258
:1037D0000A431A80636DDA7BD209FCD110219A79F1
:1037E0008A439A71636DDA7BD209FCD122002832B8
:1037F0001278002A07D1997901320A439A71626DD1
:10380000D37BDB09FCD1236820005B699847102338
:10381000616D4A7B1A434A73626D917B0B439373CC
:10382000636DDA7BD209FCD1198802320A431A800F
:10383000626DD37BDB09FCD110BD10B5426D1388DE
:103840005B069B0F012B02D100F060FD10BD1388B9
:103850005B069B0F032BF9D100F05BFDF6E713B578
:1038600004004C34217062700124009400F0B2FE18
:1038700013BD70B5040000F0E3FDE36820009DB2C5
:1038800000F012FEE36BED18013D636D4519ADB21A
:103890001D83236CE26B9B1823640023E36370BDDC
:1038A000F0B5436D85B09A7B0400D20722D501257F
:1038B0009D7303001F4F203301933B681E4E2B4224
:1038C00003D13000FFF76AFD3D60636D31001A8B54
:1038D00002A823790132FFF7ABFD02A9019803F09A
:1038E00043FB236820005B699847200000F07EFFBF
:1038F00005B0F0BD9A7BD20612D510229A7300F063
:1039000029FF230028331A789042F1D001225A70FF
:10391000E36A9B18E362236A2363636A6363E7E7EE
:103920009A7B9206E4D520229A7303001F3A28332B
:10393000EDE7C046F4030020F8030020436D10B506
:103940000400002B03D1C9210E48FFF7ABFA636DC9
:10395000DA7BD209FCD102211A888A431A80636D6E
:10396000DA7BD209FCD1598923320A435A810123D7
:10397000616D4A7B1A434A73626D917B0B4393736B
:1039800010BDC046E3EF000070B50400150000F064
:1039900087FC044B6565083320002360FFF7CEFFEA
:1039A000200070BD14F000007047000070B50225C3
:1039B0000A4A0B4C13680F212B431360094B2381D8
:1039C00000F028FBFE230004DB031840064B1843DD
:1039D0006060E3681B0A2B42FBD170BD20040040ED
:1039E00000040042070200000100000202230C4A0A
:1039F00010B511680B4C0B431360A123DB0023812E
:103A00000B2100F007FBFE231022DB03000418400B
:103A1000054B18436060E3681B0A1342FBD110BDDD
:103A20002004004000040042040000021FB54B1EA9
:103A3000994103000131039199331A78013B1978B8
:103A400001230400009303AB00F0C4FD2000FFF746
:103A5000CDFF636D9A689207FCD402211A688A43ED
:103A60001A60626D93689B07FCD48023116ADB02A5
:103A7000194311628022616DD204086802430A6012
:103A8000616D8A6A1A438A62626DD16A0B43D3629E
:103A9000636D9A689207FCD49A689207FCD402225C
:103AA00019680A431A60626D93689B07FCD41FBDB6
:103AB000436D9A689207FCD402211A688A431A60FF
:103AC000436D9A689207FCD41A680E490A401A603E
:103AD000426D93689B07FCD48023916A1B031943B2
:103AE0009162426DD16A0B43D362436D9A6892072B
:103AF000FCD4022219680A431A60426D93689B073E
:103B0000FCD47047FFFFFFF713B5032204001349ED
:103B100001A808F0C3FEF0236A461B0101A9138027
:103B200020000F4B00F0F2F90E4BB0220833236057
:103B30002300120198331A800B4B2000A360E3602E
:103B4000FFF7B6FFC321094A8900535820001B0222
:103B50001B0A535080231B02136016BD34F0000073
:103B60000020004238F00000FFFFFF0000E100E00D
:103B700070B50126064D074C2B68334203D1200057
:103B8000FFF7C2FF2E60200000F052FA70BDC04661
:103B90009C020020A002002002230C4A10B51168EC
:103BA0000B4C0B4313600B4B1421238100F032FAB2
:103BB000FE230422DB0300041840074B1843606017
:103BC000E3681B0A1342FBD110BDC046200400402D
:103BD000000400420D03000002000002E02313B5C0
:103BE000DB0001A90B8000238B70A0236A46040030
:103BF0005B0113800A4B00F089F9C421FF20094BB7
:103C0000890008332360084BA360E360074B5A58D0
:103C100082435A508022520220001A6016BDC046CC
:103C2000002400425CF00000FFFFFF0000E100E024
:103C300070B50126064D074C2B68334203D1200096
:103C4000FFF7CCFF2E60200000F0F2F970BDC046F7
:103C5000BC0B0020C00B002002230C4A10B51168D9
:103C60000B4C0B4313600B4B1521238100F0D2F951
:103C7000FE230822DB0300041840074B1843606052
:103C8000E3681B0A1342FBD110BDC046200400406C
:103C900000040042110400000300000213B50322D7
:103CA00004000E4901A808F0F9FDA8236A465B014B
:103CB000138001A90A4B200000F028F9C421094B08
:103CC000890008332360084B08485A5802405A506C
:103CD0008022920220001A6016BDC04680F00000CB
:103CE0000028004284F0000000E100E0FF00FFFF38
:103CF00070B50126064D074C2B68334203D12000D6
:103D0000FFF7CCFF2E60200000F092F970BDC04696
:103D1000580C00205C0C002072B6BFF35F8FBFF31D
:103D20004F8FBFF36F8F01207047000010B5040064
:103D3000436D9A689207FCD402211A688A431A607C
:103D4000626D93689B07FCD4E020237911681B0205
:103D5000C00003400B431360636D9A689207FCD464
:103D60000122D96B0A43DA63636D9A689207FCD427
:103D70001A681D490A401A60636D9A689207FCD45C
:103D8000220028321278002A08D180229969520232
:103D90000A439A61626D93689B07FCD423682000F4
:103DA0005B699847626D93681B05FCD4E3685B0808
:103DB0001365626D93681B05FCD48023916A5B02D6
:103DC00019439162626DD16A0B43D362636D9A6845
:103DD0009207FCD4022219680A431A60626D936844
:103DE0009B07FCD410BDC046FFFFFFFE704710B517
:103DF000436DDB6B5B075B0F012B01D100F086FA93
:103E000010BD70B5040000F01BFB002803D0E36870
:103E1000626D5B0813652000E56800F045FBE26B0E
:103E2000013DAD18636D28185864236CE26B9B1834
:103E300023640023E36370BD80F31088BFF35F8FBA
:103E4000BFF34F8FBFF36F8FBFF35F8FBFF34F8F02
:103E5000BFF36F8F7047F7B504000D000192EFF3C9
:103E60001086FFF759FF002822D0EFF31087FFF7E5
:103E700053FF00280CD06378DBB20093002B07D0EF
:103E800000236370019B002B02D06368019A1360CA
:103E90003800FFF7D1FF009B002B05D0002D03D089
:103EA000A3682B60E3686B603000FFF7C5FF02E09A
:103EB0003000FFF7C1FF0098FEBD0000436D10B554
:103EC0000400002B03D1C9210E48FEF7EBFF636D00
:103ED0009A689207FCD402211A688A431A60636DBB
:103EE0009A689207FCD4196A074A0A431A620123A6
:103EF000616D8A6A1A438A62626DD16A0B43D3622A
:103F000010BDC046A8F0000003400000F8B5040052
:103F10001D00170000F0C4F9154B0126083323607B
:103F20002300656520000025764258331D70390056
:103F30005D700222E66525666566A566E56625670D
:103F40006567783008F0AAFC230022007C331D70DE
:103F50005D70231DDE6780331D605D608C32643BC5
:103F600003CB03C22000DE66FFF7A8FF2000F8BDE8
:103F7000D8F0000070B505000E00EFF31084FFF7D5
:103F8000CBFE002800D0EE652000FFF755FF70BD86
:103F90001FB5030058331970203319785A7803235A
:103FA000039300230400009303AB00F013FB23688A
:103FB00020009B699847636D9A689207FCD40221A0
:103FC0001A688A431A60626D93689B07FCD4802349
:103FD000116A9B02194311628022616D9204086884
:103FE00002430A60616D8A6A1A438A62626DD16A0D
:103FF0000B43D362636D9A689207FCD49A68920768
:10400000FCD4022219680A431A60626D93689B0708
:10401000FCD41FBD0F2008400C307047030010B5C2
:1040200079331A78013B197800F086FB10BD000047
:10403000F0B5436D87B0DA6A0400D20719D50122C2
:10404000DA62FEF7C1F8636D01005A6C04A82379A7
:104050000132FFF7EDF9200004A9203002F084FFBF
:10406000236820005B699847200000F0BFFB07B081
:10407000F0BDDA6A12030DD580221203DA62020063
:1040800003008C32203303CB03C2636D94341B6D69
:104090002360ECE7DA6AD20313D580225202DA6297
:1040A00000F058FB230028331A789042DFD0012219
:1040B0005A70E36A9B18E362236A2363636A63634B
:1040C000D5E7DA6A920361D507001A6B94379E6CC4
:1040D00002AD930319D523003A682033B24201D8C8
:1040E00023008C332A0003CB03C2FEF76DF823793B
:1040F0000100320004A8FFF79BF96834280004A9E6
:1041000002F032FF0CCD0CC4B1E7FFF787FF2300AC
:1041100058331B789842DED123003A682033B242EC
:1041200001D823008C332A0003CB03C2FEF74CF8DE
:104130003200260027002379010004A8FFF778F950
:10414000683604A9280002F00FFF3200290004A8F5
:1041500002F032FF049B5837002B00DA87E7236711
:10416000059B00220193636704A8204B02F0CAFE5E
:1041700004A9300002F0F8FE01237B70E36D0133E7
:10418000E365A36E2366E36E636670E7DA6A520343
:1041900000D46CE78022D202DA62436DD96C03004E
:1041A00094331A68083B914200D26C3B02AD2A005E
:1041B00003CB03C2FEF708F8636D0100DA6C04A8B4
:1041C0002379FFF735F904A9280002F0CDFE23007A
:1041D00001227C335A70221DD36F0133D367230031
:1041E000029A0833DA6788346B6851E70000E03FD1
:1041F00010B57C30FFF72FFE10BDF7B5050000911C
:1042000001921C00EFF31087FFF786FD00280DD008
:104210002800019A00995830FFF71DFE061E05D0B0
:10422000002C03D02B6F23606B6F63603800FFF7A7
:1042300003FE3000FEBD72B6BFF35F8FBFF34F8F3A
:10424000BFF36F8F0120704780F31088BFF35F8F3B
:10425000BFF34F8FBFF36F8FBFF35F8FBFF34F8FEE
:10426000BFF36F8F7047F8B505000F00EFF31086AE
:10427000FFF7E1FF00280DD06C78E4B2002C05D0E8
:1042800000236B709F4201D06B683B603000FFF7EA
:10429000DBFF02E03000FFF7D7FF2000F8BD000091
:1042A000F8B50400174B00250360174B0F0083601F
:1042B000C360210001234562057105824561856166
:1042C000C56103622431203002F03AFE012623004A
:1042D0002000283376421D7039005D700322E662AB
:1042E00025636563383008F0D9FA23004433E56369
:1042F00025641D705D70A6641D812565FDF764FF52
:104300002000F8BD04F10000FFFF00004900818398
:104310007047818370470000F7B501901D00037955
:104320001400154A5B00985A08F0FCF802000B00D4
:104330000020124906F0E0FE22002B0007F0E6FA0A
:1043400000220F4B04000D0006F0BAFB00220023F0
:1043500006000F002000290005F008FC00220023C1
:10436000002800D0074B3000390007F041FD08F06D
:10437000A3F8019BD863F7BD1CF10000D012634184
:104380000000E03F0000F03FF0B5428B87B0040032
:104390000F00038B8A4239D0002B39D10379234A8D
:1043A0005B009B5A866801935E43300008F0F4F886
:1043B0000B0002001E49002006F09EFE05F050FC96
:1043C000310005001B4805F0CBFA4B1E99416D18D2
:1043D0002B1CADB2BD4200D23B1C9DB26383A383B4
:1043E000019B5D436561280008F0D6F802000B00D0
:1043F00000200F4906F080FE05F032FC2900E06045
:104400000C4805F0ADFA218207B0F0BD002BFBD0BF
:10441000094B03AA039303231371084B206D936088
:10442000036807211B689847EEE7C0461CF10000AF
:10443000D0126341809698009CEC00002CF10000A3
:104440007FB56E46438B858B3200ED1A6B1E9D4106
:1044500003002033040003CB03C2FDF7B5FE23792C
:104460000100226C02A8FEF7E3FF02A9300002F06F
:104470008FFD7368EDB25A4253411D4003D0A18BAA
:104480002000FFF781FF280004B070BD70B5050063
:104490000E00EFF31084FFF7CEFE002800D0EE628E
:1044A0002000FFF7D1FE70BD10B50400008B238AF9
:1044B0006169C01880B205F053FA80B2218310BD43
:1044C00008231B4A70B511680B43010013600200FA
:1044D00039310B7838325C10DB0720D51378DB01DB
:1044E0001B19144C1B1940241D782C431C70147884
:1044F0000B78E4011B1901240F4E3A309B191D78EB
:104500002C431C700378002B08D012780B78D20152
:104510009B1840229B1919780A431A7070BD1378B2
:10452000DB011B19034C1B191D780424DDE7C04671
:104530001C0400403044004140440041030070B579
:1045400004000D0028331A70FDF73EFEA268290012
:10455000FEF7C4FF6D00A9B220712000FFF714FF21
:1045600023682000DB6898472000FFF7A9FF70BD93
:1045700070B51600020004000D0028321370FDF71C
:1045800023FEA2682900FEF767FF290020712000A2
:10459000FFF7FAFE300007F0C5FF00220B4B07F0D3
:1045A000B5F905F05DFB2379094A5B00995A05F0DE
:1045B000D7F94B1E994123680818E0831B69200036
:1045C00098472000FFF77CFF70BDC04600002440E4
:1045D0001CF10000F0B505A806780820484CC90178
:1045E0002568284320600124250095404548081887
:1045F000456055104019303004785118E4B2047009
:104600004148091801200C782043087002200C78DA
:10461000204308701C68631E022B05D83B4B3C49A5
:1046200059805978C909FCD140233A4908680343A5
:104630000B60394B19005878C009FCD10225187855
:10464000A84318704B78DB09FCD10F2001251040DE
:1046500085404B682B434B6002230F2A03D8053358
:1046600093429B415B42072706333A40501E9B0012
:104670003C40CA58062805D805F0E2F8072E323526
:10468000383B3E00BA43144304E020017024A243A7
:1046900014000443CC50002E05D0CB682B43CB60D4
:1046A0000B691D430D614B78DB09FCD10A7802339D
:1046B00013430B704B78DB09FCD1002E0BD0C120CB
:1046C000FF21164B80001A588A43110080220A43AA
:1046D0001A5010221A60F0BD2002114C1440D8E785
:1046E0002003104CFAE720040F4CF7E720050F4C8D
:1046F000F4E720060E4CF1E70E4824070240C2E71B
:104700001C0400400044004140440041000C0040B3
:1047100005440000180400400018004000E100E0DB
:10472000FFF8FFFFFF8FFFFFFFFFF8FFFFFF8FFF87
:10473000FFFFFFF8FFFFFF8F054BC901C9180123D9
:104740009340086A1840431E9841C0B27047C04663
:1047500000440041030038331B78064A3930DB013E
:104760009B180278012090401B6A1840431E984114
:10477000C0B270470044004110B52830FFF76BFB12
:1047800010BD73B5040028300E00FFF764FB051E52
:104790000BD0FDF719FD23790100226C6846FEF766
:1047A00047FE6946300002F0F3FB280076BD10B5E5
:1047B0004430FFF758FD10BD030010B54D33197894
:1047C0000F23094C194022690E3B92B20A411A424A
:1047D00009D0020044325370826CD2188B4082643C
:1047E00022691343236110BD00180040D3B50400B3
:1047F000406A07F0D1FE00220D4B06000F0005F0C5
:10480000C9F9002812D000220A4B3000390005F007
:10481000ADF900280AD0FDF7D7FC01006846FEF785
:104820003DFE009B226A9A4200D02362D3BDC0465F
:1048300084D7A74184D7C74110B504000800216080
:10484000012103F0EBF82068012103F033F9200087
:1048500010BD000010B50400024802F009FC200061
:1048600010BDC046A00F002037B500246B466A4635
:104870005C71032305001371019A0449044802F096
:10488000FFFB2868210003F015F937BD40420F00F7
:10489000A00F002010B50121006803F00BF90248B9
:1048A00002F00AFC10BDC046A00F002070B50C003D
:1048B0000500FFF7D9FF104E2100300002F010FC78
:1048C0000021300002F00CFC2800FFF7E3FF280075
:1048D000FFF7CAFF0021300002F002FC00210400B3
:1048E000300002F0FDFB06002800FFF7D3FF200296
:1048F000304300B270BDC046A00F0020F8B50700DD
:10490000FFF7B2FF554C3E21200002F0E9FB0021E9
:10491000200002F0E5FB0021200002F0E1FB002175
:104920000600200002F0DCFB36024D4D30432880AB
:104930000021200002F0D4FB00210600200002F03C
:10494000CFFB3602304368800021200002F0C8FB14
:1049500000210600200002F0C3FB36023043A8808D
:104960000021200002F0BCFB00210600200002F024
:10497000B7FB36023043E8800021200002F0B0FB94
:1049800000210600200002F0ABFB360230432881F4
:104990000021200002F0A4FB00210600200002F00C
:1049A0009FFB3602304368810021200002F098FB13
:1049B00000210600200002F093FB36023043A8815C
:1049C0000021200002F08CFB00210600200002F0F4
:1049D00087FB36023043E8810021200002F080FB93
:1049E00000210600200002F07BFB360230432882C3
:1049F0000021200002F074FB00210600200002F0DC
:104A00006FFB3602304368820021200002F068FB11
:104A100000210600200002F063FB36023043A8822A
:104A20000021200002F05CFB00210600200002F0C3
:104A300057FB36023043E8820021200002F050FB91
:104A400000210600200002F04BFB36023043288391
:104A50003800FFF71FFF2800F8BDC046A00F002058
:104A6000F40C0020F8B580231400802605001943BB
:104A700012127F331C401A4009020C437600114386
:104A80000E43FFF7F1FE0F4F310A380002F028FB0A
:104A9000F1B2380002F024FB2800FFF7FBFE24B23D
:104AA0002800FFF7E1FEA1B23800090A02F018FB66
:104AB000E1B2380002F014FB2800FFF7EBFE012002
:104AC000F8BDC046A00F002010B5040000221A2136
:104AD000FFF7C8FF00221C212000FFF7C3FF0022C0
:104AE0001E212000FFF7BEFF002220212000FFF73B
:104AF000B9FF002222212000FFF7B4FF0022242169
:104B00002000FFF7AFFF002226212000FFF7AAFFB9
:104B1000002228212000FFF7A5FF00222A212000E3
:104B2000FFF7A0FF00222C212000FFF79BFF0022AF
:104B30002E212000FFF796FF002230212000FFF7F2
:104B400091FF062234212000FFF78CFF012236213D
:104B50002000FFF787FF0F4A38212000FFF782FF70
:104B6000002240212000FFF77DFF0022422120008B
:104B7000FFF778FF002244212000FFF773FF002297
:104B800046212000FFF76EFF002248212000FFF79A
:104B900069FF10BD0204000010B504001A4802F0BD
:104BA0003FFA2000FFF790FF02223E212000FFF78E
:104BB00059FF80223E212000FFF754FF962040003D
:104BC00002F0ACFD562234212000FFF74BFF1420E9
:104BD00002F0A4FD0D4A32212000FFF743FF14200C
:104BE00002F09CFD002236212000FFF73BFF14203D
:104BF00002F094FD80223821D2002000FFF732FF1E
:104C0000142002F08BFD10BDA00F00200202000056
:104C1000F0B5082001250C68176866087C402C4216
:104C200001D01C6866400E60146801386408C0B288
:104C300014600028EFD1F0BDF0B58C1C18310700CE
:104C40000E00FF25114B85B00393114B00930022FA
:104C5000A35E69461A122A402B400292019301AAD0
:104C600003AB3800FFF7D4FF023403AB02AA694656
:104C70003800FFF7CDFFA642E9D1009BDB43180ABD
:104C800028401B02184300B205B0F0BD21100000FF
:104C9000FFFF000010B50A304822002107F01AFE7D
:104CA00010BD70B504000325FFF7F4FF2A000021B2
:104CB000200007F00FFE60190422002107F00AFE11
:104CC0002A00E01D002107F005FE230000225233D8
:104CD0001A700123A365E36523666434227070BDF6
:104CE00002000023523210B5137001228265C265A2
:104CF000026602000400643243651370938093716E
:104D0000C3660367FFF7CDFF200010BD836D002B46
:104D100003D1C36D002B00D10366006E0138431E22
:104D20009841C0B2704773B51E006B461000150065
:104D3000DC1DD97108F022FBB0420DD223782C2B58
:104D40000AD00D2B08D0202293430A2B04D01F3AFF
:104D50002100280008F019FB73BD2A2903D0523026
:104D6000037859400170704713B504000A490322C3
:104D700001A807F093FD01A9200008F0F5FA00282A
:104D800006D1A065A06D0138431E9841C0B216BD82
:104D90000123A365F6E7C0465EF1000013B5094B99
:104DA000040001A90330019308F0DEFA002806D1BF
:104DB000E065E06D0138431E9841C0B216BD012385
:104DC000E365F6E75A44410010B50400C36D64344E
:104DD000002B09D1010022780A31683000F050F927
:104DE00023780133237010BD0020F9E710B50400CB
:104DF00010220021073008F061FB52342378C0B242
:104E0000181A43425841C0B210BD70B504000E00DC
:104E1000052908D8080004F013FD03060B19202704
:104E20002000FFF73EFF2000FFF734FF666570BDEE
:104E3000636D012BF7D12000FFF796FF0500002DD1
:104E4000F1D12000FFF72DFF6565F0E7636D022BC0
:104E500004D12000FFF7A2FFF0E7636D032BE2D13E
:104E60002000FFF7B1FFE9E7636D042BDBD12000E1
:104E7000FFF7BCFF05002000FFF748FF0540EDB23B
:104E8000DDE770B50400406D0D00042844D804F03F
:104E9000D7FC03081B2838000121242D10D0206ED8
:104EA00070BD2000FFF759FF2900022322002000D7
:104EB000FFF739FF200008F061FA01000228EED167
:104EC0002000FFF7A2FFEAE72000FFF746FFE21C01
:104ED000032329002000FFF726FF2C2DDFD103211B
:104EE000EEE72000FFF739FF220047230A322900AE
:104EF0002000FFF718FF2C2DF1D004212A2DCED150
:104F0000DEE7E21D02232000FFF70DFF0D2D01D08B
:104F10000A2DC4D10521D3E70021D1E7F0B5002542
:104F200085B000AFB860456008000E0008F026FAB2
:104F30000123062843D9B2792B002E2A3FD1013311
:104F400007283CD06B460738C4B230007B6008F0BD
:104F500015FAA31D834280414342FB60230069464A
:104F60000833DB08DB00CB1A9D46621C290068462B
:104F70003B6007F0AFFCF11D2200684607F08EFC95
:104F800068466B4609211A1A94420ADD2E001A78E7
:104F90000133303A91426E413200FE681640FE60A5
:104FA000F1E70A220021386808F020FB431C5A1E52
:104FB0009341FA681340BA6850607A6895461800C1
:104FC000BD4605B0F0BD0000010010B54C6886B0CC
:104FD000437A027A04948C780C3003944C780294CF
:104FE0000C78019449890091024908F09DF906B0B6
:104FF00010BDC04661F10000F0B5140085B000AFEF
:105000000500F960BB6008F0B9F9FB6869461B1937
:10501000013B8342804123000833DB08DB00CB1ACD
:105020009D46621C0021464268467B6007F052FCA8
:10503000FB682200E918684607F030FCEC466B4636
:105040000920002162469A1A944207DD0D001A7861
:105050000133303A90424D412E40F3E70A220021BD
:10506000786808F0C3FAFE22002382425B41BA68E6
:105070003340002A00D010701800BD4605B0F0BDC6
:10508000F0B585B000AF04000E00052A26D8100048
:1050900004F0D6FB032D35386C6C2300022200216E
:1050A0003000FFF7A9FF022205001100631C300049
:1050B000FFF7A2FF2B000340DBB21D000222A31C5E
:1050C00004213000FFF798FF2B003100034020003F
:1050D0001D00FFF723FF2840002847D1232200218D
:1050E000200007F0F7FB0020BD4605B0F0BD23000F
:1050F0000833022200213000FFF77EFFECE7230097
:105100000933F6E76B4608003B6008F037F90323E4
:1051100083429B415B427B600C230025FB181D7082
:10512000082304223100F81807F0B8FB2E000922EA
:1051300008233100FB185B5D0135303B9A42714119
:105140000B00796819407960042DF1D108230A22F7
:10515000F818002108F04AFA074A03008242764113
:10516000638178683B6830409D46B5E72000FFF7D3
:105170002BFF0120B8E7C046FEFF000070B5040019
:1051800004300D00FCF7BAFF23692B5423692D1856
:105190001B0A6B7023690A301B0CAB7023691B0E52
:1051A000EB701422A35E2B719BB21B0A6B7116224B
:1051B000A35EAB719BB21B0AEB711822A35E2B722C
:1051C0009BB21B0A6B7270BD70B5040004300D00F9
:1051D000FCF7ACFF2A5C2D1822616B780A301B02A9
:1051E0001A432261AB781B0413432361EA78120649
:1051F000134323616A792B7912021343A382EA795C
:10520000AB7912021343E3826A7A2B7A12021343B8
:10521000238370BD004870474CF20000004870477F
:105220002BF2000070B5050004300C00FCF766FF9F
:105230002B6923542B6924181B0A63702B690630D1
:105240001B0CA3702B691B0EE3701422AB5E237141
:105250009BB21B0A637170BD70B5040004300D0071
:10526000FCF764FF2A5C2D1822616B7806301B0264
:105270001A432261AB781B0413432361EA781206B8
:10528000134323616A792B7912021343A38270BD01
:105290000048704784F200000048704763F2000045
:1052A00070B5050004300C00FCF728FF2B6923546F
:1052B0002B6924181B0A63702B6906301B0CA37022
:1052C0002B691B0EE3701422AB5E23719BB21B0A89
:1052D000637170BD70B5040004300D00FCF726FF4B
:1052E0002A5C2D1822616B7806301B021A4322615A
:1052F000AB781B0413432361EA781206134323613E
:105300006A792B7912021343A38270BD004870475B
:10531000BCF20000004870479BF20000F0B50400AA
:1053200085B01F000AAB1B78260000930BAB1B78DF
:10533000143601930CAB1D7801F07CFA290000258E
:10534000124B300008332360FFF776FA3000A56176
:10535000E56125626562A562E56225636563A56313
:10536000FFF71AFCE068A8420CD02A003900FFF7CA
:10537000E5F80123E06803930368019A1D6800992A
:1053800003ABA847200005B0F0BDC046D8F200002E
:105390000B4B10B5C21800231468002C09D1DA1D7C
:1053A000FF32920082185160C86001207D338B600B
:1053B00010BD01330432192BEED10020F8E7C046AE
:1053C0001C040000F7B50400019301F03DFA636886
:1053D0000093002B63D001253149324B0A682A40E3
:1053E00008D1314E9A601E60304EDA605E601A61FC
:1053F0009A820D6001262E4D2E4A2968314009D12E
:105400002D4F91601760294FD16057601161516134
:1054100011832E600127294E3168394009D1284D6A
:105420002848A96028602148E96068602961A9824C
:1054300037600127244D224E2968A2626362E6622A
:105440003940224A04D101985360106011612F60E5
:1054500001271F4D1F492B683B4005D108980B6160
:10546000086014482F60486001231B4F9C463D682C
:105470001D401A4B05D109985E60186060461D6199
:105480003860A161E26123620098FFF781FFE16962
:105490006068FFF77DFF216A6068FFF779FFF7BD5D
:1054A0001C0D0020600D0020A4F100006CEC000039
:1054B000140D0020300D00208CF10000240D002080
:1054C0008C0D0020BCF10000200D0020780D002084
:1054D000180D00204C0D0020280D0020A40D0020E8
:1054E000F0B50400C06885B0002807D02269002A02
:1054F00004D0210010323031FFF73EF92369002B30
:1055000002D1002301939EE0E0680028F9D0002139
:10551000FFF74DF901900028F3D026001436300033
:10552000FFF7ECF9050001003000FFF785FB1822BA
:10553000AB5E834200D0D9E080232A881A400292D1
:1055400016D0616A002913D0236922009C460B0003
:105550003032083381CA81C363461B69E0691B0985
:105560000B611422AB5E8B82002801D0FDF7FEFD9B
:105570002169002938D00B0022000833303281CA5B
:1055800081C30222AB5EA0684B830422AB5E8B8397
:105590000622AB5ECB830822AB5E8B820A22AB5E17
:1055A000CB820C22AB5E0B83002801D0FDF7DEFD21
:1055B000A06B042818D804F043F903494B6D7A0016
:1055C00036213000FFF772F9A087C2B290200001A7
:1055D000024336213000FFF745FA494A012160684D
:1055E000FDF744F80123A363029B002B1AD0A16AA4
:1055F000002917D00B0022000833303241CA41C3C2
:105600002369A0691B691B090B610E22AB5E8B82AB
:105610001022AB5ECB821222AB5E0B83002801D03E
:10562000FDF7A4FDE16A00290DD00B00220008332C
:10563000303241CA41C31622AB5E206A8B820028F9
:1056400001D0FDF793FD019805B0F0BD0223CAE734
:105650002C4A01216068FDF709F8AA881A215242F4
:1056600093B21F00EA883000524293B26A880393D3
:10567000524212B2FFF7F6F93AB21C213000FFF79E
:10568000F1F96B461E210C229A5E3000FFF7EAF911
:105690000323A8E71C4A01216068FCF7E7FF3C23CD
:1056A000E25E36213000FFF7DDF904239BE701209D
:1056B000236916491A690B68154F034201D13A60F4
:1056C0000860FA203B688000D11A814200D88BE73D
:1056D000322130003A60FFF7E9F880229200424020
:1056E00012B232213000FFF7BDF97DE76068002873
:1056F00000D106E7074A0221FCF7B8FF01E7C046E0
:10570000CCF10000E8F10000FEF10000100D0020D7
:105710002C0D002017F2000083880B708388022074
:105720001B0A4B7070470B7883804A781202134330
:10573000838002207047000000487047C8F30000D3
:1057400000487047A7F300000048704797F3000037
:105750000048704776F3000043680B7043681B0AEB
:105760004B7043681B0C8B70436804201B0ECB707E
:1057700070470A7842604B781B021A4342608B786C
:105780001B0413434360CA7812061343436004208A
:105790007047000000487047F9F300000048704768
:1057A000D8F3000070B5040005000C342000FFF7AA
:1057B000E0FFAA69EB69501018186B69D20701D590
:1057C0000268D3582100984770BD006A70470000F6
:1057D00000487047F9F3000000487047D8F3000014
:1057E00070B5040005000C342000FFF79CFFAA6987
:1057F000EB69501018186B69D20701D50268D358AD
:105800002100984770BD006A70470000004870474B
:10581000C8F3000000487047A7F30000436870B564
:105820000B70436805001B0A4B7043680C001B0C8F
:105830008B7043681B0ECB7083680B7183681B0AE7
:105840004B7183681B0C8B7183681B0ECB71C36813
:105850000B72C3681B0A4B72C3681B0C8B72C36844
:105860001B0ECB72006907F089FD030A6373030CFA
:1058700006002073A373030E2000E373296932002E
:10588000103007F00BF83000103070BD70B5040018
:1058900000261000074D04AA083512786160A66042
:1058A000E06025602661B04202D01900FEF746FE96
:1058B000200070BD2CF40000F7B50126434F019382
:1058C0003D6835400CD1424C424B25822360424B0F
:1058D000A561E360414BE06163612662A2603E60C6
:1058E0004468002C10D0C268902314650022DB00AD
:1058F000E5182B68002B5AD115002135344EFF35A1
:10590000AD0064322E5172604368002B4ED00126E8
:10591000334D344A2C68344007D1334F546094607F
:10592000D460324C176014612E600127304E026142
:105930003568304C3D4004D1089B6260236025618E
:10594000376001252C4F84603E682E400DD12B4AD4
:105950002B4B166113602B4B0436D360019B5661B1
:105960009561D061156293603D60274B4568EA18E8
:1059700000231668002E1FD1DA1DFF329200AA18EC
:105980007D335460A360E56090234468DB00E21837
:1059900000231568002D14D11A002132174DFF3253
:1059A0009200643315516B6003691961F7BD0132D0
:1059B0000435192A9DD1A7E701330432192BD8D118
:1059C000E2E701330432192BE3D1EDE7C40D0020E7
:1059D000140E002004F30000ECF20000B95A00009D
:1059E000BC0D0020DC0D00201CF30000590001005C
:1059F000B80D0020C80D0020C00D0020F00D0020C3
:105A00004CF3000034F300001C040000F7B50A78E2
:105A10000C0042604B7805001B021A4342608B78F1
:105A20001B0413434360CA781206134343600A7988
:105A300082604B791B021A4382608B791B041343EB
:105A40008360CA791206134383600A7AC2604B7A74
:105A50001B021A43C2608B7A1B041343C360CA7AC9
:105A60000C3112061343C36001A8FCF7E4FC2200CA
:105A700001990F3208001300103001331E1BB04291
:105A800003D91F785E1E3770F7E700236418E373AD
:105A90002A61FEBD10B50400C068002802D0496824
:105AA000FEF7F4FC6068002803D0024A0121FCF7ED
:105AB000DDFD10BD09F4000030B50400C0688FB0F2
:105AC0000D00002810D0036889889B689847636898
:105AD000002B09D0AA88054901A807F025FC01AAD6
:105AE00001216068FCF7C2FD0FB030BD5CF300001F
:105AF0001FB50400C068002810D04968FEF73AFAC4
:105B0000606800280AD0064B01AA01930123137193
:105B1000044B0721936003681B6898471FBDC0466C
:105B20009CEC00003CF40000F7B50400150008AA46
:105B3000127809A806780AA80778009220002A009F
:105B4000FFF7A4FE084B2775083323600023A361E9
:105B5000E361236263629D4203D031002800FEF7B7
:105B600017FA2000FEBDC04660F40000F0B5C3681F
:105B700085B00400002B48D0036A002B45D00100FB
:105B800002691831083202A801F016FA039806F0EB
:105B9000C9FC204A204B05F0B9FE060002980F0010
:105BA00006F0C0FC0B0002003900300004F088FF52
:105BB0000D0001912100226900900832203102A8D5
:105BC00001F0FAF9039806F0ADFC124A124B05F009
:105BD0009DFE060002980F0006F0A4FC02000B00D8
:105BE0003000390004F06CFF06000F006D00490022
:105BF0004B0832000098690803F0B8FF002806D06F
:105C0000009A019BE068FEF787FB05B0F0BD32000B
:105C10003B00F7E795D626E80B2E113E73B5002220
:105C20006D46C368040000926A60934214D0017DFF
:105C30001800914213D02900FEF7A3FD002808D0D8
:105C4000230022002033183203CA03C3103B06CDC1
:105C500006C3E068002802D10025280076BD21692E
:105C60000029F9D00A1D00230831FEF7C6FA051EE7
:105C7000F2D0237D002B02D02000FFF777FFA3682E
:105C8000002BEAD0D8689968026816682269B04784
:105C9000E3E7436870B50B70436805001B0A4B705F
:105CA00043680A001B0C8B70436814351B0ECB70C5
:105CB000836810320B7183681B0A4B7183681B0C5D
:105CC0008B7183681B0ECB71C3680B72C3681B0A90
:105CD0004B72C3681B0C8B72C3681B0ECB720369BB
:105CE0000B7303691B0A4B7303691B0C8B730369EA
:105CF0001B0ECB730B001C3310CD260A147056708C
:105D0000260C240E9670D47004329342F4D1040011
:105D10000D002034403504CC160A1A705E70160C43
:105D2000120E9E70DA700433AB42F4D1426C1A70DA
:105D30000B00140A41331C70140C120E9A700A00E6
:105D40005C70836C44321C0A137054701C0C1B0E64
:105D5000D370030094704C331C8814711B881B0A89
:105D600053710B00026D4A331A700A00036D4B32F7
:105D70001B0A1370036D4E311B0C5370036D5430AE
:105D80001B0E937003784F200B7070BD70B50A78AE
:105D90000C0042604B7805001B021A4342608B786E
:105DA00010341B0413434360CA781435120613439E
:105DB00043600A7982604B791B021A4382608B79B7
:105DC0001B0413438360CA791206134383600A7A63
:105DD000C2604B7A1B021A43C2608B7A1B041343C6
:105DE000C360CA7A12061343C3600A7B02614B7B0D
:105DF0001B021A4302618B7B1B0413430361CA7BA2
:105E00001206134303610B001C336278A67812025A
:105E10003604324326783243E67804343606324379
:105E200004C5A342F1D104000D00203440355A7856
:105E30009E781202360432431E783243DE780433F1
:105E40003606324304C4AB42F1D10A000C004132A1
:105E50004234127824781B7824041202224313431C
:105E60000A004332127804001206134343640A0006
:105E70000B00463245331B7812781B021204134381
:105E80000A00443212784C3413430A004732127825
:105E90001206134383640B000A0048331B7849320F
:105EA000238012781202134323800B004A331A789E
:105EB000013302651B781B021A430B0002654C3349
:105EC0001B781B0413430A0003654D3212784E31D0
:105ED0001206134303650B78543003704F2070BDD6
:105EE00000487047E6F4000000487047C5F4000021
:105EF0000D4B020003600023010043608360C36018
:105F000003610023203243618361C361443108C2CD
:105F10009142FCD102004364836400234C3213801D
:105F2000036513727047C04678F40000F8B5012786
:105F3000164E04003368164D3B4203D12800FFF78C
:105F4000D7FF3760A0686560002819D00126114985
:105F5000114A0B68334004D1104F5560176013612C
:105F60000E600F4BE260C11800230C68002C08D1B2
:105F7000D91DFF31890041187D334A609360D0609C
:105F8000F8BD01330431192BEFD1F9E73C0E0020A5
:105F9000540E0020380E0020400E0020BBF40000FC
:105FA0001C040000F0B5456893B00400002D5AD0E1
:105FB000436F291D002B58D1836F002B55D12A0028
:105FC00010A80C3200F0F8FF109B0E93119B1800E4
:105FD0000F9306F0A7FA864A864B05F097FC060059
:105FE0000E980F0006F09EFA02000B0030003900F8
:105FF00004F066FD06F054FB20670E9804F0D6FC12
:1060000006F0FCFA00227C4B05F080FC06000F989D
:106010000F0004F0CBFC06F0F1FA784A784B05F05B
:1060200075FC02000B003000390004F049FD06F059
:1060300037FBFF2365689B05AB61724B724AEB61CE
:10604000FE239B052B6200236B62AB62EB626B63EA
:10605000AB63EB636D4B68612A632B6463687434D4
:10606000043306CB06C413B0F0BD220010A874326E
:1060700000F0A2FF119806F055FA5D4A5D4B05F05D
:1060800045FC060010980F0006F04CFA02000B00C9
:106090003000390004F014FD06F002FB6864656806
:1060A0002B004C33188804F0CBFC230028330193D9
:1060B000EB69011C00936A69AB69686CFCF7FAFE36
:1060C0002300656834330C93EB690B93AB690A9337
:1060D000236A0993E3690893A36907932B004C3360
:1060E000188804F0ADFC06902B6C0593EB6B0493C1
:1060F000AB6B03936B6B02932B6B0193EB6A009377
:10610000AB6A6A6A296A686CFCF7F4FE616810A8D9
:106110000A0004310C3200F04FFF109804F046FCE6
:1061200006F06CFA0022344B05F0F0FB06001198E3
:106130000F0004F03BFC06F061FA304A304B05F0EA
:10614000E5FB0B0002003900300004F0B9FC06F05A
:10615000A7FA2200011CA0655C32A06AFCF76EFF62
:106160002200616A6032606BFCF771FF23006433C8
:106170000093236EE26C216C606BFCF773FF636825
:1061800014330393236B0293E36A0193A36A00938E
:10619000E36DE26EA16E606EFCF778FF63682033FA
:1061A0000893636D0793236D0693E36C0593A36CCB
:1061B0000493636C0393236C0293E36B0193A36BCF
:1061C0000093E26EA16E636B606EFCF77CFF656806
:1061D0002B004C33188804F0E9FB0D4904F0D0F88B
:1061E000A96904F0FFF9E96904F0CAF8A86435E781
:1061F00095D626E80B2E113E80842E41FCA9F1D2C3
:106200004D62503F0000C0400AD7233BEC51B83CE0
:106210000D68533B30B5446899B00500002C32D06E
:1062200002A8FFF765FE231D03AA03CA03C305AA3C
:1062300003CA03C3079B22006361089B2032A3614A
:10624000099BE361002302A81918096AD15004339D
:10625000242BF8D1139BD2216364149BFF31A364D8
:10626000019315AB1A8823004C331A80169B2365C3
:1062700017AB1B78543423706B681A004C321180B2
:10628000002254331A7000236B67AB6719B030BD1E
:10629000F8B52E4B0127036000232D4E4360C360E9
:1062A0003368040081602B4D3B4203D12800FDF789
:1062B0002BFC376000212300274A616125611833D8
:1062C00061CA61C3254B61676362002323672300B2
:1062D0007C33A1671970012321490A781A430A7097
:1062E000204A11780B4313701F4A1300D179C90952
:1062F000FCD11078013101431170DA79D209FCD157
:10630000597840320A435A70012259780A435A7028
:10631000D2221989FF320A431A81DA79D209FCD1D3
:10632000197802320A431A70D979C909FCD1206957
:10633000002801D0FDF77AFBA368002B01D0226969
:1063400013652000FFF766FF2000F8BD90F4000001
:106350009C020020A002002094F4000017B7D13B5B
:10636000314400414244004100480042F0B5066F0C
:10637000C5B004000021301C03F046FC01250028B4
:1063800031D0FE21301C890503F03EFC002800D1ED
:10639000051CEDB2002D2BD001273F4E3F4D336839
:1063A0003B4203D12800FCF7F9FF376063682800FF
:1063B000D968FDF72FF8626804AD13693849D268CF
:1063C000280006F0B1FF374B01AA01930123A06812
:1063D00013719560036807211B6898472000FFF739
:1063E00019FF45B0F0BD3049301C03F0F9FBCDE793
:1063F00065680021686C03F007FC0028F1D02B4988
:10640000A86903F0BDFF061C686906F0F7F8284A82
:10641000284B05F07BFA06F043F9011C301C04F010
:10642000E1F82549061C03F0DBFB00282ED12349A7
:10643000301C03F0E9FB00282AD1301C03F0DEF900
:1064400003F0F6FB1E4B80B219004C352880DA7938
:10645000D209FCD11881CB79DB09FCD1FE2165681A
:1064600089056B697C345800400803F0B9FB0028AB
:1064700010D023783C2B01D0013323703B232278AA
:10648000543593429B415B422B70AAE70A4ED4E7F6
:106490000A4ED2E72070F1E7F4030020F803002051
:1064A000A0F400009CEC0000000080BF00009B43B3
:1064B0002D54A3FC49A9084000001B4300C04144DF
:1064C0000048004270B50400406903281CD803F05E
:1064D000B7F902121D26206900280AD06168002938
:1064E00007D00A0004315032FDF782FE0123002854
:1064F00013D1002070BD236820001B689847022339
:1065000001280AD00228F4D1002306E02000FFF77A
:1065100049FD2000FFF72AFF03236361E9E7E368F1
:10652000002BF1D0D8689968026815686268A8479E
:10653000EAE70000F8B50400250017001E00FFF789
:10654000A7FE2000094B8430083308C5EF67FEF72B
:10655000C7FB23000022FC335A61E86F904203D04E
:1065600003683100DB6998472000F8BDB0F50000F2
:106570000300F0B5FC33CDB004935B690400002B3D
:1065800004D0032B00D19BE0002340E14368002BA3
:1065900052D0FBF719FE010008A8FCF77FFF6368E3
:1065A00008A91A1D0AA800F007FD0B9805F0BAFF0C
:1065B000984A994B05F0AAF906000A980F0005F0D1
:1065C000B1FF02000B003000390004F079FA0690A8
:1065D0000791FBF7F9FD0500006A05F0A3FF8D4A5E
:1065E0008D4B05F093F90600E8690F0005F09AFF5E
:1065F00002000B003000390004F062FA069A079B93
:106600000600802000060F183900300003F0C2FA9F
:10661000002815D106980799804A814B03F0BAFAF1
:1066200000280DD1069807997E4B7C4A03F0B2FAF8
:106630000323002800D0EAE0FC3460694DB0F0BDCF
:10664000A368002B37D0099805F0A6FF714A724B5A
:1066500005F05CF9060008980F0005F09DFF0200A8
:106660000B003000390004F02BFA069A079B65688E
:106670000292039304900591A86805F08DFF654A86
:10668000654B05F043F9060068680F0005F084FFCC
:1066900002000B003000390004F012FA049A059B46
:1066A0000090019160490CA806F03EFE0CAA022160
:1066B000A068FBF7DBFF23000222FC335A61BBE733
:1066C000051DE86F00282DD1FBF77EFD01000AA80B
:1066D000FCF7E4FE63680AA91A1D0CA800F06CFC24
:1066E0000D9805F01FFF4B4A4B4B05F00FF90600C4
:1066F0000C980F0005F016FF02000B003000390067
:1067000004F0DEF9454A464B03F044FA002800D174
:1067100092E7A068002803D0444A0321FBF7A6FFB4
:10672000022374E003681B6998470028CCD0E86F07
:106730002700036884375B699847C1B23800FEF7C9
:10674000A0FB002800D077E72300F0331E68002E5E
:1067500000D071E7E86F03681B69984701282ADCBD
:106760002000230022002100EE300078F433F532BF
:10677000F6311B781278098802902000ED300078FD
:1067800001902000EC30007800900AA800F0EAFCAC
:106790006368002B2BD1251DE86F03681B699847A0
:1067A000002833D0E86F03685B699847C1B23800AE
:1067B000FEF767FBEFE7A368002B0DD0E86F0368D7
:1067C0001B6998471A4902000CA806F0ADFD0CAAF7
:1067D0000221A068FBF74AFFE86F03681B6998472E
:1067E00000289DD0E86F03685B699847F4E70AA822
:1067F00000F0D0FC0CAD0C900DA928000D9600F017
:106800009FFB63680C3306CD06C3C4E70123049ADB
:10681000536111E795D626E80B2E113E9A99999966
:106820009999E93F9999C93FF6F400008AF500006B
:106830003FF500000023C260024A416083600260AD
:1068400003617047C4F50000F0B501252E4E346891
:106850002C400CD12D4B2E4F1C821F602D4F9C6164
:10686000DF602D4FD8615F611D62996035604168BE
:10687000002910D0C36819659023DB00CC180023D1
:106880002568002D36D11C002134204DFF34A40092
:10689000643365506B604468002C2AD001261F4D7C
:1068A0001F4B296831400AD11E4F99601F601E4F4F
:1068B000D9605F60196159619961D9612E600127C2
:1068C0001A4E036135681A493D4003D10A604B6096
:1068D0000D613760174B8160E218002310680028B3
:1068E0000DD1DA1DFF329200A2187D3351608B600A
:1068F000CC60F0BD01330434192BC1D1CBE7013397
:106900000432192BEAD1F4E7B40E0020EC0E00207B
:1069100004F30000ECF20000B95A0000B00E0020B1
:10692000CC0E0020E8EE00006CEC0000AC0E002065
:10693000B80E00201C04000070B5040004300D00E7
:10694000FBF7DCFB23692B5423692D181B0A6B70A2
:10695000236907301B0CAB7023691B0EEB70A38AF5
:106960002B71A38A1B0A6B71A37DAB7170BD70B5CF
:10697000040004300D00FBF7D9FB2A5C2D182261BE
:106980006B7807301B021A432261AB781B04134358
:106990002361EA781206134323612B79A3826A7973
:1069A00012021343A382AB79A37570BD00487047F0
:1069B00001F6000000487047E0F50000F0B5012541
:1069C000314E34682C400CD1304B314F1C821F604B
:1069D000304F9C61DF60304FD8615F611D6299600C
:1069E00035604168002910D0C36819659023DB0029
:1069F000CC1800232568002D3AD11C002134234DEA
:106A0000FF34A400643365506B604468002C29D0C7
:106A10000126224D224B2968314009D1214F99602E
:106A20001F60214FD9605F601961998299752E604E
:106A300001271E4E436135681D493D4003D10A6060
:106A40004B600D6137601B4B8160E21800231568B5
:106A5000002D12D1DA1DFF329200A2187D33516051
:106A60008B60CC604369002B01D01B690361F0BDD2
:106A700001330434192BBDD1C7E701330432192B7C
:106A8000E5D14369F1E7C046180F0020480F002008
:106A900004F30000ECF20000B95A0000100F0020CF
:106AA0001C0F0020D0F500006CEC0000140F00203B
:106AB000340F00201C04000070B50E001500094CB6
:106AC0006221200000F008FC3100200000F04DFCA5
:106AD0002900200000F049FC0121200000F06AFCA0
:106AE00070BDC046B80F002070B504000D0019003D
:106AF000104B100008332360012300225B426560C5
:106B0000A260E06023616261904203D002332832C8
:106B1000FDF72EFD084D280000F0B0FB28000749C6
:106B200000F0CCFB002220001100FFF7C5FF200081
:106B300070BDC04668F60000B80F0020801A06003D
:106B400070B5134C62210600200000F0C5FB012146
:106B5000200000F00AFC0121200000F02BFC051EA3
:106B600006D07068002803D00A4A0221FBF77EFD98
:106B7000012362211A00200000F0C6FB200000F073
:106B800051FC02000020854201D10130104070BD4F
:106B9000B80F002019F60000F8B51A4C07000E00D7
:106BA0002000622100F098FB8E21200000F0DDFB28
:106BB0000121200000F0FEFB051E06D078680028A9
:106BC00003D0114A0221FBF751FD01230322622168
:106BD000200000F099FB002E0FD0200000F022FCD6
:106BE000B075200000F01EFC0700200000F01AFC29
:106BF000FFB23F02C0B2C019B08268426841C0B261
:106C0000F8BDC046B80F002042F6000070B5040081
:106C1000C068002807D06169002904D00A00083143
:106C20001032FDF7A9FD6369002B01D1002070BD72
:106C30001B6922699A42F9D02000FFF781FF0028E2
:106C4000F4D161692000FFF7A7FF002808D0A368EE
:106C5000002B05D0D8689968026815686269A84752
:106C6000636901201B692361E1E770B5040004300A
:106C70000D00FBF743FA23692B5423692D181B0AD7
:106C80006B70236907301B0CAB7023691B0EEB7014
:106C9000A38A2B71A38A1B0A6B71A37DAB7170BD94
:106CA00070B5040004300D00FBF740FA2A5C2D1883
:106CB00022616B7807301B021A432261AB781B04F8
:106CC00013432361EA781206134323612B79A382CD
:106CD0006A7912021343A382AB79A37570BD0000D9
:106CE0000048704733F700000048704712F7000073
:106CF00010B500230160FF21040043608360C2607F
:106D00000174438243619A4205D0E121136849022C
:106D1000DB6910009847200010BD0000F0B5046842
:106D2000002C29D00126174D174B2A68324009D173
:106D3000164F9A601F60164FDA605F601A619A8280
:106D40009A752E600127134E83603568124A3D40C4
:106D500003D11160536015613760104B4260E11838
:106D600000230868002808D1D91DFF318900611867
:106D70007D334A609360D460F0BD01330431192B38
:106D8000EFD1F9E76C0F0020740F00207CF60000B3
:106D90006CEC0000700F00208C0F00201C04000021
:106DA000F0B583689DB00400002B03D100252800B6
:106DB0001DB0F0BDC0680028F8D003681B69984773
:106DC0000028F3D0E06803685B6998470500C2B209
:106DD0006069052834D802F033FD031D353C474E69
:106DE0000125FE2AE3D1364F364E3B682B4203D1B4
:106DF0003000FCF7D3FA3D606D46A76828003100EB
:106E00000837FCF74BFB0CCD0CC700230125638230
:106E10006561CCE7022A05D1638A6261023363822D
:106E20000125C4E72368002B0AD002222649EBB2D1
:106E300003A806F079FA0221206803AAFBF716FCE2
:106E4000002304E0638A22749A1803236282636138
:106E5000E6E792B2237C11025B18A1688B82638AF9
:106E6000D21862820423F2E7A3689A75638A9A189B
:106E700062820523EBE7E068EDB203681B6998477F
:106E8000A37CAB420FD100280FD16368002B05D043
:106E9000D868996802681568A268A847A26813694B
:106EA00001331361CCE7002805D02068074A002889
:106EB000C6D00221C2E720680028C1D0044AF8E702
:106EC000F4030020F80300208CF60000C1F6000057
:106ED000E9F6000030B50B680268084CA34203DDF8
:106EE000074D01325B19F9E7002B03DA034C013A35
:106EF0001B19F9E702600B6030BDC04600CA9A3B1F
:106F0000003665C4D0B516001F000400006805F007
:106F100009FB32003B0004F0F9FC05F0CDFA2060DB
:106F2000606805F0FFFA32003B0004F0EFFC05F06A
:106F3000C3FA211D60602000FFF7CCFF2000D0BD08
:106F400070B50D6806000C002800064902F082FCAE
:106F50003368044918183060280002F001FD2160F0
:106F600070BDC04600CA9A3B10B504000A680368A9
:106F70009B18013B426803604B68011DD318034A0C
:106F80009B184360FFF7DCFF200010BD00CA9A3B4E
:106F900010B5040003680A68013B9B1A0360054AA8
:106FA00043689B184A68011D9B1A4360FFF7C8FF9E
:106FB000200010BD00CA9A3B10B504000B68106891
:106FC00052681B1A23604B6820009B1A211D6360C6
:106FD000FFF780FF200010BD437A002B04D183729D
:106FE000C372C36001334372704730B5040085B08B
:106FF00002AD00680291039200F0EBFE6B79227AF9
:10700000E17900932068002301F054F82979029A6D
:10701000206800F0AFFE206800F0D1FE05B030BD62
:1070200070B518260400FFF7D7FF33000821207938
:107030000D4D4343EB18595600F068FD330008210D
:10704000A0794343EB18595600F060FD08216079A0
:107050004643AD19695600F059FD044B200006CB9C
:10706000FFF7C3FF70BDC04678F70000B00F0020E7
:1070700010B50400006800F095FE0023637210BD97
:1070800007B5837A00910192002B07D09A070AD5A1
:10709000EFF310835A425341C37272B60099019ABA
:1070A000FFF7A3FF07BDDB07F8D5C368014A9BB212
:1070B0009360F3E700180040837A002B05D09A070D
:1070C00004D5C37A002B00D062B67047DB07FCD52D
:1070D000C368024A9BB2D360F7E7C046001800407D
:1070E00010B5006800F07EFE10BD0000084B094A94
:1070F00009491A6000225A711A71084B196008492F
:107100005A729980182199711739D9711A7270477A
:10711000B00F002000093D0074160020A00F0020D1
:107120001617000070B5002304000D4E92B25D1CCE
:10713000E8B2814204D9F05C2B00121892B2F6E753
:10714000022903D9A30701D1013292B26E20FF3088
:107150006043E31C9B1001381818101880B270BDF2
:1071600046F70000F0B505AC2678084F06AC257848
:1071700007AC2478B94202D9054FC91989B2C67043
:1071800005710170427083704471F0BDCF0700003B
:1071900030F8FFFF10B50400827841780078FFF7DF
:1071A000C1FF030018205843E3782279C0183C231C
:1071B0005843801858436379C018014BC01810BD5C
:1071C00080436D3800207047F8B505000E001700A9
:1071D0000024BC4208D02B68315D1B68280098470A
:1071E000002801D00134F4E72000F8BD7047030007
:1071F000FC33196ADA69914203D01B6AC018007E19
:10720000704701204042FBE70300FC33D8691B6A4A
:10721000C01A01D50130FF3070470000F7B5019367
:10722000FA238026002504009B008360124B760021
:1072300008330F00456029000092036032001830C7
:1072400005F048FB23002000FC332130DD613200D3
:107250001D622900FF3005F03DFB87239B00E318EA
:107260005D609D606B461B78276123756B461B79BB
:10727000A57520006375FEBD54F7000070B50600CB
:1072800018250C49006900F03BFF306900F0C4FD8F
:107290002B000821307D084C4343E318595600F079
:1072A00035FC0821707D45436419615600F02EFCC1
:1072B00070BDC046A086010078F7000070B50400DC
:1072C0000D00006900F0BDFD2900206900F018FFE5
:1072D000206900F0A1FD70BD8A2300229B00C154EB
:1072E0000C3BC3185A609A600123837570470200F3
:1072F00010B5FC32536894680133DBB29C4202D073
:1073000054680155536010BDF7B5002405001700FF
:1073100001932000A24227D02B00FC33DC611C62C9
:107320000122286900F0C0FDA0421CD02E001836B2
:10733000286900F028FE013401003000FFF7D7FF74
:107340002869A74206D000F08FFD0221286900F0CD
:1073500095FDEDE700F07FFD019B002B03D003219D
:10736000286900F08BFDE0B2FEBD002210B5837DE0
:1073700093420DD087239B00C4186368A46801332F
:10738000DBB2A34204D02130FF30FFF7B0FF01226F
:10739000100010BD0300FC3399685A68914206D072
:1073A0009A68805C9A680132D2B29A607047012074
:1073B0004042FBE700228A2370B59B0082750500DE
:1073C0000E00C15C006900F06FFD002806D10321AA
:1073D000286900F053FD0224200070BD8723280097
:1073E0009B00EA18536894682130FF301C1B01D5BC
:1073F0000134FF34002C0ED02C69FFF7CBFFC1B253
:10740000200000F07EFD0028E8D10321286900F06B
:1074100035FD0324E0E7002EDED00321286900F0CB
:107420002DFDD9E710B51830FFF7B4FF10BD70B5CA
:107430000400006900F085FD002814D0206900F0E8
:107440008EFD002810D0206900F00EFD0321206978
:1074500000F014FD8C239B00E558002D39D100234A
:10746000FC34E361236270BD206900F082FD0028D6
:1074700009D0206900F078FD002804D0206900F0D0
:107480007DFD0028DFD0206900F073FD002826D1A3
:10749000206900F05FFD0028E5D0206900F06EFD56
:1074A000002837D087239B00E218536892689B1A04
:1074B00001D50133FF33FF21002B05D020002130FF
:1074C000FF30FFF767FFC1B2206900F02CFDA07507
:1074D000C9E7236820001B699847A847BFE72069D0
:1074E00000F0C2FC2069032100F0C8FC206900F014
:1074F00045FD0028B7D0872300229B00E3185A607F
:107500009A600123A3758B239B00E3589342AAD072
:107510009847A8E72200FC32D369126A0133DBB234
:107520002069934206D100F096FC0321206900F007
:10753000A5FC98E700F027FD010020001830FFF7B8
:10754000D6FE206900F090FCEFE7000010B502487D
:10755000FFF76DFF10BDC046B80F002010B5152312
:10756000142202490248FFF759FE10BD7016002090
:10757000B80F002010B5024801F0BDFF10BDC04695
:107580002814002010B5024801F0B5FF10BDC04618
:10759000EC11002073B5164E1649300000F060FB68
:1075A0001549164800F05CFB1549164800F058FBD9
:1075B0001549164800F054FB1549164800F050FBD9
:1075C000154D1649280000F04BFB01240022310024
:1075D000019223000094124801F022FF03232900A6
:1075E000009301941B331F220E4801F019FF73BD55
:1075F0006416002000080042000C004268160020BB
:10760000001000426C16002000140042701600208A
:10761000001800427416002078160020001C00425A
:1076200028140020EC110020FEE70000034B10B5E9
:107630001B68002B00D0984710BDC0467C16002068
:1076400070B50F490F4CA14204D100F08DF802F043
:107650003BF8FEE70C4D00238D42F6D0CA18E8181F
:10766000A24205D3094B8242EFD00949002204E02F
:10767000006804331060F1E704C38B42FCD3E4E7F5
:1076800000000020800200206C0001008002002029
:10769000781C002010B500F064F8002801D100F03B
:1076A00055F810BD014B18607047C0467C1600208D
:1076B000014B18687047C04680160020F7B5134884
:1076C000012284461249134C8E68636805689B0E3C
:1076D0001340019288686268019F920E3A406746A3
:1076E0003F6893420ED1BD420CD186420AD35B194A
:1076F000FA254868AD00861B07486B437043000DB0
:10770000C018FEBD3D0013000600E3E78016002010
:1077100010E000E000ED00E05555000070B5041EDB
:1077200010D0FFF7CBFF050000F01AF8FFF7C6FFF7
:10773000054B401B9842F7D9FA23013C9B00ED18FA
:10774000002CF3D170BDC046E703000010B5034A1A
:1077500013680133136000F047FA10BD8016002053
:1077600070470020704700001E2270B54648474908
:10777000436893431C3A1343436008238C692343B3
:107780008B61434C434B9C829C8A14439C82DC68F3
:107790001442FCD00124404A14701578254203D0CD
:1077A00055786DB2002DF8DB01249460547864B2F2
:1077B000002CFBDB394C5460547864B2002CFBDBAA
:1077C0008224E4015480547864B2002CFBDB022450
:1077D0009C840E34DD682542FCD0314CDC621024E0
:1077E000DD682542FCD09D8C2E4C2C439C841024BB
:1077F000DD682542FCD002249D8C80262C439C848D
:107800004024DD683542FCD0DD682542F9D01024E3
:10781000DD682542FCD000249460547864B2002CCA
:10782000FBDB214C5460547864B2002CFBDB1C6AF7
:107830001E4D2C4080251C621C6AAC431C62032335
:1078400093601B4B536053785BB2002BFBDB002330
:10785000FF240B72174A4B728B72CB72164B1A6055
:10786000164B174A1B6811689A065B01C90E234024
:10787000520F12020B431343124A138580234268AE
:107880001343436070BDC046004000410004004007
:107890000C06000000080040000C0040010501003B
:1078A000B905FF7D040A000000070300FFFCFFFF8D
:1078B00003060100006CDC0204000020246080004C
:1078C0002060800000400042FA21314B10B518685A
:1078D000890001F0BFFF2F4B0138984256D82E493E
:1078E0002E4A4860C020136A00061B021B0A03438D
:1078F0001362002407238C600B608021136A090641
:107900001B021B0A0B431362FC22254B196A0A4314
:107910001A62FC22196A92010A431A62A022196AA9
:10792000D2020A431A6220000021013400F076F8E6
:10793000142CF8D11B4B1C005A7852B2002AFBDBE6
:10794000194A5A80194B1A00597EC9090129FBD0DE
:10795000E421C90099803F21D970537EDB09012BB6
:10796000FBD0C02300205B011361907000F024F86D
:1079700063785BB2002BFBDB0D4B0E4A6380D3793F
:10798000DB09012BFBD04123537010BDFEE7C0463D
:1079900004000020FFFFFF0010E000E000ED00E029
:1079A00000040040000C00401E4000000040004267
:1079B0002140000000480042164A00B51300517EE5
:1079C000C9090129FBD00138042816D81969124ABF
:1079D0000A400F211A615A788A4301F031FF0308E7
:1079E000060B0300110001220A435A7000BD11006A
:1079F0000322F9E711000222F6E7F02311691B05C3
:107A00000B430F21136153788B43190002230B435F
:107A10005370EBE700400042FFFFFFF0182330B542
:107A20001D00040045430820204A551928560130FE
:107A300014D0032912D808006343D156D31801F09B
:107A4000FFFE02280E1B5868CB010221184A9B1822
:107A50001A1840321170012282405A6030BD5868B5
:107A6000CB010621124A9B181A18403211700122CC
:107A700082405A609A61F1E75868CB0106210C4AAE
:107A80009B181A1840321170012282405A605A61C4
:107A9000E4E75868CB010221054A9B181A184032C6
:107AA0001170012282409A60D8E7C04678F7000042
:107AB000004400411823F0B508245843114A131814
:107AC0001C5701341BD0012635005F688356BD402A
:107AD0000D4ADB019A18906805420BD10C00601E1C
