:1020000000800020F17B0000D97B0000D97B00001C
:1020100000000000000000000000000000000000C0
:10202000000000000000000000000000D97B00005C
:102030000000000000000000D97B0000457C00008B
:10204000D97B0000D97B0000D97B0000E53400007B
:1020500099220000D97B0000D97B0000DD7B0000C5
:10206000D97B0000257B0000D97B0000D97B0000D4
:10207000FD7A0000D97B0000357B0000153B000095
:10208000D13B00008D3C00007D350000E9350000AB
:1020900055360000D97B0000D97B0000D97B0000B9
:1020A000D97B0000D97B0000D97B0000D97B0000E0
:1020B0000000000010B5064C2378002B07D1054B1B
:1020C000002B02D0044800E000BF0123237010BDA4
:1020D0005001002000000000EC05010008B5084B8D
:1020E000002B03D00748084900E000BF07480368F9
:1020F000002B03D0064B002B00D0984708BDC046EC
:1021000000000000EC050100540100204401002003
:102110000000000042680A704268130A4B70C388CE
:102120008B70C379CB7083680B718268130A4B7113
:1021300043898B71C37A0820CB7170470A7842605B
:102140004B781B02134343608A78120413434360A5
:10215000CA781206134343600A7982604B791B02E6
:10216000134383608A79120413438360CA79120689
:1021700013438360082070470048704798F10000BF
:1021800000487047A6F1000000487047C7F1000002
:1021900000487047E0F100000048704701F200007D
:1021A0000048704714F200000048704795F30000A3
:1021B0000048704735F200009F23DB00C05C704789
:1021C00010B5044B041C0360143002F05FFB201CAC
:1021D00010BDC046E0F7000070B5064D01262B6823
:1021E000054C334203D1201C01F094F82E60201CD2
:1021F00070BDC046F40200206C01002070B5064D91
:1022000001262B68054C334203D1201C01F094F9C0
:102210002E60201C70BDC046F002002090020020FD
:1022200008B5174B186803681B689847002826D123
:10223000144B186803681B68984700281FD1124B7D
:10224000186805F041F8002819D1104B1868036888
:102250001B689847002812D10D4B186804F010FA3B
:1022600000280CD1FFF7B8FF00F074FF002806D15A
:10227000084B1868002802D003685B68984708BDBF
:1022800074090020C40900204C09002078090020AE
:10229000940900200C04002008B5FFF79DFF01F011
:1022A000FDF8FFF7ABFF02F09BFA08BD10B5002365
:1022B000DA000C1CD440C4540133042BF8D110BDF7
:1022C000F7B58388051C0B7083880C1C1B0A4B70A8
:1022D00080680AF073FE061C311CA01CFFF7E6FFA5
:1022E000A968321CA01D0AF059FDB31DE8680193CE
:1022F0000AF064FE019B071C391CE0180A36FFF740
:10230000D5FFE9683A1CA0190AF048FD28690AF0CF
:1023100055FEF719061C311CE0190437FFF7C6FFFC
:10232000E0192969321C0AF039FD6B69BE19A35501
:102330001A0AA41962701A0C1B0E301DA270E370E9
:10234000FEBD70B50379051C0B7080680E1C0AF089
:1023500035FE041C211C701CFFF7A8FF701DA96826
:10236000221C0AF01BFD601D70BDF7B5041C4068FF
:102370000D1C087061682A1D0B0A6B70E388002130
:10238000AB70E379EB706068531B81420CD2E0685C
:102390008B001B580131180A13705070180C1B0E5B
:1023A0009070D3700432EEE72169EA18E95420698D
:1023B0000433010A5170618AEB189170E17CD1708D
:1023C000002221695E1B8A420CD2A0699100095843
:1023D0000132080A19705870080C090E9870D970EB
:1023E0000433EEE7E269AB19AA55E0690436020A44
:1023F0005A70E28B00279A70E27FDA70E0698742B8
:1024000016D2626AB900505801910AF0D7FD0090C7
:102410000099A819FFF74AFF636A019A0436995890
:10242000A819009A0AF0BAFC009B01379E19E5E74B
:10243000301CFEBD10B500230360CC5CDA00944074
:10244000221C0468013322430260042BF5D110BD25
:102450007FB50B780C1C83804A78051C120213434D
:102460008380023101A8FFF7E5FF019AA31D961DA5
:10247000191BB14204D21878591E08700133F7E7CE
:10248000A21800235371631DAB60A11902A8FFF7C6
:10249000D1FF029B321DD618131CB34205D2E05C5B
:1024A000E118013908700133F7E7A119013A4B1E11
:1024B0000020A218187003A8EA60FFF7BBFF039B77
:1024C0000436F018331C834205D2E15CE218013A6D
:1024D00011700133F7E72318013E5A1E0021A61997
:1024E00011702E6159789A78090212041143225C06
:1024F00004301143DA780B1C120613436B6104B0ED
:1025000070BD73B50B780C1C0371051C013101A85B
:10251000FFF790FF019A631D501D191B814204D2E1
:102520001E78591E0E700133F7E7A21800230434F9
:102530001371AC6076BDF7B54E788A780B781204CB
:10254000360216431E43CB7842681B06041C0D1C42
:102550001E43964204D9B100C0680AF0E5FCE06071
:1025600066602F1D002662687B1B964215D27A7822
:10257000BB7812021B0413433A78B0001343FA7875
:10258000211C12061343A360E368083118180422C3
:102590000AF004FC01360437E5E7EA18577890782A
:1025A000E95C3F020004D27807431E1D23690F43F4
:1025B000120617439F4204D9B900A0690AF0B4FC7F
:1025C000A0612761AE1900272269731B974215D2BB
:1025D0007278B37812021B0413433278B8001343A5
:1025E000F278211C12061343A2696361101814319A
:1025F00004220AF0D3FB01370436E5E7EA185678DF
:102600009078E95C36020004D27806431F1DE36926
:102610000E43120616439E4204D9B100606A0AF0C6
:1026200083FC6062E6610026E3699E4220D2E919DC
:1026300001A8FFF7FFFE019B3A1DD718131CBB42F0
:1026400005D2E85CE918013908700133F7E7EB19A6
:10265000013B0021013A1970AA182262626AB00097
:10266000211C1018203104220AF098FB0136DBE708
:10267000381CFEBD1FB5054C01AB039202681971F1
:102680000194146807211A1CA0471FBD58F10000CF
:10269000F0B58B4901230A6889B01340894C8A4DF3
:1026A00043D18A4A8A482260E1221202A2609F2214
:1026B000D200A354874A6560A050A222D200A35042
:1026C000A322D200A350844AA350844AA350A52237
:1026D000D200A350A622D200A350814AE01880184D
:1026E000043300220260642BF7D1131C9022E018FF
:1026F000D2008018043300220260642BF6D1A018A7
:10270000002303770132802080008242F7D18722A4
:10271000E0189200801800220270013380208000AF
:102720008342F4D10123A2610B606E4E6E48346087
:1027300005F0CEFA6068A16806F0A0F86B4A0023A5
:10274000A3509D22D200A3509E22D200A350684ADB
:102750003068A3500121674AFFF78CFF281C06F060
:102760008FF80028FAD0644D01262F68634C37405B
:1027700016D15C4B1B680793FFF740FD0D230193B7
:102780000A230293FA23021C07990097201CB340E6
:1027900002F05EFF201C5A495A4A2E6007F05CFB8B
:1027A000594F5A4B3A681C600124224217D14D4AB6
:1027B000574E126833680792564D234203D1281CA6
:1027C00001F072F934600124002300930194029413
:1027D000514807992A1C0A2303F058FA3C604F4BD2
:1027E0004D4A4F4D1A602B6801264E4C33420AD198
:1027F0003C4AE1231268201C0692111C5B024A4AE3
:1028000003F074FF2E60494B494D1C602B68012674
:10281000484C334208D1334A201C12680592111CDF
:10282000454A04F0BCFC2E60444B454F1C603B689D
:102830000124234213D12B4B424E1B68326807936D
:10284000414D224203D1281C00F0ACFE34600A2323
:102850003E4807992A1C04F05BFC01233B603C4C7A
:102860003A4B2360FFF7B8FC1E4A116800F034FCB5
:10287000264B38491868384B384A0093384B019337
:10288000384B0293384B02F0BBFF244A374B106899
:1028900037490093374A384B03F004F9234B186843
:1028A00003F0F0FB254B35491868354A04F08CFCE1
:1028B00020683449344A354B04F064FA09B0F0BD5D
:1028C0006C090020140400205C16002088F1000030
:1028D00070F100000C0500001C050000240500003C
:1028E0001C0400000C040020B80B0000E4040000ED
:1028F000EC04000056F20000C0090020C8090020C6
:10290000C1210000000000205009002074090020AF
:10291000E8020020F401002098090020C4090020EA
:1029200048090020F8020020C4110020940900206A
:102930001004002054090020001400204C0900203D
:1029400070090020EC0200209C0100207C0900207E
:102950007809002068F20000ACF2000076F2000076
:10296000C3F20000D9F2000091F2000010F3000061
:10297000F0F20000F5F2000003F300001CF3000089
:1029800022F300002DF3000038F300004CF30000A8
:1029900070B5041C0E1E632E05DD9F23DB00C35C97
:1029A0000020834246D01368101C234A1B68A118DC
:1029B00098478723FF229B00E254204BFE22E254DB
:1029C0001F4AC3B2A3541F4982B2120A6254D318D9
:1029D0008821DB43890063541B4B0022E6541B4BC8
:1029E000360AE6540523811D994207DB8725E11845
:1029F000AD004919097801335218F4E7114B051C51
:102A00002018C018D2438023083502719B009D42D4
:102A100009DC6068872203689200A1185B682A1CA1
:102A20009847281C06E0201C0321094A0125FFF7CE
:102A300021FE684270BDC046230200001D02000056
:102A40001E0200001F0200002102000022020000FE
:102A50005CF300001FB5074B0A210193002302938A
:102A60000393036801AA1B68041C984705F0F8F853
:102A7000E0601FBD28F10000F0B52D4B87B000933A
:102A80002C4B002269468A8002930393049305929B
:102A90009023294ADB00041C8518C6182B68002BDC
:102AA00019D09A68694658688A8019680368029143
:102AB0009B6898472B68039058680368DB689847C1
:102AC00080239B002A6805932368049011691B6882
:102AD000201C6A4698470435B542DFD1174AA6182C
:102AE000286800281AD0416882686B46998003687C
:102AF00002929B689847039028680368DB689847B0
:102B000080239B0004900593286823681F6803684E
:102B10005B6898476A46011C201CB8470435B542DB
:102B2000DED19F230122DB00E25407B0F0BDC04696
:102B300040F10000370301001C040000E404000021
:102B4000F0B5224B85B001930023041C0E1C0293A8
:102B5000039305F085F8E368311CC51A01A8FFF757
:102B6000EDFAFA21281C890007F0DEF9029BFA2110
:102B7000C01802908900281C07F01AFA144D039B14
:102B80006943C918039105F06BF8FA218900061C06
:102B900007F0CAF9029F0F4B013F3F1A2761FA2144
:102BA000039F301C8900FF1807F002FA4D43201CD8
:102BB0007F1B211C14316761103004F083FC05F089
:102BC0004FF8A023DB00E05005B0F0BD28F1000075
:102BD00040420F0000CA9A3BF8B5041C05F040F8CB
:102BE000A023DB00E2587B4B061C821A9A4203D9D1
:102BF0009F230022DB00E254774FE359002B05D0DE
:102C0000764BE3589E4201D90023E351A169002984
:102C100006D1606803685B699847002807DAC4E05A
:102C200005F01EF8A269801B9042F2D9CEE06C4AF2
:102C3000E559A358C118A150674B072D0FD19E210C
:102C4000C9006258551C6550A2189D211077C90013
:102C50006258013A6250002AD8D1082208E0002DBB
:102C600012D1FF2806D10122E250321C5B4B1432F4
:102C7000E250CBE704F0F4FF5A4B801B9842C5D9D1
:102C80009F23DB00E554A1E0012D0DD10222FE2897
:102C9000EED00022E2509F23DB00E35C9342B5D1EB
:102CA000201CFFF7D7FEB1E7022D08D19D21C900F6
:102CB00060509E21C9000025655003211BE0032DB3
:102CC00007D19D22D200A15800020818A05004226A
:102CD000CEE7042D0AD1444B0B4003D5434A013BB8
:102CE00013430133FF2B8FD105238EE7052D05D12B
:102CF0003F4960500621E150A05087E7062D0ED1D4
:102D00003B4A0002A1580818A0500722E2509D2318
:102D1000DB00E358002B00D078E7082375E7082D87
:102D200000D073E70023E3512F4B0B4003D52F4A0C
:102D3000013B13430133FF2B00D067E72C4BE358D3
:102D4000002B0CD1201CFFF785FE201CFFF794FE02
:102D5000284B0125E650A023DB00E65037E00A2B84
:102D600005D1211C201C1C31FFF7EAFE4EE7062B83
:102D700008D1214A211CA0181C31FFF7DCFB0122DD
:102D8000A12303E00B2B04D100229F23DB00E2549C
:102D90003CE7BC339B001859002800D136E7036894
:102DA000211C1B681C31984730E79F23DB00E35C44
:102DB0000025AB420CD00F4FE359F21A0F4B9A4249
:102DC00006D9201CFFF746FEE65101E002256D42C0
:102DD000281CF8BDF82A0000E404000004050000E7
:102DE000F404000088130000FF00008000FFFFFFD4
:102DF000EC040000FC0400000C050000C409000005
:102E000008B5FA20800004F063FFFAE7F8B50F1C5C
:102E10000699151C1C1C07F02FFD0A49061C381CBE
:102E200007F02AFD211C07F051FE011C301C07F0A1
:102E300023FD291C07F0D8F9079A069B10605460FF
:102E40009360F8BD0D68533BF0B51F1C802387B01D
:102E50001B06C318041C059112984D49019200935A
:102E600007F00AFD169907F031FE0D99051C009830
:102E700007F002FD179907F0FFFC10990290201C43
:102E800007F0FAFC291C07F0F7FC011C029807F078
:102E9000ABF9019907F0A8F911990190201C07F0EE
:102EA000EBFC291C07F0E8FC0E990390009807F052
:102EB000E3FC179907F0E0FC039907F095F9391C3A
:102EC00007F092F90C990490009807F0D5FC179937
:102ED00007F0D2FC0F99071C201C07F0CDFC291C21
:102EE00007F0CAFC011C381C07F07EF91799071C73
:102EF000201C07F0C1FC019907F0BEFC011C381C26
:102F000007F0E4FD291C071C201C07F0B5FC049900
:102F100007F0B2FC011C381C07F066F9059907F0B0
:102F200063F9139907F060F9189E3060019B0E99C0
:102F30007360049B201CB36007F09EFC291C07F003
:102F40009BFC011C029807F04FF90C9907F04CF913
:102F50001499F0600D9807F047F90E9B306173618A
:102F60001099009807F088FC179907F085FC0399E1
:102F700007F03AF90F9907F037F9109BB061F36148
:102F80001198159907F030F9306207B0F0BDC046CE
:102F90000D68533B031C10B5081C191C141C07F0CA
:102FA00095FD206010BD10B5141C07F01DF9011C23
:102FB000FE20800507F07CFA206010BDF8B50F1CDC
:102FC000191C1D1C161C07F057FC069C291C2060B0
:102FD000381C07F051FC291C6060301C07F04CFCC9
:102FE000A060F8BDF8B50F1C191C1D1C161C07F0BD
:102FF00043FC069907F0F8F8099C291C2060381C4E
:1030000007F03AFC079907F0EFF8291C6060301CC4
:1030100007F032FC089907F0E7F8A060F8BDF7B5B3
:10302000061CFE200F1C8005311C1D1C019207F0A0
:103030004DFD061C311C281C07F01EFC109C311C89
:103040002060089807F018FC311C6060099807F0B0
:1030500013FC80221206BF18291CA060381C07F040
:103060000BFC0A9907F0C0F80899E060381C07F0DB
:1030700003FC0B9907F0B8F809992061381C07F098
:10308000FBFB0C9907F0B0F8019B802212069E18FA
:10309000291C6061301C07F0EFFB0D9907F0A4F8C4
:1030A0000899A061301C07F0E7FB0E9907F09CF827
:1030B0000999E061301C07F0DFFB0F9907F094F8E5
:1030C0002062F7BD10B5031CC0680A1C046899682B
:1030D0002368984710BD0000F0B500292BD0164C8E
:1030E00001252368154A2B4004D1154E5360166004
:1030F00093602560134C01252668134B2E4004D1A4
:10310000124F5A601F601E612560426003600022FA
:1031100090000F4C081800190068002808D1D01D35
:10312000FF30800008187D3243609A60D96002E069
:103130000132192AECD1F0BD100A0020000A00204B
:1031400028F100000C0A0020140A0020C2F300003D
:103150001C04000070B50368041C057A002B0FD016
:103160004268002A0CD0002D0AD0C1685160016964
:10317000D86891600668996833689847002323727D
:10318000281C70BD0A4B08211A6807200A431A60E0
:10319000084B1A1C353211784A33014311701A78E2
:1031A00001210A431A701A7802210A431A707047E3
:1031B0001C04004000440041144B08211A680A43D3
:1031C0001A60134B134A5A605A78D209FCD112493B
:1031D0000F4A51805A78D209FCD110490C4A5180CB
:1031E0005A78D209FCD10E49094A51805A78D2093D
:1031F000FCD10C49064A51805A78D209FCD10A49BF
:10320000034A51805A78D209FCD170471804004013
:10321000000C0040040101000444000007440000C9
:103220001A4400001B4400001C4400000C4B022107
:103230001A680A431A600B4B822252001A818522B7
:1032400052001A81872252001A81892252001A8163
:103250001422FF321A818A2252001A817047C04616
:103260002004004000040042264B20211A680A4333
:103270001A60254B9A7AD209FBD11A8802218A4317
:103280001A80997A204AC909FBD11188012001438B
:103290001180997A1C4AC909FBD1118889B2118021
:1032A000997A194AC909FBD11188802001431180FC
:1032B0009A7AD209FCD114490A619A7AD209FCD1CE
:1032C0001249114A9161997A0F4AC909FBD1D17902
:1032D00001200143D171997A0B4AC909FBD1908829
:1032E00080214900014391809A7AD209FCD1084B90
:1032F000C022920099580902090A995008221A60BE
:103300007047C04618040040001400400F2700001A
:1033100000E100E0F8B51A4B061C43616423038307
:10332000184B002501271C36011C041C0772036280
:1033300005604560C5600561C5612031301C04F041
:103340008BF8A562251C2435211C281C67622831B6
:1033500004F0B8F8231C2C330B22311C1A70281CE3
:1033600004F0DAF8201CFFF70DFF201CFFF724FF04
:10337000201CFFF75BFF201CFFF776FF201CF8BD29
:103380008096980040420F00C1607047044B0221B4
:103390001A880A431A809A7AD209FCD17047C0462B
:1033A0000014004010B5041C07485B001B5A201C89
:1033B0005A430B8B211D5A4300232360626004F0A3
:1033C0004BF8201C10BDC046B2F30000F7B54069B1
:1033D0000E1C171C019000240A4B6200D15A019860
:1033E00006F0A2FD311CE5B206F09EFDB84207D3FF
:1033F0000134082CF0D10448C921FFF701FD251C38
:10340000281CFEBDB2F30000C6F30000002330B557
:1034100003604360EFF3108372B6BFF35F8FBFF3B7
:103420004F8FBFF36F8F021C0C3130C930C283F352
:103430001088BFF35F8FBFF34F8FBFF36F8FBFF362
:103440005F8FBFF34F8FBFF36F8F30BD08B549005B
:1034500089B2FFF7BBFF08BD10B5041C211C0C305E
:103460001C3104F043F82369002B01D1012323729E
:1034700010BD0000C168426A914209D10269836AA5
:103480009A4205D1034B044A5A60DA68D105FCD44C
:103490007047C046000400420000010238B50F4CDE
:1034A000051C2C35236929780F220A409BB2134151
:1034B0001A1C01231A420FD0094A1288DA401A4214
:1034C00001D1FFF763FF29780F230B400121226907
:1034D00099400B1C1343236138BDC04600180040BF
:1034E0000014004070B5114B01241A7A22421CD0FE
:1034F0001A7AD20919D080220D4E1C721A723368C2
:103500000C4D234203D1281CFFF704FF3460281C14
:10351000FFF7A2FF33680124234203D1281CFFF7E1
:10352000F9FE3460281CFFF7A5FF70BD00140040B1
:10353000F40200206C01002013B50E2201A9002323
:103540004A700A4A041C0B708B7000F0EFF9084BAC
:10355000C4222360074B92009858074901409950B4
:103560008022D202201C1A6016BDC046002C0042E8
:1035700010F4000000E100E0FFFF00FF70B5074D10
:1035800001262B68064C334203D1201CFFF7D4FFE1
:103590002E602368201C5B68984770BDF0020020F5
:1035A0009002002013B50322041C0B4901A809F066
:1035B000F5FB01A9201C094A00F0B8F9084BC42208
:1035C0002360084B92009958201C0902090A99505F
:1035D000802212031A6016BD48F400000030004239
:1035E00030F4000000E100E070B5074D01262B68C3
:1035F000064C334203D1201CFFF7D4FF2E60236812
:10360000201C5B68984770BDEC0200209C010020E4
:1036100013B50322041C0B4901A809F0BFFB01A943
:10362000201C094A00F082F9084BC5222360084B90
:1036300092009958FF208143995080225203201C08
:103640001A6016BD70F400000034004258F4000007
:1036500000E100E070B5074D01262B68064C3342AF
:1036600003D1201CFFF7D4FF2E602368201C5B6869
:10367000984770BD800A0020280A0020436D10B5CD
:10368000041CDA7BD209FCD11A8802218A431A80F1
:10369000636DDA7BD209FCD12079E022198800021F
:1036A000D20002400A431A80636DDA7BD209FCD152
:1036B0001A8860210A431A80636D10219A798A431F
:1036C0009A71636DDA7BD209FCD19A7920218A4301
:1036D0009A71636DDA7BD209FCD1221C28321278F0
:1036E000002A08D12368201C5B699847E38B626D30
:1036F0005383636D08E09A7902210A439A71626DDF
:10370000D37BDB09FCD1EDE7DA7BD209FCD1597B15
:10371000202211435973636D997B0A439A73636D39
:10372000DA7BD209FCD11A8802210A431A80626D21
:10373000D37BDB09FCD110BD436D10B5041CDA7BD3
:10374000D209FCD11A8802218A431A80636DDA7B80
:10375000D209FCD12079E02219880002D20002406F
:103760000A431A80636DDA7BD209FCD11A882021C2
:103770000A431A80636DDA7BD209FCD19A79102151
:103780008A439A71636DDA7BD209FCD1221C2832FC
:103790001278002A0ED02368201C5B699847636D5D
:1037A0001022597B11435973636D997B0A439A73B5
:1037B000636D08E09A7901210A439A71626DD37BA7
:1037C000DB09FCD1E7E7DA7BD209FCD11A880221B8
:1037D0000A431A80626DD37BDB09FCD110BD10B5A2
:1037E000426D0323148864091C40012C02D100F0AF
:1037F0006BFD06E0128852091340032B01D100F043
:1038000066FD10BD13B5041C4C3421706270012498
:10381000009400F0E5FE13BD70B5041C00F004FE3A
:10382000201C656DA68900F032FEE16B7618013E22
:103830008619B6B22E83226CE16B531823640023E1
:10384000E36370BDF0B5436D01259A7B85B0041C20
:103850002A4220D09D73204F031C203301933B68E4
:103860001E4E2B4203D1301CFFF754FD3D60636DAB
:1038700002A81A8B311C01322379FFF793FD02A9AC
:10388000019803F033FE2368201C5B699847201CD5
:1038900000F0C2FF1DE09A7B12092A4209D01022D3
:1038A0009A7300F06BFF231C28331A78904208D1DA
:1038B0000FE09A7B52092A420BD020229A73031CF4
:1038C00028335D70E36A0133E362236A2363636A2A
:1038D000636305B0F0BDC046F40200206C01002017
:1038E000436D10B5041C002B03D10F48C921FFF70D
:1038F00087FA636DDA7BD209FCD11A8802218A43E8
:103900001A80636DDA7BD209FCD15A8923210A43DC
:103910005A81636D0122597B11435973636D997B01
:103920000A439A7310BDC04673F4000038B5041CF6
:10393000151C00F08FFC044B65650833201C2360C8
:10394000FFF7CEFF201C38BDA8F400007047000030
:103950000B4B02211A6810B50A431A60094C0A4B36
:103960000F21238100F026FBFE23DB030004184017
:10397000064B18436060E3689A05FCD410BDC0464E
:103980002004004000040042070200000100000281
:103990000B4B02211A6810B50A431A60094CA12387
:1039A000DB0023810B2100F005FBFE23DB03000479
:1039B0001840054B18436060E368DA04FCD410BD7E
:1039C0002004004000040042040000021FB54B42E6
:1039D0004B410221C91A031C0391983319785A7874
:1039E0000123041C009303AB00F0FAFD201CFFF739
:1039F000CFFF636D9A689107FCD41A6802218A434D
:103A00001A60626D93689907FCD4116A8023DB0207
:103A100019431162626D80211068C904014311606D
:103A2000626D916A19439162626DD16A0B43D362F0
:103A3000636D9A689107FCD49A689107FCD41A6860
:103A400002210A431A60626D93689907FCD41FBD76
:103A5000436D9A689107FCD41A6802218A431A6060
:103A6000436D9A689107FCD419680E4A0A401A609F
:103A7000436D9A689107FCD4996A8022120311431E
:103A80009962436DD96A0A43DA62436D9A68910775
:103A9000FCD41A6802210A431A60426D93689907A0
:103AA000FCD47047FFFFFFF737B5041C144901A889
:103AB000032209F073F96A460F23002501A9537008
:103AC000201C104B157000F0F1F90F4B0B2208333E
:103AD0002360231C98331D705A700C4B201CA3606C
:103AE000E360FFF7B5FF0A4BC32292009958201CF0
:103AF0000902090A9950802212021A603EBDC0468E
:103B0000C8F4000000200042D0F40000FFFFFF00D6
:103B100000E100E070B5074D01262B68064C3342EA
:103B200003D1201CFFF7C0FF2E602368201C5B68B8
:103B3000984770BDE8020020F40100200B4B0221E1
:103B40001A6810B50A431A60094C0A4B14212381E4
:103B500000F030FAFE23DB0300041840064B184344
:103B60006060E3685A05FCD410BDC04620040040E4
:103B7000000400420D0300000200000213B50722FA
:103B800001A900234A706A460B708B7013701423CE
:103B900053700B4B041C00F089F90A4BC422083304
:103BA0002360094B9200A360E360084BFF20995803
:103BB0008143995080225202201C1A6016BDC046D3
:103BC00000240042F8F40000FFFFFF0000E100E0E5
:103BD00070B5074D01262B68064C334203D1201CDB
:103BE000FFF7CCFF2E602368201C5B68984770BDF0
:103BF0001C0B0020840A00200B4B02211A6810B510
:103C00000A431A60094C0A4B1521238100F0D2F9AE
:103C1000FE23DB0300041840064B18436060E36892
:103C20001A05FCD410BDC046200400400004004228
:103C3000110400000300000213B50322041C0E4906
:103C400001A809F0ABF86A460023137015235370DE
:103C500001A9201C094B00F029F9094BC4220833A3
:103C60002360084B920098580749014099508022E0
:103C70009202201C1A6016BD20F5000000280042A8
:103C800028F5000000E100E0FF00FFFF70B5074DE0
:103C900001262B68064C334203D1201CFFF7CCFFD2
:103CA0002E602368201C5B68984770BDB80B00200D
:103CB000200B002072B6BFF35F8FBFF34F8FBFF3AF
:103CC0006F8F012070470000436D10B5041C9A6887
:103CD0009107FCD41A6802218A431A60636D9A68BE
:103CE0009107FCD42079E02219680002D20002403A
:103CF0000A431A60636D9A689107FCD4DA6B01215C
:103D00000A43DA63636D9A689107FCD419681E4A06
:103D10000A401A60636D9A689107FCD4221C28320D
:103D20001278002A05D02368201C5B699847636DD0
:103D300009E09969802252020A439A61626D936890
:103D40009907FCD4EFE79A681105FCD4E1684A08AA
:103D50001A65636D9A681105FCD4996A8022520233
:103D600011439962636DD96A0A43DA62636D9A6896
:103D70009107FCD41A6802210A431A60626D9368A5
:103D80009907FCD410BDC046FFFFFFFE704708B581
:103D9000436DDA6B07231340012B01D100F094FA35
:103DA00008BD70B5041C00F03FFB002803D0E1689B
:103DB000636D4A081A65201C656DE66800F067FBB4
:103DC000E26B013EB61830186864216CE26B8B1808
:103DD00023640023E36370BD80F31088BFF35F8F1B
:103DE000BFF34F8FBFF36F8FBFF35F8FBFF34F8F63
:103DF000BFF36F8F7047F7B5041C0D1C0092EFF3F3
:103E000010830193FFF756FF00281DD0EFF31087B2
:103E1000FFF750FF00280AD063780026B34206D08F
:103E2000009A6670B24201D0636813600126381CA4
:103E30000027FFF7D1FFBE420BD0BD4208D0A368D8
:103E4000E4682B606C6003E00198FFF7C5FF04E0B5
:103E500001270198FFF7C0FF381CFEBD10B5041CF8
:103E6000406D002803D10F48C921FEF7C9FF636DDB
:103E70009A689107FCD41A6802218A431A60636D1C
:103E8000996801228807FBD4196A0748014319621F
:103E9000636D996A11439962636DD96A0A43DA6264
:103EA00010BDC04650F5000003400000F8B5041CEA
:103EB000171C1D1C00F0CEF9154B0126083323609A
:103EC000231C6565764200255833201C1D70391C63
:103ED0005D70022225666566A566E56625676567ED
:103EE000E665783008F05AFF231C7C331D705D7046
:103EF000231DDE67221C80331D605D608C32643BB5
:103F000021CB21C2201CDE66FFF7A8FF201CF8BDD4
:103F100080F5000070B5051C0E1CEFF31084FFF750
:103F2000C9FE002800D0EE65201CFFF755FF70BDCC
:103F30001FB5031C58331970203319785A7803239E
:103F400003930023041C009303AB00F049FB236898
:103F5000201C9B699847636D9A689107FCD41A6886
:103F600002218A431A60626D93689907FCD4116A32
:103F700080239B0219431162626D802110688904BD
:103F800001431160626D916A19439162626DD16A59
:103F90000B43D362636D9A689107FCD49A689107CA
:103FA000FCD41A6802210A431A60626D936899076B
:103FB000FCD41FBD0F23081C18400C30704708B5F7
:103FC000031C783319785A7800F0CAFB08BD00004A
:103FD000F0B5436D0126DA6A87B0041C324217D06F
:103FE000DE62FEF7F9F8636D011C5A6C04A89219A1
:103FF0002379FFF7D7F9201C04A9203003F076FAC3
:104000002368201C5B699847201C00F005FCC0E079
:10401000DA6AD20C32420CD080221203DA62021C1D
:10402000031C8C32203321CB21C2636D94341B6D71
:104030005AE0DA6A120C324213D080225202DA625B
:1040400000F09CFB231C28331A78904200D1A0E09A
:104050005E70E36A206A616A0133E3622063616330
:1040600097E0DA6A520C324210D01A6B9B6C071C34
:10407000520C0193943702AD324237D1FFF79FFFC4
:10408000231C58331B78984230D14AE0DA6A920CEC
:1040900032427ED08022D202DA62436DD96C031C98
:1040A00094331A68083B914200D26C3B02AD2A1C43
:1040B00003CB03C2FEF790F8636D011CDA6C04A811
:1040C0002379FFF76FF9281C04A903F00FFA231CCA
:1040D0007C3301225A70231DDA6F043301329A6750
:1040E000029A8834DA676B68236052E03A68019874
:1040F000231C2033904201D3231C8C332A1C03CB76
:1041000003C2FEF769F82379011C019A04A8FFF79E
:1041100049F96834281C04A903F0E8F90CCD0CC453
:1041200037E03A680199231C2033914201D3231CC4
:104130008C332A1C03CB03C2FEF74EF8261C2379CE
:10414000011C019A04A8FFF72DF9683604A9281C60
:1041500003F0CCF904A8291C321C03F0F3F9049BEA
:10416000271C5837002B14DB059A236704A86267C5
:104170000A4B094A03F088F9301C04A903F0B6F988
:1041800001237B70E36DE56E0133E365A36E236667
:10419000656607B0F0BDC046000000000000E03FCB
:1041A00008B57C30FFF727FE08BDF7B5061C009167
:1041B00001921D1CEFF31087FFF77CFD00280FD044
:1041C000301C58300099019AFFF715FE0024A042D8
:1041D00006D0A54203D0336F766F2B606E6001244A
:1041E000381CFFF7F9FD201CFEBD72B6BFF35F8FD0
:1041F000BFF34F8FBFF36F8F0120704780F310889C
:10420000BFF35F8FBFF34F8FBFF36F8FBFF35F8F2E
:10421000BFF34F8FBFF36F8F7047F8B5051C0F1CAE
:10422000EFF31086FFF7E1FF002809D06B78002438
:10423000A3420AD06C70A74206D06B683B6003E0D3
:10424000301CFFF7DBFF04E00124301CFFF7D6FF32
:10425000201CF8BDF8B51A4B041C0360194B00254F
:104260000F1C8360C360211C012345620571058218
:104270004561058345838583C583036224312030EE
:1042800003F020F90126231C28337642201C1D70E0
:10429000391C5D700322E66225636563383008F0DF
:1042A0007DFD231C4433E56325641D705D70A664A9
:1042B0001D725D722565FDF78FFF201CF8BDC0469D
:1042C000B0F50000FFFF0000490081837047818343
:1042D0007047000000000000F7B50190141C02793F
:1042E0001D1C1F4B5200D05A08F0A0FB021C0B1CD7
:1042F0001449134807F042F9221C2B1C07F0A8FDB3
:10430000114A124B041C0D1C06F01CFE104A114BE6
:10431000061C0F1C201C291C05F0CCFE002802D016
:104320000D4A0E4B01E00A4A0A4B301C391C08F0BA
:104330001FF808F047FB019BD863F7BDC046C04695
:1043400000000000D0126341000000000000E03FC8
:104350000000000000000000000000000000F03F2E
:10436000C8F50000C046C046F0B5428B87B0041CBB
:104370000D1C038B8A4238D0002B36D10279264B94
:104380005200D65A87687743381C08F08DFB0B1C07
:10439000021C20491E4807F0F1F805F005FF80B225
:1043A0000190391C1D4805F003FE4B1E9941019BED
:1043B00059180B1C89B2A94200D22B1C9AB2564341
:1043C0006383A3836661301C08F06EFB021C0B1C28
:1043D00010490F4807F0D2F805F0E6FE311CE06006
:1043E0000E4805F0E5FD21820DE0002B0BD00C4BB3
:1043F00003AA039303231371206D0A4B07219360D3
:1044000003681B68984707B0F0BDC046C046C04669
:1044100000000000D0126341C8F5000080969800AB
:1044200058F10000D8F500007FB5438B868B6A46B3
:10443000F61A031C2033041C03CB03C2FDF7CCFE89
:104440002379011C226C02A8FEF7ACFF684602A982
:10445000751EAE4103F060F8019DF6B26B425D41FE
:10446000354003D0A18B201CFFF77EFF281C04B031
:1044700070BD70B5051C0E1CEFF31084FFF7B5FE80
:10448000002800D0EE62201CFFF7B8FE70BD70B5AA
:10449000038B068A4569F618B6B2041C291C301C29
:1044A00005F086FD301C2183291C05F03DFD80B2FE
:1044B00070BD00001C4B30B51A6808210A431A6011
:1044C000021C39321178031C38334C10CD0709D542
:1044D00019784025C9010C19144964182178294319
:1044E000217008E019780425C90109190F4C091930
:1044F0000C782C430C70197814780D4DC901611893
:1045000049190C7801252C430C703A3001780029A8
:1045100009D01B7812780649DB01D3185B181A788A
:1045200040210A431A7030BD1C0400403044004151
:104530004044004138B5031C2833041C1A700D1C7C
:10454000FDF74AFEA268291CFEF780FF6D00A9B2A4
:104550002071201CFFF708FF2368201CDB689847A8
:10456000201CFFF7A7FF38BDF8B5161C021C283227
:10457000041C13700D1CFDF72FFEA268291CFEF70A
:1045800025FF291C2071201CFFF7EEFE301C08F0CF
:104590004DFA104B0E4A07F05BFC05F005FE227940
:1045A0000D4B5200D55A061C291C05F001FD0F1CAD
:1045B000301C791E8F41291C05F0B6FC23683F187A
:1045C000E7831B69201C9847201CFFF773FFF8BD89
:1045D0000000000000002440C8F50000C046C046AE
:1045E000F0B505A807785048082504684F4E2C43BD
:1045F00001250460C9012C1C8819944044605410A2
:104600000019303004785118E4B20470484801248D
:10461000091808782043087008780224204308709D
:1046200019680139A14205D942494024086820434C
:10463000086006E04049414848804878C009FCD1FC
:10464000F2E73F494878C009FBD108780224A0432B
:1046500008704C783A48E409FBD10F2644681640AC
:104660000125B5402C4344602E1C02240F2A03D898
:1046700007249442A441644207200240013A1B6887
:10468000051C0634062A08D8101CA4001D4005F09D
:1046900041FC0A0F13171B1F2300A4000A590340F3
:1046A000824313431DE00B5970222D01934317E001
:1046B0002D020A59234B12E02D030A59224B0EE01A
:1046C0002D040A59214B0AE02D050A59204B06E01A
:1046D0002D060A591F4B02E00A591F4B2D071340A4
:1046E0002B430B51002F05D0CB683343CB600B69B4
:1046F0001E430E614A78124BD209FBD11A78022070
:1047000002431A704B78DB09FCD1002F0AD0134BFF
:10471000C12292009958FF20814380200143995083
:1047200010221A60F0BDC0461C0400400044004145
:104730004044004118040040000C004005440000C3
:1047400000180040FFF8FFFFFF8FFFFFFFFFF8FF9B
:10475000FFFF8FFFFFFFFFF8FFFFFF8F00E100E08B
:10476000054BC901C918086A012393401840431E2C
:104770009841C0B27047C04600440041031C383322
:104780001B78064A3930DB019B1802781B6A01202E
:1047900090401840431E9841C0B270470044004109
:1047A00008B52830FFF727FB08BD73B5041C283077
:1047B0000E1CFFF720FB051E0BD0FDF70DFD226C34
:1047C000011C23796846FEF7EDFD301C694602F0B6
:1047D000A3FE281C76BD08B54430FFF71EFD08BDBA
:1047E00010B50B4B021C4D3211781C690F22114081
:1047F000A4B20C410122144209D0041C443462705A
:10480000846CA418846418698A4002431A6110BD3C
:10481000001800400000000073B5061C406A08F054
:1048200043F9104B0E4A041C0D1C05F057FC0028E0
:1048300012D0201C291C0C4A0C4B05F03BFC002814
:104840000AD0FDF7C9FC011C6846FEF7DFFD009B9E
:10485000326A934200D0336273BDC046C046C04640
:104860000000000084D7A7410000000084D7C741A2
:1048700010B5041C0160081C012103F0ABFB20688B
:10488000012103F001FC201C10BD000010B5041C28
:10489000024802F0B3FE201C10BDC046800F00206D
:1048A00037B503236A46002413715471051C019A1D
:1048B0000448054902F0AAFE2868211C03F0E4FB25
:1048C00037BDC046800F002040420F0008B5006889
:1048D000012103F0D9FB024802F0B4FE08BDC04636
:1048E000800F0020F8B5061CFFF7DAFF554C3E217B
:1048F000201C02F0B9FE201C002102F0B5FE201C95
:10490000002102F0B1FE0021071C201C02F0ACFEC9
:104910003F024D4D07430021201C2F8002F0A4FED2
:104920000021071C201C02F09FFE3F0207430021CC
:10493000201C6F8002F098FE0021071C201C02F052
:1049400093FE3F0207430021201CAF8002F08CFE43
:104950000021071C201C02F087FE3F0207430021B4
:10496000201CEF8002F080FE0021071C201C02F0BA
:104970007BFE3F0207430021201C2F8102F074FEC2
:104980000021071C201C02F06FFE3F02074300219C
:10499000201C6F8102F068FE0021071C201C02F021
:1049A00063FE3F0207430021201CAF8102F05CFE42
:1049B0000021071C201C02F057FE3F020743002184
:1049C000201CEF8102F050FE0021071C201C02F089
:1049D0004BFE3F0207430021201C2F8202F044FEC1
:1049E0000021071C201C02F03FFE3F02074300216C
:1049F000201C6F8202F038FE0021071C201C02F0F0
:104A000033FE3F0207430021201CAF8202F02CFE40
:104A10000021071C201C02F027FE3F020743002153
:104A2000201CEF8202F020FE0021071C201C02F057
:104A30001BFE3F020743301C2F83FFF747FF281C54
:104A4000F8BDC046800F0020BC0B0020F8B58023C5
:104A500019430B02161CFF2112120E408027114031
:104A60001E437F000B431F43041CFFF719FF0E4D2D
:104A7000390A281C02F0F8FDF9B2281C02F0F4FDF6
:104A8000201CFFF723FF201CFFF70AFF310A281C18
:104A900002F0EAFDF1B2281C02F0E6FD201CFFF74F
:104AA00015FF0120F8BDC046800F002010B5041C82
:104AB0001A4802F07BFD3E218022201CFFF7C6FF32
:104AC0009620400003F004F93E210222201CFFF74B
:104AD000BDFF142003F0FCF834215622201CFFF700
:104AE000B5FF142003F0F4F832210222201CFFF756
:104AF000ADFF142003F0ECF836210022201CFFF754
:104B0000A5FF142003F0E4F8822238215200201C73
:104B1000FFF79CFF142003F0DBF810BD800F00208E
:104B200070B508200C68156865406408EE0701D56B
:104B30001D686C400C60166801387408C0B21460BF
:104B40000028EFD170BD00007FB5134B061C039306
:104B5000124B8C1C009301256378301C0293237840
:104B60006946019301AA03AB0135FFF7D9FFEDB206
:104B7000301C694602AA03ABFFF7D2FF02340C2DAA
:104B8000EAD1009AD343180AFF2210401B021843AF
:104B900000B204B070BDC04621100000FFFF00004D
:104BA00008B5081C07F042FF064B054A07F050F90C
:104BB000054A064B07F04CF907F0FCFF08BDC0465C
:104BC000FCFCF7E0B54B4B3F1F85EB51B89E2340F3
:104BD00008B5081C07F02AFF084B074A07F038F908
:104BE000074A084B07F034F9074A084B06F0C6FCA1
:104BF00007F0E0FF08BDC0467B14AE47E17A843F72
:104C0000182D4454FB21094000000000008066403C
:104C100008B5081C07F00AFF064B054A07F018F90B
:104C2000054A064B06F08EF907F0C4FF08BDC046E2
:104C30000D897B2C7DE8B23F0000000000003F4062
:104C400008B5081C07F0F2FE064B054A07F000F90C
:104C5000054A064B07F0FCF807F0ACFF08BDC0465C
:104C60007B14AE47E17A943F0000000000005940F9
:104C700008B5081C07F0DAFE064B054A07F0E8F80D
:104C8000054A064B07F0E4F807F094FF08BDC0465C
:104C9000CEE737A7EDBA223F2D431CEBE2361A3F91
:104CA00008B50A300021482208F09AF808BD38B546
:104CB000041C0325FFF7F4FF2A1C201C002108F028
:104CC0008FF860190021042208F08AF82A1CE01DE0
:104CD000002108F085F8231C002252331A700123AA
:104CE000A365E36523666434227038BD021C10B5E9
:104CF00000235232137001228265C2650266021CD3
:104D000064324365041C1370137153719371C3664D
:104D100013735373D381FFF7CAFF201C10BD836D3B
:104D2000002B03D1C36D002B00D10366006E013848
:104D3000431E9841C0B2704773B5101C6C461E1CD0
:104D4000E171151C073408F039F9B0420DD223780F
:104D50002C2B0AD00D2B08D0202293430A2B04D0F1
:104D6000281C211C012208F030F973BD2A2903D028
:104D700052300378594001707047000013B5032288
:104D8000041C0A4901A808F009F8201C01A908F030
:104D90000BF9002801D1A06501E00123A365A06DF6
:104DA0000138431E9841C0B216BDC0460AF6000045
:104DB00013B5094B041C01A90330019308F0F4F862
:104DC000002801D1E06501E00123E365E06D0138D1
:104DD000431E9841C0B216BD5A444100C36D10B580
:104DE000041C011C6434002B05D10A312278683080
:104DF00000F050F900E0002023780133237010BD4B
:104E000010B50021041C1022073008F07DF952343F
:104E10002378C0B2181A43425841C0B210BD70B5D1
:104E2000041C0E1E052E2DD8081C05F073F8032B4C
:104E3000070E151D201CFFF73AFF23E0636D012BC1
:104E400020D1201CFFF79AFF0CE0636D022B04D1E8
:104E5000201CFFF7ADFF05E0636D032B12D1201C72
:104E6000FFF7BCFF051C0BE0636D042B0AD1201C6F
:104E7000FFF7C6FF051C201CFFF751FF0540EDB2F0
:104E8000002D04D0201CFFF70BFF666503E0201CFB
:104E9000FFF70DFF656570BD38B5041C406D0D1C36
:104EA000052845D805F036F8030819273844242981
:104EB00042D1201C01213DE0201CFFF757FF291C97
:104EC000201C221C0223FFF737FF201C08F076F875
:104ED000011C201C02292FD12CE0201CFFF746FFCB
:104EE000E21C201C291C0323FFF726FF2C2D23D1B5
:104EF000201C03211EE0201CFFF738FF221C201C71
:104F0000291C0A324723FFF717FF2C2DF0D02A2D3A
:104F100012D1201C04210DE0E21D201C0223FFF70A
:104F20000BFF0D2D01D00A2D06D1201C052101E01B
:104F3000201C0021FFF773FF206E38BDF0B5061C62
:104F400085B00020706000AF081C0D1C08F036F81A
:104F50000123062840D9AA7900232E2A3CD1012317
:104F6000072839D06A46C41F281CBA6008F026F802
:104F7000E4B2A31D8342804102334042DB08F86063
:104F8000DB006846C01A85466B46621C00217B60C8
:104F900007F026FFE91D6846221C07F0FFFE694660
:104FA0006B465A1AA2420ADA1878002230380925CC
:104FB00085425241F86801331040F860F1E70A2257
:104FC0000021786808F02AF9431CF9685A1E9341B9
:104FD0007060BA680B409546181CBD4605B0F0BD20
:104FE00010B5011C4C8986B00A7A4B7A00940C7873
:104FF0000C3001944C7802948C78039449680491A5
:10500000024907F0AFFF06B010BDC0460DF6000024
:10501000F0B585B000AF141C0D1CBB60F86007F044
:10502000CDFF2B19013B83428041231C0833DB0851
:10503000DB006946C91A8D46621C79604642002130
:10504000684607F0CDFEFA6868465119221C07F041
:10505000A5FE69466B465A1AA24208DA1878002261
:10506000303809258542524116400133F3E70021CB
:105070000A22786808F0D2F8FE22031CB9680020E2
:105080009A4240413040002900D00B70BD4605B027
:10509000F0BD0000F0B58DB000AF041C0D1C052A5A
:1050A00068D8101C04F036FF031F252D7474081CEB
:1050B00002220021231CFFF7ABFF02210A1C061C61
:1050C000631C281CFFF7A4FFA31C06400421022236
:1050D000281CFFF79DFFF6B20640291C201CFFF795
:1050E0002DFF304044E0231C081C0222002108331D
:1050F00004E0231C081C022200210933FFF788FF6B
:1051000036E0211C0A316B46281C39607B6007F0B1
:1051100055FF03268642B641381C00210C30F96049
:1051200004220171291C07F039FE002276429446C0
:10513000381C61460C300B5C0025303B0922291CD1
:105140009A4269410122944463460E40042BEFD1F8
:10515000291C0A2208F062F8114A396882426D411E
:10516000031C281C3040002900D063817A689546D2
:1051700000280DD1381C002124220C3007F030FE0D
:10518000391C201C0C31232207F008FE002003E00C
:10519000201CFFF725FF0120BD460DB0F0BDC04625
:1051A000FEFF000000487047A8F600000048704766
:1051B000B8F6000000487047D9F600000048704774
:1051C000EFF600000048704710F7000000487047F5
:1051D0002AF70000004870474BF70000004870476E
:1051E00065F700000048704786F7000000487047E8
:1051F0009EF7000070B5041C40680D1C08706268C2
:10520000130A4B70E3888B70E379CB70A3680B7142
:10521000A068030A4B7163898B71E37ACB71E268F2
:105220000A72E068030A4B72E3898B72E37BCB72EC
:10523000206907F0C3FE0023061CD900301CEA18C1
:10524000C84001331073042BF7D1281C321C21698C
:10525000103007F0A3FD301C103070BD38B5CB15F1
:105260004A02DBB2041C520AFF2B13D0002B03D0DE
:10527000E02080001B180EE0002A0CD0E023520032
:105280009B00100203D4013B52009BB2F9E752028B
:10529000520A00E00E4B002020706070A070500198
:1052A000E070D0082071D00A6071D20C180102435E
:1052B0005B05081CA27100215D0E04F035FF00287B
:1052C00002D080235B421D43E571082038BDC046F3
:1052D000FF07000070B5041C0D1C081C6168FFF777
:1052E000BDFFA168061C2818FFF7B8FF3618A819DB
:1052F000E168FFF7B3FF301870BD70B5041C0430CF
:105300000D1CFFF777FFA169061C2818FFF7A6FF01
:105310003618A819E169FFF7A1FF301870BDF8B57C
:10532000061C04300F1CFFF765FF041C301C3919E4
:105330001830FFF7CFFF0025241873193819996A20
:10534000FFF78CFF04352418242DF6D1201CF8BD5E
:1053500070B5041C04300D1CFFF74CFFA169061C3E
:105360002818FFF77BFF3618A819E169FFF776FFC9
:10537000301870BD30B5C278037912091B01134390
:1053800042790F24120313438279C579144024050E
:1053900023437F242C4012092401184D1443221E5C
:1053A000AA4216D0164DAC4218DCE025AD00AC4246
:1053B00003DD144AA418A4B20CE0DA250024AD00E1
:1053C000AA4207DD80256D042B430F4DAA1AD34056
:1053D00000E0FF240D4A934202D102E00023FF24A3
:1053E0000133E4055B0823430B60C4797F229443B7
:1053F0002406234308200B6030BDC046FF07000091
:105400007E04000080FCFFFF81030000FFFFFF001F
:1054100070B50D1C041C011D281CFFF7ABFF211CDF
:10542000061C08312818FFF7A5FF211C3618A819FB
:105430000C31FFF79FFF301870BD0000F0B5041C61
:10544000C06889B0002807D02269002A04D0211C36
:1054500008323031FFF7A4F92069002824D0E06831
:10546000002821D00021FFF7B6F900281CD0261C07
:105470001436301CFFF736FA051C291C301CFFF7C8
:1054800063FB18216B5E834210D06068002800D156
:10549000D0E0694B05AA059302231371674B0721DE
:1054A000936003681B6898470020C3E02B881B06A5
:1054B000DB0F03931AD0676A002F17D03B1C221C06
:1054C0000C33303203CA03C323691422A95E9B68DC
:1054D000301C1B09BB60FFF7B3FB616AB861584B16
:1054E000E069CB61002801D0FDF7ECFD2769002FB2
:1054F00052D03B1C221C0C33303203CA03C300239E
:105500000593504B05A806A9069301F0A5FF381C8A
:1055100005A90C3002F000F8494B27690222A95E68
:10552000FB62301CFFF754FB0423E95E7865301CF6
:105530002769FFF74DFBB8650620295E301C2769F7
:10554000FFF746FBF86527693F4B3A1D3B663B6713
:10555000301CD3670822A95EFFF722FB883738602A
:105560000A23E95E301C2769FFF71AFB8C37386085
:105570000C20295E301C2769FFF712FB2169903748
:105580003860324B0A1CA0689432136013611362B6
:10559000002801D0FDF796FD039F002F28D0A76AB1
:1055A000002F25D03B1C221C0C33303203CA03C30E
:1055B00023690E22A95E9B68301C1B09BB60FFF7A4
:1055C00057FB1023E95EF861301CA76AFFF750FB18
:1055D00038621220295E301CA76AFFF749FBA16AD6
:1055E0007862174BA0698B62002801D0FDF76AFD35
:1055F000E76A0297002F1CD02169029F8868B86073
:105600000C2084460A18BC440392634681CA81C3B5
:105610004969029F79611620295E301CFFF7F8FA6C
:10562000E16AB861064B206ACB61002801D0FDF722
:1056300049FD012009B0F0BD58F10000BFF700009E
:10564000000080BF0048E8018F28CE31B1AB333D68
:10565000F0B585B01F1C0AAB1B78041C00930BAB84
:105660001B78261C01930CAB1D7801F03FFA134BFD
:1056700014360833291C23600025301CFFF7F8F886
:10568000301CA561E56125626562A562E56225635E
:105690006563FFF70BFAE068A8420CD02A1C391C9E
:1056A000FEF748FFE06801230393036800991D6833
:1056B000019A03ABA847201C05B0F0BDD8F7000045
:1056C00073B50A780C1C42604B78051C1B0213430F
:1056D00043608A78120413434360CA781206134366
:1056E00043600A7982604B791B02134383608A7995
:1056F000120413438360CA791206134383600A7A43
:10570000C2604B7A1B021343C3608A7A12041343AC
:10571000C360CA7A0C3112061343C36001A8FCF7B8
:1057200089FE019A231C101C10301033191B814272
:1057300004D21E78591E0E700133F7E7A218002319
:105740000F34D3732C6176BD70B5041C04300D1C6E
:10575000FFF7B6FF211C061C18312818FFF70AFEB8
:10576000211C3618A8191C31FFF704FE301870BD33
:10577000F8B5061C04300F1CFFF7A2FF041C301CF8
:1057800039191830FFF744FE00252418311C283140
:1057900038194919FFF7EEFD04352418242DF5D1E9
:1057A000201CF8BD70B5041C04300D1CFFF788FFE9
:1057B000211C061C18312818FFF7DCFD211C3618A7
:1057C000A8191C31FFF7D6FD301870BD10B50023A5
:1057D0009A000A4C821812191268002A09D1DA1D9F
:1057E000FF32920082187D335160C8608B600120C7
:1057F00003E00133192BEBD1002010BD1C04000085
:10580000F8B5041C0D1C111C1A1C01F079F9606814
:10581000002800D182E04A4901260A6832400DD1B1
:10582000484B494F9A60DA601A61484A1F60484FF6
:105830005A6100225F609A61DA610E60454A012375
:105840001168161C0B40444A15D1444993601160FD
:105850003F49D36051603D491361516140499161B5
:105860000021D16111625162D7180433B962242B2F
:10587000FAD1012333603B4E0123316819403A4B82
:105880000DD13A4F9960D960196130491F60596153
:105890002F4F00219961D96101215F603160E3627E
:1058A000334B01211E68274F0E40A2626762B44647
:1058B000304906D1069E4F600E60674601260F6193
:1058C0001E602D4E012337681F40BC462B4B06D16E
:1058D000079F5A601F60624601271A613760284E91
:1058E000012732683A4094466746264A002F07D17E
:1058F000089F17601C4F5760674617610127376084
:10590000A361E1612262191CFFF760FFE169606831
:10591000FFF75CFF6068216AFFF758FF2369002BDF
:1059200000D05D61A36A002B00D05D61636A002B2B
:1059300000D05D61E36A002B00D05D61F8BDC04618
:10594000540C00205C0C002068F6000037030100B6
:1059500038F60000F00B0020080C002080F6000054
:1059600050F60000580C0020800C002098F6000033
:10597000B40C0020F40B00207C0C0020A00C0020B4
:10598000D80B0020DC0B002083880B70838802205A
:105990001B0A4B7070470B7883804A7812021343BE
:1059A00083800220704700000048704758F80000CC
:1059B0000048704768F8000042680A704268130A9D
:1059C0004B70C3888B70C3790420CB7070470A7802
:1059D00042604B781B02134343608A7812041343DE
:1059E0004360CA78120613434360042070470000E6
:1059F0000048704789F800000048704799F8000097
:105A000038B5051C0C35041C281CFFF7E0FFA16904
:105A100063694A10E069CC0701D58158CB58291C2D
:105A20008018984738BD006A7047000000487047EA
:105A300089F800000048704799F8000038B5051C47
:105A40000C35041C281CFFF7A6FFA16963694A10E6
:105A5000E069CC0701D58158CB58291C801898479C
:105A600038BD006A704700000048704758F80000D1
:105A70000048704768F8000038B5041C61600849A8
:105A8000101C002504AA08311278A560E06021608E
:105A90002561A84202D0191CFEF74CFD201C38BD20
:105AA00048F80000F7B5444F01253E6801932E40A9
:105AB0000CD1424C424B26822360424BA661E360EC
:105AC000414BE06163612562A2603D604468002C47
:105AD00070D0C26814650022950090266519F60002
:105AE000AD192D68002D08D190235B00D618334DD9
:105AF000B600643235516A6002E00132192AEBD1F6
:105B0000324D01262C68324A344007D1314F54605F
:105B10009460D460304C176014612E602F4D0126C4
:105B20002F68026137402E4C04D1089B62602360CD
:105B300027612E602B4E0125376884602F400DD1E0
:105B4000294A2A4B17611360294B0427D360019B14
:105B500057619561D061156293603560426800239A
:105B60009D00244E5519AD192D68002D08D1DD1D5D
:105B7000FF35AD0055197D336C60A360E26002E033
:105B80000133192BECD100239C0090251419ED0052
:105B900064192468002C08D1902676009D19124CB7
:105BA000AD006433AC50636002E00133192BEBD1DC
:105BB00003691961F7BDC046100D0020140D0020C7
:105BC00008F80000F0F70000F95B0000DC0C002092
:105BD000FC0C002038F6000037030100F80C002010
:105BE000E00C0020F40C0020B80C002038F8000075
:105BF00020F800001C04000030B5041CC0688FB001
:105C00000D1C002810D0036889889B68984763683A
:105C1000002B09D0AA88054901A807F0A3F96068FC
:105C2000012101AAFCF726FD0FB030BDBAF8000033
:105C300010B5041CC068002802D04968FEF719FCA2
:105C40006068002803D00121014AFCF713FD10BD54
:105C5000D4F800001FB5041CC068002810D04968A3
:105C6000FEF758F9606800280AD0064B01AA019394
:105C700001231371044B0721936003681B68984745
:105C80001FBDC04658F10000F5F80000F7B5151C1F
:105C900008AA041C127809A806780AA807780092B6
:105CA000201C2A1CFFF7E8FE084B277508332360E9
:105CB0000023A361E361236263629D4203D0281C39
:105CC000311CFEF735F9201CFEBDC04618F9000056
:105CD000F0B5C36885B0061C002B4CD0036A002BBE
:105CE00049D00269011C0832183102A801F02AFCCF
:105CF000029806F09BFE041C03980D1C06F096FE0D
:105D0000204B1F4A06F0A4F80B1C021C291C201C67
:105D100005F018F932690F1C0191311C083200900E
:105D2000203102A801F00EFC029806F07FFE041C50
:105D300003980D1C06F07AFE124B114A06F088F803
:105D4000021C0B1C201C291C05F0FCF87B00041C09
:105D50004F000D1C00985908221C7B0804F0AAF97A
:105D6000031CF068002B02D0009A019B01E0221C6A
:105D70002B1CFEF7B1FA05B0F0BDC046C046C046C8
:105D800095D626E80B2E113E37B5041CC0680022BC
:105D90006D4600920192904207D0237D934204D039
:105DA0006946FEF702FD00280ED1E068002815D0F4
:105DB0002269002A12D0111C083104320023FEF798
:105DC000F4F900280CD109E0231C221C20331832DE
:105DD00003CA03C3103B05CD05C3E6E700200FE06F
:105DE000237D002B02D0201CFFF772FFA368002B3D
:105DF00005D0D8689968056822692B689847012002
:105E00003EBD426830B50A704468230A4B70C388AF
:105E10008B70C379CB7082680A718468230A4B71D6
:105E200043898B71C37ACB71C2680A72C468230A32
:105E30004B72C3898B72C37BCB7202690A7304698C
:105E40001022230A4B73438A8B73C37CCB730B1CC6
:105E50001033841864680432250A1C705D70250CA8
:105E6000240E9D70DC7004331C2AF2D10B1C1C33F1
:105E7000202284580432250A1C705D70250C240EE3
:105E80009D70DC700433442AF3D1436C0A1C403209
:105E90001C0A137054701C0C1B0E9470D370836C0E
:105EA0001C0A137154711C0C1B0ED371031C9471CA
:105EB0004C331C8814721B881B0A5372026D0B1C16
:105EC0004A331A70046D4E31220A5A70046D220C46
:105ED0009A70046D5430220EDA7003784F200B70E4
:105EE00030BD70B50A7842604B781B0213434360A3
:105EF0008A78120413434360CA781206134343603E
:105F00000A7982604B791B02134383608A791204F9
:105F100013438360CA791206134383600A7AC2600E
:105F20004B7A1B021343C3608A7A12041343C36083
:105F3000CA7A12061343C3600A7B02614B7B1B02C1
:105F4000134303618A7B120413430361CA7B120665
:105F5000134303610B1C103310225E789D783602C8
:105F60002D0435431E7884183543DE780432360616
:105F70003543656004331C2AEFD10B1C1C332022EF
:105F80005D789C782D0224042C431D782C43DD7809
:105F900004332D062C4384500432442AF0D10B1CC8
:105FA00041331A7801331B7812021B0413430A1C75
:105FB000403212780C1C13430A1C433212784934C5
:105FC0001206134343640B1C45331A7801331B78C4
:105FD00012021B0413430A1C4432127813430A1C96
:105FE000473212781206134383640B1C48331A7825
:105FF000031C4C331A802478240222431A800B1C81
:106000004A331A78013302651B781B0213430A1CBA
:1060100003654C321278120413430A1C03654D3297
:1060200012784E311206134303650B785430037017
:106030004F2070BD004870475CF900000048704771
:106040006CF900000E4B10B50360002343608360C1
:10605000C3600361021C0023041C43618361C361AC
:106060002032443408C20021A242FBD1021C00238A
:106070004C324164816413800365137210BDC046C5
:1060800030F90000F8B5184E01273368041C174D8D
:106090003B4203D1281CFFF7D5FF3760A16865603C
:1060A00000291FD0124A01201668124B064004D165
:1060B000114F5D601F601E611060E3600022900060
:1060C0000E4C081800190068002808D1D01DFF30B8
:1060D000800008187D3243609A60D96002E0013286
:1060E000192AECD1F8BDC046A80D0020500D0020A3
:1060F000380D00203C0D00208DF900001C0400002C
:10610000F0B5476893B0061C002F00D136E1406F10
:10611000391D002852D1B26F002A4FD13A1C0C32DF
:1061200010A801F00FFA109B11980E930F90181CF5
:1061300006F07CFC041C0F980D1C06F077FC914BBC
:106140008F4A05F085FE021C0B1C201C291C04F044
:10615000F9FE06F02FFD30670E9804F047FE06F0BA
:10616000D7FC894A894B05F073FE041C0F980D1C5F
:1061700004F03CFE06F0CCFC854A864B05F068FE38
:10618000021C0B1C201C291C04F0DCFE06F012FD76
:106190007768FF239B05BB61814B824AFB61FE232D
:1061A0009B053B6200237B62BB62FB627B63BB633C
:1061B000FB637D4B78613A633B64DAE0321C7432F6
:1061C00010A801F0BFF9109806F030FC041C1198DB
:1061D0000D1C06F02BFC6B4B694A05F039FE021CC6
:1061E0000B1C201C291C04F0ADFE06F0E3FC7468B7
:1061F0007864231C4C33188804F054FE656C626983
:10620000A369011CE469301C283000940190281C0B
:10621000FCF7FCFD7468E36A676C256A616AA26A30
:106220000093206B0E910190616B0F920291A26B13
:106230000392E36B0493206C231C4C330590188865
:1062400004F030FE0690B1690791F269291C0892AA
:10625000336A0E9A0993A069331C0A90E4693433B7
:10626000381C0B940C930F9BFCF7EEFD726810A882
:10627000111D0C3201F066F9109804F0B7FD06F01C
:1062800047FC414A414B05F0E3FD041C11980D1CED
:1062900004F0ACFD06F03CFC3D4A3E4B05F0D8FD59
:1062A0000B1C021C291C201C04F04CFE06F082FC76
:1062B000321C011CB0655C32B06AFCF76BFE321C0C
:1062C000706B716A6032FCF76EFE331C64330093AE
:1062D000706B316CF26C336EFCF770FEB16A00913A
:1062E000F26A0192336B0293736814330393706EF6
:1062F000B16EF26EF36DFCF775FEB06B0090F16B52
:106300000191326C0292736C0393B06C0490F16C47
:106310000591326D0692736D07937368203308936D
:10632000F26E706EB16E736BFCF779FE77683B1C92
:106330004C33188806F07AFB174A184B05F088FD95
:10634000041CB8690D1C06F0E3FB021C0B1C201C8E
:10635000291C06F00DF8041CF8690D1C06F0D8FB8A
:10636000021C0B1C201C291C05F072FD06F022FCEF
:10637000B86473687436043303CB03C613B0F0BD3E
:1063800095D626E80B2E113E0000000080842E4199
:10639000FCA9F1D24D62503F6D1AD0A6016D6A3F43
:1063A0000000C0400AD7233BEC51B83CC046C04671
:1063B00070B5446896B0051C002C2BD06846FFF7DA
:1063C00041FE231D01AA03CA03C303AA41CA41C354
:1063D00005AA43CA43C308AA43CA43C343CA43C323
:1063E00043CA43C311996164129B149EA36413AB07
:1063F0001A88231C4C331A80266515AB1B7854343D
:1064000023706B68D2211A1C4C32FF311180543337
:1064100000221A7000236B67AB6716B070BD0000D6
:10642000F8B52F4B2F4E03600023041C436081609E
:10643000C360306801272C4D384203D1281CFDF77A
:1064400033FB376000222949231C62612561183320
:1064500061C961C3264B6267636200232367231C03
:106460007C33A2671A70234B0122197811431970EB
:10647000214B19780A431A70204AD379DB09FBD1E2
:10648000137801210B431370D1791C4BC909FBD13F
:1064900059784020014359705978012001435970BF
:1064A0001889D221FF3101431981D179134BC909D0
:1064B000FBD11978022001431970D179C909FCD1A7
:1064C0002069002801D0FDF781FAA368002B01D0D4
:1064D00022691365201CFFF76BFF201CF8BDC04626
:1064E00048F90000E8020020F401002050F9000003
:1064F00017B7D13B314400414244004100480042BB
:10650000F0B5046FC5B0061C0021201C03F020FE6E
:10651000002805D0FE21201C890503F019FE03E0A8
:10652000201C4D4903F000FE431E9841002825D051
:106530004A4D01272B684A4C3B4203D1201CFCF7F3
:10654000E9FE2F607368201CD968FCF71DFF736893
:1065500004ACDA68201C1B69424906F003FD424B7B
:1065600001AA0193B06801231371036894601B684A
:1065700007219847301CFFF71BFF60E07768002178
:10658000786C03F0E5FD002859D0786906F0C0FA70
:106590002E4B2D4A05F05CFC06F00CFB80231B06FD
:1065A000C01806F0B5FA041C0D1CB8692F4904F098
:1065B00063F906F0ADFA264A264B04F0DFFF021C11
:1065C0000B1C201C291C04F0BDFC06F0F3FA284922
:1065D000041C03F0A9FD002807D1201C254903F065
:1065E000B7FD002802D0234C00E0214C201C03F012
:1065F0006BFC03F0C1FD4C3780B238801E4BDA795A
:10660000D209FBD11881DA79D209FCD17468FE2154
:10661000636989055800400803F086FD7C36002830
:1066200005D033783C2B03D00133337000E0307059
:1066300033783B229A429B415B425434237045B0ED
:10664000F0BDC046C046C0462D54A3FC49A9084031
:106650006666666666660A40000080BFF402002037
:106660006C01002097F9000058F1000000C07F4441
:1066700000001B4300C0414400480042C046C046E1
:1066800010B5041C406903282CD803F043FC021009
:106690001A222069002827D06268002A24D0111D00
:1066A0005032FDF77DFD00281ED001231BE023683A
:1066B000201C1B6898470223012814D0022813D1FC
:1066C00010E0201CFFF71CFD201CFFF719FF03231F
:1066D00009E0E368002B05D0D86899680268136860
:1066E0006268984700236361002010BDF8B5041C60
:1066F000171C1E1CFFF794FE0A4B251C083308C507
:10670000201CEF678430FEF7F1FA231CE86FFC339E
:1067100000225A61904203D00368311CDB6998471C
:10672000201CF8BDB8F90000F0B5071CFC37061CAA
:106730007869CFB0032800D9A4E003F0EBFB02A3F3
:10674000A3997168002900D19EE0FBF745FD011C6B
:106750000AA8FCF75BFE72680CA804320AA900F0D4
:10676000F1FE0C9806F062F9041C0D980D1C06F061
:106770005DF9964B944A05F06BFB021C0B1C201C28
:10678000291C04F0DFFB04900591FBF725FD071C95
:10679000C06906F04BF9041C386A0D1C06F046F976
:1067A0008A4B894A05F054FB021C0B1C201C291C37
:1067B00004F0C8FB051C2A1C80250C1C2D0604981F
:1067C0000599631903F076FC002807D10498059910
:1067D0007F4A804B03F082FC00283CD0B16800293E
:1067E00037D00A9806F060F9069007910B9806F0EA
:1067F0005BF9764B744A05F02BFB021C0B1C0698C8
:10680000079904F09FFB746806900791606806F092
:106810004BF908900991A06806F046F96B4B6A4A5B
:1068200005F016FB021C0B1C0898099904F08AFB62
:10683000049C059D069A079B009001910294039584
:1068400067490EA806F08EFBB06802210EAAFBF77E
:1068500011FF022208E0049805995F4A5F4B03F09C
:106860003DFC002810D00322331CFC335A610BE09E
:10687000341DE06F00280BD003681B69984700287F
:1068800033D105E000237B61FC3670694FB0F0BD69
:10689000FBF7A2FC011C0CA8FCF7B8FD72680EA85F
:1068A00004320CA900F04EFE0E9806F0BFF8041C4E
:1068B0000F980D1C06F0BAF8444B434A05F0C8FA8D
:1068C000021C0B1C201C291C04F03CFB404A414BC1
:1068D00003F004FC0028D7D0B068002803D00321BF
:1068E000404AFBF7C7FE0223CDE7E06F351C036883
:1068F000843504955B699847C1B20498FEF7CCFAD9
:106900000028C1D1331CF0331D68002DBCD1E06FCD
:1069100003681B69984701281BDDB16800290DD069
:10692000E06F03681B6998472F49021C0EA806F008
:1069300019FBB06802210EAAFBF79CFEE06F03680A
:106940001B6998470028CED0E06F03685B699847C1
:10695000F4E7331C301CF633EC3019880078013B27
:106960001A78013B1B780090301CED3000780190C4
:10697000301CEE30007802900CA800F0C1FE746864
:106980000694002C0DD00CA800F0D2FE0EAC0E9098
:106990000FA9201C0F9500F095FD069B0C3322CC0F
:1069A00022C3341DE06F03681B699847002808D094
:1069B000E06F03685B699847C1B20498FEF76CFA10
:1069C000EFE701235FE7C04695D626E80B2E113E80
:1069D0009A9999999999E93F9A9999999999C93F59
:1069E000C8F900005CFA000011FA0000C046C04679
:1069F00000487047C8FA000000487047E1FA0000FC
:106A00000048704702FB00000048704712FB00007E
:106A100070B5041C0D1C081C6168FEF71FFCA16802
:106A2000061C2818FEF71AFC3618A819E168FEF7AC
:106A300015FC3618A8192169FEF710FC301870BD36
:106A4000F8B5041C04300D1CFEF7D4FB061C201CFA
:106A5000A9191830FFF7DCFF00273618E319A81929
:106A6000D96AFEF7FBFB04373618242FF6D1201C19
:106A7000A9195030FEF72EFC00273618E319A81983
:106A8000196EFEF7EBFB04373618242FF6D1201CC5
:106A9000A9198430FEF71EFC00273618E319943339
:106AA000A8191968FEF7DAFB04373618242FF5D138
:106AB000301CF8BD70B50D1C041C011D281CFEF710
:106AC00059FC211C061C08312818FEF753FC211C18
:106AD0003618A8190C31FEF74DFC211C3618A819E0
:106AE0001031FEF747FC301870BD0000C260034A49
:106AF000002341608360026003617047C0FA0000B8
:106B0000F7B5484E01243568019225400CD1464B1B
:106B1000464F1D821F60464F9D61DF60454FD86123
:106B20005F611C62996034604168002979D0C36854
:106B3000196500239C0090220C19D200A418246827
:106B4000002C08D1902464001D19374CAD0064332B
:106B50006C50636002E00133192BEBD1364F0124F6
:106B60003E68364B34403BD1354D9C601D60354D01
:106B7000DC605D60344D1C615D61344D9D610025BC
:106B8000DD611D625D629D621E19B4466246043479
:106B90000026D562242CF7D12D4C5E651C659E65C0
:106BA000DE6500241E19B4466246043400261566CC
:106BB000242CF7D11C1C264A0834E2671C1C88349C
:106BC00026601C1C8C3426601C1C9034266000241B
:106BD0001E19943604343560242CF9D101243C600C
:106BE0001C4D01262F68036137401B4C04D1019ACC
:106BF0006360226027612E60846000239A00174D35
:106C00008A1852191268002A08D1DA1DFF32920040
:106C10008A187D335460A360E16002E00133192BD0
:106C2000ECD1F7BD680E00206C0E002008F80000C3
:106C3000F0F70000F95B0000AC0D0020B00D002063
:106C4000A8FA000038F600003703010090FA0000AF
:106C500050F60000900E0020940E00201C0400004E
:106C6000F8B5041C04300D1CFEF72AFD061C201C80
:106C7000A9191830FFF71EFF00273618211C2C31E8
:106C8000A819C919FEF776FB04373618242FF5D159
:106C9000201CA9195030FEF7BBFB00273618211C19
:106CA0006031A819C919FEF765FB04373618242F7F
:106CB000F5D1201CA9198430FEF7AAFB002736184D
:106CC000211C9431A819C919FEF754FB0437361852
:106CD000242FF5D1301CF8BD0048704768FB000038
:106CE000004870477AFB0000004870479BFB00009B
:106CF00000487047AEFB000038B5041C04300D1C82
:106D0000FEF778FA237E29182B54E36911301A0A0A
:106D10004B708A701A0C1B0ECA700B71236A1A0A08
:106D20004B718A711A0C1B0ECA710B72636A1A0AB4
:106D30004B728A721A0C1B0ECA720B73A36A1A0A60
:106D40004B738A731A0C1B0ECA730B7438BD38B59B
:106D5000051C04300C1CFFF7CFFF2B1C30331B78B5
:106D6000211823546B6B05301A0A4B708A701A0C69
:106D70001B0ECA700B7138BD08B50368C9B21B6819
:106D8000984708BDF7B53E4F01253E6801932E4058
:106D90000CD13C4C3C4B268223603C4BA661E3600B
:106DA0003B4BE06163612562A2603D604468002C5A
:106DB00050D0C26814650022950090266519F6002F
:106DC000AD192D68002D08D190235B00D6182D4DEC
:106DD000B600643235516A6002E00132192AEBD103
:106DE0002C4E012734683C4015D12B4A2B4D3023C3
:106DF00015602B4DD46055602A4D146195602A4D65
:106E00005461956100251477156255629562D562CB
:106E10009C5455633760254C1F4F266801254761F8
:106E20002E40234A04D1019B5760136016612560F0
:106E30004468826000239D001E4E6519AD192D68BF
:106E4000002D17D1DD1DFF35AD0065197D336A605A
:106E50009360D4604369002B10D001221A779961A6
:106E6000154A43691A62154A5A62154A9A62DB68E2
:106E7000036103E00133192BDDD1EBE7F7BDC04619
:106E80000C0F0020AC0E002008F80000F0F7000006
:106E9000F95B0000080F0020D00E002058FB000016
:106EA00040FB000038F6000037030100A80E002068
:106EB000100F00201C0400006F12033CCDCC4C3D91
:106EC0000000F04138B5041C04300D1CFEF7F8FB3F
:106ED0002B5C291823768A78CB7812021B04134383
:106EE0004A78113013430A7912061343E3618A7911
:106EF000CB7912021B0413434A7913430A7A120610
:106F0000134323628A7ACB7A12021B0413434A7A10
:106F100013430A7B1206134363628A7BCB7B120204
:106F20001B0413434A7B13430A7C12061343A362D8
:106F300038BD38B5041C04300D1CFFF7C3FF231CFB
:106F40002A5C303329181A708A78CB7812021B0415
:106F500013434A78053013430A79120613436363D7
:106F600038BD000000000000F8B5274E071C0C1CBF
:106F7000301C622100F07CFC8E21301CFFF7FCFEEF
:106F8000301C012100F0EDFC051E06D078680028B9
:106F900003D002211D4AFBF76DFB301C6221032246
:106FA000012300F07EFC002C23D0301C00F012FDE9
:106FB000231C30331870301C00F00CFD071C301CF3
:106FC00000F008FDFF231F403F020340F81805F0C2
:106FD0002DFD0C4B0A4A04F03BFF05F0EBFD0C497C
:106FE000E06203F0A1F8002801D00A4B00E00A4B50
:106FF000636368426841C0B2F8BDC046C046C0463F
:107000007B14AE47E17A843F900F0020CFFB000055
:107010000000A040B4A29138B4A2913AC046C04644
:1070200070B5144C6221061C201C00F021FC0121CB
:10703000201CFFF7A1FE201C012100F092FC051E80
:1070400006D07068002803D002210B4AFBF712FB20
:107050000122131C6221201C00F023FC201C00F0E4
:10706000B9FC021C0020854202D10123101C1840EB
:1070700070BDC046900F0020F5FB000010B5041C49
:10708000C068002807D06269002A04D0111C1031A2
:107090000C32FDF785FB6369002B08D0DB682269A1
:1070A0009A4204D0201CFFF7BBFF002801D000202B
:1070B00014E0201C6169FFF757FF002802D0A36885
:1070C000002B04D163690120DB68236106E0D868E6
:1070D00099680268136862699847F3E710BD000079
:1070E00070B50A4C0E1C201C6221151C00F0C0FB60
:1070F000311C201C00F010FC291C201C00F00CFC92
:10710000201C012100F02DFC70BDC046900F002016
:1071100038B541601049041C08312160012100206C
:107120004942A060E26021616061824205D0101C8A
:10713000191C28220123FDF717FA084D281C00F01E
:1071400069FB281C064900F085FB0021201C0A1C55
:10715000FFF7C6FF201C38BD20FC0000900F002068
:10716000801A06000048704748FC0000004870473D
:1071700056FC000038B5051C04300C1CFFF7BCFDA4
:107180002B1C30331B78211823546B6B05301A0AE3
:107190004B708A701A0C1B0ECA700B7138BD10B57B
:1071A00000230160FF21041C43608360C2600174FE
:1071B000438243619A4205D01368E121DB69101CC8
:1071C00049029847201C10BDF7B501920268002AB9
:1071D0003DD0264E012734683C4015D1244B254D27
:1071E00030221D60244DDC605D60244D1C619D607B
:1071F000234D5C619D6100251C771D625D629D626F
:10720000DD62D4545D6337601E4C194F266801253A
:1072100087602E401C4B04D1019A5F601A601E618A
:1072200025600468436000229500184E6519AD1969
:107230002D68002D08D1D51DFF35AD0065197D32B3
:107240006B609A60DC6002E00132192AECD183683D
:10725000002B0AD001221A7799610D4A83681A62BD
:10726000FC2292055A620B4A9A62F7BD700F002009
:10727000380F002038FC000040FB000038F600000A
:1072800037030100740F0020240F00201C040000AD
:107290003333B33E0000484238B5041C04300D1CA3
:1072A000FFF710FE231C2A5C303329181A708A78E5
:1072B000CB7812021B0413434A78053013430A7932
:1072C00012061343636338BDF0B581689FB0041C98
:1072D000002900D1A6E0C068002800D1A2E0036820
:1072E0001B699847002800D19CE0E06803685B694F
:1072F0009847071CC6B26069052803D9002363615B
:10730000012590E002F006FE0320363C596101257C
:10731000FE2E00D087E0484FA2683B680192474E9E
:107320002B4203D1301CFBF7F5FF3D6002AD281C5A
:10733000311CFCF76BF8019B103306CD06C300230C
:107340000125638265616EE0022E04D1638A666165
:1073500002336382D4E72368002BCFD0384902225E
:10736000FBB205A805F0FEFD2068022105AAFBF787
:1073700081F9C3E7638A2674F61866820323BEE7A1
:10738000237CF8B20002C01805F050FB294B284AB4
:1073900004F05EFD05F00EFCA568FE21E86289059B
:1073A00002F0C2FE002801D0264B00E0264B6B63A2
:1073B000638AF61866820423A1E7A36830331E703F
:1073C000638AF6186682052399E7E06803681B69FB
:1073D0009847628A43425841FF231F40C0B213407E
:1073E0009F420FD100280FD06368002B05D0D868CA
:1073F000996802681368A2689847A368DA6801323E
:10740000DA607BE7002806D12068002800D175E704
:1074100002210E4AABE72068002800D16EE7022166
:107420000B4AA4E70025281C1FB0F0BDC046C0468B
:107430007B14AE47E17A843FF40200206C01002007
:1074400077FC000017B7D139DC693A39ACFC000091
:10745000D4FC0000C046C04610B50B680268084C5A
:10746000A34203DD074C01321B19F8E7002B03DAB6
:10747000034C013A1B19F9E702600B6010BDC046CE
:1074800000CA9A3B003665C470B5061C1D1C141C4E
:10749000006805F0CBFA2B1C221C04F0D9FC05F087
:1074A00091FA3060706805F0C1FA2B1C221C04F0C0
:1074B000CFFC05F087FA311D7060301CFFF7CCFF60
:1074C000301C70BD70B50D68061C0C1C281C0649CC
:1074D00002F02AFD3368044918183060281C02F0B5
:1074E00067FD216070BDC04600CA9A3B036810B5B5
:1074F000041C0868013B1B182360064863681A18BF
:107500004B68201CD3186360211DFFF7DBFF201C94
:1075100010BDC04600CA9A3B036810B5041C086839
:10752000013B1B1A2360064863681A184B68201C2D
:10753000D31A6360211DFFF7C5FF201C10BDC04694
:1075400000CA9A3B38B5041C156808684968431B93
:1075500023605368201CCB1A6360211DFFF77CFF5A
:10756000201C38BD437A002B04D18372C372C360E0
:1075700001234372704730B585B0041C02AD00682A
:107580000291039200F026FF6B79E179227A009351
:107590002068002301F090F829792068029A00F011
:1075A000E9FE206800F00CFF05B030BD70B5041C8A
:1075B0001826FFF7D7FF2079331C43430D4D0821D0
:1075C000EB18595600F090FDA079331C4343082175
:1075D000EB18595600F088FD607908214643AD1933
:1075E000695600F081FD044B201C06CBFFF7C3FF5A
:1075F00070BDC04630FD0000780F002010B5041C9F
:10760000006800F0CFFE0023637210BD07B5837AD7
:1076100000910192002B0DD09A0706D5EFF310834D
:107620005A425341C37272B604E0DA0702D5828926
:10763000034B9A600099019AFFF79DFF07BDC04672
:1076400000180040837A002B0BD09A0704D5C37A28
:10765000002B06D062B604E0DA0702D58289014B1E
:10766000DA6070470018004008B5006800F0BBFE03
:1076700008BD0000094B0A4A0A491A6000225A71E3
:107680001A71094B19601621197118219971172166
:10769000597101215A72D9711A727047780F0020FE
:1076A00000093D004C160020800F0020114B10B542
:1076B000984202D9104BC01880B200230133DCB2CB
:1076C0008C4206D20D4CE418013C2478121992B277
:1076D000F4E7022903D9830701D1013292B26E2364
:1076E000FF3343430330013B80101818121890B247
:1076F00010BDC046CF07000030F8FFFFFDFC0000C2
:10770000F0B505AC2678084F06AC257807AC247890
:10771000B94202D9054FC91989B2C6700571017005
:10772000427083704471F0BDCF07000030F8FFFF56
:1077300010B5041CA27800786178FFF7B7FF182312
:107740005843E3782279C0183C23584380185843A3
:107750006279024B8018C01810BDC04680436D3856
:1077600000207047F8B5051C0F1C161C0024B442FD
:1077700008D02B68395D1B68281C9847002801D069
:107780000134F4E7201CF8BD7047031CFC33196A70
:10779000DA69914203D01B6AC018007E01E0012023
:1077A00040427047031CFC33D8691B6AC01A01D5DC
:1077B0000130FF3070470000F7B50193FA239B00BA
:1077C0008360134B8026002576000833041C0F1CB1
:1077D0004560291C00920360321C183005F000FB44
:1077E000231C9022FC335200DD61A0181D62321C64
:1077F000291C05F0F5FA87229200A3185D60019A12
:107800009D60009B2761A575201C23756275FEBDD8
:1078100008FD000070B50D49041C006900F070FF00
:10782000206900F0FBFD1826207D331C4343084DE2
:107830000821EB18595600F057FC607D082146439B
:10784000AD19695600F050FC70BDC046A08601001D
:1078500030FD000038B5041C0D1C006900F0F2FD7D
:10786000291C206900F04CFF206900F0D7FD38BDCD
:107870008A2387229B009200C154831800225A60F9
:107880009A60012383757047031CFC335A6810B556
:1078900001329C68D2B2A24202D05C6801555A60A3
:1078A00010BDF7B501930023041C151C181C9A4247
:1078B00031D0221CFC32D36120691362012200F016
:1078C000F3FD002825D0206900F05DFE271C183745
:1078D000011C381CFFF7D8FF01262069AE420ED0EC
:1078E00000F0C2FD0221206900F0C8FD206900F00F
:1078F0004AFE011C381CFFF7C7FF0136EDE700F018
:10790000ABFD019B002B05D02069032100F0B6FDE3
:1079100000E0051CE8B2FEBD10B5827D00239A424E
:107920000DD08724A4000219546892680134E4B28F
:10793000944204D02130FF30FFF7A6FF0123181C2A
:1079400010BD031CFC3399685A68914206D09A68AE
:10795000805C9A680132D2B29A6001E00120404214
:10796000704770B500228A2382759B00041C0E1C90
:10797000C15C006900F098FD002805D12069032151
:1079800000F07CFD022523E090235B00E0188723B4
:107990009B00E21851689368CB1A01D50133FF337D
:1079A000002B0ED02569FFF7CCFFC1B2281C00F0D8
:1079B000AAFD0028E8D12069032100F05FFD03251E
:1079C00006E01D1C002E03D02069032100F056FDA7
:1079D000281C70BD08B51830FFF7B3FF08BD38B5D7
:1079E000041C006900F0ADFD002800D184E020698E
:1079F00000F0B5FD00280ED1206900F0BAFD002886
:107A00001FD0206900F0B0FD00281AD0206900F0D6
:107A1000B5FD002815D1206900F026FD206903215D
:107A200000F02CFD8C239B00E558002D04D023682A
:107A3000201C1B699847A847FC340023E36123629C
:107A40005AE0206900F095FD031C2069002B19D035
:107A500000F00AFD2069032100F010FD206900F00C
:107A60008DFD002848D087229200A31800225A607A
:107A70009A600123A3758B239B00E35893423BD06C
:107A8000984739E000F066FD002835D0206900F005
:107A900075FD002816D087239B00E2185168936873
:107AA000CB1A01D50133FF33FF21002B05D09022E3
:107AB0005200A018FFF745FFC1B2206900F034FD65
:107AC000A07519E0231CFC33DA691B6A0132D2B2BB
:107AD00020699A4202D100F0BFFC09E000F053FD9A
