:1020000000800020C17B0000A97B0000A97B0000AC
:1020100000000000000000000000000000000000C0
:10202000000000000000000000000000A97B00008C
:102030000000000000000000A97B0000157C0000EB
:10204000A97B0000A97B0000A97B0000953400005B
:1020500089220000A97B0000A97B0000AD7B000065
:10206000A97B0000F57A0000A97B0000A97B000095
:10207000CD7A0000A97B0000057B0000993A0000A2
:10208000593B0000193C000009350000753500007F
:10209000E1350000A97B0000A97B0000A97B0000BE
:1020A000A97B0000A97B0000A97B0000A97B0000A0
:1020B0000000000010B5064C2378002B07D1054B1B
:1020C000002B02D0044800E000BF0123237010BDA4
:1020D0008002002000000000E0060100044B10B563
:1020E000002B03D00349044800E000BF10BDC046E8
:1020F0000000000084020020E006010043680B702D
:1021000043681B0A4B7043681B0C8B7043681B0EA3
:10211000CB7083680B7183681B0A4B7183681B0C3F
:102120008B71836808201B0ECB7170470A78426060
:102130004B781B021A4342608B781B0413434360A5
:10214000CA781206134343600A7982604B791B02F6
:102150001A4382608B791B0413438360CA79120689
:102160001343836008207047004870475DF3000008
:10217000004870473CF3000000487047CEF2000072
:1021800000487047ADF20000004870479AF2000026
:102190000048704779F2000000487047E7F20000FD
:1021A0000048704758F200009F23DB00C05C704776
:1021B00010B50400034B0360143002F0DFFA200076
:1021C00010BDC046C4F8000070B50126054D064C90
:1021D0002B68334203D1200001F074F82E602000F8
:1021E00070BDC046F4030020F803002070B501263E
:1021F000054D064C2B68334203D1200001F062F9F3
:102200002E60200070BDC046980300209C03002073
:10221000174B10B5186803681B689847002826D12B
:10222000144B186803681B68984700281FD1124B8D
:10223000186805F059F8002819D1104B1868036880
:102240001B689847002812D10D4B186804F010FA4B
:1022500000280CD1FFF7B8FF00F062FF002806D17C
:10226000084B1868002802D003685B68984710BDC7
:10227000280B0020200B0020340B00202C0B00200A
:10228000240B0020300B002010B5FFF79DFF01F05C
:10229000E1F8FFF7ABFF02F023FA10BD0B0A017063
:1022A00043700B0C090E8370C1707047F8B58388BA
:1022B00006000B7083880D001B0A4B7080680BF0C2
:1022C0001DFB0400A81C2100FFF7E8FF2200B168F5
:1022D000A81D0AF0A3FDF0680BF010FB0700A31D7A
:1022E000E81839000A34FFF7D9FF3A00F1682819D5
:1022F0000AF094FD30690BF001FBE419070028197E
:1023000039000434FFF7CAFF3A00281931690AF08E
:1023100085FD7369E4192B551A0A2D196A701A0C78
:102320001B0EAA70EB70201DF8BD4368F7B50B704B
:1023300043680E001B0A4B70436804001B0C8B7033
:1023400043681B0ECB700B1D0021DA1C944662689B
:102350008D1C5F1C981CAD008A420DD9E2680131CA
:102360005519083D2A68100A1A705870100C120E80
:102370009870DA700433E8E7226900211A70624627
:1023800023691B0A3B7023691B0C037023691B0E16
:1023900013707319DA1C944622695F1C981C04356B
:1023A0008A420CD9A0698A0012580131100A1A70A9
:1023B0005870100C120E9870DA700433EAE7E26974
:1023C0001A70E36962461B0A3B700027E3691B0C25
:1023D0000370E3691B0E1370E369BB4215D9636A8E
:1023E000BA0098580BF08AFA019001997019FFF71A
:1023F00055FF636ABA00043599587019019A0AF0BA
:102400000DFD019B0137ED18E6E72800FEBD70B514
:10241000037906000B7080680D000BF06FFA040062
:10242000681C2100FFF73AFF681DB16822000AF01E
:10243000F5FC601D70BD002310B50360CA5CDC00B4
:10244000A2400468013322430260042BF6D110BD80
:10245000F0B50C000B7885B083804A780600120234
:1024600013438380023101A8FFF7E5FF611D0B00D4
:10247000019A951D0133181B854203D91F78581EF8
:102480000770F7E70023A218537102A8B160611921
:10249000FFF7D1FF029A2B1D9D181A00954204D90F
:1024A000A05C511E60540132F8E700206119013B25
:1024B000E3184A1E1070F36003A8FFF7BCFF039BEC
:1024C0000435E8182B00984204D9E15C5A1EA15447
:1024D0000133F8E700212218013D531E65191970D8
:1024E0003561537891781B020904D2780B43215C43
:1024F00012060B4313430430736105B0F0BDF0B511
:102500004B780D781B022B438D7887B02D042B431D
:10251000CD7804002D061D4343680E00AB4204D263
:10252000A900C0680BF0A4F9E06000236560371DC6
:102530000193BA787B7812041B0213433A78134351
:10254000FA780437120613430293019B019A981CF0
:10255000830003931D00636893420DD92800210076
:10256000029B0838A360E3680422181808310AF0B7
:1025700055FC019B0133DBE72369029A934204D2A5
:102580009100A0690BF074F9A061029B2361039B89
:10259000F71800230193BA787B7812041B021343C7
:1025A0003A7804351343FA7804371206134302933A
:1025B000019A236993420CD92100029B9000636128
:1025C000A3690422181814310AF028FC019B013376
:1025D000E0E7E369029A934204D29100606A0BF04B
:1025E00047F960620027029BE361E369BB421FD9A0
:1025F000711905A8FFF71FFF059A2B1D9D181A00DA
:10260000954204D9B05C511E70540132F8E70021A4
:102610007219013A11702100013BF3182362636AB9
:10262000B8001818042220310AF0F8FB0137DCE763
:10263000280007B0F0BDF7B50C000B78050003715A
:10264000013101A8FFF7F7FE221D13000199481D73
:1026500001331E1BB04203D91F785E1E3770F7E7A7
:10266000002364182371AA60FEBD00001FB5054C4D
:1026700001AB0392026819710194072114681A00D2
:10268000A0471FBD1CF200000123F0B5834987B0AD
:102690000A68834C1340834D41D1834A83482260AA
:1026A000E1221202A2609F22D200A354804A6560F8
:1026B000A05018001C32A3500832A3507D4A9A182B
:1026C0000433A050642BF9D1002318009022D200CB
:1026D0009A18121904331060642BF7D1002380225A
:1026E0001E0092001819013306779342FAD1002296
:1026F00080261300B60087208000101800190132D0
:102700000370B242F7D1A222D200A3500832A350E4
:10271000694AA361A350694AA35001230B60684F23
:1027200068483C6005F0BAFAA168606806F064F891
:102730000023654A0121A3500432A3500832A3505C
:10274000624A3868A350624AFFF790FF280006F0FB
:1027500055F80028FAD001235E4E5F4D34681C40C6
:1027600016D13B680593FFF741FD0A23029303331B
:102770000193E8330200FF3305990094280002F02A
:10278000E5FD0123554A56492800336007F0EEFA6B
:102790000124544B1D60544D2B68234215D13B68D6
:1027A000524E05933368234203D1514801F040F95A
:1027B0003460012400230294009301940A334C4AAC
:1027C00005994C4803F05CFA2C6001264A4B494AB3
:1027D0004A4D1A602B684A4C334207D1E123494ADB
:1027E0005B023968200003F07BFF2E600126464B18
:1027F000464D1C602B68464C334205D1454A39682A
:10280000200004F0D8FC2E60434B444D1C60012492
:102810002B68234211D13B68414E05933368234214
:1028200003D1404800F084FE34600A233D4A0599F4
:102830003D4804F0C5FB01232B603C4C3A4B236020
:10284000FFF7C2FC396800F02FFC394B2548029392
:10285000384B394A0193394B394900930068394B59
:1028600002F04EFE384B24480093384A3849394B21
:10287000006803F011F9244B186803F003FC264BA1
:10288000354A1868354904F0ABFC354B354A3649B2
:10289000206804F089FA07B0F0BDC046300400207B
:1028A000980400209C1700204CF2000034F2000035
:1028B0000C0500001C0400001C050000240500009D
:1028C000300B0020B80B0000E4040000EC04000012
:1028D0006BF30000280400204004002000000020CA
:1028E000B1210000280B0020340400209C020020AD
:1028F000A0020020CC090020200B0020380400207A
:10290000F409002004130020240B00203C040020C4
:10291000080B002040150020340B00202C04002060
:102920003C03002040030020800400202C0B0020EA
:10293000C1F30000D8F3000098F30000EEF30000AC
:10294000B3F300007DF3000025F4000012F4000052
:1029500020F4000005F4000031F400003CF4000015
:1029600042F4000052F4000066F4000070B5040068
:102970000E00632905DD9F230025DB00C35CAB420D
:1029800039D0136821491B686118100098478723C4
:102990001F4A9B00E2521F4AC3B2A3541E490212AF
:1029A000D2B262549B188822DB439200A3541B4B83
:1029B0000522E6541A4B36B23612E6540023851D22
:1029C000954206DB872189005118615C01325B1852
:1029D000F6E7DB430D4A05002018801803708023BA
:1029E00008359B009D4208DC60681C33E1180368D1
:1029F0002A005B689847280070BD0125094A032119
:102A00002000FFF733FE6D42F5E7C04623020000C9
:102A1000FFFEFFFF1E0200001F0200002102000057
:102A20002202000003F300001FB5074B01AA019327
:102A300000230293039303680A211B68040098474C
:102A400005F0F6F8E0601FBDECF100000022F0B5E3
:102A5000802705002B4B89B0029302AB9A802A4B4A
:102A60000792049305930693284BBF00C418643360
:102A7000C6182368002B17D09A68586802A98A8064
:102A80001A68036804929B68984723680590586801
:102A90000368DB68984721682B68069007971B68D6
:102AA00002AA0969280098470434B442E1D180267B
:102AB000174BB600EB1801932068002818D0436824
:102AC00002AA93808368049303689B6898470590E3
:102AD00020680368DB6898472B68069020681F68A9
:102AE000036807965B68984702AA01002800B84768
:102AF000019B0434A342DFD19F230122DB00EA546F
:102B000009B0F0BD04F20000D10601001C04000071
:102B1000E4040000F0B5244B87B0039300230400C5
:102B20000E000493059305F083F8E3683100C51A9D
:102B300003A8FFF7FBFAFA212800890007F04AF9F9
:102B4000FA21049B8900181804902800019307F0CB
:102B5000C7F9164E059B7143C9180193059105F0FD
:102B600067F8FA21049B8900070001935D1E07F0B6
:102B700031F9FA212D1A0E4B2561059D3800890087
:102B8000ED1807F0ADF920004E432100AE1B1431C3
:102B90006661103004F094FC05F04AF8A023DB00D5
:102BA000E05007B0F0BDC046ECF1000040420F001D
:102BB00000CA9A3BF8B5040005F03AF8A023DB0000
:102BC000E358774A0700C31A934203D99F23002290
:102BD000DB00E254734D6359002B05D0724BE35870
:102BE000BB4201D200236351A369002B17D1606857
:102BF00003685B699847002819DA9F230025DB00EA
:102C0000E35CAB4209D0694E694AA359FB1A93426F
:102C100003D92000FFF708FFA7512800F8BD05F0F1
:102C200007F8A369C01B9842E1D902258FE0614AE9
:102C3000A358C318A3506659072E0DD1043AA358C0
:102C4000591CE318A1501877083AA358013BA35028
:102C5000002BC9D10823C6E7002E12D1FF2806D1C8
:102C6000012363513B00504A1433A350BCE704F0E6
:102C7000DFFF514BC01B9842B6D99F23DB00E654BF
:102C8000D3E7012E0ED1FE2801D10223ABE70023AA
:102C900063519F23DB00E35C002BA5D12000FFF7ED
:102CA000C3FEA1E7022E09D19D230021DB00E050E5
:102CB0000833E15003236351A05095E7032E07D159
:102CC0009D23DB00E25800021018E05004238AE73D
:102CD000042E0BD1394A134003D5394A013B134323
:102CE0000133FF2B00D07DE7FA3B7CE7052E03D1B3
:102CF000344BE0500623DEE7062E0AD1314B0002AA
:102D0000E2581018E050072363519D23DB00E3587D
:102D10009EE7082E00D067E700226251274A134041
:102D200003D5274A013B13430133FF2B00D05BE758
:102D3000244BE358002B0CD101252000FFF774FE33
:102D40002000FFF783FE194BE7500433E7506D4234
:102D500063E70A2B05D1210020001C31FFF7DAFEC2
:102D600042E7062B0AD12100174B1C31E018FFF770
:102D7000C6FB0123A122D200A35435E70B2B02D1BD
:102D800000239F22F7E7BC339B001859002800D18D
:102D90002AE7210003681C311B68984724E7C046D6
:102DA000F82A0000E404000004050000FC04000010
:102DB000C4090000F404000088130000FF00008034
:102DC00000FFFFFFEC0400000C05000010B5FA2422
:102DD000A400200004F062FFFBE70000F7B51D1C13
:102DE000071C081C0C49019207F08AFD291C07F0FA
:102DF000B9FE0899061C381C07F082FD011C301C26
:102E000007F07EFD019907F009FA099C089B6560AF
:102E10002060A360F7BDC0460D68533BF0B51E1C93
:102E2000802387B01B06C318051C059112984C49D6
:102E30000292009307F064FD169907F093FE0D9936
:102E4000071C009807F05CFD179907F059FD1099D1
:102E50000190281C07F054FD391C07F051FD019921
:102E600007F0DCF9029907F0D9F911990290281CB2
:102E700007F046FD391C07F043FD0E9903900098BA
:102E800007F03EFD179907F03BFD039907F0C6F9DF
:102E9000311C07F0C3F90C990490009807F030FD3D
:102EA0001799189C07F02CFD0F99061C281C07F099
:102EB00027FD391C07F024FD011C301C07F0AEF97A
:102EC0001799061C281C07F01BFD029907F018FD36
:102ED000011C301C07F046FE291C061C381C07F09C
:102EE0000FFD049907F00CFD011C301C07F096F94A
:102EF000059907F093F9139907F090F9029B0E9941
:102F00006360049B2060A360281C07F0F9FC391C57
:102F100007F0F6FC019907F081F90C9907F07EF9AA
:102F20001499E0600D9807F079F90E9B20616361B8
:102F30001099009807F0E4FC179907F0E1FC039959
:102F400007F06CF90F9907F069F9109BA061E36134
:102F50001599119807F062F9206207B0F0BDC046DC
:102F60000D68533B0B1C10B5011C181C140007F016
:102F7000F9FD206010BD10B5140007F04FF9011CD9
:102F8000FE20800507F0E4FA206010BDF8B50F1CA4
:102F9000191C1D1C161C07F0B3FC069C391C206074
:102FA000281C07F0ADFC311C6060281C07F0A8FC51
:102FB000A060F8BDF8B50F1C191C1D1C161C07F0ED
:102FC0009FFC069907F02AF9099C391C2060281CEF
:102FD00007F096FC079907F021F9311C6060281C66
:102FE00007F08EFC089907F019F9A060F8BDF7B555
:102FF0000D1C011CFE20800501921E1C07F0B2FD75
:10300000311C071C07F07CFC109C08992060381CC0
:1030100007F076FC09996060381C07F071FC80238A
:103020001B06ED18311CA060281C07F069FC0A99EA
:1030300007F0F4F80899E060281C07F061FC0B9990
:1030400007F0ECF809992061281C07F059FC0C994D
:1030500007F0E4F8802212069446019B311C634479
:103060006061181C1D0007F04BFC0D9907F0D6F8A5
:103070000899A061281C07F043FC0E9907F0CEF8D0
:103080000999E061281C07F03BFC0F9907F0C6F88E
:103090002062F7BD10B5C3680A0019680C68816822
:1030A0001800A04710BD0000F0B5002924D001256C
:1030B000144C154B22682A4004D1144E5A601E60ED
:1030C0009A6025600126124D124A2C68344004D1C2
:1030D000114F5360176014612E600CC00F4BC8185D
:1030E00000230468002C08D1D81DFF308000081888
:1030F0007D3342609360D160F0BD01330430192B01
:10310000EFD1F9E7380B0020400B0020ECF1000074
:103110003C0B00204C0B002082F400001C0400003B
:1031200070B503680400057A002B0FD04268002AAE
:103130000CD0002D0AD0C16851600169D868916037
:1031400001680E689968B04700232372280070BD9B
:1031500008230A4A11680B431360094B0722190020
:10316000353108784A3302430A70012219780A433C
:103170001A70022219780A431A7070471C04004022
:10318000004400410823124A11680B431360114B9D
:10319000114A5A605A78D209FCD1104A5A805A789A
:1031A000D209FCD10E4A5A805A78D209FCD10D4A74
:1031B0005A805A78D209FCD10B4A5A805A78D209DF
:1031C000FCD10A4A5A805A78D209FCD17047C046CD
:1031D00018040040000C00400401010004440000F9
:1031E000074400001A4400001B4400001C44000077
:1031F00002230A4A11680B4313608222084B5200D3
:103200001A8106321A8104321A8104321A81142278
:10321000FF321A8101321A817047C04620040040F3
:10322000000400422023234A11680B431360224A02
:103230001300917AC909FCD10220118881431180C1
:103240009A7AD209FCD1198801320A431A809A7AF3
:10325000D209FCD11A8892B21A809A7AD209FCD18A
:10326000198880320A431A809A7AD209FCD11A61ED
:103270009A7AD209FCD1114A9A619A7AD209FCD180
:10328000D97901320A43DA719A7AD209FCD1998844
:103290000132FF320A439A809A7AD209FCD1C021C6
:1032A000074A890053581B021B0A53500823136016
:1032B0007047C04618040040001400400F2700006B
:1032C00000E100E0F8B50400002501230560456039
:1032D0002372184B07004361642301000383164BDC
:1032E0001C37C5600561C5610362203138002600C6
:1032F00004F0B0F801232100243630006362A56297
:10330000283104F0DDF823000B222C3339001A7029
:10331000300004F0FDF82000FFF71AFF2000FFF74F
:1033200031FF2000FFF764FF2000FFF77BFF200044
:10333000F8BDC0468096980040420F00C1607047BB
:103340000222044B19880A431A809A7AD209FCD1C6
:103350007047C0460014004010B5040007485B00E9
:103360001B5A200053430A8B211D5A4300236260DD
:10337000236004F06FF8200010BDC04672F4000016
:10338000F7B50E00002443690C4F019200936300CF
:10339000D95B009806F01EFD310006F01BFD019B75
:1033A000E5B2984207D30134082CF0D1C921044872
:1033B000FFF70CFD25002800FEBDC04672F400009A
:1033C00086F40000002330B503604360EFF3108300
:1033D00072B6BFF35F8FBFF34F8FBFF36F8F0200E3
:1033E0000C3130C930C283F31088BFF35F8FBFF355
:1033F0004F8FBFF36F8FBFF35F8FBFF34F8FBFF35D
:103400006F8F30BD10B5490089B2FFF7B9FF10BD0D
:10341000010010B504001C310C3004F065F823697C
:10342000002B01D10133237210BD0000C368426A32
:10343000934209D10269836A9A4205D1034B044A37
:103440005A60DA68D205FCD47047C04600040042D6
:103450000000010270B505000F210C4C2C352369CA
:103460002A789BB20A401341DB070DD5084B1B8815
:103470009B0701D4FFF764FF0F232A7821691A40C4
:103480000E3B93400B43236170BDC04600180040C3
:103490000014004010B50A4B1A7AD2070ED51A7ADA
:1034A000D2090BD001221A727F321A72FEF78CFEFB
:1034B000FFF7AEFFFEF788FEFFF7B8FF10BDC0466E
:1034C00000140040E02313B51B0101A90B80002369
:1034D0000400094A8B7000F0EBF9C421074B890006
:1034E0002360074B07485A5802405A508022D202A4
:1034F00020001A6016BDC046002C0042CCF400002B
:1035000000E100E0FFFF00FF70B50126064D074C0B
:103510002B68334203D12000FFF7D4FF2E60200038
:1035200000F052F970BDC046980300209C030020B3
:1035300013B5040003220B4901A809F06FFC01A98F
:10354000094A200000F0B4F9C421084A084B890058
:103550002360535820001B021B0A535080231B0377
:10356000136016BD04F500000030004200E100E0E9
:10357000ECF4000070B50126064D074C2B68334271
:1035800003D12000FFF7D4FF2E60200000F01CF9CB
:1035900070BDC0463C0300204003002013B504006A
:1035A00003220B4901A809F039FC01A9094A2000AE
:1035B00000F07EF9C521FF20074B89002360074BEF
:1035C0005A5882435A508022520320001A6016BD76
:1035D00028F500000034004210F5000000E100E092
:1035E00070B50126064D074C2B68334203D12000ED
:1035F000FFF7D4FF2E60200000F0E6F870BDC04653
:10360000600B0020640B002010B50400436DDA7BD2
:10361000D209FCD102211A888A431A80626DD37BB9
:10362000DB09FCD1E020237911881B02C000034094
:103630000B431380636DDA7BD209FCD119886032A9
:103640000A4310211A80626D93798B439371636DE5
:10365000DA7BD209FCD120219A798A439A71636D71
:10366000DA7BD209FCD1220028321278002A07D056
:10367000022299790A439A71626DD37BDB09FCD1EE
:10368000236820005B699847626DE38B5383626D0A
:10369000D37BDB09FCD1517B203319435173626D1D
:1036A000917B0B439373636DDA7BD209FCD119884C
:1036B00002320A431A80626DD37BDB09FCD110BD54
:1036C00010B50400436DDA7BD209FCD102211A88BF
:1036D0008A431A80626DD37BDB09FCD1E020237919
:1036E00011881B02C00003400B431380636DDA7B1B
:1036F000D209FCD1198820320A431A80636DDA7B23
:10370000D209FCD110219A798A439A71636DDA7BD0
:10371000D209FCD1220028321278002A07D19979E7
:1037200001320A439A71626DD37BDB09FCD12368B5
:1037300020005B6998471023616D4A7B1A434A73E6
:10374000626D917B0B439373636DDA7BD209FCD17D
:10375000198802320A431A80626DD37BDB09FCD1DF
:1037600010BD10B5426D13885B069B0F012B02D173
:1037700000F060FD10BD13885B069B0F032BF9D191
:1037800000F05BFDF6E713B504004C342170627065
:103790000124009400F0B2FE13BD70B5040000F0E7
:1037A000E3FDE36820009DB200F012FEE36BED182C
:1037B000013D636D4519ADB21D83236CE26B9B180F
:1037C00023640023E36370BDF0B5436D85B09A7B3D
:1037D0000400D20722D501259D7303001F4F20331B
:1037E00001933B681E4E2B4203D13000FFF76AFD68
:1037F0003D60636D31001A8B02A823790132FFF717
:10380000ABFD02A9019803F06FFE236820005B69FD
:103810009847200000F07EFF05B0F0BD9A7BD206ED
:1038200012D510229A7300F029FF230028331A784A
:103830009042F1D001225A70E36A9B18E362236A36
:103840002363636A6363E7E79A7B9206E4D52022E9
:103850009A7303001F3A2833EDE7C046F4030020B3
:10386000F8030020436D10B50400002B03D1C921DB
:103870000E48FFF7ABFA636DDA7BD209FCD1022167
:103880001A888A431A80636DDA7BD209FCD1598980
:1038900023320A435A810123616D4A7B1A434A73DA
:1038A000626D917B0B43937310BDC0462BF50000F6
:1038B00070B50400150000F087FC044B6565083303
:1038C00020002360FFF7CEFF200070BD5CF50000F4
:1038D0007047000070B502250A4A0B4C13680F218F
:1038E0002B431360094B238100F028FBFE230004C7
:1038F000DB031840064B18436060E3681B0A2B4249
:10390000FBD170BD2004004000040042070200000B
:103910000100000202230C4A10B511680B4C0B4346
:103920001360A123DB0023810B2100F007FBFE23A2
:103930001022DB0300041840054B18436060E36865
:103940001B0A1342FBD110BD2004004000040042BA
:10395000040000021FB54B1E994103000131039181
:1039600099331A78013B197801230400009303ABC3
:1039700000F0C4FD2000FFF7CDFF636D9A68920749
:10398000FCD402211A688A431A60626D93689B070F
:10399000FCD48023116ADB02194311628022616D1D
:1039A000D204086802430A60616D8A6A1A438A6217
:1039B000626DD16A0B43D362636D9A689207FCD43F
:1039C0009A689207FCD4022219680A431A60626D51
:1039D00093689B07FCD41FBD436D9A689207FCD483
:1039E00002211A688A431A60436D9A689207FCD4D0
:1039F0001A680E490A401A60426D93689B07FCD40E
:103A00008023916A1B0319439162426DD16A0B4373
:103A1000D362436D9A689207FCD4022219680A4364
:103A20001A60426D93689B07FCD47047FFFFFFF755
:103A300013B503220400134901A809F0EFF9F0239C
:103A40006A461B0101A9138020000F4B00F0F2F918
:103A50000E4BB022083323602300120198331A80E2
:103A60000B4B2000A360E360FFF7B6FFC321094AB8
:103A70008900535820001B021B0A535080231B024D
:103A8000136016BD7CF500000020004280F50000A8
:103A9000FFFFFF0000E100E070B50126064D074C76
:103AA0002B68334203D12000FFF7C2FF2E602000B5
:103AB00000F052FA70BDC0469C020020A002002017
:103AC00002230C4A10B511680B4C0B4313600B4BCF
:103AD0001421238100F032FAFE230422DB030004C8
:103AE0001840074B18436060E3681B0A1342FBD180
:103AF00010BDC04620040040000400420D03000039
:103B000002000002E02313B5DB0001A90B800023B3
:103B10008B70A0236A4604005B0113800A4B00F0FF
:103B200089F9C421FF20094B890008332360084B21
:103B3000A360E360074B5A5882435A5080225202D6
:103B400020001A6016BDC04600240042A4F5000003
:103B5000FFFFFF0000E100E070B50126064D074CB5
:103B60002B68334203D12000FFF7CCFF2E602000EA
:103B700000F0F2F970BDC046BC0B0020C00B002065
:103B800002230C4A10B511680B4C0B4313600B4B0E
:103B90001521238100F0D2F9FE230822DB03000463
:103BA0001840074B18436060E3681B0A1342FBD1BF
:103BB00010BDC04620040040000400421104000073
:103BC0000300000213B5032204000E4901A809F006
:103BD00025F9A8236A465B01138001A90A4B20003E
:103BE00000F028F9C421094B890008332360084BF1
:103BF00008485A5802405A508022920220001A6007
:103C000016BDC046C8F5000000280042CCF50000F3
:103C100000E100E0FF00FFFF70B50126064D074CF4
:103C20002B68334203D12000FFF7CCFF2E60200029
:103C300000F092F970BDC046580C00205C0C0020CA
:103C400072B6BFF35F8FBFF34F8FBFF36F8F01204B
:103C50007047000010B50400436D9A689207FCD4C9
:103C600002211A688A431A60626D93689B07FCD42C
:103C7000E020237911681B02C00003400B4313604E
:103C8000636D9A689207FCD40122D96B0A43DA6308
:103C9000636D9A689207FCD41A681D490A401A603D
:103CA000636D9A689207FCD4220028321278002AA9
:103CB00008D18022996952020A439A61626D936821
:103CC0009B07FCD4236820005B699847626D93686A
:103CD0001B05FCD4E3685B081365626D93681B05E4
:103CE000FCD48023916A5B0219439162626DD16AB0
:103CF0000B43D362636D9A689207FCD40222196861
:103D00000A431A60626D93689B07FCD410BDC046DD
:103D1000FFFFFFFE704710B5436DDB6B5B075B0F6A
:103D2000012B01D100F086FA10BD70B5040000F03F
:103D30001BFB002803D0E368626D5B08136520005D
:103D4000E56800F045FBE26B013DAD18636D281896
:103D50005864236CE26B9B1823640023E36370BDFB
:103D600080F31088BFF35F8FBFF34F8FBFF36F8F68
:103D7000BFF35F8FBFF34F8FBFF36F8F7047F7B500
:103D800004000D000192EFF31086FFF759FF0028A1
:103D900022D0EFF31087FFF753FF00280CD0637891
:103DA000DBB20093002B07D000236370019B002B34
:103DB00002D06368019A13603800FFF7D1FF009BBF
:103DC000002B05D0002D03D0A3682B60E3686B6047
:103DD0003000FFF7C5FF02E03000FFF7C1FF009899
:103DE000FEBD0000436D10B50400002B03D1C921B6
:103DF0000E48FEF7EBFF636D9A689207FCD4022130
:103E00001A688A431A60636D9A689207FCD4196A2B
:103E1000074A0A431A620123616D8A6A1A438A6259
:103E2000626DD16A0B43D36210BDC046F0F500004D
:103E300003400000F8B504001D00170000F0C4F9AD
:103E4000154B0126083323602300656520000025FB
:103E5000764258331D7039005D700222E665256692
:103E60006566A566E56625676567783008F0D6FF64
:103E7000230022007C331D705D70231DDE678033BC
:103E80001D605D608C32643B03CB03C22000DE66A4
:103E9000FFF7A8FF2000F8BD20F6000070B5050070
:103EA0000E00EFF31084FFF7CBFE002800D0EE6584
:103EB0002000FFF755FF70BD1FB503005833197080
:103EC000203319785A7803230393002304000093C6
:103ED00003AB00F013FB236820009B699847636DD8
:103EE0009A689207FCD402211A688A431A60626DAC
:103EF00093689B07FCD48023116A9B0219431162CB
:103F00008022616D9204086802430A60616D8A6ACA
:103F10001A438A62626DD16A0B43D362636D9A68F9
:103F20009207FCD49A689207FCD4022219680A43CB
:103F30001A60626D93689B07FCD41FBD0F20084078
:103F40000C307047030010B579331A78013B1978AB
:103F500000F086FB10BD0000F0B5436D87B0DA6A53
:103F60000400D20719D50122DA62FEF72DF9636D3C
:103F700001005A6C04A823790132FFF7EDF9200003
:103F800004A9203003F0B0FA236820005B69984749
:103F9000200000F0BFFB07B0F0BDDA6A12030DD5B8
:103FA00080221203DA62020003008C32203303CB3A
:103FB00003C2636D94341B6D2360ECE7DA6AD203AD
:103FC00013D580225202DA6200F058FB2300283316
:103FD0001A789042DFD001225A70E36A9B18E3629C
:103FE000236A2363636A6363D5E7DA6A920361D560
:103FF00007001A6B94379E6C02AD930319D523000A
:104000003A682033B24201D823008C332A0003CB14
:1040100003C2FEF7D9F823790100320004A8FFF7A4
:104020009BF96834280004A903F05EFA0CCD0CC497
:10403000B1E7FFF787FF230058331B789842DED1A2
:1040400023003A682033B24201D823008C332A007F
:1040500003CB03C2FEF7B8F832002600270023790D
:10406000010004A8FFF778F9683604A9280003F0D6
:104070003BFA3200290004A803F05EFA049B58378B
:10408000002B00DA87E72367059B00220193636713
:1040900004A8204B03F0F6F904A9300003F024FA39
:1040A00001237B70E36D0133E365A36E2366E36E4A
:1040B000636670E7DA6A520300D46CE78022D202AA
:1040C000DA62436DD96C030094331A68083B91425D
:1040D00000D26C3B02AD2A0003CB03C2FEF774F89A
:1040E000636D0100DA6C04A82379FFF735F904A9A0
:1040F000280003F0F9F9230001227C335A70221DB5
:10410000D36F0133D3672300029A0833DA67883408
:104110006B6851E70000E03F10B57C30FFF72FFEE1
:1041200010BDF7B50500009101921C00EFF3108758
:10413000FFF786FD00280DD02800019A009958301D
:10414000FFF71DFE061E05D0002C03D02B6F236049
:104150006B6F63603800FFF703FE3000FEBD72B680
:10416000BFF35F8FBFF34F8FBFF36F8F0120704797
:1041700080F31088BFF35F8FBFF34F8FBFF36F8F54
:10418000BFF35F8FBFF34F8FBFF36F8F7047F8B5EB
:1041900005000F00EFF31086FFF7E1FF00280DD0B8
:1041A0006C78E4B2002C05D000236B709F4201D0E4
:1041B0006B683B603000FFF7DBFF02E03000FFF789
:1041C000D7FF2000F8BD0000F8B50400174B00250C
:1041D0000360174B0F008360C36021000123456219
:1041E0000571058245618561C56103622431203016
:1041F00003F066F9012623002000283376421D7063
:1042000039005D700322E66225636563383008F08B
:1042100005FE23004433E56325641D705D70A664CC
:104220001D812565FDF7D0FF2000F8BD4CF600008C
:10423000FFFF0000490081837047818370470000C1
:10424000F7B501901D0003791400154A5B00985AD8
:1042500008F028FC02000B000020124907F00CFABD
:1042600022002B0007F012FE00220F4B04000D006D
:1042700006F0E6FE0022002306000F0020002900C1
:1042800005F034FF00220023002800D0074B300047
:10429000390008F06DF808F0CFFB019BD863F7BD3B
:1042A00064F60000D01263410000E03F0000F03FE0
:1042B000F0B5428B87B004000F00038B8A4239D0DF
:1042C000002B39D10379234A5B009B5A86680193FE
:1042D0005E43300008F020FC0B0002001E49002065
:1042E00007F0CAF905F07CFF310005001B4805F016
:1042F000F7FD4B1E99416D182B1CADB2BD4200D28B
:104300003B1C9DB26383A383019B5D4365612800D1
:1043100008F002FC02000B0000200F4907F0ACF986
:1043200005F05EFF2900E0600C4805F0D9FD218210
:1043300007B0F0BD002BFBD0094B03AA0393032366
:104340001371084B206D9360036807211B68984721
:10435000EEE7C04664F60000D012634180969800F4
:104360001CF2000074F600007FB56E46438B858B0F
:104370003200ED1A6B1E9D4103002033040003CB75
:1043800003C2FDF721FF23790100226C02A8FEF78A
:10439000E3FF02A9300003F0BBF87368EDB25A42A4
:1043A00053411D4003D0A18B2000FFF781FF28005F
:1043B00004B070BD70B505000E00EFF31084FFF778
:1043C000CEFE002800D0EE622000FFF7D1FE70BDC7
:1043D00010B50400008B238A6169C01880B205F013
:1043E0007FFD80B2218310BD08231B4A70B5116880
:1043F0000B4301001360020039310B7838325C1036
:10440000DB0720D51378DB011B19144C1B19402442
:104410001D782C431C7014780B78E4011B190124BF
:104420000F4E3A309B191D782C431C700378002BDB
:1044300008D012780B78D2019B1840229B1919786A
:104440000A431A7070BD1378DB011B19034C1B194A
:104450001D780424DDE7C0461C04004030440041C0
:1044600040440041030070B504000D0028331A7069
:10447000FDF7AAFEA2682900FEF7C4FF6D00A9B2ED
:1044800020712000FFF714FF23682000DB689847A5
:104490002000FFF7A9FF70BD70B5160002000400F0
:1044A0000D0028321370FDF78FFEA2682900FEF779
:1044B00067FF290020712000FFF7FAFE300008F0A6
:1044C000F1FA00220B4B07F0E1FC05F089FE23799D
:1044D000094A5B00995A05F003FD4B1E9941236878
:1044E0000818E0831B69200098472000FFF77CFF35
:1044F00070BDC0460000244064F60000F0B505A879
:1045000006780820484CC90125682843206001240A
:104510002500954045480818456055104019303031
:1045200004785118E4B204704148091801200C784D
:104530002043087002200C78204308701C68631E1A
:10454000022B05D83B4B3C4959805978C909FCD10D
:1045500040233A49086803430B60394B19005878E7
:10456000C009FCD102251878A84318704B78DB09E4
:10457000FCD10F200125104085404B682B434B6038
:1045800002230F2A03D8053393429B415B4207273E
:1045900006333A40501E9B003C40CA58062805D8B6
:1045A00005F00EFC072E3235383B3E00BA4314436B
:1045B00004E020017024A24314000443CC50002ED8
:1045C00005D0CB682B43CB600B691D430D614B7845
:1045D000DB09FCD10A78023313430B704B78DB09FB
:1045E000FCD1002E0BD0C120FF21164B80001A58A1
:1045F0008A43110080220A431A5010221A60F0BD2B
:104600002002114C1440D8E72003104CFAE7200494
:104610000F4CF7E720050F4CF4E720060E4CF1E7AE
:104620000E4824070240C2E71C0400400044004139
:1046300040440041000C00400544000018040040C4
:104640000018004000E100E0FFF8FFFFFF8FFFFFD0
:10465000FFFFF8FFFFFF8FFFFFFFFFF8FFFFFF8F58
:10466000054BC901C91801239340086A1840431E2D
:104670009841C0B27047C04600440041030038333F
:104680001B78064A3930DB019B18027801209040E4
:104690001B6A1840431E9841C0B270470044004155
:1046A00010B52830FFF76BFB10BD73B50400283040
:1046B0000E00FFF764FB051E0BD0FDF785FD237987
:1046C0000100226C6846FEF747FE6946300002F0A2
:1046D0001FFF280076BD10B54430FFF758FD10BD10
:1046E000030010B54D3319780F23094C1940226986
:1046F0000E3B92B20A411A4209D002004432537072
:10470000826CD2188B40826422691343236110BDEE
:1047100000180040D3B50400406A08F0FDF90022FB
:104720000D4B06000F0005F0F5FC002812D000220A
:104730000A4B3000390005F0D9FC00280AD0FDF7FB
:1047400043FD01006846FEF73DFE009B226A9A4247
:1047500000D02362D3BDC04684D7A74184D7C741C8
:1047600010B5040008002160012103F017FC206847
:10477000012103F05FFC200010BD000010B5040013
:10478000024802F035FF200010BDC046B8100020DE
:1047900037B500246B466A465C710323050013712C
:1047A000019A0449044802F02BFF2868210003F015
:1047B00041FC37BD40420F00B810002010B5012168
:1047C000006803F037FC024802F036FF10BDC04617
:1047D000B810002070B50C000500FFF7D9FF104E8F
:1047E0002100300002F03CFF0021300002F038FFD1
:1047F0002800FFF7E3FF2800FFF7CAFF0021300081
:1048000002F02EFF00210400300002F029FF060014
:104810002800FFF7D3FF2002304300B270BDC0462E
:10482000B8100020F8B50700FFF7B2FF554C3E2145
:10483000200002F015FF0021200002F011FF0021EE
:10484000200002F00DFF00210600200002F008FF0A
:1048500036024D4D304328800021200002F000FF39
:1048600000210600200002F0FBFE36023043688083
:104870000021200002F0F4FE00210600200002F0DA
:10488000EFFE36023043A8800021200002F0E8FE4F
:1048900000210600200002F0E3FE36023043E880EB
:1048A0000021200002F0DCFE00210600200002F0C2
:1048B000D7FE3602304328810021200002F0D0FECE
:1048C00000210600200002F0CBFE36023043688152
:1048D0000021200002F0C4FE00210600200002F0AA
:1048E000BFFE36023043A8810021200002F0B8FE4E
:1048F00000210600200002F0B3FE36023043E881BA
:104900000021200002F0ACFE00210600200002F091
:10491000A7FE3602304328820021200002F0A0FECC
:1049200000210600200002F09BFE36023043688220
:104930000021200002F094FE00210600200002F079
:104940008FFE36023043A8820021200002F088FE4C
:1049500000210600200002F083FE36023043E88288
:104960000021200002F07CFE00210600200002F061
:1049700077FE3602304328833800FFF71FFF2800F8
:10498000F8BDC046B8100020F40C0020F8B5802314
:10499000140080260500194312127F331C401A4070
:1049A00009020C43760011430E43FFF7F1FE0F4F4F
:1049B000310A380002F054FEF1B2380002F050FE25
:1049C0002800FFF7FBFE24B22800FFF7E1FEA1B2AA
:1049D0003800090A02F044FEE1B2380002F040FE5D
:1049E0002800FFF7EBFE0120F8BDC046B8100020FC
:1049F00010B50400124802F0D3FD562234212000E5
:104A0000FFF7C4FF142003F049F90E4A32212000B9
:104A1000FFF7BCFF142003F041F9002236212000EB
:104A2000FFF7B4FF142003F039F982223821520035
:104A30002000FFF7ABFF142003F030F910BDC04693
:104A4000B810002002020000F0B5082001250C6813
:104A5000176866087C402C4201D01C6866400E60D6
:104A6000146801386408C0B214600028EFD1F0BDAA
:104A7000F0B58C1C183107000E00FF25114B85B0D6
:104A80000393114B00930022A35E69461A122A4039
:104A90002B400292019301AA03AB3800FFF7D4FF29
:104AA000023403AB02AA69463800FFF7CDFFA642E5
:104AB000E9D1009BDB43180A28401B02184300B2CF
:104AC00005B0F0BD21100000FFFF000010B5080088
:104AD00007F0E8FF054A064B07F0D8F9054A064BF0
:104AE00007F0D4F908F09CF810BDC046FCFCF7E0D4
:104AF000B54B4B3F1F85EB51B89E234010B50800C6
:104B000007F0D0FF074A084B07F0C0F9074A084BE7
:104B100007F0BCF90022074B06F0AEFD08F080F864
:104B200010BDC0467B14AE47E17A843F182D445433
:104B3000FB2109400080664010B5080007F0B2FF75
:104B4000054A064B07F0A2F90022054B06F078FA59
:104B500008F066F810BDC0460D897B2C7DE8B23F99
:104B600000003F4010B5080007F09CFF054A064BC7
:104B700007F08CF90022054B07F088F908F050F88F
:104B800010BDC0467B14AE47E17A943F0000594007
:104B900010B5080007F086FF054A064B07F076F9C6
:104BA000054A064B07F072F908F03AF810BDC04606
:104BB000CEE737A7EDBA223F2D431CEBE2361A3F72
:104BC00010B50A304822002108F044F910BD70B534
:104BD00004000325FFF7F4FF2A000021200008F05D
:104BE00039F960190422002108F034F92A00E01D87
:104BF000002108F02FF92300002252331A700123FC
:104C0000A365E36523666434227070BD020000234F
:104C1000523210B5137001228265C265026602002D
:104C2000040064324365137093809371C366036715
:104C3000FFF7CDFF200010BD836D002B03D1C36DA6
:104C4000002B00D10366006E0138431E9841C0B2AC
:104C5000704773B51E006B4610001500DC1DD9713E
:104C600008F04CFEB0420DD223782C2B0AD00D2B2D
:104C700008D0202293430A2B04D01F3A2100280099
:104C800008F043FE73BD2A2903D0523003785940FF
:104C90000170704713B504000A49032201A808F007
:104CA000BDF801A9200008F01FFE002806D1A0656C
:104CB000A06D0138431E9841C0B216BD0123A36503
:104CC000F6E7C046A6F6000013B5094B040001A99B
:104CD0000330019308F008FE002806D1E065E06D7E
:104CE0000138431E9841C0B216BD0123E365F6E7C3
:104CF0005A44410010B50400C36D6434002B09D13F
:104D0000010022780A31683000F050F9237801332D
:104D1000237010BD0020F9E710B504001022002117
:104D2000073008F08BFE52342378C0B2181A434281
:104D30005841C0B210BD70B504000E00052908D856
:104D4000080005F03DF803060B1920272000FFF7A7
:104D50003EFF2000FFF734FF666570BD636D012BD9
:104D6000F7D12000FFF796FF0500002DF1D12000BC
:104D7000FFF72DFF6565F0E7636D022B04D120007E
:104D8000FFF7A2FFF0E7636D032BE2D12000FFF7EE
:104D9000B1FFE9E7636D042BDBD12000FFF7BCFF17
:104DA00005002000FFF748FF0540EDB2DDE770B5D4
:104DB0000400406D0D00042844D805F001F80308F4
:104DC0001B2838000121242D10D0206E70BD20003A
:104DD000FFF759FF2900022322002000FFF739FFC7
:104DE000200008F08BFD01000228EED12000FFF723
:104DF000A2FFEAE72000FFF746FFE21C0323290099
:104E00002000FFF726FF2C2DDFD10321EEE7200045
:104E1000FFF739FF220047230A3229002000FFF75D
:104E200018FF2C2DF1D004212A2DCED1DEE7E21D72
:104E300002232000FFF70DFF0D2D01D00A2DC4D154
:104E40000521D3E70021D1E7F0B5002585B000AFFB
:104E5000B860456008000E0008F050FD01230628E8
:104E600043D9B2792B002E2A3FD1013307283CD0F9
:104E70006B460738C4B230007B6008F03FFDA31DCD
:104E8000834280414342FB60230069460833DB08CC
:104E9000DB00CB1A9D46621C290068463B6007F088
:104EA000D9FFF11D2200684607F0B8FF68466B463F
:104EB00009211A1A94420ADD2E001A780133303A79
:104EC00091426E413200FE681640FE60F1E70A2210
:104ED0000021386808F04AFE431C5A1E9341FA68C4
:104EE0001340BA6850607A6895461800BD4605B010
:104EF000F0BD0000010010B54C6886B0437A027A1C
:104F000004948C780C3003944C7802940C780194BF
:104F100049890091024908F0C7FC06B010BDC0469F
:104F2000A9F60000F0B5140085B000AF0500F960E7
:104F3000BB6008F0E3FCFB6869461B19013B834238
:104F4000804123000833DB08DB00CB1A9D46621C3E
:104F50000021464268467B6007F07CFFFB68220028
:104F6000E918684607F05AFFEC466B460920002115
:104F700062469A1A944207DD0D001A780133303ADE
:104F800090424D412E40F3E70A220021786808F054
:104F9000EDFDFE22002382425B41BA683340002AC5
:104FA00000D010701800BD4605B0F0BDF0B585B05A
:104FB00000AF04000E00052A26D8100004F000FF00
:104FC000032D35386C6C2300022200213000FFF7DE
:104FD000A9FF022205001100631C3000FFF7A2FFA9
:104FE0002B000340DBB21D000222A31C0421300071
:104FF000FFF798FF2B003100034020001D00FFF752
:1050000023FF2840002847D123220021200007F059
:1050100021FF0020BD4605B0F0BD23000833022269
:1050200000213000FFF77EFFECE723000933F6E7AD
:105030006B4608003B6008F061FC032383429B4100
:105040005B427B600C230025FB181D7008230422A3
:105050003100F81807F0E2FE2E0009220823310083
:10506000FB185B5D0135303B9A4271410B0079685A
:1050700019407960042DF1D108230A22F818002183
:1050800008F074FD074A0300824276416381786824
:105090003B6830409D46B5E72000FFF72BFF01201D
:1050A000B8E7C046FEFF000000487047AAF80000BD
:1050B0000048704789F800000048704714F8000065
:1050C00000487047F3F70000004870479EF7000063
:1050D000004870477DF7000000487047D9F700008E
:1050E00000487047B8F700000048704765F70000B7
:1050F0000048704744F70000436870B50B70436880
:1051000005001B0A4B7043680C001B0C8B70436836
:105110001B0ECB7083680B7183681B0A4B7183680D
:105120001B0C8B7183681B0ECB71C3680B72C36839
:105130001B0A4B72C3681B0C8B72C3681B0ECB72AD
:10514000006908F0DBFB030A6373030C060020739D
:10515000A373030E2000E37329693200103007F0B7
:105160005DFE3000103070BDCB154A02DBB270B569
:10517000520A0400081CFF2B2CD0002B1AD0E0216F
:1051800089005B18002121706170A1705101E170EC
:10519000D1082171D10A6171D20C19010A435B0552
:1051A000A27100215D0E04F0DBFF002814D1E5712F
:1051B000082070BD002AE5D0E023802152009B002A
:1051C00009040A4203D1013B52001BB2F9E7520223
:1051D000520AD7E7024BD5E780235B421D43E6E73F
:1051E000FF07000070B50D00060041682800FFF7BA
:1051F000BBFFB16804002818FFF7B6FF2418281970
:10520000F168FFF7B1FF201870BD70B506000430DB
:105210000D00FFF771FFB16904002818FFF7A4FF24
:1052200024182819F169FFF79FFF201870BDF8B501
:10523000050004300E00FFF75FFF0400311828005E
:1052400018302F00FFF7CEFF283724184C353019BF
:1052500002CFFFF789FF2418AF42F8D12000F8BD34
:1052600070B5060004300D00FFF746FFB169040079
:105270002818FFF779FF24182819F169FFF774FF40
:10528000201870BDF02370B5C4780279240912018A
:10529000144342798579120314431B042A051A40EA
:1052A0002243FE24C379E4001B012340174C2D093F
:1052B0002B43A34223D0164C1EB2A34221D8FE3C5E
:1052C000A64210DD134C1B191BB2134CA2421AD17B
:1052D0005208DB0513430B60C279D209D20713438E
:1052E00008200B6070BDDA240023A400A642ECDD88
:1052F00080250A4C6D042A43A41BE240E5E7FF2306
:10530000E3E70022FF230132E2E7C046FF07000087
:105310007E04000080FCFFFFFFFFFF008103000010
:1053200070B50D000600011D2800FFF7ABFF31002E
:10533000040008312818FFF7A5FF310024182819A8
:105340000C31FFF79FFF201870BD0000F0B504007E
:1053500085B01F000AAB1B78260000930BAB1B78AF
:10536000143601930CAB1D7801F0BAFB290000251F
:10537000124B300008332360FFF7F2F93000A561CB
:10538000E56125626562A562E56225636563A563E3
:10539000FFF72EFBE068A8420CD02A003900FFF787
:1053A00061F80123E06803930368019A1D6800997E
:1053B00003ABA847200005B0F0BDC046BCF8000014
:1053C000F7B50A780C0042604B7805001B021A43BF
:1053D00042608B781B0413434360CA781206134360
:1053E00043600A7982604B791B021A4382608B7991
:1053F0001B0413438360CA791206134383600A7A3D
:10540000C2604B7A1B021A43C2608B7A1B0413439F
:10541000C360CA7A0C3112061343C36001A8FDF7BA
:105420000AF8220001990F320800130010300133EE
:105430001E1BB04203D91F785E1E3770F7E70023AA
:105440006418E3732A61FEBD70B5060004300D00D8
:10545000FFF7B6FF3100040018312818FFF712FFDC
:105460003100241828191C31FFF70CFF201870BDDB
:10547000F8B5050004300E00FFF7A2FF0400311854
:10548000280018302F00FFF74BFF283724184C3521
:1054900030193900FFF7F6FE04372418AF42F7D170
:1054A0002000F8BD70B5060004300D00FFF788FF3E
:1054B0003100040018312818FFF7E4FE31002418E9
:1054C00028191C31FFF7DEFE201870BD0B4B10B5FC
:1054D000C21800231468002C09D1DA1DFF32920093
:1054E00082185160C86001207D338B6010BD01338C
:1054F0000432192BEED10020F8E7C0461C0400004E
:10550000F7B504000D0011001A0001F0F3FA63680A
:105510000193002B00D180E001264849484B0A68DE
:1055200032400CD19A60DA601A61464A464F5A619D
:1055300000221F60454F9A615F60DA610E600127AB
:10554000434E3168394019D1424A43489160D16095
:1055500011613C491060516140493C489161002112
:105560005060D161116251629162D16211635163E5
:105570009163D16311645164916437600127384E9F
:10558000316839400DD1374A37489160D160116197
:105590002C491060516100212C4891615060D1610B
:1055A0003760304A314FE26201222A4E3968944610
:1055B0001140A66263622E4A05D153606346089883
:1055C000116110603B6001239C466146294F3B6896
:1055D0000B40294905D10B61634609984E6008606C
:1055E0003B600123254F9C463E681E40244B06D15C
:1055F0000A981E6118601B48586060463860A161B7
:10560000E26123620198FFF761FFE1696068FFF7DB
:105610005DFF216A6068FFF759FF2369002B00D006
:105620005D61A36A002B00D05D61636A002B00D02E
:105630005D61E36A002B00D05D61F7BD1C0D0020A9
:10564000900D0020D106010004F70000D4F6000000
:10565000140D0020300D00201CF70000ECF60000B7
:10566000240D0020C40D002034F70000200D002080
:10567000B00D0020180D00207C0D0020280D00200A
:10568000E40D0020F0B50400C06887B0002807D002
:105690002269002A04D0210008323031FFF700F8D7
:1056A0002369002B02D100230193F5E0E068002874
:1056B000F9D00021FFF70FF801900028F3D0250062
:1056C00014352800FFF7AEF8060001002800FFF7A8
:1056D000CFF91822B35E834200D02FE180233288B5
:1056E0001A4002921CD0676A002F19D02369220049
:1056F0009C463B0030320C3303CA03C363469B68AD
:1057000028001B09BB601423F15EFFF72BFA616AC6
:10571000B8618F4BE069CB61002801D0FDF7BAFC7E
:105720002769002F6ED03B0022000C33303203CAB1
:1057300003C300230493874B05A904A8059301F034
:1057400089FE380004A90C3001F0E2FE804B276985
:105750002800FB620223F15EFFF7D0F90423F15E1B
:10576000786528002769FFF7C9F90623F15EB86557
:1057700028002769FFF7C2F9F8652769764B3A1DBB
:105780003B663B672800D3670823F15EFFF79EF96D
:10579000883738600A23F15E28002769FFF796F9F9
:1057A0008C3738600C23F15E28002769FFF78EF9EB
:1057B000216990370A003860684BA0689432136002
:1057C00013611362002801D0FDF764FCA06B04286C
:1057D00018D804F0F5FA036466879400362128008F
:1057E000FEF7F8FFA087C2B29020000102433621E5
:1057F0002800FFF7CBF85A4A01216068FCF736FF12
:105800000123A363029B002B28D0A76A002F25D079
:105810003B0022000C33303203CA03C32369280043
:105820009B681B09BB600E23F15EFFF7B1F91023E3
:10583000F15EF8612800A76AFFF7AAF91223F15E6A
:1058400038622800A76AFFF7A3F9A16A7862404B83
:10585000A0698B62002801D0FDF71CFCE76A002FCD
:105860001AD023699C469B686246BB603B000C32A1
:105870000C3303CA03C363465B6928007B611623AC
:10588000F15EFFF759F9E16AB861314B206ACB61EB
:10589000002801D0FDF7FEFB019807B0F0BD022300
:1058A000AFE7304A01216068FCF7E0FEF288B78874
:1058B000524293B272887F42524212B21A21BFB250
:1058C00028000393FFF762F83AB21C212800FFF783
:1058D0005DF86B461E210C229A5E2800FFF756F8F1
:1058E00003238EE7204A01216068FCF7BFFE3C23BA
:1058F000E25E36212800FFF749F8042381E7012002
:105900001A4923690F689A68194B074201D11A6036
:105910000860FA2019684000511A814200D871E7E6
:10592000322128001A60FEF755FF80229200424083
:1059300012B232212800FFF729F863E760680028D7
:1059400000D1B0E60B4A0221FCF790FEABE6C04660
:10595000000080BF0048E8018F28CE31B1AB333D55
:105960002AF8000046F800005CF80000100D002046
:105970002C0D002075F8000083880B7083880220AE
:105980001B0A4B7070470B7883804A7812021343CE
:1059900083800220704700000048704763F90000D0
:1059A0000048704742F9000043680B7043681B0AC7
:1059B0004B7043681B0C8B70436804201B0ECB702C
:1059C00070470A7842604B781B021A4342608B781A
:1059D0001B0413434360CA78120613434360042038
:1059E000704700000048704794F900000048704775
:1059F00073F9000070B5040005000C342000FFF7B7
:105A0000E0FFAA69EB69501018186B69D20701D53D
:105A10000268D3582100984770BD006A70470000A3
:105A20000048704794F900000048704773F900007F
:105A300070B5040005000C342000FFF7A4FFAA692C
:105A4000EB69501018186B69D20701D50268D3585A
:105A50002100984770BD006A7047000000487047F9
:105A600063F900000048704742F9000070B5040077
:105A700000261000074D04AA083512786160A66060
:105A8000E06025602661B04202D01900FEF7EAFC12
:105A9000200070BDC8F90000F7B50126434F0193FF
:105AA0003D6835400CD1424C424B25822360424B2D
:105AB000A561E360414BE06163612662A2603E60E4
:105AC0004468002C10D0C268902314650022DB00CB
:105AD000E5182B68002B5AD115002135344EFF35BF
:105AE000AD0064322E5172604368002B4ED0012607
:105AF000334D344A2C68344007D1334F546094609E
:105B0000D460324C176014612E600127304E026160
:105B10003568304C3D4004D1089B626023602561AC
:105B2000376001252C4F84603E682E400DD12B4AF2
:105B30002B4B166113602B4B0436D360019B5661CF
:105B40009561D061156293603D60274B4568EA1806
:105B500000231668002E1FD1DA1DFF329200AA180A
:105B60007D335460A360E56090234468DB00E21855
:105B700000231568002D14D11A002132174DFF3271
:105B80009200643315516B6003691961F7BD0132EE
:105B90000435192A9DD1A7E701330432192BD8D136
:105BA000E2E701330432192BE3D1EDE7040E0020C4
:105BB000540E0020E8F80000D0F80000115C00004E
:105BC000FC0D00201C0E0020D4F60000D1060100C0
:105BD000F80D0020080E0020000E0020300E0020DE
:105BE00018F9000000F900001C04000010B50400C2
:105BF000C068002802D04968FEF7DCFB6068002816
:105C000003D0024A0121FCF731FD10BDA4F90000C8
:105C100030B50400C0688FB00D00002810D00368B4
:105C200089889B6898476368002B09D0AA88054932
:105C300001A807F039FE01AA01216068FCF716FDF2
:105C40000FB030BD28F900001FB50400C06800285F
:105C500010D04968FEF722F9606800280AD0064B88
:105C600001AA019301231371044B07219360036878
:105C70001B6898471FBDC0461CF20000D8F9000001
:105C8000F7B50400150008AA127809A806780AA832
:105C90000778009220002A00FFF7E8FE084B2775DE
:105CA000083323600023A361E361236263629D42A2
:105CB00003D031002800FEF7FFF82000FEBDC046EB
:105CC000FCF90000F0B5C36885B00400002B48D093
:105CD000036A002B45D0010002691831083202A87E
:105CE00001F02AFC039806F0DDFE204A204B06F066
:105CF000CDF8060002980F0006F0D4FE0B0002005B
:105D00003900300005F09CF90D0001912100226955
:105D100000900832203102A801F00EFC039806F032
:105D2000C1FE124A124B06F0B1F8060002980F00AD
:105D300006F0B8FE02000B003000390005F080F9D3
:105D400006000F006D0049004B08320000986908FA
:105D500004F0CCF9002806D0009A019BE068FEF719
:105D60006FFA05B0F0BD32003B00F7E795D626E8A4
:105D70000B2E113E73B500226D46C36804000092DD
:105D80006A60934214D0017D1800914213D029001B
:105D9000FEF78BFC002808D02300220020331832A5
:105DA00003CA03C3103B06CD06C3E068002802D136
:105DB0000025280076BD21690029F9D00A1D00239D
:105DC0000831FEF7AEF9051EF2D0237D002B02D07C
:105DD0002000FFF777FFA368002BEAD0D868996806
:105DE000026816682269B047E3E7436870B50B7034
:105DF000436805001B0A4B7043680A001B0C8B703C
:105E0000436814351B0ECB70836810320B718368A6
:105E10001B0A4B7183681B0C8B7183681B0ECB7143
:105E2000C3680B72C3681B0A4B72C3681B0C8B726E
:105E3000C3681B0ECB7203690B7303691B0A4B7398
:105E400003691B0C8B7303691B0ECB730B001C3394
:105E500010CD260A14705670260C240E9670D4703D
:105E600004329342F4D104000D002034403504CCB8
:105E7000160A1A705E70160C120E9E70DA700433D9
:105E8000AB42F4D1426C1A700B00140A41331C70FF
:105E9000140C120E9A700A005C70836C44321C0A57
:105EA000137054701C0C1B0ED370030094704C3391
:105EB0001C8814711B881B0A53710B00026D4A3336
:105EC0001A700A00036D4B321B0A1370036D4E31BA
:105ED0001B0C5370036D54301B0E937003784F20CE
:105EE0000B7070BD70B50A780C0042604B780500ED
:105EF0001B021A4342608B7810341B041343436027
:105F0000CA7814351206134343600A7982604B79CC
:105F10001B021A4382608B791B0413438360CA7986
:105F20001206134383600A7AC2604B7A1B021A433B
:105F3000C2608B7A1B041343C360CA7A12061343F0
:105F4000C3600A7B02614B7B1B021A4302618B7B9D
:105F50001B0413430361CA7B1206134303610B0046
:105F60001C336278A6781202360432432678324314
:105F7000E67804343606324304C5A342F1D1040066
:105F80000D00203440355A789E7812023604324390
:105F90001E783243DE7804333606324304C4AB4203
:105FA000F1D10A000C0041324234127824781B7877
:105FB00024041202224313430A00433212780400DD
:105FC0001206134343640A000B00463245331B7824
:105FD00012781B02120413430A00443212784C3424
:105FE00013430A00473212781206134383640B00EE
:105FF0000A0048331B784932238012781202134377
:1060000023800B004A331A78013302651B781B0288
:106010001A430B0002654C331B781B0413430A0020
:1060200003654D3212784E311206134303650B7827
:10603000543003704F2070BD0048704782FA000052
:106040000048704761FA00000D4B02000360002316
:10605000010043608360C360036100232032436119
:106060008361C361443108C29142FCD102004364A0
:10607000836400234C321380036513727047C0465B
:1060800014FA0000F8B50127164E04003368164DC7
:106090003B4203D12800FFF7D7FF3760A068656057
:1060A000002819D001261149114A0B68334004D148
:1060B000104F5560176013610E600F4BE260C118FE
:1060C00000230C68002C08D1D91DFF31890041182C
:1060D0007D334A609360D060F8BD01330431192BE1
:1060E000EFD1F9E77C0E0020940E0020780E0020FE
:1060F000800E002057FA00001C040000F0B545682F
:1061000093B00400002D5AD0436F291D002B58D1A5
:10611000836F002B55D12A0010A80C3201F00CFA25
:10612000109B0E93119B18000F9306F0BBFC904A36
:10613000904B05F0ABFE06000E980F0006F0B2FC87
:1061400002000B003000390004F07AFF06F068FD11
:1061500020670E9804F0EAFE06F010FD0022864B40
:1061600005F094FE06000F980F0004F0DFFE06F025
:1061700005FD824A824B05F089FE02000B003000CB
:10618000390004F05DFF06F04BFDFF2365689B05B9
:10619000AB617C4B7C4AEB61FE239B052B620023A9
:1061A0006B62AB62EB626B63AB63EB63774B686113
:1061B0002A632B6463687434043306CB06C413B0BB
:1061C000F0BD220010A8743201F0B6F9119806F063
:1061D00069FC674A674B05F059FE060010980F00EE
:1061E00006F060FC02000B003000390004F028FFCC
:1061F00006F016FD686465682B004C33188804F0BF
:10620000DFFE230028330193EB69011C00936A69C8
:10621000AB69686CFCF7E2FD2300656834330C93CE
:10622000EB690B93AB690A93236A0993E3690893BB
:10623000A36907932B004C33188804F0C1FE069025
:106240002B6C0593EB6B0493AB6B03936B6B02931B
:106250002B6B0193EB6A0093AB6A6A6A296A686CDC
:10626000FCF7DCFD616810A80A0004310C3201F073
:1062700063F9109804F05AFE06F080FC00223E4BB1
:1062800005F004FE060011980F0004F04FFE06F022
:1062900075FC3A4A3A4B05F0F9FD0B000200390053
:1062A000300004F0CDFE06F0BBFC2200011CA0650E
:1062B0005C32A06AFCF756FE2200616A6032606BB5
:1062C000FCF759FE230064330093236EE26C216CCB
:1062D000606BFCF75BFE636814330393236B0293DC
:1062E000E36A0193A36A0093E36DE26EA16E606EB0
:1062F000FCF760FE636820330893636D0793236D9A
:106300000693E36C0593A36C0493636C0393236C73
:106310000293E36B0193A36B0093E26E636BA16E38
:10632000606EFCF764FE65682B004C33188806F03D
:10633000B9FB174A174B05F0A9FD0600A8690F0025
:1063400006F01CFC02000B003000390006F010F8CB
:106350000600E8690F0006F011FC02000B00300097
:10636000390005F093FD06F05BFCA86422E7C04607
:1063700095D626E80B2E113E80842E41FCA9F1D241
:106380004D62503F0000C0400AD7233BEC51B83C5F
:106390006D1AD0A6016D6A3F30B5446899B005000A
:1063A000002C32D002A8FFF74FFE231D03AA03CA18
:1063B00003C305AA03CA03C3079B22006361089BAA
:1063C0002032A361099BE361002302A81918096A1E
:1063D000D1500433242BF8D1139BD2216364149B36
:1063E000FF31A364019315AB1A8823004C331A8044
:1063F000169B236517AB1B78543423706B681A0007
:106400004C321180002254331A7000236B67AB6743
:1064100019B030BDF8B52E4B0127036000232D4E77
:106420004360C3603368040081602B4D3B4203D15D
:106430002800FDF7FDFA376000212300274A61613B
:106440002561183361CA61C3254B6167636200230C
:10645000236723007C33A1671970012321490A783F
:106460001A430A70204A11780B4313701F4A130015
:10647000D179C909FCD11078013101431170DA7961
:10648000D209FCD1597840320A435A700122597816
:106490000A435A70D2221989FF320A431A81DA79E3
:1064A000D209FCD1197802320A431A70D979C90984
:1064B000FCD12069002801D0FDF74CFAA368002B1D
:1064C00001D0226913652000FFF766FF2000F8BDA8
:1064D0002CFA00009C020020A002002030FA0000EC
:1064E00017B7D13B314400414244004100480042CB
:1064F000F0B5066FC5B004000021301C03F044FE67
:106500000125002831D0FE21301C890503F03CFE16
:10651000002800D1051CEDB2002D2BD00127474EDD
:10652000474D33683B4203D12800FCF7CBFE376070
:1065300063682800D968FCF701FF626804AD13693D
:106540004049D268280007F0AFF93F4B01AA0193F8
:106550000123A06813719560036807211B689847A1
:106560002000FFF719FF45B0F0BD3849301C03F09B
:10657000F7FDCDE765680021686C03F005FE002893
:10658000F1D0686906F0FAFA314A324B05F07EFC28
:1065900006F046FB80231B06C01806F0EFFA060043
:1065A0000F00A8692C4904F0ABF906F0E7FA2B4A72
:1065B0002B4B05F061F802000B003000390004F0AD
:1065C0003FFD06F02DFB2749061C03F0C9FD0028FE
:1065D0002ED12549301C03F0D7FD00282AD1301CCC
:1065E00003F0CCFB03F0E4FD204B80B219004C35E6
:1065F0002880DA79D209FCD11881CB79DB09FCD16A
:10660000FE21656889056B697C345800400803F0F9
:10661000A7FD002810D023783C2B01D00133237034
:106620003B232278543593429B415B422B709AE77F
:106630000C4ED4E70C4ED2E72070F1E7F4030020B3
:10664000F80300203CFA00001CF20000000080BFAC
:106650002D54A3FC49A9084000C07F4466666666C5
:1066600066660A4000001B4300C0414400480042E7
:1066700070B50400406903281CD803F0A1FB021286
:106680001D26206900280AD06168002907D00A0069
:1066900004315032FDF740FD0123002813D10020C2
:1066A00070BD236820001B689847022301280AD088
:1066B0000228F4D1002306E02000FFF71FFD200090
:1066C000FFF716FF03236361E9E7E368002BF1D0CE
:1066D000D8689968026815686268A847EAE7000008
:1066E000F8B50400250017001E00FFF793FE2000F8
:1066F000094B8430083308C5EF67FEF787FA23009B
:106700000022FC335A61E86F904203D003683100E5
:10671000DB6998472000F8BD4CFB00000300F0B592
:10672000FC33CDB004935B690400002B04D0032B31
:1067300000D19BE0002340E14368002B52D0FBF7DF
:1067400043FD010008A8FCF73DFE636808A91A1D77
:106750000AA800F0F1FE0B9806F0A4F9984A994BAC
:1067600005F094FB06000A980F0006F09BF9020062
:106770000B003000390004F063FC06900791FBF732
:1067800023FD0500006A06F08DF98D4A8D4B05F05A
:106790007DFB0600E8690F0006F084F902000B009B
:1067A0003000390004F04CFC069A079B060080205C
:1067B00000060F183900300003F0ACFC002815D19A
:1067C00006980799804A814B03F0A4FC00280DD15C
:1067D000069807997E4B7C4A03F09CFC0323002813
:1067E00000D0EAE0FC3460694DB0F0BDA368002B36
:1067F00037D0099806F090F9714A724B05F046FBC4
:10680000060008980F0006F087F902000B00300020
:10681000390004F015FC069A079B65680292039301
:1068200004900591A86806F077F9654A654B05F074
:106830002DFB060068680F0006F06EF902000B00E1
:106840003000390004F0FCFB049A059B0090019194
:1068500060490CA807F028F80CAA0221A068FBF7F1
:1068600005FF23000222FC335A61BBE7051DE86FD8
:1068700000282DD1FBF7A8FC01000AA8FCF7A2FD17
:1068800063680AA91A1D0CA800F056FE0D9806F0C0
:1068900009F94B4A4B4B05F0F9FA06000C980F002A
:1068A00006F000F902000B003000390004F0C8FBCC
:1068B000454A464B03F02EFC002800D192E7A06821
:1068C000002803D0444A0321FBF7D0FE022374E0E2
:1068D00003681B6998470028CCD0E86F270003683D
:1068E00084375B699847C1B23800FEF760FA002828
:1068F00000D077E72300F0331E68002E00D071E748
:10690000E86F03681B69984701282ADC20002300F0
:1069100022002100EE300078F433F532F6311B7896
:106920001278098802902000ED3000780190200054
:10693000EC30007800900AA800F0D4FE6368002BC9
:106940002BD1251DE86F03681B699847002833D0B9
:10695000E86F03685B699847C1B23800FEF727FA11
:10696000EFE7A368002B0DD0E86F03681B69984719
:106970001A4902000CA806F097FF0CAA0221A06891
:10698000FBF774FEE86F03681B69984700289DD0E9
:10699000E86F03685B699847F4E70AA800F0BAFE5D
:1069A0000CAD0C900DA928000D9600F089FD6368D0
:1069B0000C3306CD06C3C4E70123049A536111E7E3
:1069C00095D626E80B2E113E9A9999999999E93F07
:1069D0009999C93F92FA000026FB0000DBFA0000FB
:1069E00000487047E6FB000000487047C5FB000008
:1069F00000487047B5FB00000048704794FB00005A
:106A000070B50E00050041683000FEF7ADFBA968C7
:106A100004003018FEF7A8FB24183019E968FEF7C7
:106A2000A3FB241830192969FEF79EFB201870BDBE
:106A3000F7B5050004300E00FEF75EFB04003118C8
:106A400028001830FFF7DCFF2B002F0050332418EC
:106A50002C370193301902CFFEF786FB019B2418D7
:106A60009F42F7D131193800FEF7BCFB2B002F00F5
:106A70008433241860370193301902CFFEF774FB7A
:106A8000019B2418BB42F7D1311918002F00FEF7E3
:106A9000A9FB94372418B835301902CFFEF764FBF0
:106AA0002418AF42F8D12000FEBD70B50D000600DD
:106AB000011D2800FEF7E6FB31000400083128180C
:106AC000FEF7E0FB3100241828190C31FEF7DAFB41
:106AD0003100241828191031FEF7D4FB201870BD9E
:106AE0000023C260024A4160836002600361704714
:106AF00090FB0000F7B50125544E019234682C40FC
:106B00000CD1534B534F1C821F60534F9C61DF606D
:106B1000524FD8615F611D629960356041680029FC
:106B200011D0C36819659023DB00CC1800232568B9
:106B3000002D00D07EE01C002134454DFF34A40020
:106B4000643365506B604468002C72D00126444D5C
:106B50002968314051D1434B434F9960D960196145
:106B600042491F6059614249424F996100215F606B
:106B7000414F1A1D1F65D961196259629962D96224
:106B8000196359639963D963196459649964D96421
:106B900059659965D965196659669966D16708225C
:106BA00094469C446246D7671F00883739601F00AF
:106BB0008C3739601F00903739601F009437396077
:106BC0001F00983739601F009C3739601F00A037BD
:106BD00039601F00A43739601F00A83739601F00D3
:106BE000AC3739601F00D966196759679967D9674B
:106BF000B037B433396019602E6001261F4D194F2C
:106C00002B68076133401E4904D1019A4F600A6026
:106C10000B612E601B4B8160E21800231068002876
:106C20000ED1DA1DFF329200A2187D3351608B60C5
:106C3000CC60F7BD01330434192B00D077E782E72D
:106C400001330432192BE9D1F3E7C046F40E0020DA
:106C5000C40F0020E8F80000D0F80000115C00002C
:106C6000F00E00200C0F002078FB0000D106010080
:106C700060FB0000D4F60000ECF60000EC0E0020F3
:106C8000F80E00201C040000F7B5040004300E00CC
:106C9000FEF796FB0500311820001830FFF705FFBE
:106CA0002300270050332D182C3701937019390019
:106CB000FEF7E8FA019B04372D189F42F6D17119AF
:106CC0003800FEF72DFB2300270084332D18603792
:106CD000019370193900FEF7D5FA019B04372D187E
:106CE0009F42F6D171193800FEF71AFB27002D18C4
:106CF0009437B83470193900FEF7C4FA04372D18E8
:106D0000BC42F7D12800FEBD0048704751FC00008E
:106D10000048704730FC00000048704784FC0000C9
:106D20000048704763FC000070B5040004300D009B
:106D3000FEF7E2F9237E2B54E3692D181A0A6B70D3
:106D4000AA701A0C1B0EEA702B71236A11301A0AF2
:106D50006B71AA711A0C1B0EEA712B72636A1A0A04
:106D60006B72AA721A0C1B0EEA722B73A36A1A0AB0
:106D70006B73AA731A0C1B0EEA732B7470BD70B57B
:106D8000050004300C00FFF7CFFF2B0030331B78D9
:106D900023546B6B24181A0A6370A2701A0C1B0E12
:106DA0000530E270237170BDF7B501253F4E0091AB
:106DB000346801932C400CD13D493E4F0C820F604A
:106DC0003D4F8C61CF603D4FC8614F610D628A605D
:106DD00035604168002910D0C26811659022D20048
:106DE0008C1800222568002D54D114002134304D18
:106DF000FF34A400643265506A604568002D39D0C4
:106E000001272F4E3168394018D130239C462D4A36
:106E10002D4C944414602D4C634654602C4CD1602E
:106E200094602C4C116194610024516111771462BB
:106E300054629462D4621970546337600126264C00
:106E4000204F216847613140244A04D1019B57609B
:106E5000136011612660224B8260E91800230C68E0
:106E6000002C1CD1D91DFF31890069187D334A607F
:106E70009360D5604369002B0BD0009A9A61012280
:106E80001A77184A1A62184A5A62184A9A62DB68D4
:106E90000361F7BD01320434192AA3D1ADE70133F0
:106EA0000431192BDBD14369E7E7C046F00F00201E
:106EB00040100020E8F80000D0F80000115C00004D
:106EC000E80F0020F40F002020FC000008FC000068
:106ED000D4F60000D1060100EC0F00202C10002099
:106EE0001C0400006F12033CCDCC4C3D0000F0416F
:106EF00070B5040004300D00FEF762FA2B5C2D180B
:106F00002376AB78EA781B02120413436A781130B7
:106F100013432A7912061343E361AB79EA791B0222
:106F2000120413436A7913432A7A12061343236225
:106F3000AB7AEA7A1B02120413436A7A13432A7B60
:106F4000120613436362AB7BEA7B1B0212041343FA
:106F50006A7B13432A7C12061343A36270BD70B58B
:106F6000040004300D00FFF7C3FF23002A5C303318
:106F70002D181A70AB78EA781B02120413436A7852
:106F8000053013432A7912061343636370BD000072
:106F900070B50E001500094C6221200000F05CFC69
:106FA0003100200000F0A1FC2900200000F09DFC31
:106FB0000121200000F0BEFC70BDC046D0100020B2
:106FC00070B504000D001900104B10000833236049
:106FD000012300225B426560A260E0602361626180
:106FE000904203D002332832FDF756FA084D2800AC
:106FF00000F004FC2800074900F020FC00222000DB
:107000001100FFF7C5FF200070BDC046E8FC00007E
:10701000D0100020801A060070B5134C62210600C3
:10702000200000F019FC0121200000F05EFC01218D
:10703000200000F07FFC051E06D07068002803D0F9
:107040000A4A0221FBF712FB012362211A002000E9
:1070500000F01AFC200000F0A5FC02000020854290
:1070600001D10130104070BDD010002097FC00000D
:10707000F8B5234F04000E003800622100F0ECFB4D
:107080008E21380000F031FC0121380000F052FC64
:10709000051E06D06068002803D01A4A0221FBF7BB
:1070A000E5FA012303226221380000F0EDFB002EF7
:1070B00020D0380000F076FC3300303318703800F0
:1070C00000F070FC0400380000F06CFC2406240C76
:1070D000C0B2201805F0E6FC0B4A0C4B04F0D6FEBB
:1070E00005F09EFD0A49F06203F03AF8002805D049
:1070F000084B736368426841C0B2F8BD064BF8E7BD
:10710000D0100020C0FC00007B14AE47E17A843F21
:107110000000A040B4A29138B4A2913A70B5040026
:10712000C068002807D06169002904D00A00103126
:107130000C32FDF7B5FA6369002B01D1002070BD58
:10714000DB6822699A42F9D02000FFF765FF00282A
:10715000F4D161692000FFF78BFF002808D0A368F5
:10716000002B05D0D8689968026815686269A8473D
:1071700063690120DB682361E1E700000048704794
:10718000B3FD00000048704792FD000070B5050097
:1071900004300C00FFF7C8FD2B0030331B7823545C
:1071A0006B6B24181A0A6370A2701A0C1B0E053040
:1071B000E270237170BD10B500230160FF2104004F
:1071C00043608360C2600174438243619A4205D088
:1071D000E12113684902DB6910009847200010BDC7
:1071E000F7B5056800910192002D39D00127274E8F
:1071F0003168394018D130229446254B254C9C44A7
:107200001C60254C62465C60244CD9609C60244C18
:1072100019619C610024596119771C625C629C624F
:10722000DC6211705C63376001261E4C184F2368C6
:10723000876033401C4904D1019A4F600A600B619A
:1072400026601A4B4160EA1800231468002C16D1FE
:10725000DA1DFF329200AA187D3351608B60CD6039
:107260008368002B0AD0009A9A6101221A77104A8B
:107270001A62FC2292055A620E4A9A62F7BD0133E5
:107280000432192BE1D18368EDE7C0466410002079
:107290006C100020FCFC000008FC0000D4F600008C
:1072A000D106010068100020A41000201C0400007A
:1072B0003333B33E0000484270B5040004300D0083
:1072C000FFF716FE23002A5C30332D181A70AB78B6
:1072D000EA781B02120413436A78053013432A79B3
:1072E00012061343636370BDF0B583689DB004005C
:1072F000002B03D1002528001DB0F0BDC068002878
:10730000F8D003681B6998470028F3D0E068036849
:107310005B6998470500C6B26069052834D802F059
:107320004FFD031D353C59610125FE2EE3D1404F31
:10733000404E3B682B4203D13000FBF7C3FF3D605A
:107340006D46A768280031001037FCF73BF80CCDDC
:107350000CC70023012563826561CCE7022E05D1AD
:10736000638A6661023363820125C4E72368002BC8
:107370000AD002223049EBB203A806F095FA0221A6
:10738000206803AAFBF772F9002304E0638A2674DD
:107390009E19032366826361E6E72806257C000CBC
:1073A000401905F07FFB254A254B04F06FFD05F0E1
:1073B00037FCFE21A7688905F86202F0D1FE00289B
:1073C00006D0204B7B63638A9E1966820423E2E722
:1073D0001D4BF7E7A36830331E70638A9E196682DF
:1073E0000523D8E7E068EDB203681B699847A37CE2
:1073F000AB420FD100280FD16368002B05D0D868AD
:10740000996802681568A268A847A268D368013322
:10741000D360B9E7002805D020680C4A0028B3D013
:107420000221AFE720680028AED0094AF8E7C0463D
:10743000F4030020F80300200CFD00007B14AE478D
:10744000E17A843F17B7D139DC693A3941FD000050
:1074500069FD000030B50B680268084CA34203DDEB
:10746000074D01325B19F9E7002B03DA034C013AAF
:107470001B19F9E702600B6030BDC04600CA9A3B99
:10748000003665C4D0B516001F000400006805F082
:1074900009FB32003B0004F0F9FC05F0CDFA206056
:1074A000606805F0FFFA32003B0004F0EFFC05F0E5
:1074B000C3FA211D60602000FFF7CCFF2000D0BD83
:1074C00070B50D6806000C002800064902F082FC29
:1074D0003368044918183060280002F001FD21606B
:1074E00070BDC04600CA9A3B10B504000A68036824
:1074F0009B18013B426803604B68011DD318034A87
:107500009B184360FFF7DCFF200010BD00CA9A3BC8
:1075100010B5040003680A68013B9B1A0360054A22
:1075200043689B184A68011D9B1A4360FFF7C8FF18
:10753000200010BD00CA9A3B10B504000B6810680B
:1075400052681B1A23604B6820009B1A211D636040
:10755000FFF780FF200010BD437A002B04D1837217
:10756000C372C36001334372704730B5040085B005
:1075700002AD00680291039200F0EBFE6B79227A73
:10758000E17900932068002301F054F82979029AE8
:10759000206800F0AFFE206800F0D1FE05B030BDDD
:1075A00070B518260400FFF7D7FF330008212079B3
:1075B0000D4D4343EB18595600F068FD3300082188
:1075C000A0794343EB18595600F060FD082160791B
:1075D0004643AD19695600F059FD044B200006CB17
:1075E000FFF7C3FF70BDC046F0FD0000C8100020CB
:1075F00010B50400006800F095FE0023637210BD12
:1076000007B5837A00910192002B07D09A070AD51B
:10761000EFF310835A425341C37272B60099019A34
:10762000FFF7A3FF07BDDB07F8D5C368014A9BB28C
:107630009360F3E700180040837A002B05D09A0787
:1076400004D5C37A002B00D062B67047DB07FCD5A7
:10765000C368024A9BB2D360F7E7C04600180040F7
:1076600010B5006800F07EFE10BD0000084B094A0E
:1076700009491A6000225A711A71084B19600849A9
:107680005A729980182199711739D9711A727047F5
:10769000C810002000093D008C170020B810002001
:1076A0001617000070B5002304000D4E92B25D1C49
:1076B000E8B2814204D9F05C2B00121892B2F6E7CE
:1076C000022903D9A30701D1013292B26E20FF3003
:1076D0006043E31C9B1001381818101880B270BD6D
:1076E000C1FD0000F0B505AC2678084F06AC257842
:1076F00007AC2478B94202D9054FC91989B2C670BE
:1077000005710170427083704471F0BDCF070000B5
:1077100030F8FFFF10B50400827841780078FFF759
:10772000C1FF030018205843E3782279C0183C2396
:107730005843801858436379C018014BC01810BDD6
:1077400080436D3800207047F8B505000E00170023
:107750000024BC4208D02B68315D1B682800984784
:10776000002801D00134F4E72000F8BD7047030081
:10777000FC33196ADA69914203D01B6AC018007E93
:10778000704701204042FBE70300FC33D8691B6AC5
:10779000C01A01D50130FF3070470000F7B50193E2
:1077A000FA238026002504009B008360124B76009C
:1077B00008330F0045602900009203603200183042
:1077C00005F048FB23002000FC332130DD6132004E
:1077D0001D622900FF3005F03DFB87239B00E31865
:1077E0005D609D606B461B78276123756B461B7936
:1077F000A57520006375FEBDCCFD000070B50600C8
:1078000018250C49006900F03BFF306900F0C4FD09
:107810002B000821307D084C4343E318595600F0F3
:1078200035FC0821707D45436419615600F02EFC3B
:1078300070BDC046A0860100F0FD000070B50400D8
:107840000D00006900F0BDFD2900206900F018FF5F
:10785000206900F0A1FD70BD8A2300229B00C15465
:107860000C3BC3185A609A6001238375704702006D
:1078700010B5FC32536894680133DBB29C4202D0ED
:1078800054680155536010BDF7B50024050017007A
:1078900001932000A24227D02B00FC33DC611C6244
:1078A0000122286900F0C0FDA0421CD02E0018362D
:1078B000286900F028FE013401003000FFF7D7FFEF
:1078C0002869A74206D000F08FFD0221286900F048
:1078D00095FDEDE700F07FFD019B002B03D0032118
:1078E000286900F08BFDE0B2FEBD002210B5837D5B
:1078F00093420DD087239B00C4186368A4680133AA
:10790000DBB2A34204D02130FF30FFF7B0FF0122E9
:10791000100010BD0300FC3399685A68914206D0EC
:107920009A68805C9A680132D2B29A6070470120EE
:107930004042FBE700228A2370B59B008275050058
:107940000E00C15C006900F06FFD002806D1032124
:10795000286900F053FD0224200070BD8723280011
:107960009B00EA18536894682130FF301C1B01D536
:107970000134FF34002C0ED02C69FFF7CBFFC1B2CD
:10798000200000F07EFD0028E8D10321286900F0E6
:1079900035FD0324E0E7002EDED00321286900F046
:1079A0002DFDD9E710B51830FFF7B4FF10BD70B545
:1079B0000400006900F085FD002814D0206900F063
:1079C0008EFD002810D0206900F00EFD03212069F3
:1079D00000F014FD8C239B00E558002D39D10023C5
:1079E000FC34E361236270BD206900F082FD002851
:1079F00009D0206900F078FD002804D0206900F04B
:107A00007DFD0028DFD0206900F073FD002826D11D
:107A1000206900F05FFD0028E5D0206900F06EFDD0
:107A2000002837D087239B00E218536892689B1A7E
:107A300001D50133FF33FF21002B05D02000213079
:107A4000FF30FFF767FFC1B2206900F02CFDA07581
:107A5000C9E7236820001B699847A847BFE720694A
:107A600000F0C2FC2069032100F0C8FC206900F08E
:107A700045FD0028B7D0872300229B00E3185A60F9
:107A80009A600123A3758B239B00E3589342AAD0ED
:107A90009847A8E72200FC32D369126A0133DBB2AF
:107AA0002069934206D100F096FC0321206900F082
:107AB000A5FC98E700F027FD010020001830FFF733
:107AC000D6FE206900F090FCEFE7000010B50248F8
:107AD000FFF76DFF10BDC046D010002010B5152374
