:102000000080002011850000F9840000F9840000A0
:1020100000000000000000000000000000000000C0
:10202000000000000000000000000000F984000033
:102030000000000000000000F98400006585000039
:10204000F9840000F9840000F9840000D53500000F
:10205000CD220000F9840000F9840000FD84000016
:10206000F984000045840000F9840000F984000030
:102070001D840000F984000055840000E13C00004C
:102080009D3D0000593E00006D360000D93600002D
:1020900045370000F9840000F9840000F98400004D
:1020A000F9840000F9840000F9840000F98400003C
:1020B0000000000010B5064C2378002B07D1054B1B
:1020C000002B02D0044800E000BF0123237010BDA4
:1020D0005001002000000000C40E010008B5084BAC
:1020E000002B03D00748084900E000BF07480368F9
:1020F000002B03D0064B002B00D0984708BDC046EC
:1021000000000000C40E0100540100204401002022
:102110000000000042680A704268130A4B70C388CE
:102120008B70C379CB7083680B718268130A4B7113
:1021300043898B71C37A0820CB7170470A7842605B
:102140004B781B02134343608A78120413434360A5
:10215000CA781206134343600A7982604B791B02E6
:10216000134383608A79120413438360CA79120689
:10217000134383600820704700487047B8FA000096
:1021800000487047C6FA000000487047E7FA0000B0
:102190000048704700FB00000048704721FB00002A
:1021A0000048704734FB000000487047A1FC000065
:1021B0000048704755FB00009F23DB00C05C704760
:1021C00010B5054B041C0360BA235B00C01802F075
:1021D00005FD201C10BDC046F8FF000070B5064D7F
:1021E00001262B68054C334203D1201C01F00AF96B
:1021F0002E60201C70BDC046900700206C0100209E
:1022000070B5064D01262B68054C334203D1201CC6
:1022100001F00AFA2E60201C70BDC0468C07002019
:1022200040060020F8B5234F386803685B6898477C
:1022300000283DD1204B186804F0E2FE002837D179
:102240001E4E306803685B689847002830D11C4DEB
:10225000286805F0B1FC00282AD11A4C20680368D0
:102260005B689847002823D1386803681B68984743
:1022700000281DD1306803681B689847002817D1D3
:10228000286805F051FC002812D1206803681B68FB
:10229000984700280CD1FFF7A1FF00F0D3FF0028DA
:1022A00006D1094B1868002802D003685B6898477C
:1022B000F8BDC046200F0020501000206011002003
:1022C000000E0020240F0020C008002008B5FFF7F2
:1022D00085FF01F05BF9FFF793FF02F0FDFB08BDFE
:1022E00010B50023DA000C1CD440C4540133042B75
:1022F000F8D110BDF7B58388051C0B7083880C1CC2
:102300001B0A4B7080680BF0E9FA061C311CA01CFC
:10231000FFF7E6FFA968321CA01D0BF0CFF9B31D33
:10232000E86801930BF0DAFA019B071C391CE018EE
:102330000A36FFF7D5FFE9683A1CA0190BF0BEF981
:1023400028690BF0CBFAF719061C311CE019043789
:10235000FFF7C6FFE0192969321C0BF0AFF96B6972
:10236000BE19A3551A0AA41962701A0C1B0E301D4F
:10237000A270E370FEBD70B50379051C0B70806818
:102380000E1C0BF0ABFA041C211C701CFFF7A8FFFD
:10239000701DA968221C0BF091F9601D70BDF7B586
:1023A000041C40680D1C087061682A1D0B0A6B70C4
:1023B000E3880021AB70E379EB706068531B8142C6
:1023C0000CD2E0688B001B580131180A1370507052
:1023D000180C1B0E9070D3700432EEE72169EA18D6
:1023E000E95420690433010A5170618AEB18917035
:1023F000E17CD170002221695E1B8A420CD2A06967
:10240000910009580132080A19705870080C090E19
:102410009870D9700433EEE7E269AB19AA55E06908
:102420000436020A5A70E28B00279A70E27FDA7053
:10243000E069874216D2626AB900505801910BF0E8
:102440004DFA00900099A819FFF74AFF636A019AB4
:1024500004369958A819009A0BF030F9009B0137FF
:102460009E19E5E7301CFEBD10B500230360CC5C6F
:10247000DA009440221C0468013322430260042BDA
:10248000F5D110BD7FB50B780C1C83804A78051CF4
:10249000120213438380023101A8FFF7E5FF019A7E
:1024A000A31D961D191BB14204D21878591E08703D
:1024B0000133F7E7A21800235371631DAB60A11924
:1024C00002A8FFF7D1FF029B321DD618131CB3429E
:1024D00005D2E05CE118013908700133F7E7A11972
:1024E000013A4B1E0020A218187003A8EA60FFF7FB
:1024F000BBFF039B0436F018331C834205D2E15C1A
:10250000E218013A11700133F7E72318013E5A1E11
:102510000021A61911702E6159789A7809021204C7
:102520001143225C04301143DA780B1C120613436A
:102530006B6104B070BD73B50B780C1C0371051C86
:10254000013101A8FFF790FF019A631D501D191B6F
:10255000814204D21E78591E0E700133F7E7A2188B
:10256000002304341371AC6076BDF7B54E788A78D9
:102570000B781204360216431E43CB7842681B06C2
:10258000041C0D1C1E43964204D9B100C0680BF018
:102590005BF9E06066602F1D002662687B1B964237
:1025A00015D27A78BB7812021B0413433A78B00034
:1025B0001343FA78211C12061343A360E368083121
:1025C000181804220BF07AF801360437E5E7EA1808
:1025D00057789078E95C3F020004D27807431E1DCB
:1025E00023690F43120617439F4204D9B900A0691B
:1025F0000BF02AF9A0612761AE1900272269731B2D
:10260000974215D27278B37812021B0413433278C2
:10261000B8001343F278211C12061343A2696361C8
:102620001018143104220BF049F801370436E5E79D
:10263000EA1856789078E95C36020004D2780643AE
:102640001F1DE3690E43120616439E4204D9B100D2
:10265000606A0BF0F9F86062E6610026E3699E4269
:1026600020D2E91901A8FFF7FFFE019B3A1DD718F8
:10267000131CBB4205D2E85CE9180139087001332C
:10268000F7E7EB19013B0021013A1970AA18226201
:10269000626AB000211C1018203104220BF00EF8E1
:1026A0000136DBE7381CFEBD1FB5054C01AB0392BC
:1026B000026819710194146807211A1CA0471FBDF4
:1026C00078FA0000F0B5894901230A6889B01340FF
:1026D000874C884D43D1884A88482260E122120203
:1026E000A2609F22D200A354854A6560A050A22216
:1026F000D200A350A322D200A350824AA350824A00
:10270000A350A522D200A350A622D200A3507F4AF4
:10271000E0188018043300220260642BF7D1131CE8
:102720009022E018D2008018043300220260642B4B
:10273000F6D1A01800230377013280208000824266
:10274000F7D18722E018920080180022027001332E
:10275000802080008342F4D10123A2610B606C4E83
:102760006C48346005F044FF6068A16806F016FD0F
:10277000694A0023A3509D22D200A3509E22D2007A
:10278000A350664A3068A3500121654AFFF78CFFC9
:10279000281C06F005FD0028FAD0624D01262F689E
:1027A000614C374016D15A4B1B680793FFF728FD41
:1027B0000D2301930A230293FA23021C0799009721
:1027C000201C9B0003F09EF8201C5849584A2E609C
:1027D00007F0D2FF574F584B3A681C600124224241
:1027E00017D14B4A554E126833680792544D234215
:1027F00003D1281C01F03CFA34600124002300932B
:10280000019402944F4807992A1C0A2303F05AFEA8
:102810003C604D4B4B4A4D4D1A602B6801264C4C89
:1028200033420AD13A4AE1231268201C0692111C55
:102830005B02484A04F02EFC2E60474B474D1C605B
:102840002B680126464C334208D1314A201C1268BD
:102850000592111C434A05F0F1F82E60424B434F9C
:102860001C603B680124234213D1294B404E1B6856
:10287000326807933F4D224203D1281C00F00AFF23
:1028800034600A233C4807992A1C05F025F80123E7
:102890003B603A4C384B2360FFF7A0FC1C4A1168A0
:1028A00000F092FC244B36491868364B364A0093A8
:1028B000364B0193364B03F00FF9234A354B106822
:1028C0003549364A0093364B03F094FC224B186886
:1028D00004F094F8244B3349186805F0E1F82068B7
:1028E0003149324A04F090FE09B0F0BD180F0020C3
:1028F000C808002098280020A8FA000090FA0000DC
:102900000C0500001C050000240500001C0400004C
:10291000C0080020B80B0000E4040000EC04000034
:1029200076FB00005C11002064110020C121000032
:1029300000000020040E0020200F0020840700204B
:10294000E00200205410002060110020FC0D002047
:10295000940700200024002050100020C40800200C
:10296000080E00203C260020000E00201C0F002036
:10297000880700209C010020280F0020240F002041
:1029800088FB0000D0FB00009FFB0000E8FB00007C
:10299000B7FB000021FC000001FC000006FC000069
:1029A00014FC00002DFC00003EFC000052FC000066
:1029B00070B5041C0E1E632E05DD9F23DB00C35C77
:1029C0000020834246D01368101C234A1B68A118BC
:1029D00098478723FF229B00E254204BFE22E254BB
:1029E0001F4AC3B2A3541F4982B2120A6254D318B9
:1029F0008821DB43890063541B4B0022E6541B4BA8
:102A0000360AE6540523811D994207DB8725E11824
:102A1000AD004919097801335218F4E7114B051C30
:102A20002018C018D2438023083502719B009D42B4
:102A300009DC6068872203689200A1185B682A1C81
:102A40009847281C06E0201C0321094A0125FFF7AE
:102A50002BFE684270BDC046230200001D0200002C
:102A60001E0200001F0200002102000022020000DE
:102A700068FC00001FB5074B0A2101930023029355
:102A80000393036801AA1B68041C984705F078FDAE
:102A9000E0601FBD48FA0000F0B52D4B87B00093F1
:102AA0002C4B002269468A8002930393049305927B
:102AB0009023294ADB00041C8518C6182B68002BBC
:102AC00019D09A68694658688A8019680368029123
:102AD0009B6898472B68039058680368DB689847A1
:102AE00080239B002A6805932368049011691B6862
:102AF000201C6A4698470435B542DFD1174AA6180C
:102B0000286800281AD0416882686B46998003685B
:102B100002929B689847039028680368DB6898478F
:102B200080239B0004900593286823681F6803682E
:102B30005B6898476A46011C201CB8470435B542BB
:102B4000DED19F230122DB00E25407B0F0BDC04676
:102B500060FA00000F0C01001C040000E4040000F7
:102B6000F0B5224B85B001930023041C0E1C029388
:102B7000039305F005FDE368311CC51A01A8FFF7B2
:102B8000DDFAFA21281C890007F05EFE029BFA217B
:102B9000C01802908900281C07F09AFE144D039B70
:102BA0006943C918039105F0EBFCFA218900061C62
:102BB00007F04AFE029F0F4B013F3F1A2761FA219F
:102BC000039F301C8900FF1807F082FE4D43201C34
:102BD0007F1B211C14316761103005F003F905F0EB
:102BE000CFFCA023DB00E05005B0F0BD48FA0000A8
:102BF00040420F0000CA9A3BF8B5041C05F0C0FC27
:102C0000A023DB00E2587B4B061C821A9A4203D9B0
:102C10009F230022DB00E254774FE359002B05D0BD
:102C2000764BE3589E4201D90023E351A169002964
:102C300006D1606803685B699847002807DAC4E03A
:102C400005F09EFCA269801B9042F2D9CEE06C4A4E
:102C5000E559A358C118A150674B072D0FD19E21EC
:102C6000C9006258551C6550A2189D211077C900F3
:102C70006258013A6250002AD8D1082208E0002D9B
:102C800012D1FF2806D10122E250321C5B4B1432D4
:102C9000E250CBE705F074FC5A4B801B9842C5D933
:102CA0009F23DB00E554A1E0012D0DD10222FE2877
:102CB000EED00022E2509F23DB00E35C9342B5D1CB
:102CC000201CFFF7D7FEB1E7022D08D19D21C900D6
:102CD00060509E21C9000025655003211BE0032D93
:102CE00007D19D22D200A15800020818A05004224A
:102CF000CEE7042D0AD1444B0B4003D5434A013B98
:102D000013430133FF2B8FD105238EE7052D05D10A
:102D10003F4960500621E150A05087E7062D0ED1B3
:102D20003B4A0002A1580818A0500722E2509D23F8
:102D3000DB00E358002B00D078E7082375E7082D67
:102D400000D073E70023E3512F4B0B4003D52F4AEC
:102D5000013B13430133FF2B00D067E72C4BE358B3
:102D6000002B0CD1201CFFF785FE201CFFF794FEE2
:102D7000284B0125E650A023DB00E65037E00A2B64
:102D800005D1211C201C1C31FFF7EAFE4EE7062B63
:102D900008D1214A211CA0181C31FFF7E6FB0122B3
:102DA000A12303E00B2B04D100229F23DB00E2547C
:102DB0003CE7BC339B001859002800D136E7036874
:102DC000211C1B681C31984730E79F23DB00E35C24
:102DD0000025AB420CD00F4FE359F21A0F4B9A4229
:102DE00006D9201CFFF746FEE65101E002256D42A0
:102DF000281CF8BDF82A0000E404000004050000C7
:102E0000F404000088130000FF00008000FFFFFFB3
:102E1000EC040000FC0400000C050000C4090000E4
:102E200038B5041C04300D1CFFF774F92269291809
:102E30002A5422691030130A4B70638A8B70E37C2A
:102E4000CB70A38A0B711B0A4B71E38A8B711B0A2F
:102E5000CB71238B0B721B0A4B72638B8B721B0A19
:102E6000CB72A38B0B731B0A4B73E38B8B731B0A05
:102E7000CB7338BD38B5041C04300D1CFFF75EF968
:102E80002A5C291822614B7810301B0213432361FE
:102E90008A78120413432361CA781206134323610C
:102EA0004B790A791B021343A382CB798A791B02DF
:102EB0001343E3824B7A0A7A1B0213432383CB7AB0
:102EC0008A7A1B02134363834B7B0A7B1B021343E7
:102ED000A383CB7B8A7B1B021343E38338BD0000B3
:102EE00000487047D8FC000000487047EAFC00002A
:102EF00008B5FA20800005F07BFBFAE7F8B50F1C57
:102F00000699151C1C1C08F047F90A49061C381CB8
:102F100008F042F9211C08F069FA011C301C08F085
:102F20003BF9291C07F0F0FD079A069B10605460DE
:102F30009360F8BD0D68533BF0B51F1C802387B02C
:102F40001B06C318041C059112984D490192009369
:102F500008F022F9169908F049FA0D99051C009815
:102F600008F01AF9179908F017F910990290201C27
:102F700008F012F9291C08F00FF9011C029807F05B
:102F8000C3FD019907F0C0FD11990190201C08F0C4
:102F900003F9291C08F000F90E990390009808F035
:102FA000FBF8179908F0F8F8039907F0ADFD391C04
:102FB00007F0AAFD0C990490009808F0EDF8179915
:102FC00008F0EAF80F99071C201C08F0E5F8291C06
:102FD00008F0E2F8011C381C07F096FD1799071C51
:102FE000201C08F0D9F8019908F0D6F8011C381C0B
:102FF00008F0FCF9291C071C201C08F0CDF80499E6
:1030000008F0CAF8011C381C07F07EFD059907F08E
:103010007BFD139907F078FD189E3060019B0E9997
:103020007360049B201CB36008F0B6F8291C08F0FC
:10303000B3F8011C029807F067FD0C9907F064FDD6
:103040001499F0600D9807F05FFD0E9B306173617D
:103050001099009808F0A0F8179908F09DF80399C6
:1030600007F052FD0F9907F04FFD109BB061F3611F
:103070001198159907F048FD306207B0F0BDC046C1
:103080000D68533B031C10B5081C191C141C08F0D8
:10309000ADF9206010BD10B5141C07F035FD011C02
:1030A000FE20800507F094FE206010BDF8B50F1CCF
:1030B000191C1D1C161C08F06FF8069C291C2060AA
:1030C000381C08F069F8291C6060301C08F064F8AE
:1030D000A060F8BDF8B50F1C191C1D1C161C08F0CB
:1030E0005BF8069907F010FD099C291C2060381C2C
:1030F00008F052F8079907F007FD291C6060301CA2
:1031000008F04AF8089907F0FFFCA060F8BDF7B591
:10311000061CFE200F1C8005311C1D1C019208F0AE
:1031200065F9061C311C281C08F036F8109C311C6F
:103130002060089808F030F8311C6060099808F0A9
:103140002BF880221206BF18291CA060381C08F03A
:1031500023F80A9907F0D8FC0899E060381C08F0B9
:103160001BF80B9907F0D0FC09992061381C08F076
:1031700013F80C9907F0C8FC019B802212069E18D8
:10318000291C6061301C08F007F80D9907F0BCFCA1
:103190000899A061301C07F0FFFF0E9907F0B4FCFE
:1031A0000999E061301C07F0F7FF0F9907F0ACFCBC
:1031B0002062F7BD10B5031CC0680A1C046899683A
:1031C0002368984710BD0000F0B500292BD0164C9D
:1031D00001252368154A2B4004D1154E5360166013
:1031E00093602560134C01252668134B2E4004D1B3
:1031F000124F5A601F601E6125604260036000220A
:1032000090000F4C081800190068002808D1D01D44
:10321000FF30800008187D3243609A60D96002E078
:103220000132192AECD1F0BD1C1600200C1600202A
:1032300048FA000018160020201600203EFD00006D
:103240001C04000070B50368041C057A002B0FD025
:103250004268002A0CD0002D0AD0C1685160016973
:10326000D86891600668996833689847002323728C
:10327000281C70BD0A4B08211A6807200A431A60EF
:10328000084B1A1C353211784A33014311701A78F1
:1032900001210A431A701A7802210A431A707047F2
:1032A0001C04004000440041144B08211A680A43E2
:1032B0001A60134B134A5A605A78D209FCD112494A
:1032C0000F4A51805A78D209FCD110490C4A5180DA
:1032D0005A78D209FCD10E49094A51805A78D2094C
:1032E000FCD10C49064A51805A78D209FCD10A49CE
:1032F000034A51805A78D209FCD170471804004023
:10330000000C0040040101000444000007440000D8
:103310001A4400001B4400001C4400000C4B022116
:103320001A680A431A600B4B822252001A818522C6
:1033300052001A81872252001A81892252001A8172
:103340001422FF321A818A2252001A817047C04625
:103350002004004000040042264B20211A680A4342
:103360001A60254B9A7AD209FBD11A8802218A4326
:103370001A80997A204AC909FBD11188012001439A
:103380001180997A1C4AC909FBD1118889B2118030
:10339000997A194AC909FBD111888020014311800B
:1033A0009A7AD209FCD114490A619A7AD209FCD1DD
:1033B0001249114A9161997A0F4AC909FBD1D17911
:1033C00001200143D171997A0B4AC909FBD1908838
:1033D00080214900014391809A7AD209FCD1084B9F
:1033E000C022920099580902090A995008221A60CD
:1033F0007047C04618040040001400400F2700002A
:1034000000E100E0F8B51A4B061C43616423038316
:10341000184B002501271C36011C041C077203628F
:1034200005604560C5600561C5612031301C04F050
:10343000A3FCA562251C2435211C281C67622831A9
:1034400004F0D0FC231C2C330B22311C1A70281CD6
:1034500004F0F2FC201CFFF70DFF201CFFF724FFF7
:10346000201CFFF75BFF201CFFF776FF201CF8BD38
:103470008096980040420F00C1607047044B0221C3
:103480001A880A431A809A7AD209FCD17047C0463A
:103490000014004010B5041C07485B001B5A201C98
:1034A0005A430B8B211D5A4300232360626004F0B2
:1034B00063FC201C10BDC0462EFD0000F7B540691E
:1034C0000E1C171C019000240A4B6200D15A01986F
:1034D00007F0BAF9311CE5B207F0B6F9B84207D3E4
:1034E0000134082CF0D10448C921FFF701FD251C47
:1034F000281CFEBD2EFD000042FD0000002330B55B
:1035000003604360EFF3108372B6BFF35F8FBFF3C6
:103510004F8FBFF36F8F021C0C3130C930C283F361
:103520001088BFF35F8FBFF34F8FBFF36F8FBFF371
:103530005F8FBFF34F8FBFF36F8F30BD08B549006A
:1035400089B2FFF7BBFF08BD10B5041C211C0C306D
:103550001C3104F05BFC2369002B01D10123237291
:1035600010BD0000C168426A914209D10269836AB4
:103570009A4205D1034B044A5A60DA68D105FCD45B
:103580007047C046000400420000010238B50F4CED
:10359000051C2C35236929780F220A409BB2134160
:1035A0001A1C01231A420FD0094A1288DA401A4223
:1035B00001D1FFF763FF29780F230B400121226916
:1035C00099400B1C1343236138BDC04600180040CE
:1035D0000014004070B5114B01241A7A22421CD00D
:1035E0001A7AD20919D080220D4E1C721A723368D1
:1035F0000C4D234203D1281CFFF704FF3460281C24
:10360000FFF7A2FF33680124234203D1281CFFF7F0
:10361000F9FE3460281CFFF7A5FF70BD00140040C0
:10362000900700206C01002013B50E2201A9002391
:103630004A700A4A041C0B708B7000F04FFA084B5A
:10364000C4222360074B92009858074901409950C3
:103650008022D202201C1A6016BDC046002C0042F7
:1036600088FD000000E100E0FFFF00FF70B5074D9E
:1036700001262B68064C334203D1201CFFF7D4FFF0
:103680002E602368201C5B68984770BD8C07002063
:103690004006002013B50322041C0B4901A80AF0C0
:1036A0000DF801A9201C094A00F018FA084BC422A1
:1036B0002360084B92009958201C0902090A99506E
:1036C000802212031A6016BDC0FD000000300042C7
:1036D000A8FD000000E100E070B5074D01262B6851
:1036E000064C334203D1201CFFF7D4FF2E60236821
:1036F000201C5B68984770BD880700209C01002053
:1037000013B50322041C0B4901A809F0D7FF01A936
:10371000201C094A00F0E2F9084BC5222360084B3F
:1037200092009958FF208143995080225203201C17
:103730001A6016BDE8FD000000340042D0FD000014
:1037400000E100E070B5074D01262B68064C3342BE
:1037500003D1201CFFF7D4FF2E602368201C5B6878
:10376000984770BD781700203416002038B5041C27
:10377000FC34636C051CDA7BD209FCD11A88022167
:103780008A431A80636CDA7BD209FCD12879E02263
:1037900019880002D20002400A431A80636CDA7B67
:1037A000D209FCD11A8860210A431A80636C102167
:1037B0009A798A439A71636CDA7BD209FCD19A793F
:1037C00020218A439A71636CDA7BD209FCD12A1CCE
:1037D00028321278002A08D12B68281C5B69984788
:1037E000EB8B626C5383636C08E09A7902210A4385
:1037F0009A71626CD37BDB09FCD1EDE7DA7BD209ED
:10380000FCD1597B202211435973636C997B0A4385
:103810009A73636CDA7BD209FCD11A8802210A43BD
:103820001A80626CD37BDB09FCD138BD38B5041C2F
:10383000FC34636CDA7BD209FCD11A8802218A43FA
:103840001A80636CDA7BD209FCD10579E0221988F1
:103850002D02D2002A400A431A80636CDA7BD20917
:10386000FCD11A8820210A431A80636CDA7BD209C2
:10387000FCD19A7910218A439A71636CDA7BD20960
:10388000FCD1021C28321278002A0DD003685B6933
:103890009847636C1022597B11435973636C997B71
:1038A0000A439A73636C08E09A7901210A439A717A
:1038B000626CD37BDB09FCD1E8E7DA7BD209FCD16F
:1038C0001A8802210A431A80626CD37BDB09FCD17F
:1038D00038BD10B5031CFC335A6C032314886409EB
:1038E0001C40012C02D100F08BFE06E01288520928
:1038F0001340032B01D100F086FE10BD13B59C24AC
:10390000640001553A24FF3402550124009400F06C
:10391000FBFF13BDF8B5051C2C1C00F021FFFC3487
:10392000281C666CAF8900F045FF616B7F18013F72
:10393000C719BFB23783A26B616B5318A36300230F
:103940006363F8BD031CFC33F0B5041C58688BB0EE
:1039500084460120844462465A601B181B78081C68
:103960005A425341DBB2039304AB019306AB60C8E8
:1039700060C308AB05C905C3271CF4373868614626
:10398000049118214143251CF8352E6861180096D2
:10399000039E0431029005AB01981E700B1C46C8B3
:1039A00046C3019046C846C302980A21013006F07A
:1039B0008FFF009E00230922B2425B41F618396056
:1039C0002E60E378002B08D0039E002E05D02B68D4
:1039D000012B02D9013B2B60F9E70BB0F0BD0000D1
:1039E000F0B5061CFC36736C01259A7B85B0041C6F
:1039F0002A421FD0244F011C3A6820319D73019147
:103A00002A4203D12148FFF7FDFC3D60736C02A8F8
:103A10001A8B1E4901322379FFF73CFD02A9019858
:103A200004F0F4F92368201C5B699847201C01F01E
:103A30009BF827E09A7B12092A4212D010229A732F
:103A400001F030F8231C28331A7890421AD09221C2
:103A5000490062181278002A14D1211C2031181C48
:103A60000EE09A7B52092A420CD020229A739222AD
:103A70005200A3181B782830002B03D1211C2031C1
:103A8000FFF760FF05B0F0BD900700206C0100203B
:103A900010B5041CFC34636C002B03D10E48C92103
:103AA000FFF726FA636CDA7BD209FCD11A8802216F
:103AB0008A431A80636CDA7BD209FCD15A892321AC
:103AC0000A435A81636C0122597B11435973636C19
:103AD000997B0A439A7310BDEBFD000038B5041CB6
:103AE000151C00F02FFD054B201C08332360231C00
:103AF000FC335D64FFF7CCFF201C38BD20FE0000C6
:103B0000704700000B4B02211A6810B50A431A6077
:103B1000094C0A4B0F21238100F0AEFAFE23DB0390
:103B200000041840064B18436060E3689A05FCD413
:103B300010BDC046200400400004004207020000FF
:103B4000010000020B4B02211A6810B50A431A60EB
:103B5000094CA123DB0023810B2100F08DFAFE2309
:103B6000DB0300041840054B18436060E368DA0487
:103B7000FCD410BD200400400004004204000002F8
:103B80001FB5A2235B00C35C041C5A4253410222AE
:103B9000D31A0393D7239340C15C1D4BC25C01230E
:103BA000009303AB00F0B0FE201CFFF7CBFF201CFE
:103BB000FC30436C9A689107FCD41A6802218A434E
:103BC0001A60426C93689907FCD4116A8023DB0267
:103BD00019431162426C80211468C90421431160A9
:103BE000426C916A19439162426CD16A0B43D36271
:103BF000436C9A689107FCD49A689107FCD41A68C0
:103C000002210A431A60426C93689907FCD41FBDD5
:103C10005D030000FC30436C9A689107FCD41A687D
:103C200002218A431A60436C9A689107FCD4196890
:103C30000E4A0A401A60436C9A689107FCD4996A4C
:103C40008022120311439962436CD96A0A43DA62F3
:103C5000436C9A689107FCD41A6802210A431A60DF
:103C6000426C93689907FCD47047C046FFFFFFF78A
:103C700037B5041C144901A8032209F01FFD6A4648
:103C80000F23002501A95370201C104B157000F064
:103C90001DFA0F4B0B2208332360D7239B00E554FA
:103CA0000C4B201CE2540C4BA360E360FFF7B2FF07
:103CB0000A4BC32292009958201C0902090A995004
:103CC000802212021A603EBD40FE00000020004229
:103CD00048FE00005D030000FFFFFF0000E100E080
:103CE00070B5074D01262B68064C334203D1201CCA
:103CF000FFF7BEFF2E602368201C5B68984770BDED
:103D000084070020E00200200B4B02211A6810B546
:103D10000A431A60094C0A4B1421238100F0ACF9C4
:103D2000FE23DB0300041840064B18436060E36881
:103D30005A05FCD410BDC0462004004000040042D7
:103D40000D0300000200000213B5072201A90023A1
:103D50004A706A460B708B701370142353700B4BB0
:103D6000041C00F0B3F90A4BC42208332360094B4A
:103D70009200A360E360084BFF209958814399505B
:103D800080225202201C1A6016BDC0460024004248
:103D900070FE0000FFFFFF0000E100E070B5074D7E
:103DA00001262B68064C334203D1201CFFF7CCFFC1
:103DB0002E602368201C5B68984770BDD81A0020CD
:103DC0007C1700200B4B02211A6810B50A431A60B9
:103DD000094C0A4B1521238100F04EF9FE23DB0329
:103DE00000041840064B18436060E3681A05FCD4D1
:103DF00010BDC04620040040000400421104000031
:103E00000300000213B50322041C0E4901A809F0A7
:103E100055FC6A46002313701523537001A9201C1A
:103E2000094B00F053F9094BC42208332360084BB7
:103E30009200985807490140995080229202201C14
:103E40001A6016BD98FE000000280042A0FE000087
:103E500000E100E0FF00FFFF70B5074D01262B6871
:103E6000064C334203D1201CFFF7CCFF2E602368A1
:103E7000201C5B68984770BD381E0020DC1A0020AB
:103E800038B5041CFC34636C051C9A689107FCD49B
:103E90001A6802218A431A60636C9A689107FCD4FD
:103EA0002879E02219680002D20002400A431A6011
:103EB000636C9A689107FCD4DA6B01210A43DA63D8
:103EC000636C9A689107FCD419681E4A0A401A600C
:103ED000636C9A689107FCD42A1C28321278002A55
:103EE00005D02B68281C5B699847636C09E09969C9
:103EF000802252020A439A61626C93689907FCD44B
:103F0000EFE79A681105FCD4EA6852081A65636CF9
:103F10009A681105FCD4996A802252021143996271
:103F2000636CD96A0A43DA62636C9A689107FCD4BD
:103F30001A6802210A431A60626C93689907FCD4DC
:103F400038BDC046FFFFFFFE704708B5031CFC33B9
:103F50005B6CDA6B07231340012B01D100F050FB9F
:103F600008BDF8B5051C00F0FBFB2C1CFC34002838
:103F700003D0E968636C4A081A65281C666CEF6810
:103F800000F018FC626B013FBF1838187064A16B19
:103F9000626B8B18A36300236363F8BD10B5041C28
:103FA000FC34606C002803D10E48C921FEF7A0FF45
:103FB000636C9A689107FCD41A6802218A431A60DC
:103FC000636C996801228807FBD4196A064801438B
:103FD0001962636C996A11439962636CD96A0A43E6
:103FE000DA6210BDC8FE0000034000001FB5D323F5
:103FF0009B00C15C1F4B041CC25C03230393002382
:10400000009303AB00F080FC2368201C9B69984759
:10401000201CFC30436C9A689107FCD41A6802217A
:104020008A431A60426C93689907FCD4116A802312
:104030009B0219431162426C802114688904214358
:104040001160426C916A19439162426CD16A0B43D0
:10405000D362436C9A689107FCD49A689107FCD4A8
:104060001A6802210A431A60426C93689907FCD4CB
:104070001FBDC0464D0300000F23081C18400C3024
:104080007047000008B5D3239B00C15C024BC25CA3
:1040900000F0FAFC08BDC0464D03000030B5051C19
:1040A000F035021C041C111A002308340B510C19A2
:1040B0006360041C10340B51183209194B60AA427A
:1040C000F0D1011CF4310B60136030BDF8B5041C55
:1040D000171C1D1C00F036FA284BA421083323605E
:1040E000231CFC335D64A22300255B00E554A2235E
:1040F0005B00E31849005D7060189D70DD70FFF78C
:10410000CDFF1F4890221F499200A31801262218B4
:104110001D7076421570621815705E6092239B00C8
:10412000E55492239B009322E31892005D70A0183F
:104130009D70DD70FFF7B2FFD12080001249231877
:1041400012486218D3211D7089001570221815704D
:1041500060185E60391C022209F0B0FAD422920085
:10416000A318221C203203CA03C3D6239B00E650A7
:10417000201CFFF713FF201CF8BDC046F8FE00000E
:104180004102000042020000450300004603000017
:10419000F7B5051CF4352E680924B442A4416442E5
:1041A00001910096002C01D0002A17D0071CF0378F
:1041B000396818234B43019EC3188C4607CE07C3AA
:1041C000019607CE07C3604601300A2106F080FB46
:1041D000009863426341C61839602E600120604038
:1041E000FEBD70B5021CFC32536886B00133051C5D
:1041F00053600093FD352B78041C5A4253416846A6
:1042000003710A1C02AB41CA41C304AB44C944C395
:10421000201D69460122FFF7BBFFE378002B0AD07F
:104220002B78002B07D1221CF8321368012B02D9FE
:10423000013B1360F7E706B070BD38B5031CF433DB
:104240001B68041C0D1E9D420FD2021CF032106828
:104250000A210A30C01A06F03BFB48190A2106F071
:1042600037FB18204843201800E0002038BDF0B587
:10427000051C85B00C1CEFF31086039672B6BFF3D5
:104280005F8FBFF34F8FBFF36F8F2F1CF8373E68E0
:1042900002960026029886420CD0281D311CFFF79A
:1042A000CCFF0379002B01D10136F3E73E6802967B
:1042B000002E01D100201AE02B1CF43318680A21CB
:1042C0000A30801B06F004FB002C09D01823594348
:1042D00069180431201C4CC94CC001904CC94CC019
:1042E000029E013E3E602379002BDFD00120039E19
:1042F00086F31088BFF35F8FBFF34F8FBFF36F8FCD
:10430000BFF35F8FBFF34F8FBFF36F8F05B0F0BD6B
:1043100008B54530FF30FFF7AAFF08BDF0B5061C11
:10432000FC36736C0122D96A8BB0041C114217D081
:10433000DA62FDF753FF736C011C5A6C04A801325A
:104340002379FFF7A7F8201C04A9203003F05EFDB5
:104350002368201C5B699847201C00F005FCEEE0F8
:10436000D96AC90C11420FD080221203D420DA621C
:104370008000221C2318203203CA03C3736C1A6DF9
:10438000D6239B00E250DAE0D96A090C114215D01D
:1043900080225202DA6200F085FB231C28331A784F
:1043A000904200D1CBE09221490062181278002A95
:1043B00000D0C4E0211C2031181C43E0D96A490C0C
:1043C00011420FD0196B9B6C490C019304AF02ADE5
:1043D00011427DD1FFF756FE231C2A331B789842E9
:1043E00076D132E0D96A890C114200D1A7E080224F
:1043F000D202DA62736CD96CD6239B00C258D420E7
:1044000080002318914201D2231C203302AD2A1CC4
:1044100003CB03C2FDF7E2FE736C011CDA6C04A847
:104420002379FFF737F804A9281C03F0EFFC90214B
:10443000890063181B78002B00D080E0A222520074
:10444000A018291CFFF7CDFE79E0D6239B00E25887
:104450000198231C2033904202D3D42080002318DB
:104460002A1C03CB03C2FDF7B9FE2379011C019A74
:10447000381CFFF70FF8391C281C03F0C7FC716AC1
:1044800000295CD093225200A3181B78012B07D17E
:10449000201C01392C30FFF7D0FE10300ACD0AC0A5
:1044A0002622FF32A3181D78271C2837012D46D15C
:1044B000716A201C2C300139FFF7BFFE0571FB78B3
:1044C000002B3CD0736A012B39D9013B7362F9E7A9
:1044D000D621890062580198231C2033904202D3D0
:1044E000D4229200A3182A1C03CB03C2FDF776FE48
:1044F0002379011C019A381CFEF7CCFF281C391CBB
:1045000003F084FC92225200A3181B780193012B24
:1045100015D1F36A291C0133F362049308220023A6
:1045200006A83B7109F0CAF8291C082208A809F05E
:10453000C5F8201C2C30391C019AFFF729FE0BB05E
:10454000F0BD0000F8B52C4B041C03602B4B00257C
:104550008360C3600E1C0123211C03620571058268
:104560004561058345838583C583456224312030B9
:1045700003F038FC231C211C8E2228332C315200DE
:104580001D70A7185D709D70DD700B1C081C5A1AF9
:1045900000250830155010184560081C10301550C3
:1045A000183312185560BB42F0D192225200A31862
:1045B000271C2622FC37FF327D623D621D70A31846
:1045C000932252001D70A3181D7001235B42FB62F1
:1045D00096235B00311CE018032209F06FF89C233E
:1045E0005B007D63BD63E5543A23FF33E5543D64CE
:1045F000FDF7F4FD201CF8BD28FF0000FFFF0000C0
:1046000049008183704781837047000000000000EB
:10461000F7B50190141C02791D1C1F4B5200D05A93
:1046200008F094FE021C0B1C1449134807F036FCDA
:10463000221C2B1C08F09CF8114A124B041C0D1C68
:1046400007F010F9104A114B061C0F1C201C291CE6
:1046500006F0C0F9002802D00D4A0E4B01E00A4ACC
:104660000A4B301C391C08F013FB08F03BFE019C80
:10467000FC346063F7BDC04600000000D012634107
:10468000000000000000E03F00000000000000000B
:10469000000000000000F03F40FF0000C046C046A0
:1046A000F0B5428B87B0041C0D1C038B8A4238D0B6
:1046B000002B36D10279264B5200D65A87687743B1
:1046C000381C08F081FE0B1C021C20491E4807F014
:1046D000E5FB06F0F9F980B20190391C1D4806F09F
:1046E000F7F84B1E9941019B59180B1C89B2A9423E
:1046F00000D22B1C9AB256436383A3836661301C9D
:1047000008F062FE021C0B1C10490F4807F0C6FBA4
:1047100006F0DAF9311CE0600E4806F0D9F8218283
:104720000EE0002B0CD00C4B03AA0393FC340323A4
:104730001371206C094B0721936003681B6898472D
:1047400007B0F0BDC046C04600000000D012634173
:1047500040FF00008096980078FA000050FF0000AB
:104760007FB5438B868B6A46F61A031C2033041CE4
:1047700003CB03C2FDF732FD231CFC33011C9A6BF3
:1047800002A82379FEF786FE684602A9751EAE418F
:1047900003F052FB019DF6B26B425D41354003D000
:1047A000A18B201CFFF77CFF281C04B070BDFC30DF
:1047B000C162704770B5038B068A4569F618B6B2B8
:1047C000041C291C301C06F083F8301C2183291C92
:1047D00006F03AF880B270BD1E4B08211A6830B559
:1047E0000A431A602E23FF33C15C1C1C96235B0016
:1047F000C35C4A10DB01CD0707D517499A18521838
:10480000137840210B43137006E09B18124A0421D1
:104810009B181A780A431A7096235B00C25C015DEC
:10482000D2010E4D8A1852191178012421431170BA
:104830009722A240825C002A0AD02E22C35CFF325B
:10484000825CDB01D3185B191A7840210A431A7085
:1048500030BDC0461C04004030440041404400418B
:1048600038B5041C0D1CFDF7B9FCA268291CFEF725
:1048700065FE6D00A9B22071201CFFF711FF2368AF
:10488000201CDB689847201CFFF7A6FF38BD0000FE
:10489000F8B5041C0D1C161CFDF7A0FCA268291C11
:1048A000FEF70CFE291C2071201CFFF7F9FE301CBE
:1048B00008F04CFD114B104A07F05AFF06F004F9BE
:1048C00022790F4B5200D55A061C291C06F000F81D
:1048D0000F1C301C791E8F41291C05F0B5FF236881
:1048E0003F18E7831B69201C9847201CFFF774FFC3
:1048F000F8BDC046C046C04600000000000024408D
:1049000040FF0000C046C046F0B505A807785048F3
:10491000082504684F4E2C4301250460C9012C1C56
:1049200088199440446054100019303004785118AC
:10493000E4B204704848012409180878204308703C
:10494000087802242043087019680139A14205D96A
:104950004249402408682043086006E04049414835
:1049600048804878C009FCD1F2E73F494878C0093F
:10497000FBD108780224A04308704C783A48E40937
:10498000FBD10F26446816400125B5402C434460F6
:104990002E1C02240F2A03D807249442A441644207
:1049A00007200240013A1B68051C0634062A08D875
:1049B000101CA4001D4005F03DFF0A0F13171B1F1C
:1049C0002300A4000A590340824313431DE00B59FE
:1049D00070222D01934317E02D020A59234B12E058
:1049E0002D030A59224B0EE02D040A59214B0AE0EF
:1049F0002D050A59204B06E02D060A591F4B02E0EF
:104A00000A591F4B2D0713402B430B51002F05D084
:104A1000CB683343CB600B691E430E614A78124B5F
:104A2000D209FBD11A78022002431A704B78DB09B5
:104A3000FCD1002F0AD0134BC12292009958FF20BD
:104A4000814380200143995010221A60F0BDC04676
:104A50001C04004000440041404400411804004050
:104A6000000C00400544000000180040FFF8FFFF64
:104A7000FF8FFFFFFFFFF8FFFFFF8FFFFFFFFFF834
:104A8000FFFFFF8F00E100E0054BC901C918086A6C
:104A9000012393401840431E9841C0B27047C0465E
:104AA0000044004196235B00C35C074ADB019B186E
:104AB0002E22FF32825C1B6A012090401840431E68
:104AC0009841C0B27047C0460044004108B5283044
:104AD000FFF7CDFB08BD0000F8B5224E3A23FF33A7
:104AE000041C3169C05C0F22024089B211410A1CCA
:104AF000D10735D5251CFC356B6A002B0BD13A2329
:104B0000FF33E15C0F230B400121326999400B1CFC
:104B10001343336124E02621FF3162181278022A00
:104B2000EDD100215F1E0ED3286A0A210A30C01A77
:104B300005F0CEFEC8190A2105F0CAFE1823594314
:104B4000231C2C33591801230B71231C2833DB78C9
:104B5000002BD4D06B6A012BD1D9013B6B62F9E7F2
:104B6000F8BDC0460018004073B5061C406A08F046
:104B70002BFC104B0E4A041C0D1C05F03FFF0028B7
:104B800012D0201C291C0C4A0C4B05F023FF0028D6
:104B90000AD0FDF723FB011C6846FEF7AFFC009B23
:104BA000326A934200D0336273BDC046C046C046ED
:104BB0000000000084D7A7410000000084D7C7414F
:104BC00010B5041C0160081C012103F093FE20684D
:104BD000012103F0E9FE201C10BD000010B5041CEB
:104BE000024803F09BF9201C10BDC046BC210020E8
:104BF00037B503236A46002413715471051C019ACA
:104C00000448054903F092F92868211C03F0CCFE02
:104C100037BDC046BC21002040420F0008B50068E7
:104C2000012103F0C1FE024803F09CF908BDC04613
:104C3000BC21002070B5041C0E1CFFF7D9FF104DDD
:104C4000311C281C03F0A0F90021281C03F09CF95A
:104C5000201CFFF7E3FF201CFFF7CAFF281C0021E0
:104C600003F092F90021061C281C03F08DF9051CA5
:104C7000201CFFF7D3FF3002054328B270BDC046A9
:104C8000BC210020F8B5061CFFF7B2FF554C3E21B1
:104C9000201C03F079F9201C002103F075F9201C79
:104CA000002103F071F90021071C201C03F06CF9AE
:104CB0003F024D4D07430021201C2F8003F064F973
:104CC0000021071C201C03F05FF93F02074300216D
:104CD000201C6F8003F058F90021071C201C03F0F2
:104CE00053F93F0207430021201CAF8003F04CF929
:104CF0000021071C201C03F047F93F020743002155
:104D0000201CEF8003F040F90021071C201C03F059
:104D10003BF93F0207430021201C2F8103F034F9A7
:104D20000021071C201C03F02FF93F02074300213C
:104D3000201C6F8103F028F90021071C201C03F0C0
:104D400023F93F0207430021201CAF8103F01CF927
:104D50000021071C201C03F017F93F020743002124
:104D6000201CEF8103F010F90021071C201C03F028
:104D70000BF93F0207430021201C2F8203F004F9A6
:104D80000021071C201C03F0FFF83F02074300210D
:104D9000201C6F8203F0F8F80021071C201C03F090
:104DA000F3F83F0207430021201CAF8203F0ECF828
:104DB0000021071C201C03F0E7F83F0207430021F5
:104DC000201CEF8203F0E0F80021071C201C03F0F8
:104DD000DBF83F020743301C2F83FFF71FFF281C1F
:104DE000F8BDC046BC2100203C1E0020F8B5802341
:104DF00019430B02161CFF2112120E40802711408E
:104E00001E437F000B431F43041CFFF7F1FE0E4DB2
:104E1000390A281C03F0B8F8F9B2281C03F0B4F8DA
:104E2000201CFFF7FBFE201CFFF7E2FE310A281CC6
:104E300003F0AAF8F1B2281C03F0A6F8201CFFF733
:104E4000EDFE0120F8BDC046BC21002010B51A219E
:104E5000041C0022FFF7CAFF201C1C210022FFF7C0
:104E6000C5FF201C1E210022FFF7C0FF201C2021AF
:104E70000022FFF7BBFF201C22210022FFF7B6FF14
:104E8000201C24210022FFF7B1FF201C2621002234
:104E9000FFF7ACFF201C28210022FFF7A7FF201CF2
:104EA0002A210022FFF7A2FF201C2C210022FFF75D
:104EB0009DFF201C2E210022FFF798FF201C30218F
:104EC0000022FFF793FF201C34210622FFF78EFFFC
:104ED000201C36210122FFF789FF201C38210E4AB1
:104EE000FFF784FF201C40210022FFF77FFF201CDA
:104EF00042210022FFF77AFF201C44210022FFF705
:104F000075FF201C46210022FFF770FF201C48215E
:104F10000022FFF76BFF10BD0204000010B5041C57
:104F20001A4802F0D3FF201CFFF790FF201C3E21FF
:104F30000222FFF75BFF3E218022201CFFF756FF75
:104F40009620400003F054FB34215622201CFFF72A
:104F50004DFF142003F04CFB32210D4A201CFFF7BB
:104F600045FF142003F044FB36210022201CFFF7EC
:104F70003DFF142003F03CFB80223821D200201C8E
:104F8000FFF734FF142003F033FB10BDBC210020D9
:104F90000202000070B508200C68156865406408BE
:104FA000EE0701D51D686C400C6016680138740866
:104FB000C0B214600028EFD170BD00007FB5134B64
:104FC000061C0393124B8C1C009301256378301C44
:104FD000029323786946019301AA03AB0135FFF7D9
:104FE000D9FFEDB2301C694602AA03ABFFF7D2FF2E
:104FF00002340C2DEAD1009AD343180AFF22104044
:105000001B02184300B204B070BDC046211000005E
:10501000FFFF000008B50A300021482208F070FBAD
:1050200008BD38B5041C0325FFF7F4FF2A1C201C1B
:10503000002108F065FB60190021042208F060FBE4
:105040002A1CE01D002108F05BFB231C00225233C8
:105050001A700123A365E36523666434227038BDAA
:10506000021C10B500235232137001228265C26502
:105070000266021C64324365041C13701371537181
:105080009371C36613735373D381FFF7CAFF201C58
:1050900010BD836D002B03D1C36D002B00D10366BF
:1050A000006E0138431E9841C0B2704773B5101CA2
:1050B0006C461E1CE171151C073408F00FFCB04251
:1050C0000DD223782C2B0AD00D2B08D0202293430D
:1050D0000A2B04D0281C211C012208F006FC73BDF9
:1050E0002A2903D0523003785940017070470000DC
:1050F00013B50322041C0A4901A808F0DFFA201C9A
:1051000001A908F0E1FB002801D1A06501E001231D
:10511000A365A06D0138431E9841C0B216BDC046BC
:1051200082FF000013B5094B041C01A90330019351
:1051300008F0CAFB002801D1E06501E00123E36526
:10514000E06D0138431E9841C0B216BD5A4441007B
:10515000C36D10B5041C011C6434002B05D10A3149
:105160002278683000F050F900E000202378013305
:10517000237010BD10B50021041C1022073008F068
:1051800053FC52342378C0B2181A43425841C0B27B
:1051900010BD70B5041C0E1E052E2DD8081C05F080
:1051A00049FB032B070E151D201CFFF73AFF23E0D8
:1051B000636D012B20D1201CFFF79AFF0CE0636D7B
:1051C000022B04D1201CFFF7ADFF05E0636D032B1C
:1051D00012D1201CFFF7BCFF051C0BE0636D042BF4
:1051E0000AD1201CFFF7C6FF051C201CFFF751FF4A
:1051F0000540EDB2002D04D0201CFFF70BFF6665C3
:1052000003E0201CFFF70DFF656570BD38B5041C79
:10521000406D0D1C052845D805F00CFB0308192727
:105220003844242942D1201C01213DE0201CFFF7F5
:1052300057FF291C201C221C0223FFF737FF201CCC
:1052400008F04CFB011C201C02292FD12CE0201C53
:10525000FFF746FFE21C201C291C0323FFF726FF53
:105260002C2D23D1201C03211EE0201CFFF738FF2A
:10527000221C201C291C0A324723FFF717FF2C2D64
:10528000F0D02A2D12D1201C04210DE0E21D201C9B
:105290000223FFF70BFF0D2D01D00A2D06D1201C94
:1052A000052101E0201C0021FFF773FF206E38BDAF
:1052B000F0B5061C85B00020706000AF081C0D1C06
:1052C00008F00CFB0123062840D9AA7900232E2AD6
:1052D0003CD10123072839D06A46C41F281CBA6074
:1052E00008F0FCFAE4B2A31D83428041023340423D
:1052F000DB08F860DB006846C01A85466B46621C16
:1053000000217B6008F0FCF9E91D6846221C08F0CA
:10531000D5F969466B465A1AA2420ADA1878002271
:105320003038092585425241F86801331040F86051
:10533000F1E70A220021786808F000FC431CF968B4
:105340005A1E93417060BA680B409546181CBD46C2
:1053500005B0F0BD10B5011C4C8986B00A7A4B7AB5
:1053600000940C780C3001944C7802948C7803945F
:1053700049680491024908F085FA06B010BDC0469C
:1053800085FF0000F0B585B000AF141C0D1CBB609C
:10539000F86008F0A3FA2B19013B83428041231CDB
:1053A0000833DB08DB006946C91A8D46621C796048
:1053B00046420021684608F0A3F9FA686846511988
:1053C000221C08F07BF969466B465A1AA24208DA99
:1053D00018780022303809258542524116400133A1
:1053E000F3E700210A22786808F0A8FBFE22031CDC
:1053F000B96800209A4240413040002900D00B702B
:10540000BD4605B0F0BD0000F0B58DB000AF041C86
:105410000D1C052A68D8101C05F00CFA031F252D59
:105420007474081C02220021231CFFF7ABFF022129
:105430000A1C061C631C281CFFF7A4FFA31C0640C3
:1054400004210222281CFFF79DFFF6B20640291C0A
:10545000201CFFF72DFF304044E0231C081C0222D3
:105460000021083304E0231C081C02220021093318
:10547000FFF788FF36E0211C0A316B46281C396093
:105480007B6008F02BFA03268642B641381C0021C7
:105490000C30F96004220171291C08F00FF9002278
:1054A00076429446381C61460C300B5C0025303B3C
:1054B0000922291C9A4269410122944463460E4004
:1054C000042BEFD1291C0A2208F038FB114A396855
:1054D00082426D41031C281C3040002900D06381AA
:1054E0007A68954600280DD1381C002124220C3002
:1054F00008F006F9391C201C0C31232208F0DEF8D4
:10550000002003E0201CFFF725FF0120BD460DB061
:10551000F0BDC046FEFF000038B5041C04300D1C71
:10552000FCF7F8FD226929182A5422690A30130A67
:105530004B70638A8B70E37CCB70A38A0B711B0A60
:105540004B71E38A8B711B0ACB71238B0B721B0A85
:105550004B7238BD38B5041C04300D1CFCF7EEFD51
:105560002A5C291822614B780A301B0213432361FD
:105570008A78120413432361CA7812061343236105
:105580004B790A791B021343A382CB798A791B02D8
:105590001343E3824B7A0A7A1B021343238338BDF9
:1055A00000487047000001000048704717000100E4
:1055B00038B5041C04300D1CFCF7ACFD2269291819
:1055C0002A5422690630130A4B70638A8B70E37C7D
:1055D000CB70A38A0B711B0A4B7138BD38B5041C04
:1055E00004300D1CFCF7AAFD2A5C291822614B78B7
:1055F00006301B02134323618A781204134323618C
:10560000CA781206134323614B790A791B021343AC
:10561000A38238BD00487047380001000048704739
:105620004F00010038B5041C04300D1CFCF772FD5E
:10563000226929182A5422690630130A4B70638A9A
:105640008B70E37CCB70A38A0B711B0A4B7138BD46
:1056500038B5041C04300D1CFCF770FD2A5C2918B9
:1056600022614B7806301B02134323618A781204AF
:1056700013432361CA781206134323614B790A79D5
:105680001B021343A38238BD00487047700001001D
:10569000004870478A000100F0B58C49041C0A6874
:1056A000012085B002400ED1894B8A4D9A601D6061
:1056B000894DDA605D601A619A82DA821A835A83B0
:1056C0009A83DA830860261CFC36756F00270395E1
:1056D0000097BD422CD0306F0A210A30401B05F0E4
:1056E000F7F8231C49012C335B181A1C784908323F
:1056F000082002924018A0CAA0C01869039F086140
:105700009A8AA0688A82DA8A013FCA821A8B0A833F
:105710005A8B4A839A8B8A83DB8B7767CB830028EB
:1057200004D00125FDF746FD009501E00126009615
:105730006A4901200A68024009D1694B694E9A60A2
:105740001E60654EDA605E601A619A820860A1236D
:105750009B00E65800270297BE422AD0A020800076
:10576000231818680A210A30801B05F0B1F81820A8
:105770004143C8225200A01840185949051C08236B
:105780005B18083584CD84C30369A1250B61838A26
:10579000AD008B82013E63191E60BE235B00E058A2
:1057A000002804D00126FDF705FD029601E001273F
:1057B00002974D4901200A6802400BD14B4B4C4ED9
:1057C0009A601E60444EDA605E601A619A82DA82E4
:1057D0001A830860E9239B00E35800270193BB422A
:1057E00029D0E12080002718F8690A210A30C01A60
:1057F00005F06EF81C235943A2229200A3185B18EF
:105800001E1C3A490836082503966D1805CE05C5B5
:105810001D69019E0D619A8A013E8A82DA8ACA82D6
:105820001B8B3E620B83231CFC33D86F002801D0F6
:10583000FDF7C0FC01272F4901200A68024009D169
:105840002D4B2E4E9A601E60234EDA605E601A6108
:105850009A8208602A4BE3580193019E00239E42DE
:1058600027D09322D200EA20A318800025181868B8
:105870000A210A30801B05F02BF81820484328180D
:105880001D49051C0835082303955B1844CD44C306
:1058900003691B4D0B61838A019E8B82013E631954
:1058A0001E60C0235B00E058002801D0FDF782FC99
:1058B0000123009E0120002E06D1029D002D03D160
:1058C000181C002F00D0012005B0F0BD581E00208C
:1058D000941E0020C8FC000048FA0000741F00203D
:1058E0005C1E0020C8FF0000781F0020F01E002072
:1058F000B0FF0000E41E0020781E0020E0FF000042
:105900009C040000F0B5C7B001934CAB1B78041C9D
:1059100002934DAB1B7803934EAB1D7801F038FD1D
:105920005A4BBA214900083366182360291C301CE1
:10593000FFF746F9221C0023FC32D367BE22520037
:10594000A350C0225200A350C2225200A350C4222E
:105950005200A350C6225200A350C8225200A023D6
:105960009B00A118E7180B1C494A081C1A60494AF9
:105970005D1A5A60083000222A50281842601A61C5
:105980009A821833BB42EFD1A12189006318A0216C
:1059900089001A6063181A60A2229200E8239B0013
:1059A000A118E7180B1C3C4A081C1A60394A5D1AFA
:1059B0005A60083000222A50281842601A619A82E0
:1059C000DA821A831C33BB42EDD1E12189006318CE
:1059D0001A62DA619321EA239B00C900E2180919CF
:1059E0008C46131C2D49002519602A49981A5960C4
:1059F000111C0831455041184D601D619D821833BE
:105A00006345EFD1264A9321A318C9001D6063188E
:105A10001D609423DB00301CE550FFF77FFAE66839
:105A2000AE422FD005A901230D7008AA4D7044A8DD
:105A30008D70CB700023136053609360D360183275
:105A40008242F7D168461230FF3044AA02254393C0
:105A5000429313700570437082220123301C5B4215
:105A600052002830459307F029FE301C0199FEF7BB
:105A7000F7FEE06801230593036802991D68039A05
:105A800005ABA847201C47B0F0BDC046F0FF0000A2
:105A9000C8FF000048FA0000B0FF0000E0FF00006F
:105AA0009C04000010B500239A000A4C82181219B9
:105AB0001268002A09D1DA1DFF32920082187D3364
:105AC0005160C8608B60012003E00133192BEBD1DA
:105AD000002010BD1C040000F7B5041C019301F068
:105AE00089FC6068002872D0394901250B68394A61
:105AF0002B4008D1384E93601660384ED360566004
:105B0000136193820D60364D01262968354B314073
:105B10000AD1354F99601F60304FD9605F601961BD
:105B20009982D98219832E60304E012135680D404B
:105B30000AD12F492F4F8D600F60284FCD604F60E5
:105B40000D618D8201213160C42149006350C22161
:105B50004900274D6250C62149006550264901265B
:105B60000F68AC463740254D05D1019E2F610127B6
:105B70002E606A600F60224A012117680F40214998
:105B800005D1089E0F6101270E604B6017601E4A09
:105B9000012317681F401D4B06D1099E1F611E601F
:105BA000012766465E601760221CBE26FC32760026
:105BB000D167A551C0256D006351FFF773FFA1594F
:105BC0006068FFF76FFF60686159FFF76BFFF7BD13
:105BD000901E0020B41E0020C8FF000048FA0000FC
:105BE000501F0020541F0020B0FF0000EC1E0020BA
:105BF000381F0020E0FF0000741E0020CC1E002093
:105C0000201F0020241F0020E01E00200C1F002069
:105C1000F0B5041C806A8FB0002800D1CEE1E068A6
:105C2000002800D1CAE1211C1031FEF74FFF0028E7
:105C300000D1C3E1BA2040002518281CFFF722F844
:105C4000A36A216906901961281C0699FFF7B6F925
:105C5000069E1823F35E834200D0AFE1069E338890
:105C60001B06DB0F099344D0C2235B00E358002BD3
:105C70003FD01A1C211C0832183181C981C2A26A86
:105C8000B18A1769A1223F091F610897A02799824D
:105C9000BF009200A258E61930680A91092191428A
:105CA0009241182184464843C82152424900079234
:105CB000621811180A1C0832083381CB81C2089A75
:105CC0000A9B60460A618B8201300A2104F000FEC3
:105CD0003160A126B600079FA3191A68002F00D1D2
:105CE0000132079E1A60002E03D06068002800D0A1
:105CF00066E1A36A002B00D1C9E01A1C211C0832FE
:105D0000183181C981C2069E092776885E8307966D
:105D1000069EB6889E830896069EF688DE830A96BF
:105D2000069E36899E820B96069E7689DE820C96AA
:105D3000069EB6891E830D96261CFC36316F706F49
:105D40008C464A01211C2C318A188742BF41181CFD
:105D50007F4202920830083205970492039082C86D
:105D600082C21B6902980B9A03610C9F079B0D99D5
:105D70008282C78201834383021C0898171C908388
:105D80000A9A6046FA8301300A2104F0A1FD726F7D
:105D9000059F3167531C002F00D0131C7367059EAD
:105DA000002E03D06068002800D00EE19423DB00B1
:105DB000E05804286BD804F03DFD03181B3D4C004F
:105DC0003621281CFEF736FF864B9022E052120146
:105DD000C0B202433621281CFFF708F8824A6068E7
:105DE0000121FCF761FC012230E00222E2504EE08A
:105DF000606801217D4AFCF757FC069E0698B7882B
:105E00004288F6887F42524212B21A21BFB27642CD
:105E1000281CFEF7EBFFB6B23AB21C21281CFEF795
:105E2000E5FF32B2281C1E21FEF7E0FF0322942377
:105E30009340DBE7012160686D4AFCF735FC694B54
:105E4000281CE25E3621FEF7D1FF04229423DB00FA
:105E5000CCE7684901200E68A26A674B064202D16E
:105E6000176908601F6019681269501AFA218900C1
:105E700088420CD93221281C1A60FEF7DBFE8022F2
:105E80009200424012B2281C3221FEF7AFFF099D5A
:105E9000002D4DD0C4235B00E358002B48D01A1CC2
:105EA000211C08321831C0C9C0C2069DA26AED8902
:105EB000176908959D82069D3F092D8AE922DD829A
:105EC0000A95069D1F616D8A92001D83E120A258EC
:105ED0008000AC460921251891429241E96952425D
:105EE0000992081C1C225043A22292000791A1187B
:105EF0000A18111C0831083341CB41C10A9B08998B
:105F00000798664617619182D382168301300A2171
:105F100004F0DEFC2A6A099FE961531C002F00D0BF
:105F2000131C2B62099D002D02D06068002851D1FE
:105F3000C6235B00E358002B51D01A1C211C0832E9
:105F40001831C0C9C0C29327069DFF00E61930680A
:105F5000ED8A2A4A18279D824743A258EA21AC4677
:105F6000890009259542AD416218D7196D420895FF
:105F70003A1C1D1C0832083509900692079503CD7E
:105F800003C21B69099862463B61BA8201300A214B
:105F900004F09EFC194D3160089E63191A68002EAA
:105FA00000D10132089F1A60002F18D060680028C5
:105FB00015D00221124AFCF777FB10E000200FE019
:105FC0000221104AFCF770FB93E602210E4AFCF70F
:105FD0006BFBEBE602210D4AFCF766FBA8E701200C
:105FE0000FB0F0BDA4040000AB000100C700010029
:105FF000DD000100701F0020E81E00209C0400004E
:106000002A010100F6000100080101001901010048
:1060100083880B70838802201B0A4B7070470B78B3
:1060200083804A7812021343838002207047000065
:1060300000487047C801010000487047D8010100BE
:1060400000487047F901010000487047090201004B
:1060500042680A704268130A4B70C3888B70C37918
:106060000420CB7070470A7842604B781B021343C0
:1060700043608A78120413434360CA7812061343BC
:106080004360042070470000004870472A02010066
:10609000004870473A02010038B5051C0C35041C55
:1060A000281CFFF7E0FFA16963694A10E069CC078B
:1060B00001D58158CB58291C8018984738BD006AF3
:1060C00070470000004870472A02010000487047EE
:1060D0003A02010038B5051C0C35041C281CFFF7DA
:1060E0009EFFA16963694A10E069CC0701D5815818
:1060F000CB58291C8018984738BD006A70470000AB
:1061000000487047C801010000487047D8010100ED
:1061100070B5041C40680D1C08706268130A4B704F
:10612000E3888B70E379CB70A3680B71A068030AD6
:106130004B7163898B71E37ACB71E2680A72E06814
:10614000030A4B72E3898B72E37BCB72206907F001
:10615000C5FB0023061CD900301CEA18C8400133D7
:106160001073042BF7D1281C321C2169103007F062
:10617000A5FA301C103070BDF8B5041C1F1C00239C
:106180008360161C4160E260174A8361C361036249
:10619000436202608362021CF4232C321B189C466B
:1061A000151C124B111C2B60A81A002308316B60C0
:1061B000435041184B600E49296114356545F0D1B3
:1061C000221CF8321360043A13609E420AD0301C3D
:1061D000822206992830520007F070FA301C391CD0
:1061E000FEF73EFB201CF8BDA8010100780101006C
:1061F0000F0C0100F7B5464E01243568019100935C
:1062000025400CD14349444F0D820F60434F8D61AF
:10621000CF60434FC8614F610C628A60346042684E
:10622000002A17D0C168FC310A6400218C00902339
:106230001419DB00E4182468002C08D190246400B1
:106240000D19344CAD006431AC50616002E0013195
:106250001929EBD1334D01262C683349344007D13D
:10626000324F4C608C60CC60314C0F600C612E6002
:106270008162002A4AD02F4D01262F682E4C3740CC
:1062800004D1089B6160236027612E602B4F01259C
:106290003E6884602E400DD129492A4BC8610B60AD
:1062A000294B0098CB60294B0E614B618E610D62CA
:1062B00088603D6000239900254D511849190968EF
:1062C000002908D1D91DFF31890051187D334C6058
:1062D000A360E26002E00133192BECD100239900A6
:1062E00090205118C00009180968002908D1902190
:1062F0004900581812498000643381504B6002E015
:106300000133192BEBD1084B019C1C61F7BDC04632
:10631000D41F0020D81F00206001010048010100A7
:10632000DD630000D01F00207C1F002078010100E9
:106330000F0C0100A41F0020901F0020A81F0020A8
:10634000AC1F0020B801010090010100156400009D
:106350001C04000073B50A780C1C42604B78051CC5
:106360001B02134343608A78120413434360CA78C4
:106370001206134343600A7982604B791B02134370
:1063800083608A79120413438360CA791206134327
:1063900083600A7AC2604B7A1B021343C3608A7A15
:1063A00012041343C360CA7A0C3112061343C3604C
:1063B00001A8FCF759F8019A231C101C1030103367
:1063C000191B814204D21E78591E0E700133F7E763
:1063D000A21800230F34D3732C6176BD30B5041C92
:1063E000C0688FB00D1C002810D0036889889B6896
:1063F00098476368002B09D0AA88054901A807F0CF
:1064000041FA6068012101AAFCF74EF90FB030BDD6
:106410005B02010010B5041CC068002802D0496866
:10642000FEF7C5F96068002803D00121014AFCF796
:106430003BF910BD75020100F7B51E49041C0A683E
:106440000120024008D11C4B1C4D5A609A60DA6052
:106450001B4A1D601A610860261CF836356800204A
:106460000095854224D0231CF43318680A210A3091
:10647000401B04F02DFA14235943271C2C3779189C
:106480004F680D4A0B1C0833082057608018019391
:10649000A0CBA0C0009D0969A368013D11613560D2
:1064A000002B04D0D86899680468236898470120B5
:1064B000FEBDC046FC1F0020002000207801010026
:1064C0000F0C0100F0B5C7B0161C4CAA051C1078C3
:1064D0004DAA14784EAA1278039205AA10700020D3
:1064E00050709470D07008AA44A8002414605460BE
:1064F0009460D46018328242F7D11227FF3701200E
:106500006F44387089277F006F44107038704042A4
:10651000506005AA0092281C321C43944294FFF755
:106520002BFE0A4B039F08332B602B1CFC331F7080
:1065300080235B00EC506B1CFF335C60A64202D0F2
:10654000301CFDF753FD281C47B0F0BDA802010028
:10655000F0B5C26887B0071C002A00D17DE0836ACD
:10656000002B7AD0061CFC367468002C75D09A6813
:10657000651C954271D1D86806F026FF394B384A20
:1065800004F028FA002803D000230295039302E0C8
:1065900002340294039002A803A901F023FCBA6A12
:1065A00004A8083202A901F05DFC049806F0CEFEB2
:1065B000041C05980D1C06F0C9FE2B4A2B4B06F057
:1065C000D7F8021C0B1C201C291C05F04BF900906D
:1065D000B068019106F0F8FE224B214A04F0FAF966
:1065E0007C1C7368FF34002803D0029300230393BC
:1065F00002E001330293039002A803A901F0F2FB29
:10660000221C04A802A901F02DFC049806F09EFEAD
:10661000041C05980D1C06F099FE134A134B06F056
:10662000A7F8021C0B1C201C291C05F01BF9019B60
:10663000041C5A004E0073080D1C00985108221CBF
:1066400004F0C8F9031CF868002B02D0009A019BE3
:1066500001E0221C2B1CFDF7DBFF07B0F0BDC0469C
:106660000000000065CDBD4195D626E80B2E113EF9
:10667000F0B5041CC0688BB0002864D0A16A002962
:1066800061D0261C1036311CFEF720FA00285AD0A3
:10669000A76A631C3A1CFF33083203CA03C3311CC8
:1066A000261C07AD18361031321C281C01F0DAFB0D
:1066B0002E4B2D4A281C01F077FB3B1C083305CEDE
:1066C00005C3381C291C083001F0A0FBA06A23690F
:1066D000D83643603168271CF43709228A42924138
:1066E000396852428C460592142162465143221C5D
:1066F0002C3251184B60031C02910833083101976A
:106700000491039384CB84C10069029B0A21186120
:106710006046013004F0DCF8019F30683960059F65
:106720007B427B41C3183360002F02D06068002891
:106730000BD1231CFC331B780125002B11D0201C0E
:10674000FFF706FF0DE000250BE0094B072107933B
:1067500002232B71074B2A1CAB6003681B68984708
:10676000E7E7281C0BB0F0BD000000000000E03F90
:1067700078FA000094020100426830B50A7044685B
:10678000230A4B70C3888B70C379CB7082680A71FF
:106790008468230A4B7143898B71C37ACB71C268B9
:1067A0000A72C468230A4B72C3898B72C37BCB7293
:1067B00002690A7304691022230A4B73438A8B739C
:1067C000C37CCB730B1C1033841864680432250A15
:1067D0001C705D70250C240E9D70DC7004331C2A27
:1067E000F2D10B1C1C33202284580432250A1C7061
:1067F0005D70250C240E9D70DC700433442AF3D1A7
:10680000436C0A1C40321C0A137054701C0C1B0E83
:106810009470D370836C1C0A137154711C0C1B0E82
:10682000D371031C94714C331C8814721B881B0A8F
:106830005372026D0B1C4A331A70046D4E31220ADA
:106840005A70046D220C9A70046D5430220EDA7066
:1068500003784F200B7030BD70B50A7842604B78DA
:106860001B02134343608A78120413434360CA78BF
:106870001206134343600A7982604B791B0213436B
:1068800083608A79120413438360CA791206134322
:1068900083600A7AC2604B7A1B021343C3608A7A10
:1068A00012041343C360CA7A12061343C3600A7BFF
:1068B00002614B7B1B02134303618A7B1204134367
:1068C0000361CA7B1206134303610B1C10331022B1
:1068D0005E789D7836022D0435431E788418354342
:1068E000DE78043236063543656004331C2AEFD166
:1068F0000B1C1C3320225D789C782D0224042C4331
:106900001D782C43DD7804332D062C43845004324B
:10691000442AF0D10B1C41331A7801331B78120240
:106920001B0413430A1C403212780C1C13430A1C2C
:106930004332127849341206134343640B1C453327
:106940001A7801331B7812021B0413430A1C4432C9
:10695000127813430A1C47321278120613438364D9
:106960000B1C48331A78031C4C331A8024782402F9
:1069700022431A800B1C4A331A78013302651B78B4
:106980001B0213430A1C03654C3212781204134392
:106990000A1C03654D3212784E311206134303650B
:1069A0000B78543003704F2070BD000000487047D2
:1069B000EC02010000487047FC0201000E4B10B5CC
:1069C0000360002343608360C3600361021C0023F3
:1069D000041C43618361C3612032443408C2002136
:1069E000A242FBD1021C00234C324164816413801B
:1069F0000365137210BDC046C0020100F8B5184E01
:106A000001273368041C174D3B4203D1281CFFF7B4
:106A1000D5FF3760A168656000291FD0124A0120A8
:106A20001668124B064004D1114F5D601F601E6155
:106A30001060E360002290000E4C081800190068F6
:106A4000002808D1D01DFF30800008187D32436037
:106A50009A60D96002E00132192AECD1F8BDC04633
:106A6000842000202C20002014200020182000204A
:106A70001D0301001C040000F0B5476893B0061C1C
:106A8000002F00D123E1406F391D002852D1B26F91
:106A9000002A4FD13A1C0C3210A801F0E3F9109BE8
:106AA00011980E930F90181C06F050FC041C0F98C0
:106AB0000D1C06F04BFC894B874A05F059FE021C61
:106AC0000B1C201C291C04F0CDFE06F003FD3067D2
:106AD0000E9804F01BFE06F0ABFC814A814B05F0DA
:106AE00047FE041C0F980D1C04F010FE06F0A0FCDD
:106AF0007D4A7E4B05F03CFE021C0B1C201C291C11
:106B000004F0B0FE06F0E6FC7768FF239B05BB614E
:106B1000774B784AFB61FE239B053B6200237B6237
:106B2000BB62FB627B63BB63FB63734B78613A635D
:106B30003B64C7E0321C743210A801F093F910983E
:106B400006F004FC041C11980D1C06F0FFFB634BBF
:106B5000614A05F00DFE021C0B1C201C291C04F0D0
:106B600081FE06F0B7FC74687864231C4C331888E7
:106B700004F028FE656C6269A369011CE469301C9D
:106B8000283000940190281CFCF7B8F97468E36A77
:106B9000256A616AA26A676C0093206B0E9101906E
:106BA000616B0F920291A26B0392E36B0493206CD2
:106BB000231C4C330590188804F004FE0690B1693C
:106BC0000791F269291C0892336A0E9A0993A06909
:106BD000331C0A90E46934330B940C93381C0F9BDC
:106BE000FCF7AAF9726810A8111D0C3201F03AF9ED
:106BF000109804F08BFD06F01BFC394A394B05F068
:106C0000B7FD041C11980D1C04F080FD06F010FC6B
:106C1000354A364B05F0ACFD0B1C021C291C201C10
:106C200004F020FE06F056FC321C011CB0655C32FC
:106C3000B06AFCF727FA321C706B716A6032FCF79D
:106C40002AFA331C64330093706B316CF26C336E30
:106C5000FCF72CFAB16A0091F26A0192336B02934D
:106C6000736814330393706EB16EF26EF36DFCF7BC
:106C700031FAB06B0090F16B0191326C0292736C3F
:106C80000393B06C0490F16C0591326D0692736DB4
:106C90000793736820330893F26EB16E706E736B56
:106CA000FCF735FA7468231C4C33188804F02EFD69
:106CB000124904F071FAA16904F098FBE16904F04B
:106CC0006BFAA06473687436043303CB03C613B045
:106CD000F0BDC046C046C04695D626E80B2E113EF4
:106CE0000000000080842E41FCA9F1D24D62503F8B
:106CF0000000C0400AD7233BEC51B83C0D68533B21
:106D000070B5446896B0051C002C2BD06846FFF780
:106D100055FE231D01AA03CA03C303AA41CA41C3E6
:106D200005AA43CA43C308AA43CA43C343CA43C3C9
:106D300043CA43C311996164129B149EA36413ABAD
:106D40001A88231C4C331A80266515AB1B785434E3
:106D500023706B68D2211A1C4C32FF3111805433DE
:106D600000221A7000236B67AB6716B070BD00007D
:106D7000F0B5444B444E03600023041C4360816023
:106D8000C36030680127C3B0404D384203D1281C8E
:106D9000FCF76EFF376000233D49221C63612561CB
:106DA000183261C961C23B4A63676262002222678E
:106DB000221C7C32A3671370D3601361536193610B
:106DC000354B0122197811431970344B19780A4355
:106DD0001A70334AD379DB09FBD1137801210B43B5
:106DE0001370D1792E4BC909FBD15978402001434A
:106DF000597059780120014359701889D221FF3107
:106E000001431981D179264BC909FBD11978022098
:106E100001431970D379DB09FCD12569002D24D0F9
:106E200001A90B704B708B700123CB7040A804AB91
:106E300000221A605A609A60DA6018338342F7D1F0
:106E400068460230FF30027042703F923E921A70E4
:106E5000012252425A60A2225200A81882225200F5
:106E600006F02CFC281CFCF78BFEA368002B02D03C
:106E70002269FC321364201CFFF742FF201C43B040
:106E8000F0BDC046D802010084070020E0020020C7
:106E9000E002010017B7D13B3144004142440041B8
:106EA0000048004200000000F0B5056FC5B0041CAA
:106EB0000021281C03F0DCFD002805D0FE21281C41
:106EC000890503F0D5FD03E0281C434903F0BCFD10
:106ED000431E9841002825D0404E01273368404D7D
:106EE0003B4203D1281CFCF78DFA37606368281CED
:106EF000D968FCF7C1FA636804ADDA68281C1B691D
:106F0000384906F0BFFC384B01AA0193A068012361
:106F10001371036895601B6807219847201CFFF7D1
:106F2000EFFE50E065680021686C03F0A1FD0028C9
:106F300049D02E49A86904F02FF9061C686906F0AB
:106F400077FA244B224A05F013FC06F0C3FA011C21
:106F5000301C04F04BFA2649061C03F075FD00288E
:106F600007D1301C234903F083FD002802D0214EB5
:106F700000E01F4E301C03F037FC03F08DFD4C3554
:106F800080B228801C4BDA79D209FBD11881DA79DA
:106F9000D209FCD16568FE216B698905580040085B
:106FA00003F052FD7C34002805D023783C2B03D01D
:106FB0000133237000E0207023783B229A429B41EA
:106FC0005B4254352B7045B0F0BDC046C046C0464C
:106FD0002D54A3FC49A90840000080BF9007002061
:106FE0006C0100202703010078FA000000009B4399
:106FF00000001B4300C0414400480042C046C04658
:1070000038B5041C406903283ED803F013FC021A6B
:107010002830206900283AD06368002B37D0211C23
:107020008031FDF775F9002831D06168221C883263
:107030000B1D21CA21C3231DDB6F0B650123636177
:1070400025E02368201C1B689847031C0020012BA7
:1070500002D1022363611BE0022B19D115E0201C31
:10706000FFF70AFD201CFFF71FFF032309E0E36879
:10707000002B05D0D8689968026813686268984741
:1070800000236361012003E00020606100E0002034
:1070900038BD0000F8B5041C171C1E1CFFF768FE65
:1070A0000B4B251C08339835201C23609C302F6027
:1070B000FDF7D6FF231C2868FC330022DA629042D9
:1070C00003D00368311CDB699847201CF8BDC0461B
:1070D0004803010000000000F0B5071CFC37061C47
:1070E000F86ACFB0032800D9A7E003F0A3FB02A6FB
:1070F000A6967268002A00D1A1E0FBF76FF8011C88
:107100000AA8FCF7FBF972680CA804320AA900F07F
:10711000A9FE0C9806F01AF9041C0D980D1C06F037
:1071200015F9924B904A05F023FB021C0B1C201C06
:10713000291C04F097FB04900591FBF74FF8071CFE
:10714000C06906F003F9041C386A0D1C06F0FEF84D
:10715000864B854A05F00CFB021C0B1C201C291CCD
:1071600004F080FB051C2A1C80250C1C2D060498AD
:107170000599631903F02EFC002807D1049805999E
:107180007B4A7C4B03F03AFC00283CD0B268002AD2
:1071900037D00A9806F018F9069007910B9806F078
:1071A00013F9724B704A05F0E3FA021C0B1C0698A7
:1071B000079904F057FB746806900791606806F021
:1071C00003F908900991A06806F0FEF8674B664A3B
:1071D00005F0CEFA021C0B1C0898099904F042FB3A
:1071E000049C059D069A079B0090019102940395CB
:1071F00063490EA806F046FBB06802210EAAFBF711
:1072000053FA022215E05C4A5C4B0498059903F09E
:10721000F5FB032200280CD111E0341C98342068BF
:10722000002810D003681B699847002838D10AE06D
:107230000122331CFC33DA6201E00023FB62FC36DE
:10724000F06A4FB0F0BDFAF7C9FF011C0CA8FCF7BB
:1072500055F972680EA804320CA900F003FE0E98CE
:1072600006F074F8041C0F980D1C06F06FF83F4BE5
:107270003D4A05F07DFA021C0B1C201C291C04F061
:10728000F1FA3B4A3B4B03F0B9FB0028D7D0B0687A
:10729000002803D003213B4AFBF706FA0223CDE77F
:1072A0002068351C03689C3504955B699847C1B21A
:1072B0000498FDF7ABFF0028C1D1FD68002DBED1B9
:1072C000206803681B69984701281BDDB268002A03
:1072D0000DD0206803681B6998472B49021C0EA833
:1072E00006F0D0FAB06802210EAAFBF7DDF920689B
:1072F00003681B6998470028D0D0206803685B6941
:107300009847F4E7301CFF304479331CFE33198A68
:10731000827B437B009484790194C07902900CA80D
:1073200000F07EFE7768002F0CD00CA800F090FED5
:107330000EAC0E900FA9201C0C370F9500F052FDDB
:1073400024CC24C7341C9834206803681B699847F0
:10735000002800D16CE7206803685B699847C1B2D8
:107360000498FDF753FFEDE795D626E80B2E113E66
:107370009A9999999999E93F9A9999999999C93FAF
:1073800058030100EC030100A1030100C046C04600
:10739000002341608360C2608361C3610362436212
:1073A000114A8362011CB6235B002C3170B5026068
:1073B000C6180B1C0D4A0C1C1A600D4A5D1A5A6047
:1073C000083400222A512C1962601A619A82DA82EA
:1073D0001A835A839A83DA832033B342EAD1031C97
:1073E000FC335A671A6770BD20040100C8FC000016
:1073F00048FA0000F0B5314E0124356825400CD123
:107400002F4B304F1D821F602F4F9D61DF602F4F2C
:10741000D8615F611C62996034604468002C4BD075
:10742000C368FC331C640023990090256118ED00AB
:1074300049190968002908D1902149005D1820499F
:10744000AD00643329514B6002E00133192BEBD1BD
:107450001F4D012629681F4B31400DD11E4F9960E9
:107460001F601E4FD9605F6019619982D9821983AC
:1074700059839983D9832E60194D01262F68836221
:107480003740184903D10A604B600F612E6081605C
:1074900000239A00144DA21852191268002A08D12C
:1074A000DA1DFF329200A2187D3351608B60CC60F0
:1074B00002E00133192BECD1F0BDC046AC20002016
:1074C000882000206001010048010100DD63000008
:1074D000B0200020B8200020C8FC000048FA0000BE
:1074E000B4200020D82000201C04000038B5041C63
:1074F00004300D1CFAF70EFE226929182A5422695D
:107500000730130A4B70638A8B70E37CCB70A38ABD
:107510000B71A38A1B0A4B71A37D8B7138BD38B5E3
:10752000041C04300D1CFAF709FE2A5C291822619C
:107530004B7807301B02134323618A7812041343EC
:107540002361CA781206134323610B79A3824A7917
:1075500012021343A3828B79A37538BD004870478C
:10756000400401000048704758040100F7B51F4966
:10757000041C0A68012002400AD11D4B1D4D9A606F
:107580001D601D4DDA605D601A619A829A7508600F
:10759000251CFC35AE6A00200096864224D0686A1D
:1075A0000A210A30801B03F093F918235943271C42
:1075B000303779180E4A081C083008270190BF1888
:1075C00048C848C70F69009E17618B8A013E9382A5
:1075D0008B7DAE629375A368002B04D0D868996840
:1075E0000468236898470120FEBDC046082100209A
:1075F0004C2100203004010048FA000008B503685F
:10760000C9B21B68984708BDF0B5324E01243568F1
:1076100025400CD1304B314F1D821F60304F9D6192
:10762000DF60304FD8615F611C62996034604168EF
:10763000002943D0C368FC33196400239C009025C3
:107640000C19ED0064192468002C08D19024640002
:107650001D19214CAD0064336C50636002E00133AE
:10766000192BEBD1204D01262C68204B344009D139
:107670001F4F9C601F601F4FDC605F601C619C821D
:107680009C752E601C4D01262F68C36237401B4C31
:1076900003D12260636027612E60846000239A001A
:1076A000174D8A1852191268002A0DD1DA1DFF32BF
:1076B00092008A187D335460A360E160C36A002B96
:1076C00006D01B69836203E00133192BE7D1F5E78C
:1076D000F0BDC046342100200C21002060010100D3
:1076E00048010100DD630000EC200020F0200020B4
:1076F0003004010048FA0000302100203821002029
:107700001C040000F8B51A4C071C0D1C201C62213B
:1077100000F03EFD8E21201CFFF770FF201C012190
:1077200000F0AFFD061E06D07868002803D00221C5
:10773000104AFAF7B9FF201C62210322012300F04E
:1077400040FD002D0FD0201C00F0D4FDA875201C9A
:1077500000F0D0FD071C201C00F0CCFDFFB23F0262
:10776000C0B2C719AF8270427041C0B2F8BDC04606
:10777000CC2100207904010070B5144C6221061C54
:10778000201C00F005FD0121201CFFF737FF201C05
:10779000012100F076FD051E06D07068002803D098
:1077A00002210B4AFAF780FF0122131C6221201CE0
:1077B00000F007FD201C00F09DFD021C002085420A
:1077C00002D10123101C184070BDC046CC210020FE
:1077D0009F040100F7B5041CC068002808D0E16AC6
:1077E000002905D0211C1031FDF770F900280CD1BB
:1077F000E36A002B13D01B69A26A9A420FD0201CA7
:10780000FFF7BAFF00280AD10BE0E16A221C0B1C2B
:107810000833183221CA21C326690E61E8E7002027
:107820003EE0201CE16AFFF76DFF00282ED0251CEA
:10783000FC35AB6A09269E42B641764200966E6AD6
:1078400018237343E26A211C3031101CCB18083016
:1078500008270190FF1842C842C717691F61918A23
:107860009982927D0A219A75686A013003F030F896
:10787000AA6A009E6962531C002E00D0131C009F50
:10788000AB62002F02D06068002804D1E36A0120B7
:107890001B69A36204E00221024AFAF705FFF5E73B
:1078A000FEBDC046C804010070B50A4C0E1C201C69
:1078B0006221151C00F06CFC311C201C00F0BCFC8B
:1078C000291C201C00F0B8FC201C012100F0D9FC70
:1078D00070BDC046CC210020F0B5C260324A1E1CEB
:1078E00008320023416083608361C36103624362A5
:1078F0000260C3620122011C9023524230315B00BE
:107900008262C3B0041CC7180A1C284B081C1360F1
:10791000274B551A5360083000232B50281843601A
:107920001361938293751832BA42EED1221CE56836
:10793000FC32936253629D4225D001A901220A7054
:1079400040A84B708B70CA7004AA00231360536068
:107950009360D36018328242F7D168460230FF301C
:107960001370037043703F933E9301235B42536057
:10797000281C82225200283005F0A0FE281C311C51
:107980002822FCF785FF0B4D281C00F0D3FB281C98
:10799000094900F0EFFB0021201C0A1CFFF784FFBF
:1079A000201C43B0F0BDC046E004010030040100DB
:1079B00048FA0000CC210020801A060038B5041CCB
:1079C00004300D1CFAF7A6FB226929182A542269F3
:1079D0000730130A4B70638A8B70E37CCB70A38AE9
:1079E0000B71A38A1B0A4B71A37D8B7138BD38B50F
:1079F000041C04300D1CFAF7A1FB2A5C2918226133
:107A00004B7807301B02134323618A781204134317
:107A10002361CA781206134323610B79A3824A7942
:107A200012021343A3828B79A37538BD00487047B7
:107A300008050100004870471B050100F8B5002348
:107A4000041C436083600160271C0C30FC37031C5E
:107A50001149051C196011491E1A59600835002189
:107A60007151751969601961998299751833BB4212
:107A7000EED1FF256019596019609A60013885724E
:107A8000818119618A4205D01368E121DB69101CEC
:107A900049029847201CF8BDF804010048FA00008C
:107AA000F0B50468002C2FD0184D01262A68184B19
:107AB000324009D1174F9A601F60174FDA605F603C
:107AC0001A619A829A752E60144D01262F68836080
:107AD0003740134A03D11160536017612E60426032
